{
	"contracts/NFTMarketplace.sol": {
		"NFTMarketplace": {
			"abi": [
				{
					"inputs": [
						{
							"internalType": "address",
							"name": "wrapToken",
							"type": "address"
						},
						{
							"internalType": "uint256",
							"name": "feePercentage",
							"type": "uint256"
						},
						{
							"internalType": "address payable",
							"name": "feeDestinationAddress",
							"type": "address"
						}
					],
					"stateMutability": "nonpayable",
					"type": "constructor"
				},
				{
					"anonymous": false,
					"inputs": [
						{
							"indexed": true,
							"internalType": "address",
							"name": "previousOwner",
							"type": "address"
						},
						{
							"indexed": true,
							"internalType": "address",
							"name": "newOwner",
							"type": "address"
						}
					],
					"name": "OwnershipTransferred",
					"type": "event"
				},
				{
					"inputs": [],
					"name": "_feeDestinationAddress",
					"outputs": [
						{
							"internalType": "address payable",
							"name": "",
							"type": "address"
						}
					],
					"stateMutability": "view",
					"type": "function"
				},
				{
					"inputs": [],
					"name": "_feePercentage",
					"outputs": [
						{
							"internalType": "uint256",
							"name": "",
							"type": "uint256"
						}
					],
					"stateMutability": "view",
					"type": "function"
				},
				{
					"inputs": [],
					"name": "_wrapToken",
					"outputs": [
						{
							"internalType": "contract IERC20",
							"name": "",
							"type": "address"
						}
					],
					"stateMutability": "view",
					"type": "function"
				},
				{
					"inputs": [
						{
							"internalType": "address",
							"name": "nftContractId",
							"type": "address"
						},
						{
							"internalType": "uint256",
							"name": "tokenId",
							"type": "uint256"
						}
					],
					"name": "cancel",
					"outputs": [],
					"stateMutability": "nonpayable",
					"type": "function"
				},
				{
					"inputs": [
						{
							"internalType": "address",
							"name": "nftContractId",
							"type": "address"
						},
						{
							"internalType": "uint256",
							"name": "tokenId",
							"type": "uint256"
						},
						{
							"internalType": "uint256",
							"name": "price",
							"type": "uint256"
						},
						{
							"internalType": "address",
							"name": "buyerAccount",
							"type": "address"
						}
					],
					"name": "closeMarketForAuctionType",
					"outputs": [],
					"stateMutability": "nonpayable",
					"type": "function"
				},
				{
					"inputs": [
						{
							"internalType": "address",
							"name": "nftContractId",
							"type": "address"
						},
						{
							"internalType": "uint256",
							"name": "tokenId",
							"type": "uint256"
						}
					],
					"name": "closeMarketForFixedType",
					"outputs": [],
					"stateMutability": "payable",
					"type": "function"
				},
				{
					"inputs": [
						{
							"internalType": "address",
							"name": "nftContractId",
							"type": "address"
						},
						{
							"internalType": "uint256",
							"name": "tokenId",
							"type": "uint256"
						}
					],
					"name": "getMarketObj",
					"outputs": [
						{
							"components": [
								{
									"internalType": "address",
									"name": "contractAddress",
									"type": "address"
								},
								{
									"internalType": "uint256",
									"name": "tokenId",
									"type": "uint256"
								},
								{
									"internalType": "enum NFTMarketplace.EOrderType",
									"name": "orderType",
									"type": "uint8"
								},
								{
									"internalType": "enum NFTMarketplace.EOrderStatus",
									"name": "orderStatus",
									"type": "uint8"
								},
								{
									"internalType": "uint256",
									"name": "askAmount",
									"type": "uint256"
								},
								{
									"internalType": "uint256",
									"name": "maxAskAmount",
									"type": "uint256"
								},
								{
									"internalType": "address payable",
									"name": "currentOwner",
									"type": "address"
								},
								{
									"internalType": "address",
									"name": "newOwner",
									"type": "address"
								}
							],
							"internalType": "struct NFTMarketplace.Market",
							"name": "",
							"type": "tuple"
						}
					],
					"stateMutability": "view",
					"type": "function"
				},
				{
					"inputs": [
						{
							"internalType": "bytes32",
							"name": "",
							"type": "bytes32"
						}
					],
					"name": "markets",
					"outputs": [
						{
							"internalType": "address",
							"name": "contractAddress",
							"type": "address"
						},
						{
							"internalType": "uint256",
							"name": "tokenId",
							"type": "uint256"
						},
						{
							"internalType": "enum NFTMarketplace.EOrderType",
							"name": "orderType",
							"type": "uint8"
						},
						{
							"internalType": "enum NFTMarketplace.EOrderStatus",
							"name": "orderStatus",
							"type": "uint8"
						},
						{
							"internalType": "uint256",
							"name": "askAmount",
							"type": "uint256"
						},
						{
							"internalType": "uint256",
							"name": "maxAskAmount",
							"type": "uint256"
						},
						{
							"internalType": "address payable",
							"name": "currentOwner",
							"type": "address"
						},
						{
							"internalType": "address",
							"name": "newOwner",
							"type": "address"
						}
					],
					"stateMutability": "view",
					"type": "function"
				},
				{
					"inputs": [
						{
							"internalType": "address",
							"name": "nftContractId",
							"type": "address"
						},
						{
							"internalType": "uint256",
							"name": "tokenId",
							"type": "uint256"
						},
						{
							"internalType": "uint256",
							"name": "price",
							"type": "uint256"
						},
						{
							"internalType": "uint256",
							"name": "maxPrice",
							"type": "uint256"
						}
					],
					"name": "openMarketForAuctionType",
					"outputs": [],
					"stateMutability": "nonpayable",
					"type": "function"
				},
				{
					"inputs": [
						{
							"internalType": "address",
							"name": "nftContractId",
							"type": "address"
						},
						{
							"internalType": "uint256",
							"name": "tokenId",
							"type": "uint256"
						},
						{
							"internalType": "uint256",
							"name": "price",
							"type": "uint256"
						}
					],
					"name": "openMarketForFixedType",
					"outputs": [],
					"stateMutability": "nonpayable",
					"type": "function"
				},
				{
					"inputs": [],
					"name": "owner",
					"outputs": [
						{
							"internalType": "address",
							"name": "",
							"type": "address"
						}
					],
					"stateMutability": "view",
					"type": "function"
				},
				{
					"inputs": [],
					"name": "renounceOwnership",
					"outputs": [],
					"stateMutability": "nonpayable",
					"type": "function"
				},
				{
					"inputs": [
						{
							"internalType": "address payable",
							"name": "value",
							"type": "address"
						}
					],
					"name": "setFeeDestinationAddress",
					"outputs": [],
					"stateMutability": "nonpayable",
					"type": "function"
				},
				{
					"inputs": [
						{
							"internalType": "uint256",
							"name": "value",
							"type": "uint256"
						}
					],
					"name": "setFeePercentage",
					"outputs": [],
					"stateMutability": "nonpayable",
					"type": "function"
				},
				{
					"inputs": [
						{
							"internalType": "address",
							"name": "newOwner",
							"type": "address"
						}
					],
					"name": "transferOwnership",
					"outputs": [],
					"stateMutability": "nonpayable",
					"type": "function"
				}
			],
			"devdoc": {
				"kind": "dev",
				"methods": {},
				"version": 1
			},
			"evm": {
				"assembly": "    /* \"contracts/NFTMarketplace.sol\":193:7184  contract NFTMarketplace is Ownable {\r... */\n  mstore(0x40, 0x80)\n    /* \"contracts/NFTMarketplace.sol\":844:1109  constructor(address wrapToken,\r... */\n  callvalue\n  dup1\n  iszero\n  tag_1\n  jumpi\n  0x00\n  dup1\n  revert\ntag_1:\n  pop\n  mload(0x40)\n  sub(codesize, bytecodeSize)\n  dup1\n  bytecodeSize\n  dup4\n  codecopy\n  dup2\n  dup2\n  add\n  0x40\n  mstore\n  dup2\n  add\n  swap1\n  tag_2\n  swap2\n  swap1\n  tag_3\n  jump\t// in\ntag_2:\n    /* \"contracts/Ownable.sol\":1064:1074  msg.sender */\n  caller\n    /* \"contracts/Ownable.sol\":1055:1061  _owner */\n  0x00\n  dup1\n    /* \"contracts/Ownable.sol\":1055:1074  _owner = msg.sender */\n  0x0100\n  exp\n  dup2\n  sload\n  dup2\n  0xffffffffffffffffffffffffffffffffffffffff\n  mul\n  not\n  and\n  swap1\n  dup4\n  0xffffffffffffffffffffffffffffffffffffffff\n  and\n  mul\n  or\n  swap1\n  sstore\n  pop\n    /* \"contracts/Ownable.sol\":1123:1129  _owner */\n  0x00\n  dup1\n  sload\n  swap1\n  0x0100\n  exp\n  swap1\n  div\n  0xffffffffffffffffffffffffffffffffffffffff\n  and\n    /* \"contracts/Ownable.sol\":1090:1130  OwnershipTransferred(address(0), _owner) */\n  0xffffffffffffffffffffffffffffffffffffffff\n  and\n    /* \"contracts/Ownable.sol\":1119:1120  0 */\n  0x00\n    /* \"contracts/Ownable.sol\":1090:1130  OwnershipTransferred(address(0), _owner) */\n  0xffffffffffffffffffffffffffffffffffffffff\n  and\n  0x8be0079c531659141344cd1fd0a4f28419497f9722a3daafe3b4186f6b6457e0\n  mload(0x40)\n  mload(0x40)\n  dup1\n  swap2\n  sub\n  swap1\n  log3\n    /* \"contracts/NFTMarketplace.sol\":998:1011  feePercentage */\n  dup2\n    /* \"contracts/NFTMarketplace.sol\":981:995  _feePercentage */\n  0x02\n    /* \"contracts/NFTMarketplace.sol\":981:1011  _feePercentage = feePercentage */\n  dup2\n  swap1\n  sstore\n  pop\n    /* \"contracts/NFTMarketplace.sol\":1047:1068  feeDestinationAddress */\n  dup1\n    /* \"contracts/NFTMarketplace.sol\":1022:1044  _feeDestinationAddress */\n  0x03\n  0x00\n    /* \"contracts/NFTMarketplace.sol\":1022:1068  _feeDestinationAddress = feeDestinationAddress */\n  0x0100\n  exp\n  dup2\n  sload\n  dup2\n  0xffffffffffffffffffffffffffffffffffffffff\n  mul\n  not\n  and\n  swap1\n  dup4\n  0xffffffffffffffffffffffffffffffffffffffff\n  and\n  mul\n  or\n  swap1\n  sstore\n  pop\n    /* \"contracts/NFTMarketplace.sol\":1095:1104  wrapToken */\n  dup3\n    /* \"contracts/NFTMarketplace.sol\":1075:1085  _wrapToken */\n  0x01\n  0x00\n    /* \"contracts/NFTMarketplace.sol\":1075:1105  _wrapToken = IERC20(wrapToken) */\n  0x0100\n  exp\n  dup2\n  sload\n  dup2\n  0xffffffffffffffffffffffffffffffffffffffff\n  mul\n  not\n  and\n  swap1\n  dup4\n  0xffffffffffffffffffffffffffffffffffffffff\n  and\n  mul\n  or\n  swap1\n  sstore\n  pop\n    /* \"contracts/NFTMarketplace.sol\":844:1109  constructor(address wrapToken,\r... */\n  pop\n  pop\n  pop\n    /* \"contracts/NFTMarketplace.sol\":193:7184  contract NFTMarketplace is Ownable {\r... */\n  jump(tag_8)\n    /* \"#utility.yul\":7:150   */\ntag_10:\n    /* \"#utility.yul\":64:69   */\n  0x00\n    /* \"#utility.yul\":95:101   */\n  dup2\n    /* \"#utility.yul\":89:102   */\n  mload\n    /* \"#utility.yul\":80:102   */\n  swap1\n  pop\n    /* \"#utility.yul\":111:144   */\n  tag_12\n    /* \"#utility.yul\":138:143   */\n  dup2\n    /* \"#utility.yul\":111:144   */\n  tag_13\n  jump\t// in\ntag_12:\n    /* \"#utility.yul\":70:150   */\n  swap3\n  swap2\n  pop\n  pop\n  jump\t// out\n    /* \"#utility.yul\":156:315   */\ntag_14:\n    /* \"#utility.yul\":221:226   */\n  0x00\n    /* \"#utility.yul\":252:258   */\n  dup2\n    /* \"#utility.yul\":246:259   */\n  mload\n    /* \"#utility.yul\":237:259   */\n  swap1\n  pop\n    /* \"#utility.yul\":268:309   */\n  tag_16\n    /* \"#utility.yul\":303:308   */\n  dup2\n    /* \"#utility.yul\":268:309   */\n  tag_17\n  jump\t// in\ntag_16:\n    /* \"#utility.yul\":227:315   */\n  swap3\n  swap2\n  pop\n  pop\n  jump\t// out\n    /* \"#utility.yul\":321:464   */\ntag_18:\n    /* \"#utility.yul\":378:383   */\n  0x00\n    /* \"#utility.yul\":409:415   */\n  dup2\n    /* \"#utility.yul\":403:416   */\n  mload\n    /* \"#utility.yul\":394:416   */\n  swap1\n  pop\n    /* \"#utility.yul\":425:458   */\n  tag_20\n    /* \"#utility.yul\":452:457   */\n  dup2\n    /* \"#utility.yul\":425:458   */\n  tag_21\n  jump\t// in\ntag_20:\n    /* \"#utility.yul\":384:464   */\n  swap3\n  swap2\n  pop\n  pop\n  jump\t// out\n    /* \"#utility.yul\":470:1082   */\ntag_3:\n    /* \"#utility.yul\":566:572   */\n  0x00\n    /* \"#utility.yul\":574:580   */\n  dup1\n    /* \"#utility.yul\":582:588   */\n  0x00\n    /* \"#utility.yul\":631:633   */\n  0x60\n    /* \"#utility.yul\":619:628   */\n  dup5\n    /* \"#utility.yul\":610:617   */\n  dup7\n    /* \"#utility.yul\":606:629   */\n  sub\n    /* \"#utility.yul\":602:634   */\n  slt\n    /* \"#utility.yul\":599:601   */\n  iszero\n  tag_23\n  jumpi\n    /* \"#utility.yul\":647:648   */\n  0x00\n    /* \"#utility.yul\":644:645   */\n  dup1\n    /* \"#utility.yul\":637:649   */\n  revert\n    /* \"#utility.yul\":599:601   */\ntag_23:\n    /* \"#utility.yul\":690:691   */\n  0x00\n    /* \"#utility.yul\":715:779   */\n  tag_24\n    /* \"#utility.yul\":771:778   */\n  dup7\n    /* \"#utility.yul\":762:768   */\n  dup3\n    /* \"#utility.yul\":751:760   */\n  dup8\n    /* \"#utility.yul\":747:769   */\n  add\n    /* \"#utility.yul\":715:779   */\n  tag_10\n  jump\t// in\ntag_24:\n    /* \"#utility.yul\":705:779   */\n  swap4\n  pop\n    /* \"#utility.yul\":661:789   */\n  pop\n    /* \"#utility.yul\":828:830   */\n  0x20\n    /* \"#utility.yul\":854:918   */\n  tag_25\n    /* \"#utility.yul\":910:917   */\n  dup7\n    /* \"#utility.yul\":901:907   */\n  dup3\n    /* \"#utility.yul\":890:899   */\n  dup8\n    /* \"#utility.yul\":886:908   */\n  add\n    /* \"#utility.yul\":854:918   */\n  tag_18\n  jump\t// in\ntag_25:\n    /* \"#utility.yul\":844:918   */\n  swap3\n  pop\n    /* \"#utility.yul\":799:928   */\n  pop\n    /* \"#utility.yul\":967:969   */\n  0x40\n    /* \"#utility.yul\":993:1065   */\n  tag_26\n    /* \"#utility.yul\":1057:1064   */\n  dup7\n    /* \"#utility.yul\":1048:1054   */\n  dup3\n    /* \"#utility.yul\":1037:1046   */\n  dup8\n    /* \"#utility.yul\":1033:1055   */\n  add\n    /* \"#utility.yul\":993:1065   */\n  tag_14\n  jump\t// in\ntag_26:\n    /* \"#utility.yul\":983:1065   */\n  swap2\n  pop\n    /* \"#utility.yul\":938:1075   */\n  pop\n    /* \"#utility.yul\":589:1082   */\n  swap3\n  pop\n  swap3\n  pop\n  swap3\n  jump\t// out\n    /* \"#utility.yul\":1088:1184   */\ntag_27:\n    /* \"#utility.yul\":1125:1132   */\n  0x00\n    /* \"#utility.yul\":1154:1178   */\n  tag_29\n    /* \"#utility.yul\":1172:1177   */\n  dup3\n    /* \"#utility.yul\":1154:1178   */\n  tag_30\n  jump\t// in\ntag_29:\n    /* \"#utility.yul\":1143:1178   */\n  swap1\n  pop\n    /* \"#utility.yul\":1133:1184   */\n  swap2\n  swap1\n  pop\n  jump\t// out\n    /* \"#utility.yul\":1190:1294   */\ntag_31:\n    /* \"#utility.yul\":1235:1242   */\n  0x00\n    /* \"#utility.yul\":1264:1288   */\n  tag_33\n    /* \"#utility.yul\":1282:1287   */\n  dup3\n    /* \"#utility.yul\":1264:1288   */\n  tag_30\n  jump\t// in\ntag_33:\n    /* \"#utility.yul\":1253:1288   */\n  swap1\n  pop\n    /* \"#utility.yul\":1243:1294   */\n  swap2\n  swap1\n  pop\n  jump\t// out\n    /* \"#utility.yul\":1300:1426   */\ntag_30:\n    /* \"#utility.yul\":1337:1344   */\n  0x00\n    /* \"#utility.yul\":1377:1419   */\n  0xffffffffffffffffffffffffffffffffffffffff\n    /* \"#utility.yul\":1370:1375   */\n  dup3\n    /* \"#utility.yul\":1366:1420   */\n  and\n    /* \"#utility.yul\":1355:1420   */\n  swap1\n  pop\n    /* \"#utility.yul\":1345:1426   */\n  swap2\n  swap1\n  pop\n  jump\t// out\n    /* \"#utility.yul\":1432:1509   */\ntag_35:\n    /* \"#utility.yul\":1469:1476   */\n  0x00\n    /* \"#utility.yul\":1498:1503   */\n  dup2\n    /* \"#utility.yul\":1487:1503   */\n  swap1\n  pop\n    /* \"#utility.yul\":1477:1509   */\n  swap2\n  swap1\n  pop\n  jump\t// out\n    /* \"#utility.yul\":1515:1637   */\ntag_13:\n    /* \"#utility.yul\":1588:1612   */\n  tag_38\n    /* \"#utility.yul\":1606:1611   */\n  dup2\n    /* \"#utility.yul\":1588:1612   */\n  tag_27\n  jump\t// in\ntag_38:\n    /* \"#utility.yul\":1581:1586   */\n  dup2\n    /* \"#utility.yul\":1578:1613   */\n  eq\n    /* \"#utility.yul\":1568:1570   */\n  tag_39\n  jumpi\n    /* \"#utility.yul\":1627:1628   */\n  0x00\n    /* \"#utility.yul\":1624:1625   */\n  dup1\n    /* \"#utility.yul\":1617:1629   */\n  revert\n    /* \"#utility.yul\":1568:1570   */\ntag_39:\n    /* \"#utility.yul\":1558:1637   */\n  pop\n  jump\t// out\n    /* \"#utility.yul\":1643:1781   */\ntag_17:\n    /* \"#utility.yul\":1724:1756   */\n  tag_41\n    /* \"#utility.yul\":1750:1755   */\n  dup2\n    /* \"#utility.yul\":1724:1756   */\n  tag_31\n  jump\t// in\ntag_41:\n    /* \"#utility.yul\":1717:1722   */\n  dup2\n    /* \"#utility.yul\":1714:1757   */\n  eq\n    /* \"#utility.yul\":1704:1706   */\n  tag_42\n  jumpi\n    /* \"#utility.yul\":1771:1772   */\n  0x00\n    /* \"#utility.yul\":1768:1769   */\n  dup1\n    /* \"#utility.yul\":1761:1773   */\n  revert\n    /* \"#utility.yul\":1704:1706   */\ntag_42:\n    /* \"#utility.yul\":1694:1781   */\n  pop\n  jump\t// out\n    /* \"#utility.yul\":1787:1909   */\ntag_21:\n    /* \"#utility.yul\":1860:1884   */\n  tag_44\n    /* \"#utility.yul\":1878:1883   */\n  dup2\n    /* \"#utility.yul\":1860:1884   */\n  tag_35\n  jump\t// in\ntag_44:\n    /* \"#utility.yul\":1853:1858   */\n  dup2\n    /* \"#utility.yul\":1850:1885   */\n  eq\n    /* \"#utility.yul\":1840:1842   */\n  tag_45\n  jumpi\n    /* \"#utility.yul\":1899:1900   */\n  0x00\n    /* \"#utility.yul\":1896:1897   */\n  dup1\n    /* \"#utility.yul\":1889:1901   */\n  revert\n    /* \"#utility.yul\":1840:1842   */\ntag_45:\n    /* \"#utility.yul\":1830:1909   */\n  pop\n  jump\t// out\n    /* \"contracts/NFTMarketplace.sol\":193:7184  contract NFTMarketplace is Ownable {\r... */\ntag_8:\n  dataSize(sub_0)\n  dup1\n  dataOffset(sub_0)\n  0x00\n  codecopy\n  0x00\n  return\nstop\n\nsub_0: assembly {\n        /* \"contracts/NFTMarketplace.sol\":193:7184  contract NFTMarketplace is Ownable {\r... */\n      mstore(0x40, 0x80)\n      jumpi(tag_1, lt(calldatasize, 0x04))\n      shr(0xe0, calldataload(0x00))\n      dup1\n      0x9677d02e\n      gt\n      tag_17\n      jumpi\n      dup1\n      0xec102464\n      gt\n      tag_18\n      jumpi\n      dup1\n      0xec102464\n      eq\n      tag_13\n      jumpi\n      dup1\n      0xf2fde38b\n      eq\n      tag_14\n      jumpi\n      dup1\n      0xf699343e\n      eq\n      tag_15\n      jumpi\n      dup1\n      0xf896cad6\n      eq\n      tag_16\n      jumpi\n      jump(tag_1)\n    tag_18:\n      dup1\n      0x9677d02e\n      eq\n      tag_9\n      jumpi\n      dup1\n      0x98590ef9\n      eq\n      tag_10\n      jumpi\n      dup1\n      0xae06c1b7\n      eq\n      tag_11\n      jumpi\n      dup1\n      0xcb278aad\n      eq\n      tag_12\n      jumpi\n      jump(tag_1)\n    tag_17:\n      dup1\n      0x6548d2c2\n      gt\n      tag_19\n      jumpi\n      dup1\n      0x6548d2c2\n      eq\n      tag_5\n      jumpi\n      dup1\n      0x715018a6\n      eq\n      tag_6\n      jumpi\n      dup1\n      0x7564912b\n      eq\n      tag_7\n      jumpi\n      dup1\n      0x8da5cb5b\n      eq\n      tag_8\n      jumpi\n      jump(tag_1)\n    tag_19:\n      dup1\n      0x10ae7085\n      eq\n      tag_2\n      jumpi\n      dup1\n      0x1f40ff84\n      eq\n      tag_3\n      jumpi\n      dup1\n      0x26f8a07a\n      eq\n      tag_4\n      jumpi\n    tag_1:\n      0x00\n      dup1\n      revert\n        /* \"contracts/NFTMarketplace.sol\":748:794  address  payable public _feeDestinationAddress */\n    tag_2:\n      callvalue\n      dup1\n      iszero\n      tag_20\n      jumpi\n      0x00\n      dup1\n      revert\n    tag_20:\n      pop\n      tag_21\n      tag_22\n      jump\t// in\n    tag_21:\n      mload(0x40)\n      tag_23\n      swap2\n      swap1\n      tag_24\n      jump\t// in\n    tag_23:\n      mload(0x40)\n      dup1\n      swap2\n      sub\n      swap1\n      return\n        /* \"contracts/NFTMarketplace.sol\":4755:6569  function closeMarketForAuctionType(address nftContractId, uint256 tokenId, uint256 price, address buyerAccount ) external{\r... */\n    tag_3:\n      callvalue\n      dup1\n      iszero\n      tag_25\n      jumpi\n      0x00\n      dup1\n      revert\n    tag_25:\n      pop\n      tag_26\n      0x04\n      dup1\n      calldatasize\n      sub\n      dup2\n      add\n      swap1\n      tag_27\n      swap2\n      swap1\n      tag_28\n      jump\t// in\n    tag_27:\n      tag_29\n      jump\t// in\n    tag_26:\n      stop\n        /* \"contracts/NFTMarketplace.sol\":1211:1329  function setFeeDestinationAddress (address payable value) external onlyOwner{\r... */\n    tag_4:\n      callvalue\n      dup1\n      iszero\n      tag_30\n      jumpi\n      0x00\n      dup1\n      revert\n    tag_30:\n      pop\n      tag_31\n      0x04\n      dup1\n      calldatasize\n      sub\n      dup2\n      add\n      swap1\n      tag_32\n      swap2\n      swap1\n      tag_33\n      jump\t// in\n    tag_32:\n      tag_34\n      jump\t// in\n    tag_31:\n      stop\n        /* \"contracts/NFTMarketplace.sol\":1505:1709  function getMarketObj(address nftContractId, uint256 tokenId) public view returns (Market memory){\r... */\n    tag_5:\n      callvalue\n      dup1\n      iszero\n      tag_35\n      jumpi\n      0x00\n      dup1\n      revert\n    tag_35:\n      pop\n      tag_36\n      0x04\n      dup1\n      calldatasize\n      sub\n      dup2\n      add\n      swap1\n      tag_37\n      swap2\n      swap1\n      tag_38\n      jump\t// in\n    tag_37:\n      tag_39\n      jump\t// in\n    tag_36:\n      mload(0x40)\n      tag_40\n      swap2\n      swap1\n      tag_41\n      jump\t// in\n    tag_40:\n      mload(0x40)\n      dup1\n      swap2\n      sub\n      swap1\n      return\n        /* \"contracts/Ownable.sol\":1585:1725  function renounceOwnership() public onlyOwner {\r... */\n    tag_6:\n      callvalue\n      dup1\n      iszero\n      tag_42\n      jumpi\n      0x00\n      dup1\n      revert\n    tag_42:\n      pop\n      tag_43\n      tag_44\n      jump\t// in\n    tag_43:\n      stop\n        /* \"contracts/NFTMarketplace.sol\":797:839  mapping (bytes32 => Market) public markets */\n    tag_7:\n      callvalue\n      dup1\n      iszero\n      tag_45\n      jumpi\n      0x00\n      dup1\n      revert\n    tag_45:\n      pop\n      tag_46\n      0x04\n      dup1\n      calldatasize\n      sub\n      dup2\n      add\n      swap1\n      tag_47\n      swap2\n      swap1\n      tag_48\n      jump\t// in\n    tag_47:\n      tag_49\n      jump\t// in\n    tag_46:\n      mload(0x40)\n      tag_50\n      swap9\n      swap8\n      swap7\n      swap6\n      swap5\n      swap4\n      swap3\n      swap2\n      swap1\n      tag_51\n      jump\t// in\n    tag_50:\n      mload(0x40)\n      dup1\n      swap2\n      sub\n      swap1\n      return\n        /* \"contracts/Ownable.sol\":1246:1325  function owner() public view returns (address) {\r... */\n    tag_8:\n      callvalue\n      dup1\n      iszero\n      tag_52\n      jumpi\n      0x00\n      dup1\n      revert\n    tag_52:\n      pop\n      tag_53\n      tag_54\n      jump\t// in\n    tag_53:\n      mload(0x40)\n      tag_55\n      swap2\n      swap1\n      tag_56\n      jump\t// in\n    tag_55:\n      mload(0x40)\n      dup1\n      swap2\n      sub\n      swap1\n      return\n        /* \"contracts/NFTMarketplace.sol\":1881:2075  function openMarketForAuctionType(address nftContractId, uint256 tokenId, uint256 price, uint256 maxPrice) external{\r... */\n    tag_9:\n      callvalue\n      dup1\n      iszero\n      tag_57\n      jumpi\n      0x00\n      dup1\n      revert\n    tag_57:\n      pop\n      tag_58\n      0x04\n      dup1\n      calldatasize\n      sub\n      dup2\n      add\n      swap1\n      tag_59\n      swap2\n      swap1\n      tag_60\n      jump\t// in\n    tag_59:\n      tag_61\n      jump\t// in\n    tag_58:\n      stop\n        /* \"contracts/NFTMarketplace.sol\":6710:7179  function cancel(address nftContractId,  uint256 tokenId) external{\r... */\n    tag_10:\n      callvalue\n      dup1\n      iszero\n      tag_62\n      jumpi\n      0x00\n      dup1\n      revert\n    tag_62:\n      pop\n      tag_63\n      0x04\n      dup1\n      calldatasize\n      sub\n      dup2\n      add\n      swap1\n      tag_64\n      swap2\n      swap1\n      tag_38\n      jump\t// in\n    tag_64:\n      tag_65\n      jump\t// in\n    tag_63:\n      stop\n        /* \"contracts/NFTMarketplace.sol\":1113:1207  function setFeePercentage (uint256 value) external onlyOwner{\r... */\n    tag_11:\n      callvalue\n      dup1\n      iszero\n      tag_66\n      jumpi\n      0x00\n      dup1\n      revert\n    tag_66:\n      pop\n      tag_67\n      0x04\n      dup1\n      calldatasize\n      sub\n      dup2\n      add\n      swap1\n      tag_68\n      swap2\n      swap1\n      tag_69\n      jump\t// in\n    tag_68:\n      tag_70\n      jump\t// in\n    tag_67:\n      stop\n        /* \"contracts/NFTMarketplace.sol\":689:713  IERC20 public _wrapToken */\n    tag_12:\n      callvalue\n      dup1\n      iszero\n      tag_71\n      jumpi\n      0x00\n      dup1\n      revert\n    tag_71:\n      pop\n      tag_72\n      tag_73\n      jump\t// in\n    tag_72:\n      mload(0x40)\n      tag_74\n      swap2\n      swap1\n      tag_75\n      jump\t// in\n    tag_74:\n      mload(0x40)\n      dup1\n      swap2\n      sub\n      swap1\n      return\n        /* \"contracts/NFTMarketplace.sol\":1713:1877  function openMarketForFixedType(address nftContractId, uint256 tokenId, uint256 price) external{\r... */\n    tag_13:\n      callvalue\n      dup1\n      iszero\n      tag_76\n      jumpi\n      0x00\n      dup1\n      revert\n    tag_76:\n      pop\n      tag_77\n      0x04\n      dup1\n      calldatasize\n      sub\n      dup2\n      add\n      swap1\n      tag_78\n      swap2\n      swap1\n      tag_79\n      jump\t// in\n    tag_78:\n      tag_80\n      jump\t// in\n    tag_77:\n      stop\n        /* \"contracts/Ownable.sol\":1829:1938  function transferOwnership(address newOwner) public onlyOwner {\r... */\n    tag_14:\n      callvalue\n      dup1\n      iszero\n      tag_81\n      jumpi\n      0x00\n      dup1\n      revert\n    tag_81:\n      pop\n      tag_82\n      0x04\n      dup1\n      calldatasize\n      sub\n      dup2\n      add\n      swap1\n      tag_83\n      swap2\n      swap1\n      tag_84\n      jump\t// in\n    tag_83:\n      tag_85\n      jump\t// in\n    tag_82:\n      stop\n        /* \"contracts/NFTMarketplace.sol\":716:745  uint256 public _feePercentage */\n    tag_15:\n      callvalue\n      dup1\n      iszero\n      tag_86\n      jumpi\n      0x00\n      dup1\n      revert\n    tag_86:\n      pop\n      tag_87\n      tag_88\n      jump\t// in\n    tag_87:\n      mload(0x40)\n      tag_89\n      swap2\n      swap1\n      tag_90\n      jump\t// in\n    tag_89:\n      mload(0x40)\n      dup1\n      swap2\n      sub\n      swap1\n      return\n        /* \"contracts/NFTMarketplace.sol\":3000:4751  function closeMarketForFixedType(address nftContractId, uint256 tokenId ) external payable{ \r... */\n    tag_16:\n      tag_91\n      0x04\n      dup1\n      calldatasize\n      sub\n      dup2\n      add\n      swap1\n      tag_92\n      swap2\n      swap1\n      tag_38\n      jump\t// in\n    tag_92:\n      tag_93\n      jump\t// in\n    tag_91:\n      stop\n        /* \"contracts/NFTMarketplace.sol\":748:794  address  payable public _feeDestinationAddress */\n    tag_22:\n      0x03\n      0x00\n      swap1\n      sload\n      swap1\n      0x0100\n      exp\n      swap1\n      div\n      0xffffffffffffffffffffffffffffffffffffffff\n      and\n      dup2\n      jump\t// out\n        /* \"contracts/NFTMarketplace.sol\":4755:6569  function closeMarketForAuctionType(address nftContractId, uint256 tokenId, uint256 price, address buyerAccount ) external{\r... */\n    tag_29:\n        /* \"contracts/NFTMarketplace.sol\":4883:4900  bytes32 uniqueKey */\n      0x00\n        /* \"contracts/NFTMarketplace.sol\":4903:4945  getPrivateUniqueKey(nftContractId,tokenId) */\n      tag_95\n        /* \"contracts/NFTMarketplace.sol\":4923:4936  nftContractId */\n      dup6\n        /* \"contracts/NFTMarketplace.sol\":4937:4944  tokenId */\n      dup6\n        /* \"contracts/NFTMarketplace.sol\":4903:4922  getPrivateUniqueKey */\n      tag_96\n        /* \"contracts/NFTMarketplace.sol\":4903:4945  getPrivateUniqueKey(nftContractId,tokenId) */\n      jump\t// in\n    tag_95:\n        /* \"contracts/NFTMarketplace.sol\":4883:4945  bytes32 uniqueKey = getPrivateUniqueKey(nftContractId,tokenId) */\n      swap1\n      pop\n        /* \"contracts/NFTMarketplace.sol\":4992:5002  msg.sender */\n      caller\n        /* \"contracts/NFTMarketplace.sol\":4957:5002  markets[uniqueKey].currentOwner != msg.sender */\n      0xffffffffffffffffffffffffffffffffffffffff\n      and\n        /* \"contracts/NFTMarketplace.sol\":4957:4964  markets */\n      0x04\n        /* \"contracts/NFTMarketplace.sol\":4957:4975  markets[uniqueKey] */\n      0x00\n        /* \"contracts/NFTMarketplace.sol\":4965:4974  uniqueKey */\n      dup4\n        /* \"contracts/NFTMarketplace.sol\":4957:4975  markets[uniqueKey] */\n      dup2\n      mstore\n      0x20\n      add\n      swap1\n      dup2\n      mstore\n      0x20\n      add\n      0x00\n      keccak256\n        /* \"contracts/NFTMarketplace.sol\":4957:4988  markets[uniqueKey].currentOwner */\n      0x05\n      add\n      0x00\n      swap1\n      sload\n      swap1\n      0x0100\n      exp\n      swap1\n      div\n      0xffffffffffffffffffffffffffffffffffffffff\n      and\n        /* \"contracts/NFTMarketplace.sol\":4957:5002  markets[uniqueKey].currentOwner != msg.sender */\n      0xffffffffffffffffffffffffffffffffffffffff\n      and\n      eq\n        /* \"contracts/NFTMarketplace.sol\":4954:5057  if(markets[uniqueKey].currentOwner != msg.sender){\r... */\n      tag_97\n      jumpi\n        /* \"contracts/NFTMarketplace.sol\":5014:5049  revert (\"only for market operator\") */\n      mload(0x40)\n      0x08c379a000000000000000000000000000000000000000000000000000000000\n      dup2\n      mstore\n      0x04\n      add\n      tag_98\n      swap1\n      tag_99\n      jump\t// in\n    tag_98:\n      mload(0x40)\n      dup1\n      swap2\n      sub\n      swap1\n      revert\n        /* \"contracts/NFTMarketplace.sol\":4954:5057  if(markets[uniqueKey].currentOwner != msg.sender){\r... */\n    tag_97:\n        /* \"contracts/NFTMarketplace.sol\":5104:5133  EOrderStatus.OpenForTheMarket */\n      0x01\n        /* \"contracts/NFTMarketplace.sol\":5070:5133  markets[uniqueKey].orderStatus == EOrderStatus.OpenForTheMarket */\n      0x03\n      dup2\n      gt\n      iszero\n      tag_100\n      jumpi\n      mstore(0x00, 0x4e487b7100000000000000000000000000000000000000000000000000000000)\n      mstore(0x04, 0x21)\n      revert(0x00, 0x24)\n    tag_100:\n        /* \"contracts/NFTMarketplace.sol\":5070:5077  markets */\n      0x04\n        /* \"contracts/NFTMarketplace.sol\":5070:5088  markets[uniqueKey] */\n      0x00\n        /* \"contracts/NFTMarketplace.sol\":5078:5087  uniqueKey */\n      dup4\n        /* \"contracts/NFTMarketplace.sol\":5070:5088  markets[uniqueKey] */\n      dup2\n      mstore\n      0x20\n      add\n      swap1\n      dup2\n      mstore\n      0x20\n      add\n      0x00\n      keccak256\n        /* \"contracts/NFTMarketplace.sol\":5070:5100  markets[uniqueKey].orderStatus */\n      0x02\n      add\n      0x01\n      swap1\n      sload\n      swap1\n      0x0100\n      exp\n      swap1\n      div\n      0xff\n      and\n        /* \"contracts/NFTMarketplace.sol\":5070:5133  markets[uniqueKey].orderStatus == EOrderStatus.OpenForTheMarket */\n      0x03\n      dup2\n      gt\n      iszero\n      tag_101\n      jumpi\n      mstore(0x00, 0x4e487b7100000000000000000000000000000000000000000000000000000000)\n      mstore(0x04, 0x21)\n      revert(0x00, 0x24)\n    tag_101:\n      eq\n        /* \"contracts/NFTMarketplace.sol\":5067:6566  if(markets[uniqueKey].orderStatus == EOrderStatus.OpenForTheMarket){\r... */\n      iszero\n      tag_102\n      jumpi\n        /* \"contracts/NFTMarketplace.sol\":5180:5198  EOrderType.Auction */\n      0x02\n        /* \"contracts/NFTMarketplace.sol\":5148:5198  markets[uniqueKey].orderType != EOrderType.Auction */\n      dup1\n      dup2\n      gt\n      iszero\n      tag_103\n      jumpi\n      mstore(0x00, 0x4e487b7100000000000000000000000000000000000000000000000000000000)\n      mstore(0x04, 0x21)\n      revert(0x00, 0x24)\n    tag_103:\n        /* \"contracts/NFTMarketplace.sol\":5148:5155  markets */\n      0x04\n        /* \"contracts/NFTMarketplace.sol\":5148:5166  markets[uniqueKey] */\n      0x00\n        /* \"contracts/NFTMarketplace.sol\":5156:5165  uniqueKey */\n      dup4\n        /* \"contracts/NFTMarketplace.sol\":5148:5166  markets[uniqueKey] */\n      dup2\n      mstore\n      0x20\n      add\n      swap1\n      dup2\n      mstore\n      0x20\n      add\n      0x00\n      keccak256\n        /* \"contracts/NFTMarketplace.sol\":5148:5176  markets[uniqueKey].orderType */\n      0x02\n      add\n      0x00\n      swap1\n      sload\n      swap1\n      0x0100\n      exp\n      swap1\n      div\n      0xff\n      and\n        /* \"contracts/NFTMarketplace.sol\":5148:5198  markets[uniqueKey].orderType != EOrderType.Auction */\n      0x02\n      dup2\n      gt\n      iszero\n      tag_104\n      jumpi\n      mstore(0x00, 0x4e487b7100000000000000000000000000000000000000000000000000000000)\n      mstore(0x04, 0x21)\n      revert(0x00, 0x24)\n    tag_104:\n      eq\n        /* \"contracts/NFTMarketplace.sol\":5145:5264  if(markets[uniqueKey].orderType != EOrderType.Auction){\r... */\n      tag_105\n      jumpi\n        /* \"contracts/NFTMarketplace.sol\":5214:5252  revert (\"nft is not open for Auction\") */\n      mload(0x40)\n      0x08c379a000000000000000000000000000000000000000000000000000000000\n      dup2\n      mstore\n      0x04\n      add\n      tag_106\n      swap1\n      tag_107\n      jump\t// in\n    tag_106:\n      mload(0x40)\n      dup1\n      swap2\n      sub\n      swap1\n      revert\n        /* \"contracts/NFTMarketplace.sol\":5145:5264  if(markets[uniqueKey].orderType != EOrderType.Auction){\r... */\n    tag_105:\n        /* \"contracts/NFTMarketplace.sol\":5310:5315  price */\n      dup3\n        /* \"contracts/NFTMarketplace.sol\":5279:5286  markets */\n      0x04\n        /* \"contracts/NFTMarketplace.sol\":5279:5297  markets[uniqueKey] */\n      0x00\n        /* \"contracts/NFTMarketplace.sol\":5287:5296  uniqueKey */\n      dup4\n        /* \"contracts/NFTMarketplace.sol\":5279:5297  markets[uniqueKey] */\n      dup2\n      mstore\n      0x20\n      add\n      swap1\n      dup2\n      mstore\n      0x20\n      add\n      0x00\n      keccak256\n        /* \"contracts/NFTMarketplace.sol\":5279:5307  markets[uniqueKey].askAmount */\n      0x03\n      add\n      sload\n        /* \"contracts/NFTMarketplace.sol\":5279:5315  markets[uniqueKey].askAmount < price */\n      lt\n        /* \"contracts/NFTMarketplace.sol\":5276:6499  if(markets[uniqueKey].askAmount < price){\r... */\n      iszero\n      tag_108\n      jumpi\n        /* \"contracts/NFTMarketplace.sol\":5331:5355  INFTContract nftContract */\n      0x00\n        /* \"contracts/NFTMarketplace.sol\":5371:5378  markets */\n      0x04\n        /* \"contracts/NFTMarketplace.sol\":5371:5389  markets[uniqueKey] */\n      0x00\n        /* \"contracts/NFTMarketplace.sol\":5379:5388  uniqueKey */\n      dup4\n        /* \"contracts/NFTMarketplace.sol\":5371:5389  markets[uniqueKey] */\n      dup2\n      mstore\n      0x20\n      add\n      swap1\n      dup2\n      mstore\n      0x20\n      add\n      0x00\n      keccak256\n        /* \"contracts/NFTMarketplace.sol\":5371:5405  markets[uniqueKey].contractAddress */\n      0x00\n      add\n      0x00\n      swap1\n      sload\n      swap1\n      0x0100\n      exp\n      swap1\n      div\n      0xffffffffffffffffffffffffffffffffffffffff\n      and\n        /* \"contracts/NFTMarketplace.sol\":5331:5406  INFTContract nftContract = INFTContract(markets[uniqueKey].contractAddress) */\n      swap1\n      pop\n        /* \"contracts/NFTMarketplace.sol\":5451:5462  uint256 fee */\n      0x00\n        /* \"contracts/NFTMarketplace.sol\":5465:5504  getFeePercentage(price, _feePercentage) */\n      tag_109\n        /* \"contracts/NFTMarketplace.sol\":5482:5487  price */\n      dup6\n        /* \"contracts/NFTMarketplace.sol\":5489:5503  _feePercentage */\n      sload(0x02)\n        /* \"contracts/NFTMarketplace.sol\":5465:5481  getFeePercentage */\n      tag_110\n        /* \"contracts/NFTMarketplace.sol\":5465:5504  getFeePercentage(price, _feePercentage) */\n      jump\t// in\n    tag_109:\n        /* \"contracts/NFTMarketplace.sol\":5451:5504  uint256 fee = getFeePercentage(price, _feePercentage) */\n      swap1\n      pop\n        /* \"contracts/NFTMarketplace.sol\":5542:5543  0 */\n      0x00\n        /* \"contracts/NFTMarketplace.sol\":5536:5539  fee */\n      dup2\n        /* \"contracts/NFTMarketplace.sol\":5536:5543  fee > 0 */\n      gt\n        /* \"contracts/NFTMarketplace.sol\":5533:5643  if(fee > 0){\r... */\n      iszero\n      tag_111\n      jumpi\n        /* \"contracts/NFTMarketplace.sol\":5563:5573  _wrapToken */\n      0x01\n      0x00\n      swap1\n      sload\n      swap1\n      0x0100\n      exp\n      swap1\n      div\n      0xffffffffffffffffffffffffffffffffffffffff\n      and\n        /* \"contracts/NFTMarketplace.sol\":5563:5586  _wrapToken.transferFrom */\n      0xffffffffffffffffffffffffffffffffffffffff\n      and\n      0x23b872dd\n        /* \"contracts/NFTMarketplace.sol\":5587:5599  buyerAccount */\n      dup6\n        /* \"contracts/NFTMarketplace.sol\":5600:5622  _feeDestinationAddress */\n      0x03\n      0x00\n      swap1\n      sload\n      swap1\n      0x0100\n      exp\n      swap1\n      div\n      0xffffffffffffffffffffffffffffffffffffffff\n      and\n        /* \"contracts/NFTMarketplace.sol\":5623:5626  fee */\n      dup5\n        /* \"contracts/NFTMarketplace.sol\":5563:5627  _wrapToken.transferFrom(buyerAccount,_feeDestinationAddress,fee) */\n      mload(0x40)\n      dup5\n      0xffffffff\n      and\n      0xe0\n      shl\n      dup2\n      mstore\n      0x04\n      add\n      tag_112\n      swap4\n      swap3\n      swap2\n      swap1\n      tag_113\n      jump\t// in\n    tag_112:\n      0x20\n      mload(0x40)\n      dup1\n      dup4\n      sub\n      dup2\n      0x00\n      dup8\n      dup1\n      extcodesize\n      iszero\n      dup1\n      iszero\n      tag_114\n      jumpi\n      0x00\n      dup1\n      revert\n    tag_114:\n      pop\n      gas\n      call\n      iszero\n      dup1\n      iszero\n      tag_116\n      jumpi\n      returndatasize\n      0x00\n      dup1\n      returndatacopy\n      revert(0x00, returndatasize)\n    tag_116:\n      pop\n      pop\n      pop\n      pop\n      mload(0x40)\n      returndatasize\n      not(0x1f)\n      0x1f\n      dup3\n      add\n      and\n      dup3\n      add\n      dup1\n      0x40\n      mstore\n      pop\n      dup2\n      add\n      swap1\n      tag_117\n      swap2\n      swap1\n      tag_118\n      jump\t// in\n    tag_117:\n      pop\n        /* \"contracts/NFTMarketplace.sol\":5533:5643  if(fee > 0){\r... */\n    tag_111:\n        /* \"contracts/NFTMarketplace.sol\":5699:5715  uint256 royality */\n      0x00\n        /* \"contracts/NFTMarketplace.sol\":5717:5732  address creator */\n      dup1\n        /* \"contracts/NFTMarketplace.sol\":5736:5747  nftContract */\n      dup4\n        /* \"contracts/NFTMarketplace.sol\":5736:5766  nftContract.getRoyalityDetails */\n      0xffffffffffffffffffffffffffffffffffffffff\n      and\n      0x179efa20\n        /* \"contracts/NFTMarketplace.sol\":5767:5774  tokenId */\n      dup10\n        /* \"contracts/NFTMarketplace.sol\":5736:5775  nftContract.getRoyalityDetails(tokenId) */\n      mload(0x40)\n      dup3\n      0xffffffff\n      and\n      0xe0\n      shl\n      dup2\n      mstore\n      0x04\n      add\n      tag_119\n      swap2\n      swap1\n      tag_90\n      jump\t// in\n    tag_119:\n      0x40\n      dup1\n      mload\n      dup1\n      dup4\n      sub\n      dup2\n      dup7\n      dup1\n      extcodesize\n      iszero\n      dup1\n      iszero\n      tag_120\n      jumpi\n      0x00\n      dup1\n      revert\n    tag_120:\n      pop\n      gas\n      staticcall\n      iszero\n      dup1\n      iszero\n      tag_122\n      jumpi\n      returndatasize\n      0x00\n      dup1\n      returndatacopy\n      revert(0x00, returndatasize)\n    tag_122:\n      pop\n      pop\n      pop\n      pop\n      mload(0x40)\n      returndatasize\n      not(0x1f)\n      0x1f\n      dup3\n      add\n      and\n      dup3\n      add\n      dup1\n      0x40\n      mstore\n      pop\n      dup2\n      add\n      swap1\n      tag_123\n      swap2\n      swap1\n      tag_124\n      jump\t// in\n    tag_123:\n        /* \"contracts/NFTMarketplace.sol\":5698:5775  (uint256 royality, address creator) = nftContract.getRoyalityDetails(tokenId) */\n      swap2\n      pop\n      swap2\n      pop\n        /* \"contracts/NFTMarketplace.sol\":5790:5809  uint256 royalityFee */\n      0x00\n        /* \"contracts/NFTMarketplace.sol\":5812:5845  getFeePercentage(price, royality) */\n      tag_125\n        /* \"contracts/NFTMarketplace.sol\":5829:5834  price */\n      dup9\n        /* \"contracts/NFTMarketplace.sol\":5836:5844  royality */\n      dup5\n        /* \"contracts/NFTMarketplace.sol\":5812:5828  getFeePercentage */\n      tag_110\n        /* \"contracts/NFTMarketplace.sol\":5812:5845  getFeePercentage(price, royality) */\n      jump\t// in\n    tag_125:\n        /* \"contracts/NFTMarketplace.sol\":5790:5845  uint256 royalityFee = getFeePercentage(price, royality) */\n      swap1\n      pop\n        /* \"contracts/NFTMarketplace.sol\":5860:5870  _wrapToken */\n      0x01\n      0x00\n      swap1\n      sload\n      swap1\n      0x0100\n      exp\n      swap1\n      div\n      0xffffffffffffffffffffffffffffffffffffffff\n      and\n        /* \"contracts/NFTMarketplace.sol\":5860:5883  _wrapToken.transferFrom */\n      0xffffffffffffffffffffffffffffffffffffffff\n      and\n      0x23b872dd\n        /* \"contracts/NFTMarketplace.sol\":5884:5896  buyerAccount */\n      dup9\n        /* \"contracts/NFTMarketplace.sol\":5897:5904  creator */\n      dup5\n        /* \"contracts/NFTMarketplace.sol\":5905:5916  royalityFee */\n      dup5\n        /* \"contracts/NFTMarketplace.sol\":5860:5917  _wrapToken.transferFrom(buyerAccount,creator,royalityFee) */\n      mload(0x40)\n      dup5\n      0xffffffff\n      and\n      0xe0\n      shl\n      dup2\n      mstore\n      0x04\n      add\n      tag_126\n      swap4\n      swap3\n      swap2\n      swap1\n      tag_127\n      jump\t// in\n    tag_126:\n      0x20\n      mload(0x40)\n      dup1\n      dup4\n      sub\n      dup2\n      0x00\n      dup8\n      dup1\n      extcodesize\n      iszero\n      dup1\n      iszero\n      tag_128\n      jumpi\n      0x00\n      dup1\n      revert\n    tag_128:\n      pop\n      gas\n      call\n      iszero\n      dup1\n      iszero\n      tag_130\n      jumpi\n      returndatasize\n      0x00\n      dup1\n      returndatacopy\n      revert(0x00, returndatasize)\n    tag_130:\n      pop\n      pop\n      pop\n      pop\n      mload(0x40)\n      returndatasize\n      not(0x1f)\n      0x1f\n      dup3\n      add\n      and\n      dup3\n      add\n      dup1\n      0x40\n      mstore\n      pop\n      dup2\n      add\n      swap1\n      tag_131\n      swap2\n      swap1\n      tag_118\n      jump\t// in\n    tag_131:\n      pop\n        /* \"contracts/NFTMarketplace.sol\":5932:5950  uint256 ownerShare */\n      0x00\n        /* \"contracts/NFTMarketplace.sol\":5953:5984  price.sub(fee.add(royalityFee)) */\n      tag_132\n        /* \"contracts/NFTMarketplace.sol\":5963:5983  fee.add(royalityFee) */\n      tag_133\n        /* \"contracts/NFTMarketplace.sol\":5971:5982  royalityFee */\n      dup4\n        /* \"contracts/NFTMarketplace.sol\":5963:5966  fee */\n      dup8\n        /* \"contracts/NFTMarketplace.sol\":5963:5970  fee.add */\n      tag_134\n      swap1\n        /* \"contracts/NFTMarketplace.sol\":5963:5983  fee.add(royalityFee) */\n      swap2\n      swap1\n      0xffffffff\n      and\n      jump\t// in\n    tag_133:\n        /* \"contracts/NFTMarketplace.sol\":5953:5958  price */\n      dup11\n        /* \"contracts/NFTMarketplace.sol\":5953:5962  price.sub */\n      tag_135\n      swap1\n        /* \"contracts/NFTMarketplace.sol\":5953:5984  price.sub(fee.add(royalityFee)) */\n      swap2\n      swap1\n      0xffffffff\n      and\n      jump\t// in\n    tag_132:\n        /* \"contracts/NFTMarketplace.sol\":5932:5984  uint256 ownerShare = price.sub(fee.add(royalityFee)) */\n      swap1\n      pop\n        /* \"contracts/NFTMarketplace.sol\":6038:6048  _wrapToken */\n      0x01\n      0x00\n      swap1\n      sload\n      swap1\n      0x0100\n      exp\n      swap1\n      div\n      0xffffffffffffffffffffffffffffffffffffffff\n      and\n        /* \"contracts/NFTMarketplace.sol\":6038:6061  _wrapToken.transferFrom */\n      0xffffffffffffffffffffffffffffffffffffffff\n      and\n      0x23b872dd\n        /* \"contracts/NFTMarketplace.sol\":6062:6074  buyerAccount */\n      dup10\n        /* \"contracts/NFTMarketplace.sol\":6075:6082  markets */\n      0x04\n        /* \"contracts/NFTMarketplace.sol\":6075:6093  markets[uniqueKey] */\n      0x00\n        /* \"contracts/NFTMarketplace.sol\":6083:6092  uniqueKey */\n      dup12\n        /* \"contracts/NFTMarketplace.sol\":6075:6093  markets[uniqueKey] */\n      dup2\n      mstore\n      0x20\n      add\n      swap1\n      dup2\n      mstore\n      0x20\n      add\n      0x00\n      keccak256\n        /* \"contracts/NFTMarketplace.sol\":6075:6106  markets[uniqueKey].currentOwner */\n      0x05\n      add\n      0x00\n      swap1\n      sload\n      swap1\n      0x0100\n      exp\n      swap1\n      div\n      0xffffffffffffffffffffffffffffffffffffffff\n      and\n        /* \"contracts/NFTMarketplace.sol\":6107:6117  ownerShare */\n      dup5\n        /* \"contracts/NFTMarketplace.sol\":6038:6118  _wrapToken.transferFrom(buyerAccount,markets[uniqueKey].currentOwner,ownerShare) */\n      mload(0x40)\n      dup5\n      0xffffffff\n      and\n      0xe0\n      shl\n      dup2\n      mstore\n      0x04\n      add\n      tag_136\n      swap4\n      swap3\n      swap2\n      swap1\n      tag_113\n      jump\t// in\n    tag_136:\n      0x20\n      mload(0x40)\n      dup1\n      dup4\n      sub\n      dup2\n      0x00\n      dup8\n      dup1\n      extcodesize\n      iszero\n      dup1\n      iszero\n      tag_137\n      jumpi\n      0x00\n      dup1\n      revert\n    tag_137:\n      pop\n      gas\n      call\n      iszero\n      dup1\n      iszero\n      tag_139\n      jumpi\n      returndatasize\n      0x00\n      dup1\n      returndatacopy\n      revert(0x00, returndatasize)\n    tag_139:\n      pop\n      pop\n      pop\n      pop\n      mload(0x40)\n      returndatasize\n      not(0x1f)\n      0x1f\n      dup3\n      add\n      and\n      dup3\n      add\n      dup1\n      0x40\n      mstore\n      pop\n      dup2\n      add\n      swap1\n      tag_140\n      swap2\n      swap1\n      tag_118\n      jump\t// in\n    tag_140:\n      pop\n        /* \"contracts/NFTMarketplace.sol\":6177:6188  nftContract */\n      dup6\n        /* \"contracts/NFTMarketplace.sol\":6177:6205  nftContract.safeTransferFrom */\n      0xffffffffffffffffffffffffffffffffffffffff\n      and\n      0x42842e0e\n        /* \"contracts/NFTMarketplace.sol\":6206:6213  markets */\n      0x04\n        /* \"contracts/NFTMarketplace.sol\":6206:6224  markets[uniqueKey] */\n      0x00\n        /* \"contracts/NFTMarketplace.sol\":6214:6223  uniqueKey */\n      dup11\n        /* \"contracts/NFTMarketplace.sol\":6206:6224  markets[uniqueKey] */\n      dup2\n      mstore\n      0x20\n      add\n      swap1\n      dup2\n      mstore\n      0x20\n      add\n      0x00\n      keccak256\n        /* \"contracts/NFTMarketplace.sol\":6206:6237  markets[uniqueKey].currentOwner */\n      0x05\n      add\n      0x00\n      swap1\n      sload\n      swap1\n      0x0100\n      exp\n      swap1\n      div\n      0xffffffffffffffffffffffffffffffffffffffff\n      and\n        /* \"contracts/NFTMarketplace.sol\":6239:6251  buyerAccount */\n      dup11\n        /* \"contracts/NFTMarketplace.sol\":6253:6260  tokenId */\n      dup14\n        /* \"contracts/NFTMarketplace.sol\":6177:6261  nftContract.safeTransferFrom(markets[uniqueKey].currentOwner, buyerAccount, tokenId) */\n      mload(0x40)\n      dup5\n      0xffffffff\n      and\n      0xe0\n      shl\n      dup2\n      mstore\n      0x04\n      add\n      tag_141\n      swap4\n      swap3\n      swap2\n      swap1\n      tag_142\n      jump\t// in\n    tag_141:\n      0x00\n      mload(0x40)\n      dup1\n      dup4\n      sub\n      dup2\n      0x00\n      dup8\n      dup1\n      extcodesize\n      iszero\n      dup1\n      iszero\n      tag_143\n      jumpi\n      0x00\n      dup1\n      revert\n    tag_143:\n      pop\n      gas\n      call\n      iszero\n      dup1\n      iszero\n      tag_145\n      jumpi\n      returndatasize\n      0x00\n      dup1\n      returndatacopy\n      revert(0x00, returndatasize)\n    tag_145:\n      pop\n      pop\n      pop\n      pop\n        /* \"contracts/NFTMarketplace.sol\":6344:6369  EOrderStatus.MarketClosed */\n      0x03\n        /* \"contracts/NFTMarketplace.sol\":6311:6318  markets */\n      0x04\n        /* \"contracts/NFTMarketplace.sol\":6311:6329  markets[uniqueKey] */\n      0x00\n        /* \"contracts/NFTMarketplace.sol\":6319:6328  uniqueKey */\n      dup10\n        /* \"contracts/NFTMarketplace.sol\":6311:6329  markets[uniqueKey] */\n      dup2\n      mstore\n      0x20\n      add\n      swap1\n      dup2\n      mstore\n      0x20\n      add\n      0x00\n      keccak256\n        /* \"contracts/NFTMarketplace.sol\":6311:6341  markets[uniqueKey].orderStatus */\n      0x02\n      add\n      0x01\n        /* \"contracts/NFTMarketplace.sol\":6311:6369  markets[uniqueKey].orderStatus = EOrderStatus.MarketClosed */\n      0x0100\n      exp\n      dup2\n      sload\n      dup2\n      0xff\n      mul\n      not\n      and\n      swap1\n      dup4\n      0x03\n      dup2\n      gt\n      iszero\n      tag_146\n      jumpi\n      mstore(0x00, 0x4e487b7100000000000000000000000000000000000000000000000000000000)\n      mstore(0x04, 0x21)\n      revert(0x00, 0x24)\n    tag_146:\n      mul\n      or\n      swap1\n      sstore\n      pop\n        /* \"contracts/NFTMarketplace.sol\":6414:6426  buyerAccount */\n      dup8\n        /* \"contracts/NFTMarketplace.sol\":6384:6391  markets */\n      0x04\n        /* \"contracts/NFTMarketplace.sol\":6384:6402  markets[uniqueKey] */\n      0x00\n        /* \"contracts/NFTMarketplace.sol\":6392:6401  uniqueKey */\n      dup10\n        /* \"contracts/NFTMarketplace.sol\":6384:6402  markets[uniqueKey] */\n      dup2\n      mstore\n      0x20\n      add\n      swap1\n      dup2\n      mstore\n      0x20\n      add\n      0x00\n      keccak256\n        /* \"contracts/NFTMarketplace.sol\":6384:6411  markets[uniqueKey].newOwner */\n      0x06\n      add\n      0x00\n        /* \"contracts/NFTMarketplace.sol\":6384:6426  markets[uniqueKey].newOwner = buyerAccount */\n      0x0100\n      exp\n      dup2\n      sload\n      dup2\n      0xffffffffffffffffffffffffffffffffffffffff\n      mul\n      not\n      and\n      swap1\n      dup4\n      0xffffffffffffffffffffffffffffffffffffffff\n      and\n      mul\n      or\n      swap1\n      sstore\n      pop\n        /* \"contracts/NFTMarketplace.sol\":5276:6499  if(markets[uniqueKey].askAmount < price){\r... */\n      pop\n      pop\n      pop\n      pop\n      pop\n      pop\n      jump(tag_147)\n    tag_108:\n        /* \"contracts/NFTMarketplace.sol\":6459:6487  revert (\"Value not matched\") */\n      mload(0x40)\n      0x08c379a000000000000000000000000000000000000000000000000000000000\n      dup2\n      mstore\n      0x04\n      add\n      tag_148\n      swap1\n      tag_149\n      jump\t// in\n    tag_148:\n      mload(0x40)\n      dup1\n      swap2\n      sub\n      swap1\n      revert\n        /* \"contracts/NFTMarketplace.sol\":5276:6499  if(markets[uniqueKey].askAmount < price){\r... */\n    tag_147:\n        /* \"contracts/NFTMarketplace.sol\":5067:6566  if(markets[uniqueKey].orderStatus == EOrderStatus.OpenForTheMarket){\r... */\n      jump(tag_150)\n    tag_102:\n        /* \"contracts/NFTMarketplace.sol\":6521:6558  revert (\"Market order is not opened\") */\n      mload(0x40)\n      0x08c379a000000000000000000000000000000000000000000000000000000000\n      dup2\n      mstore\n      0x04\n      add\n      tag_151\n      swap1\n      tag_152\n      jump\t// in\n    tag_151:\n      mload(0x40)\n      dup1\n      swap2\n      sub\n      swap1\n      revert\n        /* \"contracts/NFTMarketplace.sol\":5067:6566  if(markets[uniqueKey].orderStatus == EOrderStatus.OpenForTheMarket){\r... */\n    tag_150:\n        /* \"contracts/NFTMarketplace.sol\":4755:6569  function closeMarketForAuctionType(address nftContractId, uint256 tokenId, uint256 price, address buyerAccount ) external{\r... */\n      pop\n      pop\n      pop\n      pop\n      pop\n      jump\t// out\n        /* \"contracts/NFTMarketplace.sol\":1211:1329  function setFeeDestinationAddress (address payable value) external onlyOwner{\r... */\n    tag_34:\n        /* \"contracts/Ownable.sol\":853:863  msg.sender */\n      caller\n        /* \"contracts/Ownable.sol\":843:863  _owner == msg.sender */\n      0xffffffffffffffffffffffffffffffffffffffff\n      and\n        /* \"contracts/Ownable.sol\":843:849  _owner */\n      0x00\n      dup1\n      sload\n      swap1\n      0x0100\n      exp\n      swap1\n      div\n      0xffffffffffffffffffffffffffffffffffffffff\n      and\n        /* \"contracts/Ownable.sol\":843:863  _owner == msg.sender */\n      0xffffffffffffffffffffffffffffffffffffffff\n      and\n      eq\n        /* \"contracts/Ownable.sol\":821:933  require(\r... */\n      tag_154\n      jumpi\n      mload(0x40)\n      0x08c379a000000000000000000000000000000000000000000000000000000000\n      dup2\n      mstore\n      0x04\n      add\n      tag_155\n      swap1\n      tag_156\n      jump\t// in\n    tag_155:\n      mload(0x40)\n      dup1\n      swap2\n      sub\n      swap1\n      revert\n    tag_154:\n        /* \"contracts/NFTMarketplace.sol\":1319:1324  value */\n      dup1\n        /* \"contracts/NFTMarketplace.sol\":1294:1316  _feeDestinationAddress */\n      0x03\n      0x00\n        /* \"contracts/NFTMarketplace.sol\":1294:1324  _feeDestinationAddress = value */\n      0x0100\n      exp\n      dup2\n      sload\n      dup2\n      0xffffffffffffffffffffffffffffffffffffffff\n      mul\n      not\n      and\n      swap1\n      dup4\n      0xffffffffffffffffffffffffffffffffffffffff\n      and\n      mul\n      or\n      swap1\n      sstore\n      pop\n        /* \"contracts/NFTMarketplace.sol\":1211:1329  function setFeeDestinationAddress (address payable value) external onlyOwner{\r... */\n      pop\n      jump\t// out\n        /* \"contracts/NFTMarketplace.sol\":1505:1709  function getMarketObj(address nftContractId, uint256 tokenId) public view returns (Market memory){\r... */\n    tag_39:\n        /* \"contracts/NFTMarketplace.sol\":1588:1601  Market memory */\n      tag_158\n      tag_159\n      jump\t// in\n    tag_158:\n        /* \"contracts/NFTMarketplace.sol\":1609:1626  bytes32 uniqueKey */\n      0x00\n        /* \"contracts/NFTMarketplace.sol\":1629:1671  getPrivateUniqueKey(nftContractId,tokenId) */\n      tag_161\n        /* \"contracts/NFTMarketplace.sol\":1649:1662  nftContractId */\n      dup5\n        /* \"contracts/NFTMarketplace.sol\":1663:1670  tokenId */\n      dup5\n        /* \"contracts/NFTMarketplace.sol\":1629:1648  getPrivateUniqueKey */\n      tag_96\n        /* \"contracts/NFTMarketplace.sol\":1629:1671  getPrivateUniqueKey(nftContractId,tokenId) */\n      jump\t// in\n    tag_161:\n        /* \"contracts/NFTMarketplace.sol\":1609:1671  bytes32 uniqueKey = getPrivateUniqueKey(nftContractId,tokenId) */\n      swap1\n      pop\n        /* \"contracts/NFTMarketplace.sol\":1687:1694  markets */\n      0x04\n        /* \"contracts/NFTMarketplace.sol\":1687:1705  markets[uniqueKey] */\n      0x00\n        /* \"contracts/NFTMarketplace.sol\":1695:1704  uniqueKey */\n      dup3\n        /* \"contracts/NFTMarketplace.sol\":1687:1705  markets[uniqueKey] */\n      dup2\n      mstore\n      0x20\n      add\n      swap1\n      dup2\n      mstore\n      0x20\n      add\n      0x00\n      keccak256\n        /* \"contracts/NFTMarketplace.sol\":1680:1705  return markets[uniqueKey] */\n      mload(0x40)\n      dup1\n      0x0100\n      add\n      0x40\n      mstore\n      swap1\n      dup2\n      0x00\n      dup3\n      add\n      0x00\n      swap1\n      sload\n      swap1\n      0x0100\n      exp\n      swap1\n      div\n      0xffffffffffffffffffffffffffffffffffffffff\n      and\n      0xffffffffffffffffffffffffffffffffffffffff\n      and\n      0xffffffffffffffffffffffffffffffffffffffff\n      and\n      dup2\n      mstore\n      0x20\n      add\n      0x01\n      dup3\n      add\n      sload\n      dup2\n      mstore\n      0x20\n      add\n      0x02\n      dup3\n      add\n      0x00\n      swap1\n      sload\n      swap1\n      0x0100\n      exp\n      swap1\n      div\n      0xff\n      and\n      0x02\n      dup2\n      gt\n      iszero\n      tag_162\n      jumpi\n      mstore(0x00, 0x4e487b7100000000000000000000000000000000000000000000000000000000)\n      mstore(0x04, 0x21)\n      revert(0x00, 0x24)\n    tag_162:\n      0x02\n      dup2\n      gt\n      iszero\n      tag_163\n      jumpi\n      mstore(0x00, 0x4e487b7100000000000000000000000000000000000000000000000000000000)\n      mstore(0x04, 0x21)\n      revert(0x00, 0x24)\n    tag_163:\n      dup2\n      mstore\n      0x20\n      add\n      0x02\n      dup3\n      add\n      0x01\n      swap1\n      sload\n      swap1\n      0x0100\n      exp\n      swap1\n      div\n      0xff\n      and\n      0x03\n      dup2\n      gt\n      iszero\n      tag_164\n      jumpi\n      mstore(0x00, 0x4e487b7100000000000000000000000000000000000000000000000000000000)\n      mstore(0x04, 0x21)\n      revert(0x00, 0x24)\n    tag_164:\n      0x03\n      dup2\n      gt\n      iszero\n      tag_165\n      jumpi\n      mstore(0x00, 0x4e487b7100000000000000000000000000000000000000000000000000000000)\n      mstore(0x04, 0x21)\n      revert(0x00, 0x24)\n    tag_165:\n      dup2\n      mstore\n      0x20\n      add\n      0x03\n      dup3\n      add\n      sload\n      dup2\n      mstore\n      0x20\n      add\n      0x04\n      dup3\n      add\n      sload\n      dup2\n      mstore\n      0x20\n      add\n      0x05\n      dup3\n      add\n      0x00\n      swap1\n      sload\n      swap1\n      0x0100\n      exp\n      swap1\n      div\n      0xffffffffffffffffffffffffffffffffffffffff\n      and\n      0xffffffffffffffffffffffffffffffffffffffff\n      and\n      0xffffffffffffffffffffffffffffffffffffffff\n      and\n      dup2\n      mstore\n      0x20\n      add\n      0x06\n      dup3\n      add\n      0x00\n      swap1\n      sload\n      swap1\n      0x0100\n      exp\n      swap1\n      div\n      0xffffffffffffffffffffffffffffffffffffffff\n      and\n      0xffffffffffffffffffffffffffffffffffffffff\n      and\n      0xffffffffffffffffffffffffffffffffffffffff\n      and\n      dup2\n      mstore\n      pop\n      pop\n      swap2\n      pop\n      pop\n        /* \"contracts/NFTMarketplace.sol\":1505:1709  function getMarketObj(address nftContractId, uint256 tokenId) public view returns (Market memory){\r... */\n      swap3\n      swap2\n      pop\n      pop\n      jump\t// out\n        /* \"contracts/Ownable.sol\":1585:1725  function renounceOwnership() public onlyOwner {\r... */\n    tag_44:\n        /* \"contracts/Ownable.sol\":853:863  msg.sender */\n      caller\n        /* \"contracts/Ownable.sol\":843:863  _owner == msg.sender */\n      0xffffffffffffffffffffffffffffffffffffffff\n      and\n        /* \"contracts/Ownable.sol\":843:849  _owner */\n      0x00\n      dup1\n      sload\n      swap1\n      0x0100\n      exp\n      swap1\n      div\n      0xffffffffffffffffffffffffffffffffffffffff\n      and\n        /* \"contracts/Ownable.sol\":843:863  _owner == msg.sender */\n      0xffffffffffffffffffffffffffffffffffffffff\n      and\n      eq\n        /* \"contracts/Ownable.sol\":821:933  require(\r... */\n      tag_167\n      jumpi\n      mload(0x40)\n      0x08c379a000000000000000000000000000000000000000000000000000000000\n      dup2\n      mstore\n      0x04\n      add\n      tag_168\n      swap1\n      tag_156\n      jump\t// in\n    tag_168:\n      mload(0x40)\n      dup1\n      swap2\n      sub\n      swap1\n      revert\n    tag_167:\n        /* \"contracts/Ownable.sol\":1684:1685  0 */\n      0x00\n        /* \"contracts/Ownable.sol\":1647:1687  OwnershipTransferred(_owner, address(0)) */\n      0xffffffffffffffffffffffffffffffffffffffff\n      and\n        /* \"contracts/Ownable.sol\":1668:1674  _owner */\n      0x00\n      dup1\n      sload\n      swap1\n      0x0100\n      exp\n      swap1\n      div\n      0xffffffffffffffffffffffffffffffffffffffff\n      and\n        /* \"contracts/Ownable.sol\":1647:1687  OwnershipTransferred(_owner, address(0)) */\n      0xffffffffffffffffffffffffffffffffffffffff\n      and\n      0x8be0079c531659141344cd1fd0a4f28419497f9722a3daafe3b4186f6b6457e0\n      mload(0x40)\n      mload(0x40)\n      dup1\n      swap2\n      sub\n      swap1\n      log3\n        /* \"contracts/Ownable.sol\":1715:1716  0 */\n      0x00\n        /* \"contracts/Ownable.sol\":1698:1704  _owner */\n      dup1\n      0x00\n        /* \"contracts/Ownable.sol\":1698:1717  _owner = address(0) */\n      0x0100\n      exp\n      dup2\n      sload\n      dup2\n      0xffffffffffffffffffffffffffffffffffffffff\n      mul\n      not\n      and\n      swap1\n      dup4\n      0xffffffffffffffffffffffffffffffffffffffff\n      and\n      mul\n      or\n      swap1\n      sstore\n      pop\n        /* \"contracts/Ownable.sol\":1585:1725  function renounceOwnership() public onlyOwner {\r... */\n      jump\t// out\n        /* \"contracts/NFTMarketplace.sol\":797:839  mapping (bytes32 => Market) public markets */\n    tag_49:\n      mstore(0x20, 0x04)\n      dup1\n      0x00\n      mstore\n      keccak256(0x00, 0x40)\n      0x00\n      swap2\n      pop\n      swap1\n      pop\n      dup1\n      0x00\n      add\n      0x00\n      swap1\n      sload\n      swap1\n      0x0100\n      exp\n      swap1\n      div\n      0xffffffffffffffffffffffffffffffffffffffff\n      and\n      swap1\n      dup1\n      0x01\n      add\n      sload\n      swap1\n      dup1\n      0x02\n      add\n      0x00\n      swap1\n      sload\n      swap1\n      0x0100\n      exp\n      swap1\n      div\n      0xff\n      and\n      swap1\n      dup1\n      0x02\n      add\n      0x01\n      swap1\n      sload\n      swap1\n      0x0100\n      exp\n      swap1\n      div\n      0xff\n      and\n      swap1\n      dup1\n      0x03\n      add\n      sload\n      swap1\n      dup1\n      0x04\n      add\n      sload\n      swap1\n      dup1\n      0x05\n      add\n      0x00\n      swap1\n      sload\n      swap1\n      0x0100\n      exp\n      swap1\n      div\n      0xffffffffffffffffffffffffffffffffffffffff\n      and\n      swap1\n      dup1\n      0x06\n      add\n      0x00\n      swap1\n      sload\n      swap1\n      0x0100\n      exp\n      swap1\n      div\n      0xffffffffffffffffffffffffffffffffffffffff\n      and\n      swap1\n      pop\n      dup9\n      jump\t// out\n        /* \"contracts/Ownable.sol\":1246:1325  function owner() public view returns (address) {\r... */\n    tag_54:\n        /* \"contracts/Ownable.sol\":1284:1291  address */\n      0x00\n        /* \"contracts/Ownable.sol\":1311:1317  _owner */\n      dup1\n      0x00\n      swap1\n      sload\n      swap1\n      0x0100\n      exp\n      swap1\n      div\n      0xffffffffffffffffffffffffffffffffffffffff\n      and\n        /* \"contracts/Ownable.sol\":1304:1317  return _owner */\n      swap1\n      pop\n        /* \"contracts/Ownable.sol\":1246:1325  function owner() public view returns (address) {\r... */\n      swap1\n      jump\t// out\n        /* \"contracts/NFTMarketplace.sol\":1881:2075  function openMarketForAuctionType(address nftContractId, uint256 tokenId, uint256 price, uint256 maxPrice) external{\r... */\n    tag_61:\n        /* \"contracts/NFTMarketplace.sol\":2003:2071  openMarket(nftContractId,tokenId,price,EOrderType.Auction, maxPrice) */\n      tag_172\n        /* \"contracts/NFTMarketplace.sol\":2014:2027  nftContractId */\n      dup5\n        /* \"contracts/NFTMarketplace.sol\":2028:2035  tokenId */\n      dup5\n        /* \"contracts/NFTMarketplace.sol\":2036:2041  price */\n      dup5\n        /* \"contracts/NFTMarketplace.sol\":2042:2060  EOrderType.Auction */\n      0x02\n        /* \"contracts/NFTMarketplace.sol\":2062:2070  maxPrice */\n      dup6\n        /* \"contracts/NFTMarketplace.sol\":2003:2013  openMarket */\n      tag_173\n        /* \"contracts/NFTMarketplace.sol\":2003:2071  openMarket(nftContractId,tokenId,price,EOrderType.Auction, maxPrice) */\n      jump\t// in\n    tag_172:\n        /* \"contracts/NFTMarketplace.sol\":1881:2075  function openMarketForAuctionType(address nftContractId, uint256 tokenId, uint256 price, uint256 maxPrice) external{\r... */\n      pop\n      pop\n      pop\n      pop\n      jump\t// out\n        /* \"contracts/NFTMarketplace.sol\":6710:7179  function cancel(address nftContractId,  uint256 tokenId) external{\r... */\n    tag_65:\n        /* \"contracts/NFTMarketplace.sol\":6782:6799  bytes32 uniqueKey */\n      0x00\n        /* \"contracts/NFTMarketplace.sol\":6802:6844  getPrivateUniqueKey(nftContractId,tokenId) */\n      tag_175\n        /* \"contracts/NFTMarketplace.sol\":6822:6835  nftContractId */\n      dup4\n        /* \"contracts/NFTMarketplace.sol\":6836:6843  tokenId */\n      dup4\n        /* \"contracts/NFTMarketplace.sol\":6802:6821  getPrivateUniqueKey */\n      tag_96\n        /* \"contracts/NFTMarketplace.sol\":6802:6844  getPrivateUniqueKey(nftContractId,tokenId) */\n      jump\t// in\n    tag_175:\n        /* \"contracts/NFTMarketplace.sol\":6782:6844  bytes32 uniqueKey = getPrivateUniqueKey(nftContractId,tokenId) */\n      swap1\n      pop\n        /* \"contracts/NFTMarketplace.sol\":6893:6903  msg.sender */\n      caller\n        /* \"contracts/NFTMarketplace.sol\":6858:6903  markets[uniqueKey].currentOwner != msg.sender */\n      0xffffffffffffffffffffffffffffffffffffffff\n      and\n        /* \"contracts/NFTMarketplace.sol\":6858:6865  markets */\n      0x04\n        /* \"contracts/NFTMarketplace.sol\":6858:6876  markets[uniqueKey] */\n      0x00\n        /* \"contracts/NFTMarketplace.sol\":6866:6875  uniqueKey */\n      dup4\n        /* \"contracts/NFTMarketplace.sol\":6858:6876  markets[uniqueKey] */\n      dup2\n      mstore\n      0x20\n      add\n      swap1\n      dup2\n      mstore\n      0x20\n      add\n      0x00\n      keccak256\n        /* \"contracts/NFTMarketplace.sol\":6858:6889  markets[uniqueKey].currentOwner */\n      0x05\n      add\n      0x00\n      swap1\n      sload\n      swap1\n      0x0100\n      exp\n      swap1\n      div\n      0xffffffffffffffffffffffffffffffffffffffff\n      and\n        /* \"contracts/NFTMarketplace.sol\":6858:6903  markets[uniqueKey].currentOwner != msg.sender */\n      0xffffffffffffffffffffffffffffffffffffffff\n      and\n      eq\n        /* \"contracts/NFTMarketplace.sol\":6855:6958  if(markets[uniqueKey].currentOwner != msg.sender){\r... */\n      tag_176\n      jumpi\n        /* \"contracts/NFTMarketplace.sol\":6915:6950  revert (\"only for market operator\") */\n      mload(0x40)\n      0x08c379a000000000000000000000000000000000000000000000000000000000\n      dup2\n      mstore\n      0x04\n      add\n      tag_177\n      swap1\n      tag_99\n      jump\t// in\n    tag_177:\n      mload(0x40)\n      dup1\n      swap2\n      sub\n      swap1\n      revert\n        /* \"contracts/NFTMarketplace.sol\":6855:6958  if(markets[uniqueKey].currentOwner != msg.sender){\r... */\n    tag_176:\n        /* \"contracts/NFTMarketplace.sol\":7005:7034  EOrderStatus.OpenForTheMarket */\n      0x01\n        /* \"contracts/NFTMarketplace.sol\":6971:7034  markets[uniqueKey].orderStatus == EOrderStatus.OpenForTheMarket */\n      0x03\n      dup2\n      gt\n      iszero\n      tag_178\n      jumpi\n      mstore(0x00, 0x4e487b7100000000000000000000000000000000000000000000000000000000)\n      mstore(0x04, 0x21)\n      revert(0x00, 0x24)\n    tag_178:\n        /* \"contracts/NFTMarketplace.sol\":6971:6978  markets */\n      0x04\n        /* \"contracts/NFTMarketplace.sol\":6971:6989  markets[uniqueKey] */\n      0x00\n        /* \"contracts/NFTMarketplace.sol\":6979:6988  uniqueKey */\n      dup4\n        /* \"contracts/NFTMarketplace.sol\":6971:6989  markets[uniqueKey] */\n      dup2\n      mstore\n      0x20\n      add\n      swap1\n      dup2\n      mstore\n      0x20\n      add\n      0x00\n      keccak256\n        /* \"contracts/NFTMarketplace.sol\":6971:7001  markets[uniqueKey].orderStatus */\n      0x02\n      add\n      0x01\n      swap1\n      sload\n      swap1\n      0x0100\n      exp\n      swap1\n      div\n      0xff\n      and\n        /* \"contracts/NFTMarketplace.sol\":6971:7034  markets[uniqueKey].orderStatus == EOrderStatus.OpenForTheMarket */\n      0x03\n      dup2\n      gt\n      iszero\n      tag_179\n      jumpi\n      mstore(0x00, 0x4e487b7100000000000000000000000000000000000000000000000000000000)\n      mstore(0x04, 0x21)\n      revert(0x00, 0x24)\n    tag_179:\n      eq\n        /* \"contracts/NFTMarketplace.sol\":6968:7176  if(markets[uniqueKey].orderStatus == EOrderStatus.OpenForTheMarket){\r... */\n      iszero\n      tag_180\n      jumpi\n        /* \"contracts/NFTMarketplace.sol\":7080:7108  EOrderStatus.MarketCancelled */\n      0x02\n        /* \"contracts/NFTMarketplace.sol\":7046:7053  markets */\n      0x04\n        /* \"contracts/NFTMarketplace.sol\":7046:7064  markets[uniqueKey] */\n      0x00\n        /* \"contracts/NFTMarketplace.sol\":7054:7063  uniqueKey */\n      dup4\n        /* \"contracts/NFTMarketplace.sol\":7046:7064  markets[uniqueKey] */\n      dup2\n      mstore\n      0x20\n      add\n      swap1\n      dup2\n      mstore\n      0x20\n      add\n      0x00\n      keccak256\n        /* \"contracts/NFTMarketplace.sol\":7046:7076  markets[uniqueKey].orderStatus */\n      0x02\n      add\n      0x01\n        /* \"contracts/NFTMarketplace.sol\":7046:7108  markets[uniqueKey].orderStatus =  EOrderStatus.MarketCancelled */\n      0x0100\n      exp\n      dup2\n      sload\n      dup2\n      0xff\n      mul\n      not\n      and\n      swap1\n      dup4\n      0x03\n      dup2\n      gt\n      iszero\n      tag_181\n      jumpi\n      mstore(0x00, 0x4e487b7100000000000000000000000000000000000000000000000000000000)\n      mstore(0x04, 0x21)\n      revert(0x00, 0x24)\n    tag_181:\n      mul\n      or\n      swap1\n      sstore\n      pop\n        /* \"contracts/NFTMarketplace.sol\":6968:7176  if(markets[uniqueKey].orderStatus == EOrderStatus.OpenForTheMarket){\r... */\n      jump(tag_182)\n    tag_180:\n        /* \"contracts/NFTMarketplace.sol\":7131:7168  revert (\"Market order is not opened\") */\n      mload(0x40)\n      0x08c379a000000000000000000000000000000000000000000000000000000000\n      dup2\n      mstore\n      0x04\n      add\n      tag_183\n      swap1\n      tag_152\n      jump\t// in\n    tag_183:\n      mload(0x40)\n      dup1\n      swap2\n      sub\n      swap1\n      revert\n        /* \"contracts/NFTMarketplace.sol\":6968:7176  if(markets[uniqueKey].orderStatus == EOrderStatus.OpenForTheMarket){\r... */\n    tag_182:\n        /* \"contracts/NFTMarketplace.sol\":6710:7179  function cancel(address nftContractId,  uint256 tokenId) external{\r... */\n      pop\n      pop\n      pop\n      jump\t// out\n        /* \"contracts/NFTMarketplace.sol\":1113:1207  function setFeePercentage (uint256 value) external onlyOwner{\r... */\n    tag_70:\n        /* \"contracts/Ownable.sol\":853:863  msg.sender */\n      caller\n        /* \"contracts/Ownable.sol\":843:863  _owner == msg.sender */\n      0xffffffffffffffffffffffffffffffffffffffff\n      and\n        /* \"contracts/Ownable.sol\":843:849  _owner */\n      0x00\n      dup1\n      sload\n      swap1\n      0x0100\n      exp\n      swap1\n      div\n      0xffffffffffffffffffffffffffffffffffffffff\n      and\n        /* \"contracts/Ownable.sol\":843:863  _owner == msg.sender */\n      0xffffffffffffffffffffffffffffffffffffffff\n      and\n      eq\n        /* \"contracts/Ownable.sol\":821:933  require(\r... */\n      tag_185\n      jumpi\n      mload(0x40)\n      0x08c379a000000000000000000000000000000000000000000000000000000000\n      dup2\n      mstore\n      0x04\n      add\n      tag_186\n      swap1\n      tag_156\n      jump\t// in\n    tag_186:\n      mload(0x40)\n      dup1\n      swap2\n      sub\n      swap1\n      revert\n    tag_185:\n        /* \"contracts/NFTMarketplace.sol\":1197:1202  value */\n      dup1\n        /* \"contracts/NFTMarketplace.sol\":1180:1194  _feePercentage */\n      0x02\n        /* \"contracts/NFTMarketplace.sol\":1180:1202  _feePercentage = value */\n      dup2\n      swap1\n      sstore\n      pop\n        /* \"contracts/NFTMarketplace.sol\":1113:1207  function setFeePercentage (uint256 value) external onlyOwner{\r... */\n      pop\n      jump\t// out\n        /* \"contracts/NFTMarketplace.sol\":689:713  IERC20 public _wrapToken */\n    tag_73:\n      0x01\n      0x00\n      swap1\n      sload\n      swap1\n      0x0100\n      exp\n      swap1\n      div\n      0xffffffffffffffffffffffffffffffffffffffff\n      and\n      dup2\n      jump\t// out\n        /* \"contracts/NFTMarketplace.sol\":1713:1877  function openMarketForFixedType(address nftContractId, uint256 tokenId, uint256 price) external{\r... */\n    tag_80:\n        /* \"contracts/NFTMarketplace.sol\":1814:1873  openMarket(nftContractId,tokenId,price,EOrderType.Fixed, 0) */\n      tag_189\n        /* \"contracts/NFTMarketplace.sol\":1825:1838  nftContractId */\n      dup4\n        /* \"contracts/NFTMarketplace.sol\":1839:1846  tokenId */\n      dup4\n        /* \"contracts/NFTMarketplace.sol\":1847:1852  price */\n      dup4\n        /* \"contracts/NFTMarketplace.sol\":1853:1869  EOrderType.Fixed */\n      0x01\n        /* \"contracts/NFTMarketplace.sol\":1871:1872  0 */\n      0x00\n        /* \"contracts/NFTMarketplace.sol\":1814:1824  openMarket */\n      tag_173\n        /* \"contracts/NFTMarketplace.sol\":1814:1873  openMarket(nftContractId,tokenId,price,EOrderType.Fixed, 0) */\n      jump\t// in\n    tag_189:\n        /* \"contracts/NFTMarketplace.sol\":1713:1877  function openMarketForFixedType(address nftContractId, uint256 tokenId, uint256 price) external{\r... */\n      pop\n      pop\n      pop\n      jump\t// out\n        /* \"contracts/Ownable.sol\":1829:1938  function transferOwnership(address newOwner) public onlyOwner {\r... */\n    tag_85:\n        /* \"contracts/Ownable.sol\":853:863  msg.sender */\n      caller\n        /* \"contracts/Ownable.sol\":843:863  _owner == msg.sender */\n      0xffffffffffffffffffffffffffffffffffffffff\n      and\n        /* \"contracts/Ownable.sol\":843:849  _owner */\n      0x00\n      dup1\n      sload\n      swap1\n      0x0100\n      exp\n      swap1\n      div\n      0xffffffffffffffffffffffffffffffffffffffff\n      and\n        /* \"contracts/Ownable.sol\":843:863  _owner == msg.sender */\n      0xffffffffffffffffffffffffffffffffffffffff\n      and\n      eq\n        /* \"contracts/Ownable.sol\":821:933  require(\r... */\n      tag_191\n      jumpi\n      mload(0x40)\n      0x08c379a000000000000000000000000000000000000000000000000000000000\n      dup2\n      mstore\n      0x04\n      add\n      tag_192\n      swap1\n      tag_156\n      jump\t// in\n    tag_192:\n      mload(0x40)\n      dup1\n      swap2\n      sub\n      swap1\n      revert\n    tag_191:\n        /* \"contracts/Ownable.sol\":1902:1930  _transferOwnership(newOwner) */\n      tag_194\n        /* \"contracts/Ownable.sol\":1921:1929  newOwner */\n      dup2\n        /* \"contracts/Ownable.sol\":1902:1920  _transferOwnership */\n      tag_195\n        /* \"contracts/Ownable.sol\":1902:1930  _transferOwnership(newOwner) */\n      jump\t// in\n    tag_194:\n        /* \"contracts/Ownable.sol\":1829:1938  function transferOwnership(address newOwner) public onlyOwner {\r... */\n      pop\n      jump\t// out\n        /* \"contracts/NFTMarketplace.sol\":716:745  uint256 public _feePercentage */\n    tag_88:\n      sload(0x02)\n      dup2\n      jump\t// out\n        /* \"contracts/NFTMarketplace.sol\":3000:4751  function closeMarketForFixedType(address nftContractId, uint256 tokenId ) external payable{ \r... */\n    tag_93:\n        /* \"contracts/NFTMarketplace.sol\":3098:3115  bytes32 uniqueKey */\n      0x00\n        /* \"contracts/NFTMarketplace.sol\":3118:3160  getPrivateUniqueKey(nftContractId,tokenId) */\n      tag_197\n        /* \"contracts/NFTMarketplace.sol\":3138:3151  nftContractId */\n      dup4\n        /* \"contracts/NFTMarketplace.sol\":3152:3159  tokenId */\n      dup4\n        /* \"contracts/NFTMarketplace.sol\":3118:3137  getPrivateUniqueKey */\n      tag_96\n        /* \"contracts/NFTMarketplace.sol\":3118:3160  getPrivateUniqueKey(nftContractId,tokenId) */\n      jump\t// in\n    tag_197:\n        /* \"contracts/NFTMarketplace.sol\":3098:3160  bytes32 uniqueKey = getPrivateUniqueKey(nftContractId,tokenId) */\n      swap1\n      pop\n        /* \"contracts/NFTMarketplace.sol\":3210:3239  EOrderStatus.OpenForTheMarket */\n      0x01\n        /* \"contracts/NFTMarketplace.sol\":3176:3239  markets[uniqueKey].orderStatus == EOrderStatus.OpenForTheMarket */\n      0x03\n      dup2\n      gt\n      iszero\n      tag_198\n      jumpi\n      mstore(0x00, 0x4e487b7100000000000000000000000000000000000000000000000000000000)\n      mstore(0x04, 0x21)\n      revert(0x00, 0x24)\n    tag_198:\n        /* \"contracts/NFTMarketplace.sol\":3176:3183  markets */\n      0x04\n        /* \"contracts/NFTMarketplace.sol\":3176:3194  markets[uniqueKey] */\n      0x00\n        /* \"contracts/NFTMarketplace.sol\":3184:3193  uniqueKey */\n      dup4\n        /* \"contracts/NFTMarketplace.sol\":3176:3194  markets[uniqueKey] */\n      dup2\n      mstore\n      0x20\n      add\n      swap1\n      dup2\n      mstore\n      0x20\n      add\n      0x00\n      keccak256\n        /* \"contracts/NFTMarketplace.sol\":3176:3206  markets[uniqueKey].orderStatus */\n      0x02\n      add\n      0x01\n      swap1\n      sload\n      swap1\n      0x0100\n      exp\n      swap1\n      div\n      0xff\n      and\n        /* \"contracts/NFTMarketplace.sol\":3176:3239  markets[uniqueKey].orderStatus == EOrderStatus.OpenForTheMarket */\n      0x03\n      dup2\n      gt\n      iszero\n      tag_199\n      jumpi\n      mstore(0x00, 0x4e487b7100000000000000000000000000000000000000000000000000000000)\n      mstore(0x04, 0x21)\n      revert(0x00, 0x24)\n    tag_199:\n      eq\n        /* \"contracts/NFTMarketplace.sol\":3173:4748  if(markets[uniqueKey].orderStatus == EOrderStatus.OpenForTheMarket){\r... */\n      iszero\n      tag_200\n      jumpi\n        /* \"contracts/NFTMarketplace.sol\":3288:3303  EOrderType.None */\n      0x00\n        /* \"contracts/NFTMarketplace.sol\":3256:3303  markets[uniqueKey].orderType == EOrderType.None */\n      0x02\n      dup2\n      gt\n      iszero\n      tag_201\n      jumpi\n      mstore(0x00, 0x4e487b7100000000000000000000000000000000000000000000000000000000)\n      mstore(0x04, 0x21)\n      revert(0x00, 0x24)\n    tag_201:\n        /* \"contracts/NFTMarketplace.sol\":3256:3263  markets */\n      0x04\n        /* \"contracts/NFTMarketplace.sol\":3256:3274  markets[uniqueKey] */\n      0x00\n        /* \"contracts/NFTMarketplace.sol\":3264:3273  uniqueKey */\n      dup4\n        /* \"contracts/NFTMarketplace.sol\":3256:3274  markets[uniqueKey] */\n      dup2\n      mstore\n      0x20\n      add\n      swap1\n      dup2\n      mstore\n      0x20\n      add\n      0x00\n      keccak256\n        /* \"contracts/NFTMarketplace.sol\":3256:3284  markets[uniqueKey].orderType */\n      0x02\n      add\n      0x00\n      swap1\n      sload\n      swap1\n      0x0100\n      exp\n      swap1\n      div\n      0xff\n      and\n        /* \"contracts/NFTMarketplace.sol\":3256:3303  markets[uniqueKey].orderType == EOrderType.None */\n      0x02\n      dup2\n      gt\n      iszero\n      tag_202\n      jumpi\n      mstore(0x00, 0x4e487b7100000000000000000000000000000000000000000000000000000000)\n      mstore(0x04, 0x21)\n      revert(0x00, 0x24)\n    tag_202:\n      eq\n        /* \"contracts/NFTMarketplace.sol\":3253:3757  if(markets[uniqueKey].orderType == EOrderType.None){\r... */\n      iszero\n      tag_203\n      jumpi\n        /* \"contracts/NFTMarketplace.sol\":3319:3344  revert (\"nft not opened\") */\n      mload(0x40)\n      0x08c379a000000000000000000000000000000000000000000000000000000000\n      dup2\n      mstore\n      0x04\n      add\n      tag_204\n      swap1\n      tag_205\n      jump\t// in\n    tag_204:\n      mload(0x40)\n      dup1\n      swap2\n      sub\n      swap1\n      revert\n        /* \"contracts/NFTMarketplace.sol\":3253:3757  if(markets[uniqueKey].orderType == EOrderType.None){\r... */\n    tag_203:\n        /* \"contracts/NFTMarketplace.sol\":3412:3428  EOrderType.Fixed */\n      0x01\n        /* \"contracts/NFTMarketplace.sol\":3380:3428  markets[uniqueKey].orderType == EOrderType.Fixed */\n      0x02\n      dup2\n      gt\n      iszero\n      tag_207\n      jumpi\n      mstore(0x00, 0x4e487b7100000000000000000000000000000000000000000000000000000000)\n      mstore(0x04, 0x21)\n      revert(0x00, 0x24)\n    tag_207:\n        /* \"contracts/NFTMarketplace.sol\":3380:3387  markets */\n      0x04\n        /* \"contracts/NFTMarketplace.sol\":3380:3398  markets[uniqueKey] */\n      0x00\n        /* \"contracts/NFTMarketplace.sol\":3388:3397  uniqueKey */\n      dup4\n        /* \"contracts/NFTMarketplace.sol\":3380:3398  markets[uniqueKey] */\n      dup2\n      mstore\n      0x20\n      add\n      swap1\n      dup2\n      mstore\n      0x20\n      add\n      0x00\n      keccak256\n        /* \"contracts/NFTMarketplace.sol\":3380:3408  markets[uniqueKey].orderType */\n      0x02\n      add\n      0x00\n      swap1\n      sload\n      swap1\n      0x0100\n      exp\n      swap1\n      div\n      0xff\n      and\n        /* \"contracts/NFTMarketplace.sol\":3380:3428  markets[uniqueKey].orderType == EOrderType.Fixed */\n      0x02\n      dup2\n      gt\n      iszero\n      tag_208\n      jumpi\n      mstore(0x00, 0x4e487b7100000000000000000000000000000000000000000000000000000000)\n      mstore(0x04, 0x21)\n      revert(0x00, 0x24)\n    tag_208:\n      eq\n        /* \"contracts/NFTMarketplace.sol\":3377:3757  if(markets[uniqueKey].orderType == EOrderType.Fixed){\r... */\n      iszero\n      tag_209\n      jumpi\n        /* \"contracts/NFTMarketplace.sol\":3478:3487  msg.value */\n      callvalue\n        /* \"contracts/NFTMarketplace.sol\":3447:3454  markets */\n      0x04\n        /* \"contracts/NFTMarketplace.sol\":3447:3465  markets[uniqueKey] */\n      0x00\n        /* \"contracts/NFTMarketplace.sol\":3455:3464  uniqueKey */\n      dup4\n        /* \"contracts/NFTMarketplace.sol\":3447:3465  markets[uniqueKey] */\n      dup2\n      mstore\n      0x20\n      add\n      swap1\n      dup2\n      mstore\n      0x20\n      add\n      0x00\n      keccak256\n        /* \"contracts/NFTMarketplace.sol\":3447:3475  markets[uniqueKey].askAmount */\n      0x03\n      add\n      sload\n        /* \"contracts/NFTMarketplace.sol\":3447:3487  markets[uniqueKey].askAmount < msg.value */\n      lt\n        /* \"contracts/NFTMarketplace.sol\":3444:3551  if(markets[uniqueKey].askAmount < msg.value){\r... */\n      iszero\n      tag_210\n      jumpi\n        /* \"contracts/NFTMarketplace.sol\":3507:3535  revert (\"Value not matched\") */\n      mload(0x40)\n      0x08c379a000000000000000000000000000000000000000000000000000000000\n      dup2\n      mstore\n      0x04\n      add\n      tag_211\n      swap1\n      tag_149\n      jump\t// in\n    tag_211:\n      mload(0x40)\n      dup1\n      swap2\n      sub\n      swap1\n      revert\n        /* \"contracts/NFTMarketplace.sol\":3444:3551  if(markets[uniqueKey].askAmount < msg.value){\r... */\n    tag_210:\n        /* \"contracts/NFTMarketplace.sol\":3377:3757  if(markets[uniqueKey].orderType == EOrderType.Fixed){\r... */\n      jump(tag_212)\n    tag_209:\n        /* \"contracts/NFTMarketplace.sol\":3603:3621  EOrderType.Auction */\n      0x02\n        /* \"contracts/NFTMarketplace.sol\":3571:3621  markets[uniqueKey].orderType == EOrderType.Auction */\n      dup1\n      dup2\n      gt\n      iszero\n      tag_213\n      jumpi\n      mstore(0x00, 0x4e487b7100000000000000000000000000000000000000000000000000000000)\n      mstore(0x04, 0x21)\n      revert(0x00, 0x24)\n    tag_213:\n        /* \"contracts/NFTMarketplace.sol\":3571:3578  markets */\n      0x04\n        /* \"contracts/NFTMarketplace.sol\":3571:3589  markets[uniqueKey] */\n      0x00\n        /* \"contracts/NFTMarketplace.sol\":3579:3588  uniqueKey */\n      dup4\n        /* \"contracts/NFTMarketplace.sol\":3571:3589  markets[uniqueKey] */\n      dup2\n      mstore\n      0x20\n      add\n      swap1\n      dup2\n      mstore\n      0x20\n      add\n      0x00\n      keccak256\n        /* \"contracts/NFTMarketplace.sol\":3571:3599  markets[uniqueKey].orderType */\n      0x02\n      add\n      0x00\n      swap1\n      sload\n      swap1\n      0x0100\n      exp\n      swap1\n      div\n      0xff\n      and\n        /* \"contracts/NFTMarketplace.sol\":3571:3621  markets[uniqueKey].orderType == EOrderType.Auction */\n      0x02\n      dup2\n      gt\n      iszero\n      tag_214\n      jumpi\n      mstore(0x00, 0x4e487b7100000000000000000000000000000000000000000000000000000000)\n      mstore(0x04, 0x21)\n      revert(0x00, 0x24)\n    tag_214:\n      eq\n        /* \"contracts/NFTMarketplace.sol\":3567:3757  if (markets[uniqueKey].orderType == EOrderType.Auction){\r... */\n      iszero\n      tag_215\n      jumpi\n        /* \"contracts/NFTMarketplace.sol\":3673:3682  msg.value */\n      callvalue\n        /* \"contracts/NFTMarketplace.sol\":3639:3646  markets */\n      0x04\n        /* \"contracts/NFTMarketplace.sol\":3639:3657  markets[uniqueKey] */\n      0x00\n        /* \"contracts/NFTMarketplace.sol\":3647:3656  uniqueKey */\n      dup4\n        /* \"contracts/NFTMarketplace.sol\":3639:3657  markets[uniqueKey] */\n      dup2\n      mstore\n      0x20\n      add\n      swap1\n      dup2\n      mstore\n      0x20\n      add\n      0x00\n      keccak256\n        /* \"contracts/NFTMarketplace.sol\":3639:3670  markets[uniqueKey].maxAskAmount */\n      0x04\n      add\n      sload\n        /* \"contracts/NFTMarketplace.sol\":3639:3682  markets[uniqueKey].maxAskAmount < msg.value */\n      lt\n        /* \"contracts/NFTMarketplace.sol\":3636:3746  if(markets[uniqueKey].maxAskAmount < msg.value){\r... */\n      iszero\n      tag_216\n      jumpi\n        /* \"contracts/NFTMarketplace.sol\":3702:3730  revert (\"Value not matched\") */\n      mload(0x40)\n      0x08c379a000000000000000000000000000000000000000000000000000000000\n      dup2\n      mstore\n      0x04\n      add\n      tag_217\n      swap1\n      tag_149\n      jump\t// in\n    tag_217:\n      mload(0x40)\n      dup1\n      swap2\n      sub\n      swap1\n      revert\n        /* \"contracts/NFTMarketplace.sol\":3636:3746  if(markets[uniqueKey].maxAskAmount < msg.value){\r... */\n    tag_216:\n        /* \"contracts/NFTMarketplace.sol\":3567:3757  if (markets[uniqueKey].orderType == EOrderType.Auction){\r... */\n    tag_215:\n        /* \"contracts/NFTMarketplace.sol\":3377:3757  if(markets[uniqueKey].orderType == EOrderType.Fixed){\r... */\n    tag_212:\n        /* \"contracts/NFTMarketplace.sol\":3771:3795  INFTContract nftContract */\n      0x00\n        /* \"contracts/NFTMarketplace.sol\":3811:3818  markets */\n      0x04\n        /* \"contracts/NFTMarketplace.sol\":3811:3829  markets[uniqueKey] */\n      0x00\n        /* \"contracts/NFTMarketplace.sol\":3819:3828  uniqueKey */\n      dup4\n        /* \"contracts/NFTMarketplace.sol\":3811:3829  markets[uniqueKey] */\n      dup2\n      mstore\n      0x20\n      add\n      swap1\n      dup2\n      mstore\n      0x20\n      add\n      0x00\n      keccak256\n        /* \"contracts/NFTMarketplace.sol\":3811:3845  markets[uniqueKey].contractAddress */\n      0x00\n      add\n      0x00\n      swap1\n      sload\n      swap1\n      0x0100\n      exp\n      swap1\n      div\n      0xffffffffffffffffffffffffffffffffffffffff\n      and\n        /* \"contracts/NFTMarketplace.sol\":3771:3846  INFTContract nftContract = INFTContract(markets[uniqueKey].contractAddress) */\n      swap1\n      pop\n        /* \"contracts/NFTMarketplace.sol\":3858:3874  uint256 royality */\n      0x00\n        /* \"contracts/NFTMarketplace.sol\":3876:3891  address creator */\n      dup1\n        /* \"contracts/NFTMarketplace.sol\":3895:3906  nftContract */\n      dup3\n        /* \"contracts/NFTMarketplace.sol\":3895:3925  nftContract.getRoyalityDetails */\n      0xffffffffffffffffffffffffffffffffffffffff\n      and\n      0x179efa20\n        /* \"contracts/NFTMarketplace.sol\":3926:3933  tokenId */\n      dup7\n        /* \"contracts/NFTMarketplace.sol\":3895:3934  nftContract.getRoyalityDetails(tokenId) */\n      mload(0x40)\n      dup3\n      0xffffffff\n      and\n      0xe0\n      shl\n      dup2\n      mstore\n      0x04\n      add\n      tag_218\n      swap2\n      swap1\n      tag_90\n      jump\t// in\n    tag_218:\n      0x40\n      dup1\n      mload\n      dup1\n      dup4\n      sub\n      dup2\n      dup7\n      dup1\n      extcodesize\n      iszero\n      dup1\n      iszero\n      tag_219\n      jumpi\n      0x00\n      dup1\n      revert\n    tag_219:\n      pop\n      gas\n      staticcall\n      iszero\n      dup1\n      iszero\n      tag_221\n      jumpi\n      returndatasize\n      0x00\n      dup1\n      returndatacopy\n      revert(0x00, returndatasize)\n    tag_221:\n      pop\n      pop\n      pop\n      pop\n      mload(0x40)\n      returndatasize\n      not(0x1f)\n      0x1f\n      dup3\n      add\n      and\n      dup3\n      add\n      dup1\n      0x40\n      mstore\n      pop\n      dup2\n      add\n      swap1\n      tag_222\n      swap2\n      swap1\n      tag_124\n      jump\t// in\n    tag_222:\n        /* \"contracts/NFTMarketplace.sol\":3857:3934  (uint256 royality, address creator) = nftContract.getRoyalityDetails(tokenId) */\n      swap2\n      pop\n      swap2\n      pop\n        /* \"contracts/NFTMarketplace.sol\":3976:3987  uint256 fee */\n      0x00\n        /* \"contracts/NFTMarketplace.sol\":3990:4033  getFeePercentage(msg.value, _feePercentage) */\n      tag_223\n        /* \"contracts/NFTMarketplace.sol\":4007:4016  msg.value */\n      callvalue\n        /* \"contracts/NFTMarketplace.sol\":4018:4032  _feePercentage */\n      sload(0x02)\n        /* \"contracts/NFTMarketplace.sol\":3990:4006  getFeePercentage */\n      tag_110\n        /* \"contracts/NFTMarketplace.sol\":3990:4033  getFeePercentage(msg.value, _feePercentage) */\n      jump\t// in\n    tag_223:\n        /* \"contracts/NFTMarketplace.sol\":3976:4033  uint256 fee = getFeePercentage(msg.value, _feePercentage) */\n      swap1\n      pop\n        /* \"contracts/NFTMarketplace.sol\":4044:4066  _feeDestinationAddress */\n      0x03\n      0x00\n      swap1\n      sload\n      swap1\n      0x0100\n      exp\n      swap1\n      div\n      0xffffffffffffffffffffffffffffffffffffffff\n      and\n        /* \"contracts/NFTMarketplace.sol\":4044:4075  _feeDestinationAddress.transfer */\n      0xffffffffffffffffffffffffffffffffffffffff\n      and\n        /* \"contracts/NFTMarketplace.sol\":4044:4080  _feeDestinationAddress.transfer(fee) */\n      0x08fc\n        /* \"contracts/NFTMarketplace.sol\":4076:4079  fee */\n      dup3\n        /* \"contracts/NFTMarketplace.sol\":4044:4080  _feeDestinationAddress.transfer(fee) */\n      swap1\n      dup2\n      iszero\n      mul\n      swap1\n      mload(0x40)\n      0x00\n      mload(0x40)\n      dup1\n      dup4\n      sub\n      dup2\n      dup6\n      dup9\n      dup9\n      call\n      swap4\n      pop\n      pop\n      pop\n      pop\n      iszero\n      dup1\n      iszero\n      tag_225\n      jumpi\n      returndatasize\n      0x00\n      dup1\n      returndatacopy\n      revert(0x00, returndatasize)\n    tag_225:\n      pop\n        /* \"contracts/NFTMarketplace.sol\":4117:4136  uint256 royalityFee */\n      0x00\n        /* \"contracts/NFTMarketplace.sol\":4139:4176  getFeePercentage(msg.value, royality) */\n      tag_226\n        /* \"contracts/NFTMarketplace.sol\":4156:4165  msg.value */\n      callvalue\n        /* \"contracts/NFTMarketplace.sol\":4167:4175  royality */\n      dup6\n        /* \"contracts/NFTMarketplace.sol\":4139:4155  getFeePercentage */\n      tag_110\n        /* \"contracts/NFTMarketplace.sol\":4139:4176  getFeePercentage(msg.value, royality) */\n      jump\t// in\n    tag_226:\n        /* \"contracts/NFTMarketplace.sol\":4117:4176  uint256 royalityFee = getFeePercentage(msg.value, royality) */\n      swap1\n      pop\n        /* \"contracts/NFTMarketplace.sol\":4195:4202  creator */\n      dup3\n        /* \"contracts/NFTMarketplace.sol\":4187:4212  payable(creator).transfer */\n      0xffffffffffffffffffffffffffffffffffffffff\n      and\n        /* \"contracts/NFTMarketplace.sol\":4187:4225  payable(creator).transfer(royalityFee) */\n      0x08fc\n        /* \"contracts/NFTMarketplace.sol\":4213:4224  royalityFee */\n      dup3\n        /* \"contracts/NFTMarketplace.sol\":4187:4225  payable(creator).transfer(royalityFee) */\n      swap1\n      dup2\n      iszero\n      mul\n      swap1\n      mload(0x40)\n      0x00\n      mload(0x40)\n      dup1\n      dup4\n      sub\n      dup2\n      dup6\n      dup9\n      dup9\n      call\n      swap4\n      pop\n      pop\n      pop\n      pop\n      iszero\n      dup1\n      iszero\n      tag_228\n      jumpi\n      returndatasize\n      0x00\n      dup1\n      returndatacopy\n      revert(0x00, returndatasize)\n    tag_228:\n      pop\n        /* \"contracts/NFTMarketplace.sol\":4238:4256  uint256 ownerShare */\n      0x00\n        /* \"contracts/NFTMarketplace.sol\":4259:4294  msg.value.sub(fee.add(royalityFee)) */\n      tag_229\n        /* \"contracts/NFTMarketplace.sol\":4273:4293  fee.add(royalityFee) */\n      tag_230\n        /* \"contracts/NFTMarketplace.sol\":4281:4292  royalityFee */\n      dup4\n        /* \"contracts/NFTMarketplace.sol\":4273:4276  fee */\n      dup6\n        /* \"contracts/NFTMarketplace.sol\":4273:4280  fee.add */\n      tag_134\n      swap1\n        /* \"contracts/NFTMarketplace.sol\":4273:4293  fee.add(royalityFee) */\n      swap2\n      swap1\n      0xffffffff\n      and\n      jump\t// in\n    tag_230:\n        /* \"contracts/NFTMarketplace.sol\":4259:4268  msg.value */\n      callvalue\n        /* \"contracts/NFTMarketplace.sol\":4259:4272  msg.value.sub */\n      tag_135\n      swap1\n        /* \"contracts/NFTMarketplace.sol\":4259:4294  msg.value.sub(fee.add(royalityFee)) */\n      swap2\n      swap1\n      0xffffffff\n      and\n      jump\t// in\n    tag_229:\n        /* \"contracts/NFTMarketplace.sol\":4238:4294  uint256 ownerShare = msg.value.sub(fee.add(royalityFee)) */\n      swap1\n      pop\n        /* \"contracts/NFTMarketplace.sol\":4342:4349  markets */\n      0x04\n        /* \"contracts/NFTMarketplace.sol\":4342:4360  markets[uniqueKey] */\n      0x00\n        /* \"contracts/NFTMarketplace.sol\":4350:4359  uniqueKey */\n      dup9\n        /* \"contracts/NFTMarketplace.sol\":4342:4360  markets[uniqueKey] */\n      dup2\n      mstore\n      0x20\n      add\n      swap1\n      dup2\n      mstore\n      0x20\n      add\n      0x00\n      keccak256\n        /* \"contracts/NFTMarketplace.sol\":4342:4373  markets[uniqueKey].currentOwner */\n      0x05\n      add\n      0x00\n      swap1\n      sload\n      swap1\n      0x0100\n      exp\n      swap1\n      div\n      0xffffffffffffffffffffffffffffffffffffffff\n      and\n        /* \"contracts/NFTMarketplace.sol\":4342:4382  markets[uniqueKey].currentOwner.transfer */\n      0xffffffffffffffffffffffffffffffffffffffff\n      and\n        /* \"contracts/NFTMarketplace.sol\":4342:4394  markets[uniqueKey].currentOwner.transfer(ownerShare) */\n      0x08fc\n        /* \"contracts/NFTMarketplace.sol\":4383:4393  ownerShare */\n      dup3\n        /* \"contracts/NFTMarketplace.sol\":4342:4394  markets[uniqueKey].currentOwner.transfer(ownerShare) */\n      swap1\n      dup2\n      iszero\n      mul\n      swap1\n      mload(0x40)\n      0x00\n      mload(0x40)\n      dup1\n      dup4\n      sub\n      dup2\n      dup6\n      dup9\n      dup9\n      call\n      swap4\n      pop\n      pop\n      pop\n      pop\n      iszero\n      dup1\n      iszero\n      tag_232\n      jumpi\n      returndatasize\n      0x00\n      dup1\n      returndatacopy\n      revert(0x00, returndatasize)\n    tag_232:\n      pop\n        /* \"contracts/NFTMarketplace.sol\":4445:4456  nftContract */\n      dup6\n        /* \"contracts/NFTMarketplace.sol\":4445:4473  nftContract.safeTransferFrom */\n      0xffffffffffffffffffffffffffffffffffffffff\n      and\n      0x42842e0e\n        /* \"contracts/NFTMarketplace.sol\":4474:4481  markets */\n      0x04\n        /* \"contracts/NFTMarketplace.sol\":4474:4492  markets[uniqueKey] */\n      0x00\n        /* \"contracts/NFTMarketplace.sol\":4482:4491  uniqueKey */\n      dup11\n        /* \"contracts/NFTMarketplace.sol\":4474:4492  markets[uniqueKey] */\n      dup2\n      mstore\n      0x20\n      add\n      swap1\n      dup2\n      mstore\n      0x20\n      add\n      0x00\n      keccak256\n        /* \"contracts/NFTMarketplace.sol\":4474:4505  markets[uniqueKey].currentOwner */\n      0x05\n      add\n      0x00\n      swap1\n      sload\n      swap1\n      0x0100\n      exp\n      swap1\n      div\n      0xffffffffffffffffffffffffffffffffffffffff\n      and\n        /* \"contracts/NFTMarketplace.sol\":4507:4517  msg.sender */\n      caller\n        /* \"contracts/NFTMarketplace.sol\":4519:4526  tokenId */\n      dup12\n        /* \"contracts/NFTMarketplace.sol\":4445:4527  nftContract.safeTransferFrom(markets[uniqueKey].currentOwner, msg.sender, tokenId) */\n      mload(0x40)\n      dup5\n      0xffffffff\n      and\n      0xe0\n      shl\n      dup2\n      mstore\n      0x04\n      add\n      tag_233\n      swap4\n      swap3\n      swap2\n      swap1\n      tag_142\n      jump\t// in\n    tag_233:\n      0x00\n      mload(0x40)\n      dup1\n      dup4\n      sub\n      dup2\n      0x00\n      dup8\n      dup1\n      extcodesize\n      iszero\n      dup1\n      iszero\n      tag_234\n      jumpi\n      0x00\n      dup1\n      revert\n    tag_234:\n      pop\n      gas\n      call\n      iszero\n      dup1\n      iszero\n      tag_236\n      jumpi\n      returndatasize\n      0x00\n      dup1\n      returndatacopy\n      revert(0x00, returndatasize)\n    tag_236:\n      pop\n      pop\n      pop\n      pop\n        /* \"contracts/NFTMarketplace.sol\":4602:4627  EOrderStatus.MarketClosed */\n      0x03\n        /* \"contracts/NFTMarketplace.sol\":4569:4576  markets */\n      0x04\n        /* \"contracts/NFTMarketplace.sol\":4569:4587  markets[uniqueKey] */\n      0x00\n        /* \"contracts/NFTMarketplace.sol\":4577:4586  uniqueKey */\n      dup10\n        /* \"contracts/NFTMarketplace.sol\":4569:4587  markets[uniqueKey] */\n      dup2\n      mstore\n      0x20\n      add\n      swap1\n      dup2\n      mstore\n      0x20\n      add\n      0x00\n      keccak256\n        /* \"contracts/NFTMarketplace.sol\":4569:4599  markets[uniqueKey].orderStatus */\n      0x02\n      add\n      0x01\n        /* \"contracts/NFTMarketplace.sol\":4569:4627  markets[uniqueKey].orderStatus = EOrderStatus.MarketClosed */\n      0x0100\n      exp\n      dup2\n      sload\n      dup2\n      0xff\n      mul\n      not\n      and\n      swap1\n      dup4\n      0x03\n      dup2\n      gt\n      iszero\n      tag_237\n      jumpi\n      mstore(0x00, 0x4e487b7100000000000000000000000000000000000000000000000000000000)\n      mstore(0x04, 0x21)\n      revert(0x00, 0x24)\n    tag_237:\n      mul\n      or\n      swap1\n      sstore\n      pop\n        /* \"contracts/NFTMarketplace.sol\":4668:4678  msg.sender */\n      caller\n        /* \"contracts/NFTMarketplace.sol\":4638:4645  markets */\n      0x04\n        /* \"contracts/NFTMarketplace.sol\":4638:4656  markets[uniqueKey] */\n      0x00\n        /* \"contracts/NFTMarketplace.sol\":4646:4655  uniqueKey */\n      dup10\n        /* \"contracts/NFTMarketplace.sol\":4638:4656  markets[uniqueKey] */\n      dup2\n      mstore\n      0x20\n      add\n      swap1\n      dup2\n      mstore\n      0x20\n      add\n      0x00\n      keccak256\n        /* \"contracts/NFTMarketplace.sol\":4638:4665  markets[uniqueKey].newOwner */\n      0x06\n      add\n      0x00\n        /* \"contracts/NFTMarketplace.sol\":4638:4678  markets[uniqueKey].newOwner = msg.sender */\n      0x0100\n      exp\n      dup2\n      sload\n      dup2\n      0xffffffffffffffffffffffffffffffffffffffff\n      mul\n      not\n      and\n      swap1\n      dup4\n      0xffffffffffffffffffffffffffffffffffffffff\n      and\n      mul\n      or\n      swap1\n      sstore\n      pop\n        /* \"contracts/NFTMarketplace.sol\":3173:4748  if(markets[uniqueKey].orderStatus == EOrderStatus.OpenForTheMarket){\r... */\n      pop\n      pop\n      pop\n      pop\n      pop\n      pop\n      jump(tag_238)\n    tag_200:\n        /* \"contracts/NFTMarketplace.sol\":4703:4740  revert (\"Market order is not opened\") */\n      mload(0x40)\n      0x08c379a000000000000000000000000000000000000000000000000000000000\n      dup2\n      mstore\n      0x04\n      add\n      tag_239\n      swap1\n      tag_152\n      jump\t// in\n    tag_239:\n      mload(0x40)\n      dup1\n      swap2\n      sub\n      swap1\n      revert\n        /* \"contracts/NFTMarketplace.sol\":3173:4748  if(markets[uniqueKey].orderStatus == EOrderStatus.OpenForTheMarket){\r... */\n    tag_238:\n        /* \"contracts/NFTMarketplace.sol\":3000:4751  function closeMarketForFixedType(address nftContractId, uint256 tokenId ) external payable{ \r... */\n      pop\n      pop\n      pop\n      jump\t// out\n        /* \"contracts/NFTMarketplace.sol\":1333:1501  function getPrivateUniqueKey(address nftContractId, uint256 tokenId) private pure returns (bytes32){\r... */\n    tag_96:\n        /* \"contracts/NFTMarketplace.sol\":1424:1431  bytes32 */\n      0x00\n        /* \"contracts/NFTMarketplace.sol\":1473:1486  nftContractId */\n      dup3\n        /* \"contracts/NFTMarketplace.sol\":1488:1495  tokenId */\n      dup3\n        /* \"contracts/NFTMarketplace.sol\":1456:1496  abi.encodePacked(nftContractId, tokenId) */\n      add(0x20, mload(0x40))\n      tag_241\n      swap3\n      swap2\n      swap1\n      tag_242\n      jump\t// in\n    tag_241:\n      mload(0x40)\n      0x20\n      dup2\n      dup4\n      sub\n      sub\n      dup2\n      mstore\n      swap1\n      0x40\n      mstore\n        /* \"contracts/NFTMarketplace.sol\":1446:1497  keccak256(abi.encodePacked(nftContractId, tokenId)) */\n      dup1\n      mload\n      swap1\n      0x20\n      add\n      keccak256\n        /* \"contracts/NFTMarketplace.sol\":1439:1497  return keccak256(abi.encodePacked(nftContractId, tokenId)) */\n      swap1\n      pop\n        /* \"contracts/NFTMarketplace.sol\":1333:1501  function getPrivateUniqueKey(address nftContractId, uint256 tokenId) private pure returns (bytes32){\r... */\n      swap3\n      swap2\n      pop\n      pop\n      jump\t// out\n        /* \"contracts/NFTMarketplace.sol\":6573:6706  function getFeePercentage(uint256 price, uint256 percent) private pure returns (uint256){\r... */\n    tag_110:\n        /* \"contracts/NFTMarketplace.sol\":6653:6660  uint256 */\n      0x00\n        /* \"contracts/NFTMarketplace.sol\":6675:6702  price.mul(percent).div(100) */\n      tag_244\n        /* \"contracts/NFTMarketplace.sol\":6698:6701  100 */\n      0x64\n        /* \"contracts/NFTMarketplace.sol\":6675:6693  price.mul(percent) */\n      tag_245\n        /* \"contracts/NFTMarketplace.sol\":6685:6692  percent */\n      dup5\n        /* \"contracts/NFTMarketplace.sol\":6675:6680  price */\n      dup7\n        /* \"contracts/NFTMarketplace.sol\":6675:6684  price.mul */\n      tag_246\n      swap1\n        /* \"contracts/NFTMarketplace.sol\":6675:6693  price.mul(percent) */\n      swap2\n      swap1\n      0xffffffff\n      and\n      jump\t// in\n    tag_245:\n        /* \"contracts/NFTMarketplace.sol\":6675:6697  price.mul(percent).div */\n      tag_247\n      swap1\n        /* \"contracts/NFTMarketplace.sol\":6675:6702  price.mul(percent).div(100) */\n      swap2\n      swap1\n      0xffffffff\n      and\n      jump\t// in\n    tag_244:\n        /* \"contracts/NFTMarketplace.sol\":6668:6702  return price.mul(percent).div(100) */\n      swap1\n      pop\n        /* \"contracts/NFTMarketplace.sol\":6573:6706  function getFeePercentage(uint256 price, uint256 percent) private pure returns (uint256){\r... */\n      swap3\n      swap2\n      pop\n      pop\n      jump\t// out\n        /* \"contracts/SafeMath.sol\":2922:3020  function add(uint256 a, uint256 b) internal pure returns (uint256) {\r... */\n    tag_134:\n        /* \"contracts/SafeMath.sol\":2980:2987  uint256 */\n      0x00\n        /* \"contracts/SafeMath.sol\":3011:3012  b */\n      dup2\n        /* \"contracts/SafeMath.sol\":3007:3008  a */\n      dup4\n        /* \"contracts/SafeMath.sol\":3007:3012  a + b */\n      tag_249\n      swap2\n      swap1\n      tag_250\n      jump\t// in\n    tag_249:\n        /* \"contracts/SafeMath.sol\":3000:3012  return a + b */\n      swap1\n      pop\n        /* \"contracts/SafeMath.sol\":2922:3020  function add(uint256 a, uint256 b) internal pure returns (uint256) {\r... */\n      swap3\n      swap2\n      pop\n      pop\n      jump\t// out\n        /* \"contracts/SafeMath.sol\":3303:3401  function sub(uint256 a, uint256 b) internal pure returns (uint256) {\r... */\n    tag_135:\n        /* \"contracts/SafeMath.sol\":3361:3368  uint256 */\n      0x00\n        /* \"contracts/SafeMath.sol\":3392:3393  b */\n      dup2\n        /* \"contracts/SafeMath.sol\":3388:3389  a */\n      dup4\n        /* \"contracts/SafeMath.sol\":3388:3393  a - b */\n      tag_252\n      swap2\n      swap1\n      tag_253\n      jump\t// in\n    tag_252:\n        /* \"contracts/SafeMath.sol\":3381:3393  return a - b */\n      swap1\n      pop\n        /* \"contracts/SafeMath.sol\":3303:3401  function sub(uint256 a, uint256 b) internal pure returns (uint256) {\r... */\n      swap3\n      swap2\n      pop\n      pop\n      jump\t// out\n        /* \"contracts/NFTMarketplace.sol\":2079:2996  function openMarket(address nftContractId, uint256 tokenId, uint256 price, EOrderType orderType, uint256 maxPrice) private{\r... */\n    tag_173:\n        /* \"contracts/NFTMarketplace.sol\":2208:2225  bytes32 uniqueKey */\n      0x00\n        /* \"contracts/NFTMarketplace.sol\":2228:2270  getPrivateUniqueKey(nftContractId,tokenId) */\n      tag_255\n        /* \"contracts/NFTMarketplace.sol\":2248:2261  nftContractId */\n      dup7\n        /* \"contracts/NFTMarketplace.sol\":2262:2269  tokenId */\n      dup7\n        /* \"contracts/NFTMarketplace.sol\":2228:2247  getPrivateUniqueKey */\n      tag_96\n        /* \"contracts/NFTMarketplace.sol\":2228:2270  getPrivateUniqueKey(nftContractId,tokenId) */\n      jump\t// in\n    tag_255:\n        /* \"contracts/NFTMarketplace.sol\":2208:2270  bytes32 uniqueKey = getPrivateUniqueKey(nftContractId,tokenId) */\n      swap1\n      pop\n        /* \"contracts/NFTMarketplace.sol\":2316:2345  EOrderStatus.OpenForTheMarket */\n      0x01\n        /* \"contracts/NFTMarketplace.sol\":2282:2345  markets[uniqueKey].orderStatus == EOrderStatus.OpenForTheMarket */\n      0x03\n      dup2\n      gt\n      iszero\n      tag_256\n      jumpi\n      mstore(0x00, 0x4e487b7100000000000000000000000000000000000000000000000000000000)\n      mstore(0x04, 0x21)\n      revert(0x00, 0x24)\n    tag_256:\n        /* \"contracts/NFTMarketplace.sol\":2282:2289  markets */\n      0x04\n        /* \"contracts/NFTMarketplace.sol\":2282:2300  markets[uniqueKey] */\n      0x00\n        /* \"contracts/NFTMarketplace.sol\":2290:2299  uniqueKey */\n      dup4\n        /* \"contracts/NFTMarketplace.sol\":2282:2300  markets[uniqueKey] */\n      dup2\n      mstore\n      0x20\n      add\n      swap1\n      dup2\n      mstore\n      0x20\n      add\n      0x00\n      keccak256\n        /* \"contracts/NFTMarketplace.sol\":2282:2312  markets[uniqueKey].orderStatus */\n      0x02\n      add\n      0x01\n      swap1\n      sload\n      swap1\n      0x0100\n      exp\n      swap1\n      div\n      0xff\n      and\n        /* \"contracts/NFTMarketplace.sol\":2282:2345  markets[uniqueKey].orderStatus == EOrderStatus.OpenForTheMarket */\n      0x03\n      dup2\n      gt\n      iszero\n      tag_257\n      jumpi\n      mstore(0x00, 0x4e487b7100000000000000000000000000000000000000000000000000000000)\n      mstore(0x04, 0x21)\n      revert(0x00, 0x24)\n    tag_257:\n      eq\n        /* \"contracts/NFTMarketplace.sol\":2279:2406  if(markets[uniqueKey].orderStatus == EOrderStatus.OpenForTheMarket){\r... */\n      iszero\n      tag_258\n      jumpi\n        /* \"contracts/NFTMarketplace.sol\":2357:2398  revert (\"Market order is already opened\") */\n      mload(0x40)\n      0x08c379a000000000000000000000000000000000000000000000000000000000\n      dup2\n      mstore\n      0x04\n      add\n      tag_259\n      swap1\n      tag_260\n      jump\t// in\n    tag_259:\n      mload(0x40)\n      dup1\n      swap2\n      sub\n      swap1\n      revert\n        /* \"contracts/NFTMarketplace.sol\":2279:2406  if(markets[uniqueKey].orderStatus == EOrderStatus.OpenForTheMarket){\r... */\n    tag_258:\n        /* \"contracts/NFTMarketplace.sol\":2430:2431  0 */\n      0x00\n        /* \"contracts/NFTMarketplace.sol\":2421:2426  price */\n      dup5\n        /* \"contracts/NFTMarketplace.sol\":2421:2431  price <= 0 */\n      gt\n        /* \"contracts/NFTMarketplace.sol\":2418:2492  if(price <= 0){\r... */\n      tag_261\n      jumpi\n        /* \"contracts/NFTMarketplace.sol\":2443:2484  revert (\"Price Should be greater then 0\") */\n      mload(0x40)\n      0x08c379a000000000000000000000000000000000000000000000000000000000\n      dup2\n      mstore\n      0x04\n      add\n      tag_262\n      swap1\n      tag_263\n      jump\t// in\n    tag_262:\n      mload(0x40)\n      dup1\n      swap2\n      sub\n      swap1\n      revert\n        /* \"contracts/NFTMarketplace.sol\":2418:2492  if(price <= 0){\r... */\n    tag_261:\n        /* \"contracts/NFTMarketplace.sol\":2516:2534  EOrderType.Auction */\n      0x02\n        /* \"contracts/NFTMarketplace.sol\":2503:2534  orderType == EOrderType.Auction */\n      dup1\n      dup2\n      gt\n      iszero\n      tag_264\n      jumpi\n      mstore(0x00, 0x4e487b7100000000000000000000000000000000000000000000000000000000)\n      mstore(0x04, 0x21)\n      revert(0x00, 0x24)\n    tag_264:\n        /* \"contracts/NFTMarketplace.sol\":2503:2512  orderType */\n      dup4\n        /* \"contracts/NFTMarketplace.sol\":2503:2534  orderType == EOrderType.Auction */\n      0x02\n      dup2\n      gt\n      iszero\n      tag_265\n      jumpi\n      mstore(0x00, 0x4e487b7100000000000000000000000000000000000000000000000000000000)\n      mstore(0x04, 0x21)\n      revert(0x00, 0x24)\n    tag_265:\n      eq\n        /* \"contracts/NFTMarketplace.sol\":2503:2554  orderType == EOrderType.Auction && price > maxPrice */\n      dup1\n      iszero\n      tag_266\n      jumpi\n      pop\n        /* \"contracts/NFTMarketplace.sol\":2546:2554  maxPrice */\n      dup2\n        /* \"contracts/NFTMarketplace.sol\":2538:2543  price */\n      dup5\n        /* \"contracts/NFTMarketplace.sol\":2538:2554  price > maxPrice */\n      gt\n        /* \"contracts/NFTMarketplace.sol\":2503:2554  orderType == EOrderType.Auction && price > maxPrice */\n    tag_266:\n        /* \"contracts/NFTMarketplace.sol\":2500:2623  if(orderType == EOrderType.Auction && price > maxPrice){\r... */\n      iszero\n      tag_267\n      jumpi\n        /* \"contracts/NFTMarketplace.sol\":2566:2615  revert (\"end Price Should be greater then price\") */\n      mload(0x40)\n      0x08c379a000000000000000000000000000000000000000000000000000000000\n      dup2\n      mstore\n      0x04\n      add\n      tag_268\n      swap1\n      tag_269\n      jump\t// in\n    tag_268:\n      mload(0x40)\n      dup1\n      swap2\n      sub\n      swap1\n      revert\n        /* \"contracts/NFTMarketplace.sol\":2500:2623  if(orderType == EOrderType.Auction && price > maxPrice){\r... */\n    tag_267:\n        /* \"contracts/NFTMarketplace.sol\":2664:2693  EOrderStatus.OpenForTheMarket */\n      0x01\n        /* \"contracts/NFTMarketplace.sol\":2631:2638  markets */\n      0x04\n        /* \"contracts/NFTMarketplace.sol\":2631:2649  markets[uniqueKey] */\n      0x00\n        /* \"contracts/NFTMarketplace.sol\":2639:2648  uniqueKey */\n      dup4\n        /* \"contracts/NFTMarketplace.sol\":2631:2649  markets[uniqueKey] */\n      dup2\n      mstore\n      0x20\n      add\n      swap1\n      dup2\n      mstore\n      0x20\n      add\n      0x00\n      keccak256\n        /* \"contracts/NFTMarketplace.sol\":2631:2661  markets[uniqueKey].orderStatus */\n      0x02\n      add\n      0x01\n        /* \"contracts/NFTMarketplace.sol\":2631:2693  markets[uniqueKey].orderStatus = EOrderStatus.OpenForTheMarket */\n      0x0100\n      exp\n      dup2\n      sload\n      dup2\n      0xff\n      mul\n      not\n      and\n      swap1\n      dup4\n      0x03\n      dup2\n      gt\n      iszero\n      tag_270\n      jumpi\n      mstore(0x00, 0x4e487b7100000000000000000000000000000000000000000000000000000000)\n      mstore(0x04, 0x21)\n      revert(0x00, 0x24)\n    tag_270:\n      mul\n      or\n      swap1\n      sstore\n      pop\n        /* \"contracts/NFTMarketplace.sol\":2731:2740  orderType */\n      dup3\n        /* \"contracts/NFTMarketplace.sol\":2700:2707  markets */\n      0x04\n        /* \"contracts/NFTMarketplace.sol\":2700:2718  markets[uniqueKey] */\n      0x00\n        /* \"contracts/NFTMarketplace.sol\":2708:2717  uniqueKey */\n      dup4\n        /* \"contracts/NFTMarketplace.sol\":2700:2718  markets[uniqueKey] */\n      dup2\n      mstore\n      0x20\n      add\n      swap1\n      dup2\n      mstore\n      0x20\n      add\n      0x00\n      keccak256\n        /* \"contracts/NFTMarketplace.sol\":2700:2728  markets[uniqueKey].orderType */\n      0x02\n      add\n      0x00\n        /* \"contracts/NFTMarketplace.sol\":2700:2740  markets[uniqueKey].orderType = orderType */\n      0x0100\n      exp\n      dup2\n      sload\n      dup2\n      0xff\n      mul\n      not\n      and\n      swap1\n      dup4\n      0x02\n      dup2\n      gt\n      iszero\n      tag_271\n      jumpi\n      mstore(0x00, 0x4e487b7100000000000000000000000000000000000000000000000000000000)\n      mstore(0x04, 0x21)\n      revert(0x00, 0x24)\n    tag_271:\n      mul\n      or\n      swap1\n      sstore\n      pop\n        /* \"contracts/NFTMarketplace.sol\":2778:2783  price */\n      dup4\n        /* \"contracts/NFTMarketplace.sol\":2747:2754  markets */\n      0x04\n        /* \"contracts/NFTMarketplace.sol\":2747:2765  markets[uniqueKey] */\n      0x00\n        /* \"contracts/NFTMarketplace.sol\":2755:2764  uniqueKey */\n      dup4\n        /* \"contracts/NFTMarketplace.sol\":2747:2765  markets[uniqueKey] */\n      dup2\n      mstore\n      0x20\n      add\n      swap1\n      dup2\n      mstore\n      0x20\n      add\n      0x00\n      keccak256\n        /* \"contracts/NFTMarketplace.sol\":2747:2775  markets[uniqueKey].askAmount */\n      0x03\n      add\n        /* \"contracts/NFTMarketplace.sol\":2747:2783  markets[uniqueKey].askAmount = price */\n      dup2\n      swap1\n      sstore\n      pop\n        /* \"contracts/NFTMarketplace.sol\":2824:2832  maxPrice */\n      dup2\n        /* \"contracts/NFTMarketplace.sol\":2790:2797  markets */\n      0x04\n        /* \"contracts/NFTMarketplace.sol\":2790:2808  markets[uniqueKey] */\n      0x00\n        /* \"contracts/NFTMarketplace.sol\":2798:2807  uniqueKey */\n      dup4\n        /* \"contracts/NFTMarketplace.sol\":2790:2808  markets[uniqueKey] */\n      dup2\n      mstore\n      0x20\n      add\n      swap1\n      dup2\n      mstore\n      0x20\n      add\n      0x00\n      keccak256\n        /* \"contracts/NFTMarketplace.sol\":2790:2821  markets[uniqueKey].maxAskAmount */\n      0x04\n      add\n        /* \"contracts/NFTMarketplace.sol\":2790:2832  markets[uniqueKey].maxAskAmount = maxPrice */\n      dup2\n      swap1\n      sstore\n      pop\n        /* \"contracts/NFTMarketplace.sol\":2876:2889  nftContractId */\n      dup6\n        /* \"contracts/NFTMarketplace.sol\":2839:2846  markets */\n      0x04\n        /* \"contracts/NFTMarketplace.sol\":2839:2857  markets[uniqueKey] */\n      0x00\n        /* \"contracts/NFTMarketplace.sol\":2847:2856  uniqueKey */\n      dup4\n        /* \"contracts/NFTMarketplace.sol\":2839:2857  markets[uniqueKey] */\n      dup2\n      mstore\n      0x20\n      add\n      swap1\n      dup2\n      mstore\n      0x20\n      add\n      0x00\n      keccak256\n        /* \"contracts/NFTMarketplace.sol\":2839:2873  markets[uniqueKey].contractAddress */\n      0x00\n      add\n      0x00\n        /* \"contracts/NFTMarketplace.sol\":2839:2889  markets[uniqueKey].contractAddress = nftContractId */\n      0x0100\n      exp\n      dup2\n      sload\n      dup2\n      0xffffffffffffffffffffffffffffffffffffffff\n      mul\n      not\n      and\n      swap1\n      dup4\n      0xffffffffffffffffffffffffffffffffffffffff\n      and\n      mul\n      or\n      swap1\n      sstore\n      pop\n        /* \"contracts/NFTMarketplace.sol\":2925:2932  tokenId */\n      dup5\n        /* \"contracts/NFTMarketplace.sol\":2896:2903  markets */\n      0x04\n        /* \"contracts/NFTMarketplace.sol\":2896:2914  markets[uniqueKey] */\n      0x00\n        /* \"contracts/NFTMarketplace.sol\":2904:2913  uniqueKey */\n      dup4\n        /* \"contracts/NFTMarketplace.sol\":2896:2914  markets[uniqueKey] */\n      dup2\n      mstore\n      0x20\n      add\n      swap1\n      dup2\n      mstore\n      0x20\n      add\n      0x00\n      keccak256\n        /* \"contracts/NFTMarketplace.sol\":2896:2922  markets[uniqueKey].tokenId */\n      0x01\n      add\n        /* \"contracts/NFTMarketplace.sol\":2896:2932  markets[uniqueKey].tokenId = tokenId */\n      dup2\n      swap1\n      sstore\n      pop\n        /* \"contracts/NFTMarketplace.sol\":2981:2991  msg.sender */\n      caller\n        /* \"contracts/NFTMarketplace.sol\":2939:2946  markets */\n      0x04\n        /* \"contracts/NFTMarketplace.sol\":2939:2957  markets[uniqueKey] */\n      0x00\n        /* \"contracts/NFTMarketplace.sol\":2947:2956  uniqueKey */\n      dup4\n        /* \"contracts/NFTMarketplace.sol\":2939:2957  markets[uniqueKey] */\n      dup2\n      mstore\n      0x20\n      add\n      swap1\n      dup2\n      mstore\n      0x20\n      add\n      0x00\n      keccak256\n        /* \"contracts/NFTMarketplace.sol\":2939:2970  markets[uniqueKey].currentOwner */\n      0x05\n      add\n      0x00\n        /* \"contracts/NFTMarketplace.sol\":2939:2992  markets[uniqueKey].currentOwner = payable(msg.sender) */\n      0x0100\n      exp\n      dup2\n      sload\n      dup2\n      0xffffffffffffffffffffffffffffffffffffffff\n      mul\n      not\n      and\n      swap1\n      dup4\n      0xffffffffffffffffffffffffffffffffffffffff\n      and\n      mul\n      or\n      swap1\n      sstore\n      pop\n        /* \"contracts/NFTMarketplace.sol\":2079:2996  function openMarket(address nftContractId, uint256 tokenId, uint256 price, EOrderType orderType, uint256 maxPrice) private{\r... */\n      pop\n      pop\n      pop\n      pop\n      pop\n      pop\n      jump\t// out\n        /* \"contracts/Ownable.sol\":2043:2309  function _transferOwnership(address newOwner) internal {\r... */\n    tag_195:\n        /* \"contracts/Ownable.sol\":2151:2152  0 */\n      0x00\n        /* \"contracts/Ownable.sol\":2131:2153  newOwner != address(0) */\n      0xffffffffffffffffffffffffffffffffffffffff\n      and\n        /* \"contracts/Ownable.sol\":2131:2139  newOwner */\n      dup2\n        /* \"contracts/Ownable.sol\":2131:2153  newOwner != address(0) */\n      0xffffffffffffffffffffffffffffffffffffffff\n      and\n      eq\n      iszero\n        /* \"contracts/Ownable.sol\":2109:2219  require(\r... */\n      tag_273\n      jumpi\n      mload(0x40)\n      0x08c379a000000000000000000000000000000000000000000000000000000000\n      dup2\n      mstore\n      0x04\n      add\n      tag_274\n      swap1\n      tag_275\n      jump\t// in\n    tag_274:\n      mload(0x40)\n      dup1\n      swap2\n      sub\n      swap1\n      revert\n    tag_273:\n        /* \"contracts/Ownable.sol\":2264:2272  newOwner */\n      dup1\n        /* \"contracts/Ownable.sol\":2235:2273  OwnershipTransferred(_owner, newOwner) */\n      0xffffffffffffffffffffffffffffffffffffffff\n      and\n        /* \"contracts/Ownable.sol\":2256:2262  _owner */\n      0x00\n      dup1\n      sload\n      swap1\n      0x0100\n      exp\n      swap1\n      div\n      0xffffffffffffffffffffffffffffffffffffffff\n      and\n        /* \"contracts/Ownable.sol\":2235:2273  OwnershipTransferred(_owner, newOwner) */\n      0xffffffffffffffffffffffffffffffffffffffff\n      and\n      0x8be0079c531659141344cd1fd0a4f28419497f9722a3daafe3b4186f6b6457e0\n      mload(0x40)\n      mload(0x40)\n      dup1\n      swap2\n      sub\n      swap1\n      log3\n        /* \"contracts/Ownable.sol\":2293:2301  newOwner */\n      dup1\n        /* \"contracts/Ownable.sol\":2284:2290  _owner */\n      0x00\n      dup1\n        /* \"contracts/Ownable.sol\":2284:2301  _owner = newOwner */\n      0x0100\n      exp\n      dup2\n      sload\n      dup2\n      0xffffffffffffffffffffffffffffffffffffffff\n      mul\n      not\n      and\n      swap1\n      dup4\n      0xffffffffffffffffffffffffffffffffffffffff\n      and\n      mul\n      or\n      swap1\n      sstore\n      pop\n        /* \"contracts/Ownable.sol\":2043:2309  function _transferOwnership(address newOwner) internal {\r... */\n      pop\n      jump\t// out\n        /* \"contracts/SafeMath.sol\":3660:3758  function mul(uint256 a, uint256 b) internal pure returns (uint256) {\r... */\n    tag_246:\n        /* \"contracts/SafeMath.sol\":3718:3725  uint256 */\n      0x00\n        /* \"contracts/SafeMath.sol\":3749:3750  b */\n      dup2\n        /* \"contracts/SafeMath.sol\":3745:3746  a */\n      dup4\n        /* \"contracts/SafeMath.sol\":3745:3750  a * b */\n      tag_277\n      swap2\n      swap1\n      tag_278\n      jump\t// in\n    tag_277:\n        /* \"contracts/SafeMath.sol\":3738:3750  return a * b */\n      swap1\n      pop\n        /* \"contracts/SafeMath.sol\":3660:3758  function mul(uint256 a, uint256 b) internal pure returns (uint256) {\r... */\n      swap3\n      swap2\n      pop\n      pop\n      jump\t// out\n        /* \"contracts/SafeMath.sol\":4059:4157  function div(uint256 a, uint256 b) internal pure returns (uint256) {\r... */\n    tag_247:\n        /* \"contracts/SafeMath.sol\":4117:4124  uint256 */\n      0x00\n        /* \"contracts/SafeMath.sol\":4148:4149  b */\n      dup2\n        /* \"contracts/SafeMath.sol\":4144:4145  a */\n      dup4\n        /* \"contracts/SafeMath.sol\":4144:4149  a / b */\n      tag_280\n      swap2\n      swap1\n      tag_281\n      jump\t// in\n    tag_280:\n        /* \"contracts/SafeMath.sol\":4137:4149  return a / b */\n      swap1\n      pop\n        /* \"contracts/SafeMath.sol\":4059:4157  function div(uint256 a, uint256 b) internal pure returns (uint256) {\r... */\n      swap3\n      swap2\n      pop\n      pop\n      jump\t// out\n    tag_159:\n      mload(0x40)\n      dup1\n      0x0100\n      add\n      0x40\n      mstore\n      dup1\n      and(0xffffffffffffffffffffffffffffffffffffffff, 0x00)\n      dup2\n      mstore\n      0x20\n      add\n      0x00\n      dup2\n      mstore\n      0x20\n      add\n      0x00\n      0x02\n      dup2\n      gt\n      iszero\n      tag_282\n      jumpi\n      mstore(0x00, 0x4e487b7100000000000000000000000000000000000000000000000000000000)\n      mstore(0x04, 0x21)\n      revert(0x00, 0x24)\n    tag_282:\n      dup2\n      mstore\n      0x20\n      add\n      0x00\n      0x03\n      dup2\n      gt\n      iszero\n      tag_283\n      jumpi\n      mstore(0x00, 0x4e487b7100000000000000000000000000000000000000000000000000000000)\n      mstore(0x04, 0x21)\n      revert(0x00, 0x24)\n    tag_283:\n      dup2\n      mstore\n      0x20\n      add\n      0x00\n      dup2\n      mstore\n      0x20\n      add\n      0x00\n      dup2\n      mstore\n      0x20\n      add\n      and(0xffffffffffffffffffffffffffffffffffffffff, 0x00)\n      dup2\n      mstore\n      0x20\n      add\n      and(0xffffffffffffffffffffffffffffffffffffffff, 0x00)\n      dup2\n      mstore\n      pop\n      swap1\n      jump\t// out\n        /* \"#utility.yul\":7:146   */\n    tag_285:\n        /* \"#utility.yul\":53:58   */\n      0x00\n        /* \"#utility.yul\":91:97   */\n      dup2\n        /* \"#utility.yul\":78:98   */\n      calldataload\n        /* \"#utility.yul\":69:98   */\n      swap1\n      pop\n        /* \"#utility.yul\":107:140   */\n      tag_287\n        /* \"#utility.yul\":134:139   */\n      dup2\n        /* \"#utility.yul\":107:140   */\n      tag_288\n      jump\t// in\n    tag_287:\n        /* \"#utility.yul\":59:146   */\n      swap3\n      swap2\n      pop\n      pop\n      jump\t// out\n        /* \"#utility.yul\":152:295   */\n    tag_289:\n        /* \"#utility.yul\":209:214   */\n      0x00\n        /* \"#utility.yul\":240:246   */\n      dup2\n        /* \"#utility.yul\":234:247   */\n      mload\n        /* \"#utility.yul\":225:247   */\n      swap1\n      pop\n        /* \"#utility.yul\":256:289   */\n      tag_291\n        /* \"#utility.yul\":283:288   */\n      dup2\n        /* \"#utility.yul\":256:289   */\n      tag_288\n      jump\t// in\n    tag_291:\n        /* \"#utility.yul\":215:295   */\n      swap3\n      swap2\n      pop\n      pop\n      jump\t// out\n        /* \"#utility.yul\":301:456   */\n    tag_292:\n        /* \"#utility.yul\":355:360   */\n      0x00\n        /* \"#utility.yul\":393:399   */\n      dup2\n        /* \"#utility.yul\":380:400   */\n      calldataload\n        /* \"#utility.yul\":371:400   */\n      swap1\n      pop\n        /* \"#utility.yul\":409:450   */\n      tag_294\n        /* \"#utility.yul\":444:449   */\n      dup2\n        /* \"#utility.yul\":409:450   */\n      tag_295\n      jump\t// in\n    tag_294:\n        /* \"#utility.yul\":361:456   */\n      swap3\n      swap2\n      pop\n      pop\n      jump\t// out\n        /* \"#utility.yul\":462:599   */\n    tag_296:\n        /* \"#utility.yul\":516:521   */\n      0x00\n        /* \"#utility.yul\":547:553   */\n      dup2\n        /* \"#utility.yul\":541:554   */\n      mload\n        /* \"#utility.yul\":532:554   */\n      swap1\n      pop\n        /* \"#utility.yul\":563:593   */\n      tag_298\n        /* \"#utility.yul\":587:592   */\n      dup2\n        /* \"#utility.yul\":563:593   */\n      tag_299\n      jump\t// in\n    tag_298:\n        /* \"#utility.yul\":522:599   */\n      swap3\n      swap2\n      pop\n      pop\n      jump\t// out\n        /* \"#utility.yul\":605:744   */\n    tag_300:\n        /* \"#utility.yul\":651:656   */\n      0x00\n        /* \"#utility.yul\":689:695   */\n      dup2\n        /* \"#utility.yul\":676:696   */\n      calldataload\n        /* \"#utility.yul\":667:696   */\n      swap1\n      pop\n        /* \"#utility.yul\":705:738   */\n      tag_302\n        /* \"#utility.yul\":732:737   */\n      dup2\n        /* \"#utility.yul\":705:738   */\n      tag_303\n      jump\t// in\n    tag_302:\n        /* \"#utility.yul\":657:744   */\n      swap3\n      swap2\n      pop\n      pop\n      jump\t// out\n        /* \"#utility.yul\":750:889   */\n    tag_304:\n        /* \"#utility.yul\":796:801   */\n      0x00\n        /* \"#utility.yul\":834:840   */\n      dup2\n        /* \"#utility.yul\":821:841   */\n      calldataload\n        /* \"#utility.yul\":812:841   */\n      swap1\n      pop\n        /* \"#utility.yul\":850:883   */\n      tag_306\n        /* \"#utility.yul\":877:882   */\n      dup2\n        /* \"#utility.yul\":850:883   */\n      tag_307\n      jump\t// in\n    tag_306:\n        /* \"#utility.yul\":802:889   */\n      swap3\n      swap2\n      pop\n      pop\n      jump\t// out\n        /* \"#utility.yul\":895:1038   */\n    tag_308:\n        /* \"#utility.yul\":952:957   */\n      0x00\n        /* \"#utility.yul\":983:989   */\n      dup2\n        /* \"#utility.yul\":977:990   */\n      mload\n        /* \"#utility.yul\":968:990   */\n      swap1\n      pop\n        /* \"#utility.yul\":999:1032   */\n      tag_310\n        /* \"#utility.yul\":1026:1031   */\n      dup2\n        /* \"#utility.yul\":999:1032   */\n      tag_307\n      jump\t// in\n    tag_310:\n        /* \"#utility.yul\":958:1038   */\n      swap3\n      swap2\n      pop\n      pop\n      jump\t// out\n        /* \"#utility.yul\":1044:1306   */\n    tag_84:\n        /* \"#utility.yul\":1103:1109   */\n      0x00\n        /* \"#utility.yul\":1152:1154   */\n      0x20\n        /* \"#utility.yul\":1140:1149   */\n      dup3\n        /* \"#utility.yul\":1131:1138   */\n      dup5\n        /* \"#utility.yul\":1127:1150   */\n      sub\n        /* \"#utility.yul\":1123:1155   */\n      slt\n        /* \"#utility.yul\":1120:1122   */\n      iszero\n      tag_312\n      jumpi\n        /* \"#utility.yul\":1168:1169   */\n      0x00\n        /* \"#utility.yul\":1165:1166   */\n      dup1\n        /* \"#utility.yul\":1158:1170   */\n      revert\n        /* \"#utility.yul\":1120:1122   */\n    tag_312:\n        /* \"#utility.yul\":1211:1212   */\n      0x00\n        /* \"#utility.yul\":1236:1289   */\n      tag_313\n        /* \"#utility.yul\":1281:1288   */\n      dup5\n        /* \"#utility.yul\":1272:1278   */\n      dup3\n        /* \"#utility.yul\":1261:1270   */\n      dup6\n        /* \"#utility.yul\":1257:1279   */\n      add\n        /* \"#utility.yul\":1236:1289   */\n      tag_285\n      jump\t// in\n    tag_313:\n        /* \"#utility.yul\":1226:1289   */\n      swap2\n      pop\n        /* \"#utility.yul\":1182:1299   */\n      pop\n        /* \"#utility.yul\":1110:1306   */\n      swap3\n      swap2\n      pop\n      pop\n      jump\t// out\n        /* \"#utility.yul\":1312:1590   */\n    tag_33:\n        /* \"#utility.yul\":1379:1385   */\n      0x00\n        /* \"#utility.yul\":1428:1430   */\n      0x20\n        /* \"#utility.yul\":1416:1425   */\n      dup3\n        /* \"#utility.yul\":1407:1414   */\n      dup5\n        /* \"#utility.yul\":1403:1426   */\n      sub\n        /* \"#utility.yul\":1399:1431   */\n      slt\n        /* \"#utility.yul\":1396:1398   */\n      iszero\n      tag_315\n      jumpi\n        /* \"#utility.yul\":1444:1445   */\n      0x00\n        /* \"#utility.yul\":1441:1442   */\n      dup1\n        /* \"#utility.yul\":1434:1446   */\n      revert\n        /* \"#utility.yul\":1396:1398   */\n    tag_315:\n        /* \"#utility.yul\":1487:1488   */\n      0x00\n        /* \"#utility.yul\":1512:1573   */\n      tag_316\n        /* \"#utility.yul\":1565:1572   */\n      dup5\n        /* \"#utility.yul\":1556:1562   */\n      dup3\n        /* \"#utility.yul\":1545:1554   */\n      dup6\n        /* \"#utility.yul\":1541:1563   */\n      add\n        /* \"#utility.yul\":1512:1573   */\n      tag_292\n      jump\t// in\n    tag_316:\n        /* \"#utility.yul\":1502:1573   */\n      swap2\n      pop\n        /* \"#utility.yul\":1458:1583   */\n      pop\n        /* \"#utility.yul\":1386:1590   */\n      swap3\n      swap2\n      pop\n      pop\n      jump\t// out\n        /* \"#utility.yul\":1596:2003   */\n    tag_38:\n        /* \"#utility.yul\":1664:1670   */\n      0x00\n        /* \"#utility.yul\":1672:1678   */\n      dup1\n        /* \"#utility.yul\":1721:1723   */\n      0x40\n        /* \"#utility.yul\":1709:1718   */\n      dup4\n        /* \"#utility.yul\":1700:1707   */\n      dup6\n        /* \"#utility.yul\":1696:1719   */\n      sub\n        /* \"#utility.yul\":1692:1724   */\n      slt\n        /* \"#utility.yul\":1689:1691   */\n      iszero\n      tag_318\n      jumpi\n        /* \"#utility.yul\":1737:1738   */\n      0x00\n        /* \"#utility.yul\":1734:1735   */\n      dup1\n        /* \"#utility.yul\":1727:1739   */\n      revert\n        /* \"#utility.yul\":1689:1691   */\n    tag_318:\n        /* \"#utility.yul\":1780:1781   */\n      0x00\n        /* \"#utility.yul\":1805:1858   */\n      tag_319\n        /* \"#utility.yul\":1850:1857   */\n      dup6\n        /* \"#utility.yul\":1841:1847   */\n      dup3\n        /* \"#utility.yul\":1830:1839   */\n      dup7\n        /* \"#utility.yul\":1826:1848   */\n      add\n        /* \"#utility.yul\":1805:1858   */\n      tag_285\n      jump\t// in\n    tag_319:\n        /* \"#utility.yul\":1795:1858   */\n      swap3\n      pop\n        /* \"#utility.yul\":1751:1868   */\n      pop\n        /* \"#utility.yul\":1907:1909   */\n      0x20\n        /* \"#utility.yul\":1933:1986   */\n      tag_320\n        /* \"#utility.yul\":1978:1985   */\n      dup6\n        /* \"#utility.yul\":1969:1975   */\n      dup3\n        /* \"#utility.yul\":1958:1967   */\n      dup7\n        /* \"#utility.yul\":1954:1976   */\n      add\n        /* \"#utility.yul\":1933:1986   */\n      tag_304\n      jump\t// in\n    tag_320:\n        /* \"#utility.yul\":1923:1986   */\n      swap2\n      pop\n        /* \"#utility.yul\":1878:1996   */\n      pop\n        /* \"#utility.yul\":1679:2003   */\n      swap3\n      pop\n      swap3\n      swap1\n      pop\n      jump\t// out\n        /* \"#utility.yul\":2009:2561   */\n    tag_79:\n        /* \"#utility.yul\":2086:2092   */\n      0x00\n        /* \"#utility.yul\":2094:2100   */\n      dup1\n        /* \"#utility.yul\":2102:2108   */\n      0x00\n        /* \"#utility.yul\":2151:2153   */\n      0x60\n        /* \"#utility.yul\":2139:2148   */\n      dup5\n        /* \"#utility.yul\":2130:2137   */\n      dup7\n        /* \"#utility.yul\":2126:2149   */\n      sub\n        /* \"#utility.yul\":2122:2154   */\n      slt\n        /* \"#utility.yul\":2119:2121   */\n      iszero\n      tag_322\n      jumpi\n        /* \"#utility.yul\":2167:2168   */\n      0x00\n        /* \"#utility.yul\":2164:2165   */\n      dup1\n        /* \"#utility.yul\":2157:2169   */\n      revert\n        /* \"#utility.yul\":2119:2121   */\n    tag_322:\n        /* \"#utility.yul\":2210:2211   */\n      0x00\n        /* \"#utility.yul\":2235:2288   */\n      tag_323\n        /* \"#utility.yul\":2280:2287   */\n      dup7\n        /* \"#utility.yul\":2271:2277   */\n      dup3\n        /* \"#utility.yul\":2260:2269   */\n      dup8\n        /* \"#utility.yul\":2256:2278   */\n      add\n        /* \"#utility.yul\":2235:2288   */\n      tag_285\n      jump\t// in\n    tag_323:\n        /* \"#utility.yul\":2225:2288   */\n      swap4\n      pop\n        /* \"#utility.yul\":2181:2298   */\n      pop\n        /* \"#utility.yul\":2337:2339   */\n      0x20\n        /* \"#utility.yul\":2363:2416   */\n      tag_324\n        /* \"#utility.yul\":2408:2415   */\n      dup7\n        /* \"#utility.yul\":2399:2405   */\n      dup3\n        /* \"#utility.yul\":2388:2397   */\n      dup8\n        /* \"#utility.yul\":2384:2406   */\n      add\n        /* \"#utility.yul\":2363:2416   */\n      tag_304\n      jump\t// in\n    tag_324:\n        /* \"#utility.yul\":2353:2416   */\n      swap3\n      pop\n        /* \"#utility.yul\":2308:2426   */\n      pop\n        /* \"#utility.yul\":2465:2467   */\n      0x40\n        /* \"#utility.yul\":2491:2544   */\n      tag_325\n        /* \"#utility.yul\":2536:2543   */\n      dup7\n        /* \"#utility.yul\":2527:2533   */\n      dup3\n        /* \"#utility.yul\":2516:2525   */\n      dup8\n        /* \"#utility.yul\":2512:2534   */\n      add\n        /* \"#utility.yul\":2491:2544   */\n      tag_304\n      jump\t// in\n    tag_325:\n        /* \"#utility.yul\":2481:2544   */\n      swap2\n      pop\n        /* \"#utility.yul\":2436:2554   */\n      pop\n        /* \"#utility.yul\":2109:2561   */\n      swap3\n      pop\n      swap3\n      pop\n      swap3\n      jump\t// out\n        /* \"#utility.yul\":2567:3265   */\n    tag_28:\n        /* \"#utility.yul\":2653:2659   */\n      0x00\n        /* \"#utility.yul\":2661:2667   */\n      dup1\n        /* \"#utility.yul\":2669:2675   */\n      0x00\n        /* \"#utility.yul\":2677:2683   */\n      dup1\n        /* \"#utility.yul\":2726:2729   */\n      0x80\n        /* \"#utility.yul\":2714:2723   */\n      dup6\n        /* \"#utility.yul\":2705:2712   */\n      dup8\n        /* \"#utility.yul\":2701:2724   */\n      sub\n        /* \"#utility.yul\":2697:2730   */\n      slt\n        /* \"#utility.yul\":2694:2696   */\n      iszero\n      tag_327\n      jumpi\n        /* \"#utility.yul\":2743:2744   */\n      0x00\n        /* \"#utility.yul\":2740:2741   */\n      dup1\n        /* \"#utility.yul\":2733:2745   */\n      revert\n        /* \"#utility.yul\":2694:2696   */\n    tag_327:\n        /* \"#utility.yul\":2786:2787   */\n      0x00\n        /* \"#utility.yul\":2811:2864   */\n      tag_328\n        /* \"#utility.yul\":2856:2863   */\n      dup8\n        /* \"#utility.yul\":2847:2853   */\n      dup3\n        /* \"#utility.yul\":2836:2845   */\n      dup9\n        /* \"#utility.yul\":2832:2854   */\n      add\n        /* \"#utility.yul\":2811:2864   */\n      tag_285\n      jump\t// in\n    tag_328:\n        /* \"#utility.yul\":2801:2864   */\n      swap5\n      pop\n        /* \"#utility.yul\":2757:2874   */\n      pop\n        /* \"#utility.yul\":2913:2915   */\n      0x20\n        /* \"#utility.yul\":2939:2992   */\n      tag_329\n        /* \"#utility.yul\":2984:2991   */\n      dup8\n        /* \"#utility.yul\":2975:2981   */\n      dup3\n        /* \"#utility.yul\":2964:2973   */\n      dup9\n        /* \"#utility.yul\":2960:2982   */\n      add\n        /* \"#utility.yul\":2939:2992   */\n      tag_304\n      jump\t// in\n    tag_329:\n        /* \"#utility.yul\":2929:2992   */\n      swap4\n      pop\n        /* \"#utility.yul\":2884:3002   */\n      pop\n        /* \"#utility.yul\":3041:3043   */\n      0x40\n        /* \"#utility.yul\":3067:3120   */\n      tag_330\n        /* \"#utility.yul\":3112:3119   */\n      dup8\n        /* \"#utility.yul\":3103:3109   */\n      dup3\n        /* \"#utility.yul\":3092:3101   */\n      dup9\n        /* \"#utility.yul\":3088:3110   */\n      add\n        /* \"#utility.yul\":3067:3120   */\n      tag_304\n      jump\t// in\n    tag_330:\n        /* \"#utility.yul\":3057:3120   */\n      swap3\n      pop\n        /* \"#utility.yul\":3012:3130   */\n      pop\n        /* \"#utility.yul\":3169:3171   */\n      0x60\n        /* \"#utility.yul\":3195:3248   */\n      tag_331\n        /* \"#utility.yul\":3240:3247   */\n      dup8\n        /* \"#utility.yul\":3231:3237   */\n      dup3\n        /* \"#utility.yul\":3220:3229   */\n      dup9\n        /* \"#utility.yul\":3216:3238   */\n      add\n        /* \"#utility.yul\":3195:3248   */\n      tag_285\n      jump\t// in\n    tag_331:\n        /* \"#utility.yul\":3185:3248   */\n      swap2\n      pop\n        /* \"#utility.yul\":3140:3258   */\n      pop\n        /* \"#utility.yul\":2684:3265   */\n      swap3\n      swap6\n      swap2\n      swap5\n      pop\n      swap3\n      pop\n      jump\t// out\n        /* \"#utility.yul\":3271:3969   */\n    tag_60:\n        /* \"#utility.yul\":3357:3363   */\n      0x00\n        /* \"#utility.yul\":3365:3371   */\n      dup1\n        /* \"#utility.yul\":3373:3379   */\n      0x00\n        /* \"#utility.yul\":3381:3387   */\n      dup1\n        /* \"#utility.yul\":3430:3433   */\n      0x80\n        /* \"#utility.yul\":3418:3427   */\n      dup6\n        /* \"#utility.yul\":3409:3416   */\n      dup8\n        /* \"#utility.yul\":3405:3428   */\n      sub\n        /* \"#utility.yul\":3401:3434   */\n      slt\n        /* \"#utility.yul\":3398:3400   */\n      iszero\n      tag_333\n      jumpi\n        /* \"#utility.yul\":3447:3448   */\n      0x00\n        /* \"#utility.yul\":3444:3445   */\n      dup1\n        /* \"#utility.yul\":3437:3449   */\n      revert\n        /* \"#utility.yul\":3398:3400   */\n    tag_333:\n        /* \"#utility.yul\":3490:3491   */\n      0x00\n        /* \"#utility.yul\":3515:3568   */\n      tag_334\n        /* \"#utility.yul\":3560:3567   */\n      dup8\n        /* \"#utility.yul\":3551:3557   */\n      dup3\n        /* \"#utility.yul\":3540:3549   */\n      dup9\n        /* \"#utility.yul\":3536:3558   */\n      add\n        /* \"#utility.yul\":3515:3568   */\n      tag_285\n      jump\t// in\n    tag_334:\n        /* \"#utility.yul\":3505:3568   */\n      swap5\n      pop\n        /* \"#utility.yul\":3461:3578   */\n      pop\n        /* \"#utility.yul\":3617:3619   */\n      0x20\n        /* \"#utility.yul\":3643:3696   */\n      tag_335\n        /* \"#utility.yul\":3688:3695   */\n      dup8\n        /* \"#utility.yul\":3679:3685   */\n      dup3\n        /* \"#utility.yul\":3668:3677   */\n      dup9\n        /* \"#utility.yul\":3664:3686   */\n      add\n        /* \"#utility.yul\":3643:3696   */\n      tag_304\n      jump\t// in\n    tag_335:\n        /* \"#utility.yul\":3633:3696   */\n      swap4\n      pop\n        /* \"#utility.yul\":3588:3706   */\n      pop\n        /* \"#utility.yul\":3745:3747   */\n      0x40\n        /* \"#utility.yul\":3771:3824   */\n      tag_336\n        /* \"#utility.yul\":3816:3823   */\n      dup8\n        /* \"#utility.yul\":3807:3813   */\n      dup3\n        /* \"#utility.yul\":3796:3805   */\n      dup9\n        /* \"#utility.yul\":3792:3814   */\n      add\n        /* \"#utility.yul\":3771:3824   */\n      tag_304\n      jump\t// in\n    tag_336:\n        /* \"#utility.yul\":3761:3824   */\n      swap3\n      pop\n        /* \"#utility.yul\":3716:3834   */\n      pop\n        /* \"#utility.yul\":3873:3875   */\n      0x60\n        /* \"#utility.yul\":3899:3952   */\n      tag_337\n        /* \"#utility.yul\":3944:3951   */\n      dup8\n        /* \"#utility.yul\":3935:3941   */\n      dup3\n        /* \"#utility.yul\":3924:3933   */\n      dup9\n        /* \"#utility.yul\":3920:3942   */\n      add\n        /* \"#utility.yul\":3899:3952   */\n      tag_304\n      jump\t// in\n    tag_337:\n        /* \"#utility.yul\":3889:3952   */\n      swap2\n      pop\n        /* \"#utility.yul\":3844:3962   */\n      pop\n        /* \"#utility.yul\":3388:3969   */\n      swap3\n      swap6\n      swap2\n      swap5\n      pop\n      swap3\n      pop\n      jump\t// out\n        /* \"#utility.yul\":3975:4253   */\n    tag_118:\n        /* \"#utility.yul\":4042:4048   */\n      0x00\n        /* \"#utility.yul\":4091:4093   */\n      0x20\n        /* \"#utility.yul\":4079:4088   */\n      dup3\n        /* \"#utility.yul\":4070:4077   */\n      dup5\n        /* \"#utility.yul\":4066:4089   */\n      sub\n        /* \"#utility.yul\":4062:4094   */\n      slt\n        /* \"#utility.yul\":4059:4061   */\n      iszero\n      tag_339\n      jumpi\n        /* \"#utility.yul\":4107:4108   */\n      0x00\n        /* \"#utility.yul\":4104:4105   */\n      dup1\n        /* \"#utility.yul\":4097:4109   */\n      revert\n        /* \"#utility.yul\":4059:4061   */\n    tag_339:\n        /* \"#utility.yul\":4150:4151   */\n      0x00\n        /* \"#utility.yul\":4175:4236   */\n      tag_340\n        /* \"#utility.yul\":4228:4235   */\n      dup5\n        /* \"#utility.yul\":4219:4225   */\n      dup3\n        /* \"#utility.yul\":4208:4217   */\n      dup6\n        /* \"#utility.yul\":4204:4226   */\n      add\n        /* \"#utility.yul\":4175:4236   */\n      tag_296\n      jump\t// in\n    tag_340:\n        /* \"#utility.yul\":4165:4236   */\n      swap2\n      pop\n        /* \"#utility.yul\":4121:4246   */\n      pop\n        /* \"#utility.yul\":4049:4253   */\n      swap3\n      swap2\n      pop\n      pop\n      jump\t// out\n        /* \"#utility.yul\":4259:4521   */\n    tag_48:\n        /* \"#utility.yul\":4318:4324   */\n      0x00\n        /* \"#utility.yul\":4367:4369   */\n      0x20\n        /* \"#utility.yul\":4355:4364   */\n      dup3\n        /* \"#utility.yul\":4346:4353   */\n      dup5\n        /* \"#utility.yul\":4342:4365   */\n      sub\n        /* \"#utility.yul\":4338:4370   */\n      slt\n        /* \"#utility.yul\":4335:4337   */\n      iszero\n      tag_342\n      jumpi\n        /* \"#utility.yul\":4383:4384   */\n      0x00\n        /* \"#utility.yul\":4380:4381   */\n      dup1\n        /* \"#utility.yul\":4373:4385   */\n      revert\n        /* \"#utility.yul\":4335:4337   */\n    tag_342:\n        /* \"#utility.yul\":4426:4427   */\n      0x00\n        /* \"#utility.yul\":4451:4504   */\n      tag_343\n        /* \"#utility.yul\":4496:4503   */\n      dup5\n        /* \"#utility.yul\":4487:4493   */\n      dup3\n        /* \"#utility.yul\":4476:4485   */\n      dup6\n        /* \"#utility.yul\":4472:4494   */\n      add\n        /* \"#utility.yul\":4451:4504   */\n      tag_300\n      jump\t// in\n    tag_343:\n        /* \"#utility.yul\":4441:4504   */\n      swap2\n      pop\n        /* \"#utility.yul\":4397:4514   */\n      pop\n        /* \"#utility.yul\":4325:4521   */\n      swap3\n      swap2\n      pop\n      pop\n      jump\t// out\n        /* \"#utility.yul\":4527:4789   */\n    tag_69:\n        /* \"#utility.yul\":4586:4592   */\n      0x00\n        /* \"#utility.yul\":4635:4637   */\n      0x20\n        /* \"#utility.yul\":4623:4632   */\n      dup3\n        /* \"#utility.yul\":4614:4621   */\n      dup5\n        /* \"#utility.yul\":4610:4633   */\n      sub\n        /* \"#utility.yul\":4606:4638   */\n      slt\n        /* \"#utility.yul\":4603:4605   */\n      iszero\n      tag_345\n      jumpi\n        /* \"#utility.yul\":4651:4652   */\n      0x00\n        /* \"#utility.yul\":4648:4649   */\n      dup1\n        /* \"#utility.yul\":4641:4653   */\n      revert\n        /* \"#utility.yul\":4603:4605   */\n    tag_345:\n        /* \"#utility.yul\":4694:4695   */\n      0x00\n        /* \"#utility.yul\":4719:4772   */\n      tag_346\n        /* \"#utility.yul\":4764:4771   */\n      dup5\n        /* \"#utility.yul\":4755:4761   */\n      dup3\n        /* \"#utility.yul\":4744:4753   */\n      dup6\n        /* \"#utility.yul\":4740:4762   */\n      add\n        /* \"#utility.yul\":4719:4772   */\n      tag_304\n      jump\t// in\n    tag_346:\n        /* \"#utility.yul\":4709:4772   */\n      swap2\n      pop\n        /* \"#utility.yul\":4665:4782   */\n      pop\n        /* \"#utility.yul\":4593:4789   */\n      swap3\n      swap2\n      pop\n      pop\n      jump\t// out\n        /* \"#utility.yul\":4795:5235   */\n    tag_124:\n        /* \"#utility.yul\":4874:4880   */\n      0x00\n        /* \"#utility.yul\":4882:4888   */\n      dup1\n        /* \"#utility.yul\":4931:4933   */\n      0x40\n        /* \"#utility.yul\":4919:4928   */\n      dup4\n        /* \"#utility.yul\":4910:4917   */\n      dup6\n        /* \"#utility.yul\":4906:4929   */\n      sub\n        /* \"#utility.yul\":4902:4934   */\n      slt\n        /* \"#utility.yul\":4899:4901   */\n      iszero\n      tag_348\n      jumpi\n        /* \"#utility.yul\":4947:4948   */\n      0x00\n        /* \"#utility.yul\":4944:4945   */\n      dup1\n        /* \"#utility.yul\":4937:4949   */\n      revert\n        /* \"#utility.yul\":4899:4901   */\n    tag_348:\n        /* \"#utility.yul\":4990:4991   */\n      0x00\n        /* \"#utility.yul\":5015:5079   */\n      tag_349\n        /* \"#utility.yul\":5071:5078   */\n      dup6\n        /* \"#utility.yul\":5062:5068   */\n      dup3\n        /* \"#utility.yul\":5051:5060   */\n      dup7\n        /* \"#utility.yul\":5047:5069   */\n      add\n        /* \"#utility.yul\":5015:5079   */\n      tag_308\n      jump\t// in\n    tag_349:\n        /* \"#utility.yul\":5005:5079   */\n      swap3\n      pop\n        /* \"#utility.yul\":4961:5089   */\n      pop\n        /* \"#utility.yul\":5128:5130   */\n      0x20\n        /* \"#utility.yul\":5154:5218   */\n      tag_350\n        /* \"#utility.yul\":5210:5217   */\n      dup6\n        /* \"#utility.yul\":5201:5207   */\n      dup3\n        /* \"#utility.yul\":5190:5199   */\n      dup7\n        /* \"#utility.yul\":5186:5208   */\n      add\n        /* \"#utility.yul\":5154:5218   */\n      tag_289\n      jump\t// in\n    tag_350:\n        /* \"#utility.yul\":5144:5218   */\n      swap2\n      pop\n        /* \"#utility.yul\":5099:5228   */\n      pop\n        /* \"#utility.yul\":4889:5235   */\n      swap3\n      pop\n      swap3\n      swap1\n      pop\n      jump\t// out\n        /* \"#utility.yul\":5241:5388   */\n    tag_351:\n        /* \"#utility.yul\":5336:5381   */\n      tag_353\n        /* \"#utility.yul\":5375:5380   */\n      dup2\n        /* \"#utility.yul\":5336:5381   */\n      tag_354\n      jump\t// in\n    tag_353:\n        /* \"#utility.yul\":5331:5334   */\n      dup3\n        /* \"#utility.yul\":5324:5382   */\n      mstore\n        /* \"#utility.yul\":5314:5388   */\n      pop\n      pop\n      jump\t// out\n        /* \"#utility.yul\":5394:5526   */\n    tag_355:\n        /* \"#utility.yul\":5487:5519   */\n      tag_357\n        /* \"#utility.yul\":5513:5518   */\n      dup2\n        /* \"#utility.yul\":5487:5519   */\n      tag_358\n      jump\t// in\n    tag_357:\n        /* \"#utility.yul\":5482:5485   */\n      dup3\n        /* \"#utility.yul\":5475:5520   */\n      mstore\n        /* \"#utility.yul\":5465:5526   */\n      pop\n      pop\n      jump\t// out\n        /* \"#utility.yul\":5532:5674   */\n    tag_359:\n        /* \"#utility.yul\":5635:5667   */\n      tag_361\n        /* \"#utility.yul\":5661:5666   */\n      dup2\n        /* \"#utility.yul\":5635:5667   */\n      tag_358\n      jump\t// in\n    tag_361:\n        /* \"#utility.yul\":5630:5633   */\n      dup3\n        /* \"#utility.yul\":5623:5668   */\n      mstore\n        /* \"#utility.yul\":5613:5674   */\n      pop\n      pop\n      jump\t// out\n        /* \"#utility.yul\":5680:5788   */\n    tag_362:\n        /* \"#utility.yul\":5757:5781   */\n      tag_364\n        /* \"#utility.yul\":5775:5780   */\n      dup2\n        /* \"#utility.yul\":5757:5781   */\n      tag_365\n      jump\t// in\n    tag_364:\n        /* \"#utility.yul\":5752:5755   */\n      dup3\n        /* \"#utility.yul\":5745:5782   */\n      mstore\n        /* \"#utility.yul\":5735:5788   */\n      pop\n      pop\n      jump\t// out\n        /* \"#utility.yul\":5794:5912   */\n    tag_366:\n        /* \"#utility.yul\":5881:5905   */\n      tag_368\n        /* \"#utility.yul\":5899:5904   */\n      dup2\n        /* \"#utility.yul\":5881:5905   */\n      tag_365\n      jump\t// in\n    tag_368:\n        /* \"#utility.yul\":5876:5879   */\n      dup3\n        /* \"#utility.yul\":5869:5906   */\n      mstore\n        /* \"#utility.yul\":5859:5912   */\n      pop\n      pop\n      jump\t// out\n        /* \"#utility.yul\":5918:6075   */\n    tag_369:\n        /* \"#utility.yul\":6023:6068   */\n      tag_371\n        /* \"#utility.yul\":6043:6067   */\n      tag_372\n        /* \"#utility.yul\":6061:6066   */\n      dup3\n        /* \"#utility.yul\":6043:6067   */\n      tag_365\n      jump\t// in\n    tag_372:\n        /* \"#utility.yul\":6023:6068   */\n      tag_373\n      jump\t// in\n    tag_371:\n        /* \"#utility.yul\":6018:6021   */\n      dup3\n        /* \"#utility.yul\":6011:6069   */\n      mstore\n        /* \"#utility.yul\":6001:6075   */\n      pop\n      pop\n      jump\t// out\n        /* \"#utility.yul\":6081:6240   */\n    tag_374:\n        /* \"#utility.yul\":6182:6233   */\n      tag_376\n        /* \"#utility.yul\":6227:6232   */\n      dup2\n        /* \"#utility.yul\":6182:6233   */\n      tag_377\n      jump\t// in\n    tag_376:\n        /* \"#utility.yul\":6177:6180   */\n      dup3\n        /* \"#utility.yul\":6170:6234   */\n      mstore\n        /* \"#utility.yul\":6160:6240   */\n      pop\n      pop\n      jump\t// out\n        /* \"#utility.yul\":6246:6395   */\n    tag_378:\n        /* \"#utility.yul\":6337:6388   */\n      tag_380\n        /* \"#utility.yul\":6382:6387   */\n      dup2\n        /* \"#utility.yul\":6337:6388   */\n      tag_381\n      jump\t// in\n    tag_380:\n        /* \"#utility.yul\":6332:6335   */\n      dup3\n        /* \"#utility.yul\":6325:6389   */\n      mstore\n        /* \"#utility.yul\":6315:6395   */\n      pop\n      pop\n      jump\t// out\n        /* \"#utility.yul\":6401:6560   */\n    tag_382:\n        /* \"#utility.yul\":6502:6553   */\n      tag_384\n        /* \"#utility.yul\":6547:6552   */\n      dup2\n        /* \"#utility.yul\":6502:6553   */\n      tag_381\n      jump\t// in\n    tag_384:\n        /* \"#utility.yul\":6497:6500   */\n      dup3\n        /* \"#utility.yul\":6490:6554   */\n      mstore\n        /* \"#utility.yul\":6480:6560   */\n      pop\n      pop\n      jump\t// out\n        /* \"#utility.yul\":6566:6711   */\n    tag_385:\n        /* \"#utility.yul\":6655:6704   */\n      tag_387\n        /* \"#utility.yul\":6698:6703   */\n      dup2\n        /* \"#utility.yul\":6655:6704   */\n      tag_388\n      jump\t// in\n    tag_387:\n        /* \"#utility.yul\":6650:6653   */\n      dup3\n        /* \"#utility.yul\":6643:6705   */\n      mstore\n        /* \"#utility.yul\":6633:6711   */\n      pop\n      pop\n      jump\t// out\n        /* \"#utility.yul\":6717:6872   */\n    tag_389:\n        /* \"#utility.yul\":6816:6865   */\n      tag_391\n        /* \"#utility.yul\":6859:6864   */\n      dup2\n        /* \"#utility.yul\":6816:6865   */\n      tag_388\n      jump\t// in\n    tag_391:\n        /* \"#utility.yul\":6811:6814   */\n      dup3\n        /* \"#utility.yul\":6804:6866   */\n      mstore\n        /* \"#utility.yul\":6794:6872   */\n      pop\n      pop\n      jump\t// out\n        /* \"#utility.yul\":6878:7244   */\n    tag_392:\n        /* \"#utility.yul\":7020:7023   */\n      0x00\n        /* \"#utility.yul\":7041:7108   */\n      tag_394\n        /* \"#utility.yul\":7105:7107   */\n      0x0e\n        /* \"#utility.yul\":7100:7103   */\n      dup4\n        /* \"#utility.yul\":7041:7108   */\n      tag_395\n      jump\t// in\n    tag_394:\n        /* \"#utility.yul\":7034:7108   */\n      swap2\n      pop\n        /* \"#utility.yul\":7117:7210   */\n      tag_396\n        /* \"#utility.yul\":7206:7209   */\n      dup3\n        /* \"#utility.yul\":7117:7210   */\n      tag_397\n      jump\t// in\n    tag_396:\n        /* \"#utility.yul\":7235:7237   */\n      0x20\n        /* \"#utility.yul\":7230:7233   */\n      dup3\n        /* \"#utility.yul\":7226:7238   */\n      add\n        /* \"#utility.yul\":7219:7238   */\n      swap1\n      pop\n        /* \"#utility.yul\":7024:7244   */\n      swap2\n      swap1\n      pop\n      jump\t// out\n        /* \"#utility.yul\":7250:7616   */\n    tag_398:\n        /* \"#utility.yul\":7392:7395   */\n      0x00\n        /* \"#utility.yul\":7413:7480   */\n      tag_400\n        /* \"#utility.yul\":7477:7479   */\n      0x2a\n        /* \"#utility.yul\":7472:7475   */\n      dup4\n        /* \"#utility.yul\":7413:7480   */\n      tag_395\n      jump\t// in\n    tag_400:\n        /* \"#utility.yul\":7406:7480   */\n      swap2\n      pop\n        /* \"#utility.yul\":7489:7582   */\n      tag_401\n        /* \"#utility.yul\":7578:7581   */\n      dup3\n        /* \"#utility.yul\":7489:7582   */\n      tag_402\n      jump\t// in\n    tag_401:\n        /* \"#utility.yul\":7607:7609   */\n      0x40\n        /* \"#utility.yul\":7602:7605   */\n      dup3\n        /* \"#utility.yul\":7598:7610   */\n      add\n        /* \"#utility.yul\":7591:7610   */\n      swap1\n      pop\n        /* \"#utility.yul\":7396:7616   */\n      swap2\n      swap1\n      pop\n      jump\t// out\n        /* \"#utility.yul\":7622:7988   */\n    tag_403:\n        /* \"#utility.yul\":7764:7767   */\n      0x00\n        /* \"#utility.yul\":7785:7852   */\n      tag_405\n        /* \"#utility.yul\":7849:7851   */\n      0x11\n        /* \"#utility.yul\":7844:7847   */\n      dup4\n        /* \"#utility.yul\":7785:7852   */\n      tag_395\n      jump\t// in\n    tag_405:\n        /* \"#utility.yul\":7778:7852   */\n      swap2\n      pop\n        /* \"#utility.yul\":7861:7954   */\n      tag_406\n        /* \"#utility.yul\":7950:7953   */\n      dup3\n        /* \"#utility.yul\":7861:7954   */\n      tag_407\n      jump\t// in\n    tag_406:\n        /* \"#utility.yul\":7979:7981   */\n      0x20\n        /* \"#utility.yul\":7974:7977   */\n      dup3\n        /* \"#utility.yul\":7970:7982   */\n      add\n        /* \"#utility.yul\":7963:7982   */\n      swap1\n      pop\n        /* \"#utility.yul\":7768:7988   */\n      swap2\n      swap1\n      pop\n      jump\t// out\n        /* \"#utility.yul\":7994:8360   */\n    tag_408:\n        /* \"#utility.yul\":8136:8139   */\n      0x00\n        /* \"#utility.yul\":8157:8224   */\n      tag_410\n        /* \"#utility.yul\":8221:8223   */\n      0x26\n        /* \"#utility.yul\":8216:8219   */\n      dup4\n        /* \"#utility.yul\":8157:8224   */\n      tag_395\n      jump\t// in\n    tag_410:\n        /* \"#utility.yul\":8150:8224   */\n      swap2\n      pop\n        /* \"#utility.yul\":8233:8326   */\n      tag_411\n        /* \"#utility.yul\":8322:8325   */\n      dup3\n        /* \"#utility.yul\":8233:8326   */\n      tag_412\n      jump\t// in\n    tag_411:\n        /* \"#utility.yul\":8351:8353   */\n      0x40\n        /* \"#utility.yul\":8346:8349   */\n      dup3\n        /* \"#utility.yul\":8342:8354   */\n      add\n        /* \"#utility.yul\":8335:8354   */\n      swap1\n      pop\n        /* \"#utility.yul\":8140:8360   */\n      swap2\n      swap1\n      pop\n      jump\t// out\n        /* \"#utility.yul\":8366:8732   */\n    tag_413:\n        /* \"#utility.yul\":8508:8511   */\n      0x00\n        /* \"#utility.yul\":8529:8596   */\n      tag_415\n        /* \"#utility.yul\":8593:8595   */\n      0x18\n        /* \"#utility.yul\":8588:8591   */\n      dup4\n        /* \"#utility.yul\":8529:8596   */\n      tag_395\n      jump\t// in\n    tag_415:\n        /* \"#utility.yul\":8522:8596   */\n      swap2\n      pop\n        /* \"#utility.yul\":8605:8698   */\n      tag_416\n        /* \"#utility.yul\":8694:8697   */\n      dup3\n        /* \"#utility.yul\":8605:8698   */\n      tag_417\n      jump\t// in\n    tag_416:\n        /* \"#utility.yul\":8723:8725   */\n      0x20\n        /* \"#utility.yul\":8718:8721   */\n      dup3\n        /* \"#utility.yul\":8714:8726   */\n      add\n        /* \"#utility.yul\":8707:8726   */\n      swap1\n      pop\n        /* \"#utility.yul\":8512:8732   */\n      swap2\n      swap1\n      pop\n      jump\t// out\n        /* \"#utility.yul\":8738:9104   */\n    tag_418:\n        /* \"#utility.yul\":8880:8883   */\n      0x00\n        /* \"#utility.yul\":8901:8968   */\n      tag_420\n        /* \"#utility.yul\":8965:8967   */\n      0x1e\n        /* \"#utility.yul\":8960:8963   */\n      dup4\n        /* \"#utility.yul\":8901:8968   */\n      tag_395\n      jump\t// in\n    tag_420:\n        /* \"#utility.yul\":8894:8968   */\n      swap2\n      pop\n        /* \"#utility.yul\":8977:9070   */\n      tag_421\n        /* \"#utility.yul\":9066:9069   */\n      dup3\n        /* \"#utility.yul\":8977:9070   */\n      tag_422\n      jump\t// in\n    tag_421:\n        /* \"#utility.yul\":9095:9097   */\n      0x20\n        /* \"#utility.yul\":9090:9093   */\n      dup3\n        /* \"#utility.yul\":9086:9098   */\n      add\n        /* \"#utility.yul\":9079:9098   */\n      swap1\n      pop\n        /* \"#utility.yul\":8884:9104   */\n      swap2\n      swap1\n      pop\n      jump\t// out\n        /* \"#utility.yul\":9110:9476   */\n    tag_423:\n        /* \"#utility.yul\":9252:9255   */\n      0x00\n        /* \"#utility.yul\":9273:9340   */\n      tag_425\n        /* \"#utility.yul\":9337:9339   */\n      0x1a\n        /* \"#utility.yul\":9332:9335   */\n      dup4\n        /* \"#utility.yul\":9273:9340   */\n      tag_395\n      jump\t// in\n    tag_425:\n        /* \"#utility.yul\":9266:9340   */\n      swap2\n      pop\n        /* \"#utility.yul\":9349:9442   */\n      tag_426\n        /* \"#utility.yul\":9438:9441   */\n      dup3\n        /* \"#utility.yul\":9349:9442   */\n      tag_427\n      jump\t// in\n    tag_426:\n        /* \"#utility.yul\":9467:9469   */\n      0x20\n        /* \"#utility.yul\":9462:9465   */\n      dup3\n        /* \"#utility.yul\":9458:9470   */\n      add\n        /* \"#utility.yul\":9451:9470   */\n      swap1\n      pop\n        /* \"#utility.yul\":9256:9476   */\n      swap2\n      swap1\n      pop\n      jump\t// out\n        /* \"#utility.yul\":9482:9848   */\n    tag_428:\n        /* \"#utility.yul\":9624:9627   */\n      0x00\n        /* \"#utility.yul\":9645:9712   */\n      tag_430\n        /* \"#utility.yul\":9709:9711   */\n      0x1b\n        /* \"#utility.yul\":9704:9707   */\n      dup4\n        /* \"#utility.yul\":9645:9712   */\n      tag_395\n      jump\t// in\n    tag_430:\n        /* \"#utility.yul\":9638:9712   */\n      swap2\n      pop\n        /* \"#utility.yul\":9721:9814   */\n      tag_431\n        /* \"#utility.yul\":9810:9813   */\n      dup3\n        /* \"#utility.yul\":9721:9814   */\n      tag_432\n      jump\t// in\n    tag_431:\n        /* \"#utility.yul\":9839:9841   */\n      0x20\n        /* \"#utility.yul\":9834:9837   */\n      dup3\n        /* \"#utility.yul\":9830:9842   */\n      add\n        /* \"#utility.yul\":9823:9842   */\n      swap1\n      pop\n        /* \"#utility.yul\":9628:9848   */\n      swap2\n      swap1\n      pop\n      jump\t// out\n        /* \"#utility.yul\":9854:10220   */\n    tag_433:\n        /* \"#utility.yul\":9996:9999   */\n      0x00\n        /* \"#utility.yul\":10017:10084   */\n      tag_435\n        /* \"#utility.yul\":10081:10083   */\n      0x1e\n        /* \"#utility.yul\":10076:10079   */\n      dup4\n        /* \"#utility.yul\":10017:10084   */\n      tag_395\n      jump\t// in\n    tag_435:\n        /* \"#utility.yul\":10010:10084   */\n      swap2\n      pop\n        /* \"#utility.yul\":10093:10186   */\n      tag_436\n        /* \"#utility.yul\":10182:10185   */\n      dup3\n        /* \"#utility.yul\":10093:10186   */\n      tag_437\n      jump\t// in\n    tag_436:\n        /* \"#utility.yul\":10211:10213   */\n      0x20\n        /* \"#utility.yul\":10206:10209   */\n      dup3\n        /* \"#utility.yul\":10202:10214   */\n      add\n        /* \"#utility.yul\":10195:10214   */\n      swap1\n      pop\n        /* \"#utility.yul\":10000:10220   */\n      swap2\n      swap1\n      pop\n      jump\t// out\n        /* \"#utility.yul\":10226:10592   */\n    tag_438:\n        /* \"#utility.yul\":10368:10371   */\n      0x00\n        /* \"#utility.yul\":10389:10456   */\n      tag_440\n        /* \"#utility.yul\":10453:10455   */\n      0x26\n        /* \"#utility.yul\":10448:10451   */\n      dup4\n        /* \"#utility.yul\":10389:10456   */\n      tag_395\n      jump\t// in\n    tag_440:\n        /* \"#utility.yul\":10382:10456   */\n      swap2\n      pop\n        /* \"#utility.yul\":10465:10558   */\n      tag_441\n        /* \"#utility.yul\":10554:10557   */\n      dup3\n        /* \"#utility.yul\":10465:10558   */\n      tag_442\n      jump\t// in\n    tag_441:\n        /* \"#utility.yul\":10583:10585   */\n      0x40\n        /* \"#utility.yul\":10578:10581   */\n      dup3\n        /* \"#utility.yul\":10574:10586   */\n      add\n        /* \"#utility.yul\":10567:10586   */\n      swap1\n      pop\n        /* \"#utility.yul\":10372:10592   */\n      swap2\n      swap1\n      pop\n      jump\t// out\n        /* \"#utility.yul\":10666:12308   */\n    tag_443:\n        /* \"#utility.yul\":10809:10815   */\n      0x0100\n        /* \"#utility.yul\":10804:10807   */\n      dup3\n        /* \"#utility.yul\":10800:10816   */\n      add\n        /* \"#utility.yul\":10909:10913   */\n      0x00\n        /* \"#utility.yul\":10902:10907   */\n      dup3\n        /* \"#utility.yul\":10898:10914   */\n      add\n        /* \"#utility.yul\":10892:10915   */\n      mload\n        /* \"#utility.yul\":10928:10991   */\n      tag_445\n        /* \"#utility.yul\":10985:10989   */\n      0x00\n        /* \"#utility.yul\":10980:10983   */\n      dup6\n        /* \"#utility.yul\":10976:10990   */\n      add\n        /* \"#utility.yul\":10962:10974   */\n      dup3\n        /* \"#utility.yul\":10928:10991   */\n      tag_362\n      jump\t// in\n    tag_445:\n        /* \"#utility.yul\":10826:11001   */\n      pop\n        /* \"#utility.yul\":11086:11090   */\n      0x20\n        /* \"#utility.yul\":11079:11084   */\n      dup3\n        /* \"#utility.yul\":11075:11091   */\n      add\n        /* \"#utility.yul\":11069:11092   */\n      mload\n        /* \"#utility.yul\":11105:11168   */\n      tag_446\n        /* \"#utility.yul\":11162:11166   */\n      0x20\n        /* \"#utility.yul\":11157:11160   */\n      dup6\n        /* \"#utility.yul\":11153:11167   */\n      add\n        /* \"#utility.yul\":11139:11151   */\n      dup3\n        /* \"#utility.yul\":11105:11168   */\n      tag_447\n      jump\t// in\n    tag_446:\n        /* \"#utility.yul\":11011:11178   */\n      pop\n        /* \"#utility.yul\":11265:11269   */\n      0x40\n        /* \"#utility.yul\":11258:11263   */\n      dup3\n        /* \"#utility.yul\":11254:11270   */\n      add\n        /* \"#utility.yul\":11248:11271   */\n      mload\n        /* \"#utility.yul\":11284:11359   */\n      tag_448\n        /* \"#utility.yul\":11353:11357   */\n      0x40\n        /* \"#utility.yul\":11348:11351   */\n      dup6\n        /* \"#utility.yul\":11344:11358   */\n      add\n        /* \"#utility.yul\":11330:11342   */\n      dup3\n        /* \"#utility.yul\":11284:11359   */\n      tag_385\n      jump\t// in\n    tag_448:\n        /* \"#utility.yul\":11188:11369   */\n      pop\n        /* \"#utility.yul\":11458:11462   */\n      0x60\n        /* \"#utility.yul\":11451:11456   */\n      dup3\n        /* \"#utility.yul\":11447:11463   */\n      add\n        /* \"#utility.yul\":11441:11464   */\n      mload\n        /* \"#utility.yul\":11477:11554   */\n      tag_449\n        /* \"#utility.yul\":11548:11552   */\n      0x60\n        /* \"#utility.yul\":11543:11546   */\n      dup6\n        /* \"#utility.yul\":11539:11553   */\n      add\n        /* \"#utility.yul\":11525:11537   */\n      dup3\n        /* \"#utility.yul\":11477:11554   */\n      tag_378\n      jump\t// in\n    tag_449:\n        /* \"#utility.yul\":11379:11564   */\n      pop\n        /* \"#utility.yul\":11651:11655   */\n      0x80\n        /* \"#utility.yul\":11644:11649   */\n      dup3\n        /* \"#utility.yul\":11640:11656   */\n      add\n        /* \"#utility.yul\":11634:11657   */\n      mload\n        /* \"#utility.yul\":11670:11733   */\n      tag_450\n        /* \"#utility.yul\":11727:11731   */\n      0x80\n        /* \"#utility.yul\":11722:11725   */\n      dup6\n        /* \"#utility.yul\":11718:11732   */\n      add\n        /* \"#utility.yul\":11704:11716   */\n      dup3\n        /* \"#utility.yul\":11670:11733   */\n      tag_447\n      jump\t// in\n    tag_450:\n        /* \"#utility.yul\":11574:11743   */\n      pop\n        /* \"#utility.yul\":11833:11837   */\n      0xa0\n        /* \"#utility.yul\":11826:11831   */\n      dup3\n        /* \"#utility.yul\":11822:11838   */\n      add\n        /* \"#utility.yul\":11816:11839   */\n      mload\n        /* \"#utility.yul\":11852:11915   */\n      tag_451\n        /* \"#utility.yul\":11909:11913   */\n      0xa0\n        /* \"#utility.yul\":11904:11907   */\n      dup6\n        /* \"#utility.yul\":11900:11914   */\n      add\n        /* \"#utility.yul\":11886:11898   */\n      dup3\n        /* \"#utility.yul\":11852:11915   */\n      tag_447\n      jump\t// in\n    tag_451:\n        /* \"#utility.yul\":11753:11925   */\n      pop\n        /* \"#utility.yul\":12015:12019   */\n      0xc0\n        /* \"#utility.yul\":12008:12013   */\n      dup3\n        /* \"#utility.yul\":12004:12020   */\n      add\n        /* \"#utility.yul\":11998:12021   */\n      mload\n        /* \"#utility.yul\":12034:12113   */\n      tag_452\n        /* \"#utility.yul\":12107:12111   */\n      0xc0\n        /* \"#utility.yul\":12102:12105   */\n      dup6\n        /* \"#utility.yul\":12098:12112   */\n      add\n        /* \"#utility.yul\":12084:12096   */\n      dup3\n        /* \"#utility.yul\":12034:12113   */\n      tag_355\n      jump\t// in\n    tag_452:\n        /* \"#utility.yul\":11935:12123   */\n      pop\n        /* \"#utility.yul\":12209:12213   */\n      0xe0\n        /* \"#utility.yul\":12202:12207   */\n      dup3\n        /* \"#utility.yul\":12198:12214   */\n      add\n        /* \"#utility.yul\":12192:12215   */\n      mload\n        /* \"#utility.yul\":12228:12291   */\n      tag_453\n        /* \"#utility.yul\":12285:12289   */\n      0xe0\n        /* \"#utility.yul\":12280:12283   */\n      dup6\n        /* \"#utility.yul\":12276:12290   */\n      add\n        /* \"#utility.yul\":12262:12274   */\n      dup3\n        /* \"#utility.yul\":12228:12291   */\n      tag_362\n      jump\t// in\n    tag_453:\n        /* \"#utility.yul\":12133:12301   */\n      pop\n        /* \"#utility.yul\":10778:12308   */\n      pop\n      pop\n      pop\n      jump\t// out\n        /* \"#utility.yul\":12314:12422   */\n    tag_447:\n        /* \"#utility.yul\":12391:12415   */\n      tag_455\n        /* \"#utility.yul\":12409:12414   */\n      dup2\n        /* \"#utility.yul\":12391:12415   */\n      tag_456\n      jump\t// in\n    tag_455:\n        /* \"#utility.yul\":12386:12389   */\n      dup3\n        /* \"#utility.yul\":12379:12416   */\n      mstore\n        /* \"#utility.yul\":12369:12422   */\n      pop\n      pop\n      jump\t// out\n        /* \"#utility.yul\":12428:12546   */\n    tag_457:\n        /* \"#utility.yul\":12515:12539   */\n      tag_459\n        /* \"#utility.yul\":12533:12538   */\n      dup2\n        /* \"#utility.yul\":12515:12539   */\n      tag_456\n      jump\t// in\n    tag_459:\n        /* \"#utility.yul\":12510:12513   */\n      dup3\n        /* \"#utility.yul\":12503:12540   */\n      mstore\n        /* \"#utility.yul\":12493:12546   */\n      pop\n      pop\n      jump\t// out\n        /* \"#utility.yul\":12552:12709   */\n    tag_460:\n        /* \"#utility.yul\":12657:12702   */\n      tag_462\n        /* \"#utility.yul\":12677:12701   */\n      tag_463\n        /* \"#utility.yul\":12695:12700   */\n      dup3\n        /* \"#utility.yul\":12677:12701   */\n      tag_456\n      jump\t// in\n    tag_463:\n        /* \"#utility.yul\":12657:12702   */\n      tag_464\n      jump\t// in\n    tag_462:\n        /* \"#utility.yul\":12652:12655   */\n      dup3\n        /* \"#utility.yul\":12645:12703   */\n      mstore\n        /* \"#utility.yul\":12635:12709   */\n      pop\n      pop\n      jump\t// out\n        /* \"#utility.yul\":12715:13112   */\n    tag_242:\n        /* \"#utility.yul\":12855:12858   */\n      0x00\n        /* \"#utility.yul\":12870:12945   */\n      tag_466\n        /* \"#utility.yul\":12941:12944   */\n      dup3\n        /* \"#utility.yul\":12932:12938   */\n      dup6\n        /* \"#utility.yul\":12870:12945   */\n      tag_369\n      jump\t// in\n    tag_466:\n        /* \"#utility.yul\":12970:12972   */\n      0x14\n        /* \"#utility.yul\":12965:12968   */\n      dup3\n        /* \"#utility.yul\":12961:12973   */\n      add\n        /* \"#utility.yul\":12954:12973   */\n      swap2\n      pop\n        /* \"#utility.yul\":12983:13058   */\n      tag_467\n        /* \"#utility.yul\":13054:13057   */\n      dup3\n        /* \"#utility.yul\":13045:13051   */\n      dup5\n        /* \"#utility.yul\":12983:13058   */\n      tag_460\n      jump\t// in\n    tag_467:\n        /* \"#utility.yul\":13083:13085   */\n      0x20\n        /* \"#utility.yul\":13078:13081   */\n      dup3\n        /* \"#utility.yul\":13074:13086   */\n      add\n        /* \"#utility.yul\":13067:13086   */\n      swap2\n      pop\n        /* \"#utility.yul\":13103:13106   */\n      dup2\n        /* \"#utility.yul\":13096:13106   */\n      swap1\n      pop\n        /* \"#utility.yul\":12859:13112   */\n      swap4\n      swap3\n      pop\n      pop\n      pop\n      jump\t// out\n        /* \"#utility.yul\":13118:13340   */\n    tag_56:\n        /* \"#utility.yul\":13211:13215   */\n      0x00\n        /* \"#utility.yul\":13249:13251   */\n      0x20\n        /* \"#utility.yul\":13238:13247   */\n      dup3\n        /* \"#utility.yul\":13234:13252   */\n      add\n        /* \"#utility.yul\":13226:13252   */\n      swap1\n      pop\n        /* \"#utility.yul\":13262:13333   */\n      tag_469\n        /* \"#utility.yul\":13330:13331   */\n      0x00\n        /* \"#utility.yul\":13319:13328   */\n      dup4\n        /* \"#utility.yul\":13315:13332   */\n      add\n        /* \"#utility.yul\":13306:13312   */\n      dup5\n        /* \"#utility.yul\":13262:13333   */\n      tag_366\n      jump\t// in\n    tag_469:\n        /* \"#utility.yul\":13216:13340   */\n      swap3\n      swap2\n      pop\n      pop\n      jump\t// out\n        /* \"#utility.yul\":13346:13600   */\n    tag_24:\n        /* \"#utility.yul\":13455:13459   */\n      0x00\n        /* \"#utility.yul\":13493:13495   */\n      0x20\n        /* \"#utility.yul\":13482:13491   */\n      dup3\n        /* \"#utility.yul\":13478:13496   */\n      add\n        /* \"#utility.yul\":13470:13496   */\n      swap1\n      pop\n        /* \"#utility.yul\":13506:13593   */\n      tag_471\n        /* \"#utility.yul\":13590:13591   */\n      0x00\n        /* \"#utility.yul\":13579:13588   */\n      dup4\n        /* \"#utility.yul\":13575:13592   */\n      add\n        /* \"#utility.yul\":13566:13572   */\n      dup5\n        /* \"#utility.yul\":13506:13593   */\n      tag_359\n      jump\t// in\n    tag_471:\n        /* \"#utility.yul\":13460:13600   */\n      swap3\n      swap2\n      pop\n      pop\n      jump\t// out\n        /* \"#utility.yul\":13606:14064   */\n    tag_142:\n        /* \"#utility.yul\":13763:13767   */\n      0x00\n        /* \"#utility.yul\":13801:13803   */\n      0x60\n        /* \"#utility.yul\":13790:13799   */\n      dup3\n        /* \"#utility.yul\":13786:13804   */\n      add\n        /* \"#utility.yul\":13778:13804   */\n      swap1\n      pop\n        /* \"#utility.yul\":13814:13893   */\n      tag_473\n        /* \"#utility.yul\":13890:13891   */\n      0x00\n        /* \"#utility.yul\":13879:13888   */\n      dup4\n        /* \"#utility.yul\":13875:13892   */\n      add\n        /* \"#utility.yul\":13866:13872   */\n      dup7\n        /* \"#utility.yul\":13814:13893   */\n      tag_351\n      jump\t// in\n    tag_473:\n        /* \"#utility.yul\":13903:13975   */\n      tag_474\n        /* \"#utility.yul\":13971:13973   */\n      0x20\n        /* \"#utility.yul\":13960:13969   */\n      dup4\n        /* \"#utility.yul\":13956:13974   */\n      add\n        /* \"#utility.yul\":13947:13953   */\n      dup6\n        /* \"#utility.yul\":13903:13975   */\n      tag_366\n      jump\t// in\n    tag_474:\n        /* \"#utility.yul\":13985:14057   */\n      tag_475\n        /* \"#utility.yul\":14053:14055   */\n      0x40\n        /* \"#utility.yul\":14042:14051   */\n      dup4\n        /* \"#utility.yul\":14038:14056   */\n      add\n        /* \"#utility.yul\":14029:14035   */\n      dup5\n        /* \"#utility.yul\":13985:14057   */\n      tag_457\n      jump\t// in\n    tag_475:\n        /* \"#utility.yul\":13768:14064   */\n      swap5\n      swap4\n      pop\n      pop\n      pop\n      pop\n      jump\t// out\n        /* \"#utility.yul\":14070:14528   */\n    tag_113:\n        /* \"#utility.yul\":14227:14231   */\n      0x00\n        /* \"#utility.yul\":14265:14267   */\n      0x60\n        /* \"#utility.yul\":14254:14263   */\n      dup3\n        /* \"#utility.yul\":14250:14268   */\n      add\n        /* \"#utility.yul\":14242:14268   */\n      swap1\n      pop\n        /* \"#utility.yul\":14278:14349   */\n      tag_477\n        /* \"#utility.yul\":14346:14347   */\n      0x00\n        /* \"#utility.yul\":14335:14344   */\n      dup4\n        /* \"#utility.yul\":14331:14348   */\n      add\n        /* \"#utility.yul\":14322:14328   */\n      dup7\n        /* \"#utility.yul\":14278:14349   */\n      tag_366\n      jump\t// in\n    tag_477:\n        /* \"#utility.yul\":14359:14439   */\n      tag_478\n        /* \"#utility.yul\":14435:14437   */\n      0x20\n        /* \"#utility.yul\":14424:14433   */\n      dup4\n        /* \"#utility.yul\":14420:14438   */\n      add\n        /* \"#utility.yul\":14411:14417   */\n      dup6\n        /* \"#utility.yul\":14359:14439   */\n      tag_351\n      jump\t// in\n    tag_478:\n        /* \"#utility.yul\":14449:14521   */\n      tag_479\n        /* \"#utility.yul\":14517:14519   */\n      0x40\n        /* \"#utility.yul\":14506:14515   */\n      dup4\n        /* \"#utility.yul\":14502:14520   */\n      add\n        /* \"#utility.yul\":14493:14499   */\n      dup5\n        /* \"#utility.yul\":14449:14521   */\n      tag_457\n      jump\t// in\n    tag_479:\n        /* \"#utility.yul\":14232:14528   */\n      swap5\n      swap4\n      pop\n      pop\n      pop\n      pop\n      jump\t// out\n        /* \"#utility.yul\":14534:14976   */\n    tag_127:\n        /* \"#utility.yul\":14683:14687   */\n      0x00\n        /* \"#utility.yul\":14721:14723   */\n      0x60\n        /* \"#utility.yul\":14710:14719   */\n      dup3\n        /* \"#utility.yul\":14706:14724   */\n      add\n        /* \"#utility.yul\":14698:14724   */\n      swap1\n      pop\n        /* \"#utility.yul\":14734:14805   */\n      tag_481\n        /* \"#utility.yul\":14802:14803   */\n      0x00\n        /* \"#utility.yul\":14791:14800   */\n      dup4\n        /* \"#utility.yul\":14787:14804   */\n      add\n        /* \"#utility.yul\":14778:14784   */\n      dup7\n        /* \"#utility.yul\":14734:14805   */\n      tag_366\n      jump\t// in\n    tag_481:\n        /* \"#utility.yul\":14815:14887   */\n      tag_482\n        /* \"#utility.yul\":14883:14885   */\n      0x20\n        /* \"#utility.yul\":14872:14881   */\n      dup4\n        /* \"#utility.yul\":14868:14886   */\n      add\n        /* \"#utility.yul\":14859:14865   */\n      dup6\n        /* \"#utility.yul\":14815:14887   */\n      tag_366\n      jump\t// in\n    tag_482:\n        /* \"#utility.yul\":14897:14969   */\n      tag_483\n        /* \"#utility.yul\":14965:14967   */\n      0x40\n        /* \"#utility.yul\":14954:14963   */\n      dup4\n        /* \"#utility.yul\":14950:14968   */\n      add\n        /* \"#utility.yul\":14941:14947   */\n      dup5\n        /* \"#utility.yul\":14897:14969   */\n      tag_457\n      jump\t// in\n    tag_483:\n        /* \"#utility.yul\":14688:14976   */\n      swap5\n      swap4\n      pop\n      pop\n      pop\n      pop\n      jump\t// out\n        /* \"#utility.yul\":14982:16063   */\n    tag_51:\n        /* \"#utility.yul\":15313:15317   */\n      0x00\n        /* \"#utility.yul\":15351:15354   */\n      0x0100\n        /* \"#utility.yul\":15340:15349   */\n      dup3\n        /* \"#utility.yul\":15336:15355   */\n      add\n        /* \"#utility.yul\":15328:15355   */\n      swap1\n      pop\n        /* \"#utility.yul\":15365:15436   */\n      tag_485\n        /* \"#utility.yul\":15433:15434   */\n      0x00\n        /* \"#utility.yul\":15422:15431   */\n      dup4\n        /* \"#utility.yul\":15418:15435   */\n      add\n        /* \"#utility.yul\":15409:15415   */\n      dup12\n        /* \"#utility.yul\":15365:15436   */\n      tag_366\n      jump\t// in\n    tag_485:\n        /* \"#utility.yul\":15446:15518   */\n      tag_486\n        /* \"#utility.yul\":15514:15516   */\n      0x20\n        /* \"#utility.yul\":15503:15512   */\n      dup4\n        /* \"#utility.yul\":15499:15517   */\n      add\n        /* \"#utility.yul\":15490:15496   */\n      dup11\n        /* \"#utility.yul\":15446:15518   */\n      tag_457\n      jump\t// in\n    tag_486:\n        /* \"#utility.yul\":15528:15612   */\n      tag_487\n        /* \"#utility.yul\":15608:15610   */\n      0x40\n        /* \"#utility.yul\":15597:15606   */\n      dup4\n        /* \"#utility.yul\":15593:15611   */\n      add\n        /* \"#utility.yul\":15584:15590   */\n      dup10\n        /* \"#utility.yul\":15528:15612   */\n      tag_389\n      jump\t// in\n    tag_487:\n        /* \"#utility.yul\":15622:15708   */\n      tag_488\n        /* \"#utility.yul\":15704:15706   */\n      0x60\n        /* \"#utility.yul\":15693:15702   */\n      dup4\n        /* \"#utility.yul\":15689:15707   */\n      add\n        /* \"#utility.yul\":15680:15686   */\n      dup9\n        /* \"#utility.yul\":15622:15708   */\n      tag_382\n      jump\t// in\n    tag_488:\n        /* \"#utility.yul\":15718:15791   */\n      tag_489\n        /* \"#utility.yul\":15786:15789   */\n      0x80\n        /* \"#utility.yul\":15775:15784   */\n      dup4\n        /* \"#utility.yul\":15771:15790   */\n      add\n        /* \"#utility.yul\":15762:15768   */\n      dup8\n        /* \"#utility.yul\":15718:15791   */\n      tag_457\n      jump\t// in\n    tag_489:\n        /* \"#utility.yul\":15801:15874   */\n      tag_490\n        /* \"#utility.yul\":15869:15872   */\n      0xa0\n        /* \"#utility.yul\":15858:15867   */\n      dup4\n        /* \"#utility.yul\":15854:15873   */\n      add\n        /* \"#utility.yul\":15845:15851   */\n      dup7\n        /* \"#utility.yul\":15801:15874   */\n      tag_457\n      jump\t// in\n    tag_490:\n        /* \"#utility.yul\":15884:15973   */\n      tag_491\n        /* \"#utility.yul\":15968:15971   */\n      0xc0\n        /* \"#utility.yul\":15957:15966   */\n      dup4\n        /* \"#utility.yul\":15953:15972   */\n      add\n        /* \"#utility.yul\":15944:15950   */\n      dup6\n        /* \"#utility.yul\":15884:15973   */\n      tag_359\n      jump\t// in\n    tag_491:\n        /* \"#utility.yul\":15983:16056   */\n      tag_492\n        /* \"#utility.yul\":16051:16054   */\n      0xe0\n        /* \"#utility.yul\":16040:16049   */\n      dup4\n        /* \"#utility.yul\":16036:16055   */\n      add\n        /* \"#utility.yul\":16027:16033   */\n      dup5\n        /* \"#utility.yul\":15983:16056   */\n      tag_366\n      jump\t// in\n    tag_492:\n        /* \"#utility.yul\":15318:16063   */\n      swap10\n      swap9\n      pop\n      pop\n      pop\n      pop\n      pop\n      pop\n      pop\n      pop\n      pop\n      jump\t// out\n        /* \"#utility.yul\":16069:16319   */\n    tag_75:\n        /* \"#utility.yul\":16176:16180   */\n      0x00\n        /* \"#utility.yul\":16214:16216   */\n      0x20\n        /* \"#utility.yul\":16203:16212   */\n      dup3\n        /* \"#utility.yul\":16199:16217   */\n      add\n        /* \"#utility.yul\":16191:16217   */\n      swap1\n      pop\n        /* \"#utility.yul\":16227:16312   */\n      tag_494\n        /* \"#utility.yul\":16309:16310   */\n      0x00\n        /* \"#utility.yul\":16298:16307   */\n      dup4\n        /* \"#utility.yul\":16294:16311   */\n      add\n        /* \"#utility.yul\":16285:16291   */\n      dup5\n        /* \"#utility.yul\":16227:16312   */\n      tag_374\n      jump\t// in\n    tag_494:\n        /* \"#utility.yul\":16181:16319   */\n      swap3\n      swap2\n      pop\n      pop\n      jump\t// out\n        /* \"#utility.yul\":16325:16744   */\n    tag_205:\n        /* \"#utility.yul\":16491:16495   */\n      0x00\n        /* \"#utility.yul\":16529:16531   */\n      0x20\n        /* \"#utility.yul\":16518:16527   */\n      dup3\n        /* \"#utility.yul\":16514:16532   */\n      add\n        /* \"#utility.yul\":16506:16532   */\n      swap1\n      pop\n        /* \"#utility.yul\":16578:16587   */\n      dup2\n        /* \"#utility.yul\":16572:16576   */\n      dup2\n        /* \"#utility.yul\":16568:16588   */\n      sub\n        /* \"#utility.yul\":16564:16565   */\n      0x00\n        /* \"#utility.yul\":16553:16562   */\n      dup4\n        /* \"#utility.yul\":16549:16566   */\n      add\n        /* \"#utility.yul\":16542:16589   */\n      mstore\n        /* \"#utility.yul\":16606:16737   */\n      tag_496\n        /* \"#utility.yul\":16732:16736   */\n      dup2\n        /* \"#utility.yul\":16606:16737   */\n      tag_392\n      jump\t// in\n    tag_496:\n        /* \"#utility.yul\":16598:16737   */\n      swap1\n      pop\n        /* \"#utility.yul\":16496:16744   */\n      swap2\n      swap1\n      pop\n      jump\t// out\n        /* \"#utility.yul\":16750:17169   */\n    tag_156:\n        /* \"#utility.yul\":16916:16920   */\n      0x00\n        /* \"#utility.yul\":16954:16956   */\n      0x20\n        /* \"#utility.yul\":16943:16952   */\n      dup3\n        /* \"#utility.yul\":16939:16957   */\n      add\n        /* \"#utility.yul\":16931:16957   */\n      swap1\n      pop\n        /* \"#utility.yul\":17003:17012   */\n      dup2\n        /* \"#utility.yul\":16997:17001   */\n      dup2\n        /* \"#utility.yul\":16993:17013   */\n      sub\n        /* \"#utility.yul\":16989:16990   */\n      0x00\n        /* \"#utility.yul\":16978:16987   */\n      dup4\n        /* \"#utility.yul\":16974:16991   */\n      add\n        /* \"#utility.yul\":16967:17014   */\n      mstore\n        /* \"#utility.yul\":17031:17162   */\n      tag_498\n        /* \"#utility.yul\":17157:17161   */\n      dup2\n        /* \"#utility.yul\":17031:17162   */\n      tag_398\n      jump\t// in\n    tag_498:\n        /* \"#utility.yul\":17023:17162   */\n      swap1\n      pop\n        /* \"#utility.yul\":16921:17169   */\n      swap2\n      swap1\n      pop\n      jump\t// out\n        /* \"#utility.yul\":17175:17594   */\n    tag_149:\n        /* \"#utility.yul\":17341:17345   */\n      0x00\n        /* \"#utility.yul\":17379:17381   */\n      0x20\n        /* \"#utility.yul\":17368:17377   */\n      dup3\n        /* \"#utility.yul\":17364:17382   */\n      add\n        /* \"#utility.yul\":17356:17382   */\n      swap1\n      pop\n        /* \"#utility.yul\":17428:17437   */\n      dup2\n        /* \"#utility.yul\":17422:17426   */\n      dup2\n        /* \"#utility.yul\":17418:17438   */\n      sub\n        /* \"#utility.yul\":17414:17415   */\n      0x00\n        /* \"#utility.yul\":17403:17412   */\n      dup4\n        /* \"#utility.yul\":17399:17416   */\n      add\n        /* \"#utility.yul\":17392:17439   */\n      mstore\n        /* \"#utility.yul\":17456:17587   */\n      tag_500\n        /* \"#utility.yul\":17582:17586   */\n      dup2\n        /* \"#utility.yul\":17456:17587   */\n      tag_403\n      jump\t// in\n    tag_500:\n        /* \"#utility.yul\":17448:17587   */\n      swap1\n      pop\n        /* \"#utility.yul\":17346:17594   */\n      swap2\n      swap1\n      pop\n      jump\t// out\n        /* \"#utility.yul\":17600:18019   */\n    tag_275:\n        /* \"#utility.yul\":17766:17770   */\n      0x00\n        /* \"#utility.yul\":17804:17806   */\n      0x20\n        /* \"#utility.yul\":17793:17802   */\n      dup3\n        /* \"#utility.yul\":17789:17807   */\n      add\n        /* \"#utility.yul\":17781:17807   */\n      swap1\n      pop\n        /* \"#utility.yul\":17853:17862   */\n      dup2\n        /* \"#utility.yul\":17847:17851   */\n      dup2\n        /* \"#utility.yul\":17843:17863   */\n      sub\n        /* \"#utility.yul\":17839:17840   */\n      0x00\n        /* \"#utility.yul\":17828:17837   */\n      dup4\n        /* \"#utility.yul\":17824:17841   */\n      add\n        /* \"#utility.yul\":17817:17864   */\n      mstore\n        /* \"#utility.yul\":17881:18012   */\n      tag_502\n        /* \"#utility.yul\":18007:18011   */\n      dup2\n        /* \"#utility.yul\":17881:18012   */\n      tag_408\n      jump\t// in\n    tag_502:\n        /* \"#utility.yul\":17873:18012   */\n      swap1\n      pop\n        /* \"#utility.yul\":17771:18019   */\n      swap2\n      swap1\n      pop\n      jump\t// out\n        /* \"#utility.yul\":18025:18444   */\n    tag_99:\n        /* \"#utility.yul\":18191:18195   */\n      0x00\n        /* \"#utility.yul\":18229:18231   */\n      0x20\n        /* \"#utility.yul\":18218:18227   */\n      dup3\n        /* \"#utility.yul\":18214:18232   */\n      add\n        /* \"#utility.yul\":18206:18232   */\n      swap1\n      pop\n        /* \"#utility.yul\":18278:18287   */\n      dup2\n        /* \"#utility.yul\":18272:18276   */\n      dup2\n        /* \"#utility.yul\":18268:18288   */\n      sub\n        /* \"#utility.yul\":18264:18265   */\n      0x00\n        /* \"#utility.yul\":18253:18262   */\n      dup4\n        /* \"#utility.yul\":18249:18266   */\n      add\n        /* \"#utility.yul\":18242:18289   */\n      mstore\n        /* \"#utility.yul\":18306:18437   */\n      tag_504\n        /* \"#utility.yul\":18432:18436   */\n      dup2\n        /* \"#utility.yul\":18306:18437   */\n      tag_413\n      jump\t// in\n    tag_504:\n        /* \"#utility.yul\":18298:18437   */\n      swap1\n      pop\n        /* \"#utility.yul\":18196:18444   */\n      swap2\n      swap1\n      pop\n      jump\t// out\n        /* \"#utility.yul\":18450:18869   */\n    tag_260:\n        /* \"#utility.yul\":18616:18620   */\n      0x00\n        /* \"#utility.yul\":18654:18656   */\n      0x20\n        /* \"#utility.yul\":18643:18652   */\n      dup3\n        /* \"#utility.yul\":18639:18657   */\n      add\n        /* \"#utility.yul\":18631:18657   */\n      swap1\n      pop\n        /* \"#utility.yul\":18703:18712   */\n      dup2\n        /* \"#utility.yul\":18697:18701   */\n      dup2\n        /* \"#utility.yul\":18693:18713   */\n      sub\n        /* \"#utility.yul\":18689:18690   */\n      0x00\n        /* \"#utility.yul\":18678:18687   */\n      dup4\n        /* \"#utility.yul\":18674:18691   */\n      add\n        /* \"#utility.yul\":18667:18714   */\n      mstore\n        /* \"#utility.yul\":18731:18862   */\n      tag_506\n        /* \"#utility.yul\":18857:18861   */\n      dup2\n        /* \"#utility.yul\":18731:18862   */\n      tag_418\n      jump\t// in\n    tag_506:\n        /* \"#utility.yul\":18723:18862   */\n      swap1\n      pop\n        /* \"#utility.yul\":18621:18869   */\n      swap2\n      swap1\n      pop\n      jump\t// out\n        /* \"#utility.yul\":18875:19294   */\n    tag_152:\n        /* \"#utility.yul\":19041:19045   */\n      0x00\n        /* \"#utility.yul\":19079:19081   */\n      0x20\n        /* \"#utility.yul\":19068:19077   */\n      dup3\n        /* \"#utility.yul\":19064:19082   */\n      add\n        /* \"#utility.yul\":19056:19082   */\n      swap1\n      pop\n        /* \"#utility.yul\":19128:19137   */\n      dup2\n        /* \"#utility.yul\":19122:19126   */\n      dup2\n        /* \"#utility.yul\":19118:19138   */\n      sub\n        /* \"#utility.yul\":19114:19115   */\n      0x00\n        /* \"#utility.yul\":19103:19112   */\n      dup4\n        /* \"#utility.yul\":19099:19116   */\n      add\n        /* \"#utility.yul\":19092:19139   */\n      mstore\n        /* \"#utility.yul\":19156:19287   */\n      tag_508\n        /* \"#utility.yul\":19282:19286   */\n      dup2\n        /* \"#utility.yul\":19156:19287   */\n      tag_423\n      jump\t// in\n    tag_508:\n        /* \"#utility.yul\":19148:19287   */\n      swap1\n      pop\n        /* \"#utility.yul\":19046:19294   */\n      swap2\n      swap1\n      pop\n      jump\t// out\n        /* \"#utility.yul\":19300:19719   */\n    tag_107:\n        /* \"#utility.yul\":19466:19470   */\n      0x00\n        /* \"#utility.yul\":19504:19506   */\n      0x20\n        /* \"#utility.yul\":19493:19502   */\n      dup3\n        /* \"#utility.yul\":19489:19507   */\n      add\n        /* \"#utility.yul\":19481:19507   */\n      swap1\n      pop\n        /* \"#utility.yul\":19553:19562   */\n      dup2\n        /* \"#utility.yul\":19547:19551   */\n      dup2\n        /* \"#utility.yul\":19543:19563   */\n      sub\n        /* \"#utility.yul\":19539:19540   */\n      0x00\n        /* \"#utility.yul\":19528:19537   */\n      dup4\n        /* \"#utility.yul\":19524:19541   */\n      add\n        /* \"#utility.yul\":19517:19564   */\n      mstore\n        /* \"#utility.yul\":19581:19712   */\n      tag_510\n        /* \"#utility.yul\":19707:19711   */\n      dup2\n        /* \"#utility.yul\":19581:19712   */\n      tag_428\n      jump\t// in\n    tag_510:\n        /* \"#utility.yul\":19573:19712   */\n      swap1\n      pop\n        /* \"#utility.yul\":19471:19719   */\n      swap2\n      swap1\n      pop\n      jump\t// out\n        /* \"#utility.yul\":19725:20144   */\n    tag_263:\n        /* \"#utility.yul\":19891:19895   */\n      0x00\n        /* \"#utility.yul\":19929:19931   */\n      0x20\n        /* \"#utility.yul\":19918:19927   */\n      dup3\n        /* \"#utility.yul\":19914:19932   */\n      add\n        /* \"#utility.yul\":19906:19932   */\n      swap1\n      pop\n        /* \"#utility.yul\":19978:19987   */\n      dup2\n        /* \"#utility.yul\":19972:19976   */\n      dup2\n        /* \"#utility.yul\":19968:19988   */\n      sub\n        /* \"#utility.yul\":19964:19965   */\n      0x00\n        /* \"#utility.yul\":19953:19962   */\n      dup4\n        /* \"#utility.yul\":19949:19966   */\n      add\n        /* \"#utility.yul\":19942:19989   */\n      mstore\n        /* \"#utility.yul\":20006:20137   */\n      tag_512\n        /* \"#utility.yul\":20132:20136   */\n      dup2\n        /* \"#utility.yul\":20006:20137   */\n      tag_433\n      jump\t// in\n    tag_512:\n        /* \"#utility.yul\":19998:20137   */\n      swap1\n      pop\n        /* \"#utility.yul\":19896:20144   */\n      swap2\n      swap1\n      pop\n      jump\t// out\n        /* \"#utility.yul\":20150:20569   */\n    tag_269:\n        /* \"#utility.yul\":20316:20320   */\n      0x00\n        /* \"#utility.yul\":20354:20356   */\n      0x20\n        /* \"#utility.yul\":20343:20352   */\n      dup3\n        /* \"#utility.yul\":20339:20357   */\n      add\n        /* \"#utility.yul\":20331:20357   */\n      swap1\n      pop\n        /* \"#utility.yul\":20403:20412   */\n      dup2\n        /* \"#utility.yul\":20397:20401   */\n      dup2\n        /* \"#utility.yul\":20393:20413   */\n      sub\n        /* \"#utility.yul\":20389:20390   */\n      0x00\n        /* \"#utility.yul\":20378:20387   */\n      dup4\n        /* \"#utility.yul\":20374:20391   */\n      add\n        /* \"#utility.yul\":20367:20414   */\n      mstore\n        /* \"#utility.yul\":20431:20562   */\n      tag_514\n        /* \"#utility.yul\":20557:20561   */\n      dup2\n        /* \"#utility.yul\":20431:20562   */\n      tag_438\n      jump\t// in\n    tag_514:\n        /* \"#utility.yul\":20423:20562   */\n      swap1\n      pop\n        /* \"#utility.yul\":20321:20569   */\n      swap2\n      swap1\n      pop\n      jump\t// out\n        /* \"#utility.yul\":20575:20890   */\n    tag_41:\n        /* \"#utility.yul\":20714:20718   */\n      0x00\n        /* \"#utility.yul\":20752:20755   */\n      0x0100\n        /* \"#utility.yul\":20741:20750   */\n      dup3\n        /* \"#utility.yul\":20737:20756   */\n      add\n        /* \"#utility.yul\":20729:20756   */\n      swap1\n      pop\n        /* \"#utility.yul\":20766:20883   */\n      tag_516\n        /* \"#utility.yul\":20880:20881   */\n      0x00\n        /* \"#utility.yul\":20869:20878   */\n      dup4\n        /* \"#utility.yul\":20865:20882   */\n      add\n        /* \"#utility.yul\":20856:20862   */\n      dup5\n        /* \"#utility.yul\":20766:20883   */\n      tag_443\n      jump\t// in\n    tag_516:\n        /* \"#utility.yul\":20719:20890   */\n      swap3\n      swap2\n      pop\n      pop\n      jump\t// out\n        /* \"#utility.yul\":20896:21118   */\n    tag_90:\n        /* \"#utility.yul\":20989:20993   */\n      0x00\n        /* \"#utility.yul\":21027:21029   */\n      0x20\n        /* \"#utility.yul\":21016:21025   */\n      dup3\n        /* \"#utility.yul\":21012:21030   */\n      add\n        /* \"#utility.yul\":21004:21030   */\n      swap1\n      pop\n        /* \"#utility.yul\":21040:21111   */\n      tag_518\n        /* \"#utility.yul\":21108:21109   */\n      0x00\n        /* \"#utility.yul\":21097:21106   */\n      dup4\n        /* \"#utility.yul\":21093:21110   */\n      add\n        /* \"#utility.yul\":21084:21090   */\n      dup5\n        /* \"#utility.yul\":21040:21111   */\n      tag_457\n      jump\t// in\n    tag_518:\n        /* \"#utility.yul\":20994:21118   */\n      swap3\n      swap2\n      pop\n      pop\n      jump\t// out\n        /* \"#utility.yul\":21124:21293   */\n    tag_395:\n        /* \"#utility.yul\":21208:21219   */\n      0x00\n        /* \"#utility.yul\":21242:21248   */\n      dup3\n        /* \"#utility.yul\":21237:21240   */\n      dup3\n        /* \"#utility.yul\":21230:21249   */\n      mstore\n        /* \"#utility.yul\":21282:21286   */\n      0x20\n        /* \"#utility.yul\":21277:21280   */\n      dup3\n        /* \"#utility.yul\":21273:21287   */\n      add\n        /* \"#utility.yul\":21258:21287   */\n      swap1\n      pop\n        /* \"#utility.yul\":21220:21293   */\n      swap3\n      swap2\n      pop\n      pop\n      jump\t// out\n        /* \"#utility.yul\":21299:21604   */\n    tag_250:\n        /* \"#utility.yul\":21339:21342   */\n      0x00\n        /* \"#utility.yul\":21358:21378   */\n      tag_521\n        /* \"#utility.yul\":21376:21377   */\n      dup3\n        /* \"#utility.yul\":21358:21378   */\n      tag_456\n      jump\t// in\n    tag_521:\n        /* \"#utility.yul\":21353:21378   */\n      swap2\n      pop\n        /* \"#utility.yul\":21392:21412   */\n      tag_522\n        /* \"#utility.yul\":21410:21411   */\n      dup4\n        /* \"#utility.yul\":21392:21412   */\n      tag_456\n      jump\t// in\n    tag_522:\n        /* \"#utility.yul\":21387:21412   */\n      swap3\n      pop\n        /* \"#utility.yul\":21546:21547   */\n      dup3\n        /* \"#utility.yul\":21478:21544   */\n      0xffffffffffffffffffffffffffffffffffffffffffffffffffffffffffffffff\n        /* \"#utility.yul\":21474:21548   */\n      sub\n        /* \"#utility.yul\":21471:21472   */\n      dup3\n        /* \"#utility.yul\":21468:21549   */\n      gt\n        /* \"#utility.yul\":21465:21467   */\n      iszero\n      tag_523\n      jumpi\n        /* \"#utility.yul\":21552:21570   */\n      tag_524\n      tag_525\n      jump\t// in\n    tag_524:\n        /* \"#utility.yul\":21465:21467   */\n    tag_523:\n        /* \"#utility.yul\":21596:21597   */\n      dup3\n        /* \"#utility.yul\":21593:21594   */\n      dup3\n        /* \"#utility.yul\":21589:21598   */\n      add\n        /* \"#utility.yul\":21582:21598   */\n      swap1\n      pop\n        /* \"#utility.yul\":21343:21604   */\n      swap3\n      swap2\n      pop\n      pop\n      jump\t// out\n        /* \"#utility.yul\":21610:21795   */\n    tag_281:\n        /* \"#utility.yul\":21650:21651   */\n      0x00\n        /* \"#utility.yul\":21667:21687   */\n      tag_527\n        /* \"#utility.yul\":21685:21686   */\n      dup3\n        /* \"#utility.yul\":21667:21687   */\n      tag_456\n      jump\t// in\n    tag_527:\n        /* \"#utility.yul\":21662:21687   */\n      swap2\n      pop\n        /* \"#utility.yul\":21701:21721   */\n      tag_528\n        /* \"#utility.yul\":21719:21720   */\n      dup4\n        /* \"#utility.yul\":21701:21721   */\n      tag_456\n      jump\t// in\n    tag_528:\n        /* \"#utility.yul\":21696:21721   */\n      swap3\n      pop\n        /* \"#utility.yul\":21740:21741   */\n      dup3\n        /* \"#utility.yul\":21730:21732   */\n      tag_529\n      jumpi\n        /* \"#utility.yul\":21745:21763   */\n      tag_530\n      tag_531\n      jump\t// in\n    tag_530:\n        /* \"#utility.yul\":21730:21732   */\n    tag_529:\n        /* \"#utility.yul\":21787:21788   */\n      dup3\n        /* \"#utility.yul\":21784:21785   */\n      dup3\n        /* \"#utility.yul\":21780:21789   */\n      div\n        /* \"#utility.yul\":21775:21789   */\n      swap1\n      pop\n        /* \"#utility.yul\":21652:21795   */\n      swap3\n      swap2\n      pop\n      pop\n      jump\t// out\n        /* \"#utility.yul\":21801:22149   */\n    tag_278:\n        /* \"#utility.yul\":21841:21848   */\n      0x00\n        /* \"#utility.yul\":21864:21884   */\n      tag_533\n        /* \"#utility.yul\":21882:21883   */\n      dup3\n        /* \"#utility.yul\":21864:21884   */\n      tag_456\n      jump\t// in\n    tag_533:\n        /* \"#utility.yul\":21859:21884   */\n      swap2\n      pop\n        /* \"#utility.yul\":21898:21918   */\n      tag_534\n        /* \"#utility.yul\":21916:21917   */\n      dup4\n        /* \"#utility.yul\":21898:21918   */\n      tag_456\n      jump\t// in\n    tag_534:\n        /* \"#utility.yul\":21893:21918   */\n      swap3\n      pop\n        /* \"#utility.yul\":22086:22087   */\n      dup2\n        /* \"#utility.yul\":22018:22084   */\n      0xffffffffffffffffffffffffffffffffffffffffffffffffffffffffffffffff\n        /* \"#utility.yul\":22014:22088   */\n      div\n        /* \"#utility.yul\":22011:22012   */\n      dup4\n        /* \"#utility.yul\":22008:22089   */\n      gt\n        /* \"#utility.yul\":22003:22004   */\n      dup3\n        /* \"#utility.yul\":21996:22005   */\n      iszero\n        /* \"#utility.yul\":21989:22006   */\n      iszero\n        /* \"#utility.yul\":21985:22090   */\n      and\n        /* \"#utility.yul\":21982:21984   */\n      iszero\n      tag_535\n      jumpi\n        /* \"#utility.yul\":22093:22111   */\n      tag_536\n      tag_525\n      jump\t// in\n    tag_536:\n        /* \"#utility.yul\":21982:21984   */\n    tag_535:\n        /* \"#utility.yul\":22141:22142   */\n      dup3\n        /* \"#utility.yul\":22138:22139   */\n      dup3\n        /* \"#utility.yul\":22134:22143   */\n      mul\n        /* \"#utility.yul\":22123:22143   */\n      swap1\n      pop\n        /* \"#utility.yul\":21849:22149   */\n      swap3\n      swap2\n      pop\n      pop\n      jump\t// out\n        /* \"#utility.yul\":22155:22346   */\n    tag_253:\n        /* \"#utility.yul\":22195:22199   */\n      0x00\n        /* \"#utility.yul\":22215:22235   */\n      tag_538\n        /* \"#utility.yul\":22233:22234   */\n      dup3\n        /* \"#utility.yul\":22215:22235   */\n      tag_456\n      jump\t// in\n    tag_538:\n        /* \"#utility.yul\":22210:22235   */\n      swap2\n      pop\n        /* \"#utility.yul\":22249:22269   */\n      tag_539\n        /* \"#utility.yul\":22267:22268   */\n      dup4\n        /* \"#utility.yul\":22249:22269   */\n      tag_456\n      jump\t// in\n    tag_539:\n        /* \"#utility.yul\":22244:22269   */\n      swap3\n      pop\n        /* \"#utility.yul\":22288:22289   */\n      dup3\n        /* \"#utility.yul\":22285:22286   */\n      dup3\n        /* \"#utility.yul\":22282:22290   */\n      lt\n        /* \"#utility.yul\":22279:22281   */\n      iszero\n      tag_540\n      jumpi\n        /* \"#utility.yul\":22293:22311   */\n      tag_541\n      tag_525\n      jump\t// in\n    tag_541:\n        /* \"#utility.yul\":22279:22281   */\n    tag_540:\n        /* \"#utility.yul\":22338:22339   */\n      dup3\n        /* \"#utility.yul\":22335:22336   */\n      dup3\n        /* \"#utility.yul\":22331:22340   */\n      sub\n        /* \"#utility.yul\":22323:22340   */\n      swap1\n      pop\n        /* \"#utility.yul\":22200:22346   */\n      swap3\n      swap2\n      pop\n      pop\n      jump\t// out\n        /* \"#utility.yul\":22352:22448   */\n    tag_365:\n        /* \"#utility.yul\":22389:22396   */\n      0x00\n        /* \"#utility.yul\":22418:22442   */\n      tag_543\n        /* \"#utility.yul\":22436:22441   */\n      dup3\n        /* \"#utility.yul\":22418:22442   */\n      tag_544\n      jump\t// in\n    tag_543:\n        /* \"#utility.yul\":22407:22442   */\n      swap1\n      pop\n        /* \"#utility.yul\":22397:22448   */\n      swap2\n      swap1\n      pop\n      jump\t// out\n        /* \"#utility.yul\":22454:22558   */\n    tag_358:\n        /* \"#utility.yul\":22499:22506   */\n      0x00\n        /* \"#utility.yul\":22528:22552   */\n      tag_546\n        /* \"#utility.yul\":22546:22551   */\n      dup3\n        /* \"#utility.yul\":22528:22552   */\n      tag_544\n      jump\t// in\n    tag_546:\n        /* \"#utility.yul\":22517:22552   */\n      swap1\n      pop\n        /* \"#utility.yul\":22507:22558   */\n      swap2\n      swap1\n      pop\n      jump\t// out\n        /* \"#utility.yul\":22564:22654   */\n    tag_547:\n        /* \"#utility.yul\":22598:22605   */\n      0x00\n        /* \"#utility.yul\":22641:22646   */\n      dup2\n        /* \"#utility.yul\":22634:22647   */\n      iszero\n        /* \"#utility.yul\":22627:22648   */\n      iszero\n        /* \"#utility.yul\":22616:22648   */\n      swap1\n      pop\n        /* \"#utility.yul\":22606:22654   */\n      swap2\n      swap1\n      pop\n      jump\t// out\n        /* \"#utility.yul\":22660:22737   */\n    tag_549:\n        /* \"#utility.yul\":22697:22704   */\n      0x00\n        /* \"#utility.yul\":22726:22731   */\n      dup2\n        /* \"#utility.yul\":22715:22731   */\n      swap1\n      pop\n        /* \"#utility.yul\":22705:22737   */\n      swap2\n      swap1\n      pop\n      jump\t// out\n        /* \"#utility.yul\":22743:22886   */\n    tag_551:\n        /* \"#utility.yul\":22796:22803   */\n      0x00\n        /* \"#utility.yul\":22825:22830   */\n      dup2\n        /* \"#utility.yul\":22814:22830   */\n      swap1\n      pop\n        /* \"#utility.yul\":22831:22880   */\n      tag_553\n        /* \"#utility.yul\":22874:22879   */\n      dup3\n        /* \"#utility.yul\":22831:22880   */\n      tag_554\n      jump\t// in\n    tag_553:\n        /* \"#utility.yul\":22804:22886   */\n      swap2\n      swap1\n      pop\n      jump\t// out\n        /* \"#utility.yul\":22892:23031   */\n    tag_555:\n        /* \"#utility.yul\":22943:22950   */\n      0x00\n        /* \"#utility.yul\":22972:22977   */\n      dup2\n        /* \"#utility.yul\":22961:22977   */\n      swap1\n      pop\n        /* \"#utility.yul\":22978:23025   */\n      tag_557\n        /* \"#utility.yul\":23019:23024   */\n      dup3\n        /* \"#utility.yul\":22978:23025   */\n      tag_558\n      jump\t// in\n    tag_557:\n        /* \"#utility.yul\":22951:23031   */\n      swap2\n      swap1\n      pop\n      jump\t// out\n        /* \"#utility.yul\":23037:23163   */\n    tag_544:\n        /* \"#utility.yul\":23074:23081   */\n      0x00\n        /* \"#utility.yul\":23114:23156   */\n      0xffffffffffffffffffffffffffffffffffffffff\n        /* \"#utility.yul\":23107:23112   */\n      dup3\n        /* \"#utility.yul\":23103:23157   */\n      and\n        /* \"#utility.yul\":23092:23157   */\n      swap1\n      pop\n        /* \"#utility.yul\":23082:23163   */\n      swap2\n      swap1\n      pop\n      jump\t// out\n        /* \"#utility.yul\":23169:23246   */\n    tag_456:\n        /* \"#utility.yul\":23206:23213   */\n      0x00\n        /* \"#utility.yul\":23235:23240   */\n      dup2\n        /* \"#utility.yul\":23224:23240   */\n      swap1\n      pop\n        /* \"#utility.yul\":23214:23246   */\n      swap2\n      swap1\n      pop\n      jump\t// out\n        /* \"#utility.yul\":23252:23386   */\n    tag_354:\n        /* \"#utility.yul\":23310:23319   */\n      0x00\n        /* \"#utility.yul\":23343:23380   */\n      tag_562\n        /* \"#utility.yul\":23374:23379   */\n      dup3\n        /* \"#utility.yul\":23343:23380   */\n      tag_563\n      jump\t// in\n    tag_562:\n        /* \"#utility.yul\":23330:23380   */\n      swap1\n      pop\n        /* \"#utility.yul\":23320:23386   */\n      swap2\n      swap1\n      pop\n      jump\t// out\n        /* \"#utility.yul\":23392:23546   */\n    tag_377:\n        /* \"#utility.yul\":23456:23465   */\n      0x00\n        /* \"#utility.yul\":23489:23540   */\n      tag_565\n        /* \"#utility.yul\":23534:23539   */\n      dup3\n        /* \"#utility.yul\":23489:23540   */\n      tag_566\n      jump\t// in\n    tag_565:\n        /* \"#utility.yul\":23476:23540   */\n      swap1\n      pop\n        /* \"#utility.yul\":23466:23546   */\n      swap2\n      swap1\n      pop\n      jump\t// out\n        /* \"#utility.yul\":23552:23679   */\n    tag_566:\n        /* \"#utility.yul\":23616:23625   */\n      0x00\n        /* \"#utility.yul\":23649:23673   */\n      tag_568\n        /* \"#utility.yul\":23667:23672   */\n      dup3\n        /* \"#utility.yul\":23649:23673   */\n      tag_544\n      jump\t// in\n    tag_568:\n        /* \"#utility.yul\":23636:23673   */\n      swap1\n      pop\n        /* \"#utility.yul\":23626:23679   */\n      swap2\n      swap1\n      pop\n      jump\t// out\n        /* \"#utility.yul\":23685:23828   */\n    tag_381:\n        /* \"#utility.yul\":23749:23758   */\n      0x00\n        /* \"#utility.yul\":23782:23822   */\n      tag_570\n        /* \"#utility.yul\":23816:23821   */\n      dup3\n        /* \"#utility.yul\":23782:23822   */\n      tag_551\n      jump\t// in\n    tag_570:\n        /* \"#utility.yul\":23769:23822   */\n      swap1\n      pop\n        /* \"#utility.yul\":23759:23828   */\n      swap2\n      swap1\n      pop\n      jump\t// out\n        /* \"#utility.yul\":23834:23973   */\n    tag_388:\n        /* \"#utility.yul\":23896:23905   */\n      0x00\n        /* \"#utility.yul\":23929:23967   */\n      tag_572\n        /* \"#utility.yul\":23961:23966   */\n      dup3\n        /* \"#utility.yul\":23929:23967   */\n      tag_555\n      jump\t// in\n    tag_572:\n        /* \"#utility.yul\":23916:23967   */\n      swap1\n      pop\n        /* \"#utility.yul\":23906:23973   */\n      swap2\n      swap1\n      pop\n      jump\t// out\n        /* \"#utility.yul\":23979:24105   */\n    tag_563:\n        /* \"#utility.yul\":24029:24038   */\n      0x00\n        /* \"#utility.yul\":24062:24099   */\n      tag_574\n        /* \"#utility.yul\":24093:24098   */\n      dup3\n        /* \"#utility.yul\":24062:24099   */\n      tag_575\n      jump\t// in\n    tag_574:\n        /* \"#utility.yul\":24049:24099   */\n      swap1\n      pop\n        /* \"#utility.yul\":24039:24105   */\n      swap2\n      swap1\n      pop\n      jump\t// out\n        /* \"#utility.yul\":24111:24224   */\n    tag_575:\n        /* \"#utility.yul\":24161:24170   */\n      0x00\n        /* \"#utility.yul\":24194:24218   */\n      tag_577\n        /* \"#utility.yul\":24212:24217   */\n      dup3\n        /* \"#utility.yul\":24194:24218   */\n      tag_544\n      jump\t// in\n    tag_577:\n        /* \"#utility.yul\":24181:24218   */\n      swap1\n      pop\n        /* \"#utility.yul\":24171:24224   */\n      swap2\n      swap1\n      pop\n      jump\t// out\n        /* \"#utility.yul\":24230:24330   */\n    tag_373:\n        /* \"#utility.yul\":24269:24276   */\n      0x00\n        /* \"#utility.yul\":24298:24324   */\n      tag_579\n        /* \"#utility.yul\":24318:24323   */\n      dup3\n        /* \"#utility.yul\":24298:24324   */\n      tag_580\n      jump\t// in\n    tag_579:\n        /* \"#utility.yul\":24287:24324   */\n      swap1\n      pop\n        /* \"#utility.yul\":24277:24330   */\n      swap2\n      swap1\n      pop\n      jump\t// out\n        /* \"#utility.yul\":24336:24430   */\n    tag_580:\n        /* \"#utility.yul\":24375:24382   */\n      0x00\n        /* \"#utility.yul\":24404:24424   */\n      tag_582\n        /* \"#utility.yul\":24418:24423   */\n      dup3\n        /* \"#utility.yul\":24404:24424   */\n      tag_583\n      jump\t// in\n    tag_582:\n        /* \"#utility.yul\":24393:24424   */\n      swap1\n      pop\n        /* \"#utility.yul\":24383:24430   */\n      swap2\n      swap1\n      pop\n      jump\t// out\n        /* \"#utility.yul\":24436:24515   */\n    tag_464:\n        /* \"#utility.yul\":24475:24482   */\n      0x00\n        /* \"#utility.yul\":24504:24509   */\n      dup2\n        /* \"#utility.yul\":24493:24509   */\n      swap1\n      pop\n        /* \"#utility.yul\":24483:24515   */\n      swap2\n      swap1\n      pop\n      jump\t// out\n        /* \"#utility.yul\":24521:24701   */\n    tag_525:\n        /* \"#utility.yul\":24569:24646   */\n      0x4e487b7100000000000000000000000000000000000000000000000000000000\n        /* \"#utility.yul\":24566:24567   */\n      0x00\n        /* \"#utility.yul\":24559:24647   */\n      mstore\n        /* \"#utility.yul\":24666:24670   */\n      0x11\n        /* \"#utility.yul\":24663:24664   */\n      0x04\n        /* \"#utility.yul\":24656:24671   */\n      mstore\n        /* \"#utility.yul\":24690:24694   */\n      0x24\n        /* \"#utility.yul\":24687:24688   */\n      0x00\n        /* \"#utility.yul\":24680:24695   */\n      revert\n        /* \"#utility.yul\":24707:24887   */\n    tag_531:\n        /* \"#utility.yul\":24755:24832   */\n      0x4e487b7100000000000000000000000000000000000000000000000000000000\n        /* \"#utility.yul\":24752:24753   */\n      0x00\n        /* \"#utility.yul\":24745:24833   */\n      mstore\n        /* \"#utility.yul\":24852:24856   */\n      0x12\n        /* \"#utility.yul\":24849:24850   */\n      0x04\n        /* \"#utility.yul\":24842:24857   */\n      mstore\n        /* \"#utility.yul\":24876:24880   */\n      0x24\n        /* \"#utility.yul\":24873:24874   */\n      0x00\n        /* \"#utility.yul\":24866:24881   */\n      revert\n        /* \"#utility.yul\":24893:25073   */\n    tag_587:\n        /* \"#utility.yul\":24941:25018   */\n      0x4e487b7100000000000000000000000000000000000000000000000000000000\n        /* \"#utility.yul\":24938:24939   */\n      0x00\n        /* \"#utility.yul\":24931:25019   */\n      mstore\n        /* \"#utility.yul\":25038:25042   */\n      0x21\n        /* \"#utility.yul\":25035:25036   */\n      0x04\n        /* \"#utility.yul\":25028:25043   */\n      mstore\n        /* \"#utility.yul\":25062:25066   */\n      0x24\n        /* \"#utility.yul\":25059:25060   */\n      0x00\n        /* \"#utility.yul\":25052:25067   */\n      revert\n        /* \"#utility.yul\":25079:25173   */\n    tag_583:\n        /* \"#utility.yul\":25112:25120   */\n      0x00\n        /* \"#utility.yul\":25160:25165   */\n      dup2\n        /* \"#utility.yul\":25156:25158   */\n      0x60\n        /* \"#utility.yul\":25152:25166   */\n      shl\n        /* \"#utility.yul\":25131:25166   */\n      swap1\n      pop\n        /* \"#utility.yul\":25121:25173   */\n      swap2\n      swap1\n      pop\n      jump\t// out\n        /* \"#utility.yul\":25179:25343   */\n    tag_397:\n        /* \"#utility.yul\":25319:25335   */\n      0x6e6674206e6f74206f70656e6564000000000000000000000000000000000000\n        /* \"#utility.yul\":25315:25316   */\n      0x00\n        /* \"#utility.yul\":25307:25313   */\n      dup3\n        /* \"#utility.yul\":25303:25317   */\n      add\n        /* \"#utility.yul\":25296:25336   */\n      mstore\n        /* \"#utility.yul\":25285:25343   */\n      pop\n      jump\t// out\n        /* \"#utility.yul\":25349:25578   */\n    tag_402:\n        /* \"#utility.yul\":25489:25523   */\n      0x4f776e61626c653a206f6e6c79206f776e65722063616e2063616c6c20746869\n        /* \"#utility.yul\":25485:25486   */\n      0x00\n        /* \"#utility.yul\":25477:25483   */\n      dup3\n        /* \"#utility.yul\":25473:25487   */\n      add\n        /* \"#utility.yul\":25466:25524   */\n      mstore\n        /* \"#utility.yul\":25558:25570   */\n      0x732066756e6374696f6e00000000000000000000000000000000000000000000\n        /* \"#utility.yul\":25553:25555   */\n      0x20\n        /* \"#utility.yul\":25545:25551   */\n      dup3\n        /* \"#utility.yul\":25541:25556   */\n      add\n        /* \"#utility.yul\":25534:25571   */\n      mstore\n        /* \"#utility.yul\":25455:25578   */\n      pop\n      jump\t// out\n        /* \"#utility.yul\":25584:25751   */\n    tag_407:\n        /* \"#utility.yul\":25724:25743   */\n      0x56616c7565206e6f74206d617463686564000000000000000000000000000000\n        /* \"#utility.yul\":25720:25721   */\n      0x00\n        /* \"#utility.yul\":25712:25718   */\n      dup3\n        /* \"#utility.yul\":25708:25722   */\n      add\n        /* \"#utility.yul\":25701:25744   */\n      mstore\n        /* \"#utility.yul\":25690:25751   */\n      pop\n      jump\t// out\n        /* \"#utility.yul\":25757:25982   */\n    tag_412:\n        /* \"#utility.yul\":25897:25931   */\n      0x4f776e61626c653a206e6577206f776e657220697320746865207a65726f2061\n        /* \"#utility.yul\":25893:25894   */\n      0x00\n        /* \"#utility.yul\":25885:25891   */\n      dup3\n        /* \"#utility.yul\":25881:25895   */\n      add\n        /* \"#utility.yul\":25874:25932   */\n      mstore\n        /* \"#utility.yul\":25966:25974   */\n      0x6464726573730000000000000000000000000000000000000000000000000000\n        /* \"#utility.yul\":25961:25963   */\n      0x20\n        /* \"#utility.yul\":25953:25959   */\n      dup3\n        /* \"#utility.yul\":25949:25964   */\n      add\n        /* \"#utility.yul\":25942:25975   */\n      mstore\n        /* \"#utility.yul\":25863:25982   */\n      pop\n      jump\t// out\n        /* \"#utility.yul\":25988:26162   */\n    tag_417:\n        /* \"#utility.yul\":26128:26154   */\n      0x6f6e6c7920666f72206d61726b6574206f70657261746f720000000000000000\n        /* \"#utility.yul\":26124:26125   */\n      0x00\n        /* \"#utility.yul\":26116:26122   */\n      dup3\n        /* \"#utility.yul\":26112:26126   */\n      add\n        /* \"#utility.yul\":26105:26155   */\n      mstore\n        /* \"#utility.yul\":26094:26162   */\n      pop\n      jump\t// out\n        /* \"#utility.yul\":26168:26348   */\n    tag_422:\n        /* \"#utility.yul\":26308:26340   */\n      0x4d61726b6574206f7264657220697320616c7265616479206f70656e65640000\n        /* \"#utility.yul\":26304:26305   */\n      0x00\n        /* \"#utility.yul\":26296:26302   */\n      dup3\n        /* \"#utility.yul\":26292:26306   */\n      add\n        /* \"#utility.yul\":26285:26341   */\n      mstore\n        /* \"#utility.yul\":26274:26348   */\n      pop\n      jump\t// out\n        /* \"#utility.yul\":26354:26530   */\n    tag_427:\n        /* \"#utility.yul\":26494:26522   */\n      0x4d61726b6574206f72646572206973206e6f74206f70656e6564000000000000\n        /* \"#utility.yul\":26490:26491   */\n      0x00\n        /* \"#utility.yul\":26482:26488   */\n      dup3\n        /* \"#utility.yul\":26478:26492   */\n      add\n        /* \"#utility.yul\":26471:26523   */\n      mstore\n        /* \"#utility.yul\":26460:26530   */\n      pop\n      jump\t// out\n        /* \"#utility.yul\":26536:26713   */\n    tag_432:\n        /* \"#utility.yul\":26676:26705   */\n      0x6e6674206973206e6f74206f70656e20666f722041756374696f6e0000000000\n        /* \"#utility.yul\":26672:26673   */\n      0x00\n        /* \"#utility.yul\":26664:26670   */\n      dup3\n        /* \"#utility.yul\":26660:26674   */\n      add\n        /* \"#utility.yul\":26653:26706   */\n      mstore\n        /* \"#utility.yul\":26642:26713   */\n      pop\n      jump\t// out\n        /* \"#utility.yul\":26719:26899   */\n    tag_437:\n        /* \"#utility.yul\":26859:26891   */\n      0x50726963652053686f756c642062652067726561746572207468656e20300000\n        /* \"#utility.yul\":26855:26856   */\n      0x00\n        /* \"#utility.yul\":26847:26853   */\n      dup3\n        /* \"#utility.yul\":26843:26857   */\n      add\n        /* \"#utility.yul\":26836:26892   */\n      mstore\n        /* \"#utility.yul\":26825:26899   */\n      pop\n      jump\t// out\n        /* \"#utility.yul\":26905:27130   */\n    tag_442:\n        /* \"#utility.yul\":27045:27079   */\n      0x656e642050726963652053686f756c642062652067726561746572207468656e\n        /* \"#utility.yul\":27041:27042   */\n      0x00\n        /* \"#utility.yul\":27033:27039   */\n      dup3\n        /* \"#utility.yul\":27029:27043   */\n      add\n        /* \"#utility.yul\":27022:27080   */\n      mstore\n        /* \"#utility.yul\":27114:27122   */\n      0x2070726963650000000000000000000000000000000000000000000000000000\n        /* \"#utility.yul\":27109:27111   */\n      0x20\n        /* \"#utility.yul\":27101:27107   */\n      dup3\n        /* \"#utility.yul\":27097:27112   */\n      add\n        /* \"#utility.yul\":27090:27123   */\n      mstore\n        /* \"#utility.yul\":27011:27130   */\n      pop\n      jump\t// out\n        /* \"#utility.yul\":27136:27257   */\n    tag_554:\n        /* \"#utility.yul\":27225:27226   */\n      0x04\n        /* \"#utility.yul\":27218:27223   */\n      dup2\n        /* \"#utility.yul\":27215:27227   */\n      lt\n        /* \"#utility.yul\":27205:27207   */\n      tag_601\n      jumpi\n        /* \"#utility.yul\":27231:27249   */\n      tag_602\n      tag_587\n      jump\t// in\n    tag_602:\n        /* \"#utility.yul\":27205:27207   */\n    tag_601:\n        /* \"#utility.yul\":27195:27257   */\n      pop\n      jump\t// out\n        /* \"#utility.yul\":27263:27382   */\n    tag_558:\n        /* \"#utility.yul\":27350:27351   */\n      0x03\n        /* \"#utility.yul\":27343:27348   */\n      dup2\n        /* \"#utility.yul\":27340:27352   */\n      lt\n        /* \"#utility.yul\":27330:27332   */\n      tag_604\n      jumpi\n        /* \"#utility.yul\":27356:27374   */\n      tag_605\n      tag_587\n      jump\t// in\n    tag_605:\n        /* \"#utility.yul\":27330:27332   */\n    tag_604:\n        /* \"#utility.yul\":27320:27382   */\n      pop\n      jump\t// out\n        /* \"#utility.yul\":27388:27510   */\n    tag_288:\n        /* \"#utility.yul\":27461:27485   */\n      tag_607\n        /* \"#utility.yul\":27479:27484   */\n      dup2\n        /* \"#utility.yul\":27461:27485   */\n      tag_365\n      jump\t// in\n    tag_607:\n        /* \"#utility.yul\":27454:27459   */\n      dup2\n        /* \"#utility.yul\":27451:27486   */\n      eq\n        /* \"#utility.yul\":27441:27443   */\n      tag_608\n      jumpi\n        /* \"#utility.yul\":27500:27501   */\n      0x00\n        /* \"#utility.yul\":27497:27498   */\n      dup1\n        /* \"#utility.yul\":27490:27502   */\n      revert\n        /* \"#utility.yul\":27441:27443   */\n    tag_608:\n        /* \"#utility.yul\":27431:27510   */\n      pop\n      jump\t// out\n        /* \"#utility.yul\":27516:27654   */\n    tag_295:\n        /* \"#utility.yul\":27597:27629   */\n      tag_610\n        /* \"#utility.yul\":27623:27628   */\n      dup2\n        /* \"#utility.yul\":27597:27629   */\n      tag_358\n      jump\t// in\n    tag_610:\n        /* \"#utility.yul\":27590:27595   */\n      dup2\n        /* \"#utility.yul\":27587:27630   */\n      eq\n        /* \"#utility.yul\":27577:27579   */\n      tag_611\n      jumpi\n        /* \"#utility.yul\":27644:27645   */\n      0x00\n        /* \"#utility.yul\":27641:27642   */\n      dup1\n        /* \"#utility.yul\":27634:27646   */\n      revert\n        /* \"#utility.yul\":27577:27579   */\n    tag_611:\n        /* \"#utility.yul\":27567:27654   */\n      pop\n      jump\t// out\n        /* \"#utility.yul\":27660:27776   */\n    tag_299:\n        /* \"#utility.yul\":27730:27751   */\n      tag_613\n        /* \"#utility.yul\":27745:27750   */\n      dup2\n        /* \"#utility.yul\":27730:27751   */\n      tag_547\n      jump\t// in\n    tag_613:\n        /* \"#utility.yul\":27723:27728   */\n      dup2\n        /* \"#utility.yul\":27720:27752   */\n      eq\n        /* \"#utility.yul\":27710:27712   */\n      tag_614\n      jumpi\n        /* \"#utility.yul\":27766:27767   */\n      0x00\n        /* \"#utility.yul\":27763:27764   */\n      dup1\n        /* \"#utility.yul\":27756:27768   */\n      revert\n        /* \"#utility.yul\":27710:27712   */\n    tag_614:\n        /* \"#utility.yul\":27700:27776   */\n      pop\n      jump\t// out\n        /* \"#utility.yul\":27782:27904   */\n    tag_303:\n        /* \"#utility.yul\":27855:27879   */\n      tag_616\n        /* \"#utility.yul\":27873:27878   */\n      dup2\n        /* \"#utility.yul\":27855:27879   */\n      tag_549\n      jump\t// in\n    tag_616:\n        /* \"#utility.yul\":27848:27853   */\n      dup2\n        /* \"#utility.yul\":27845:27880   */\n      eq\n        /* \"#utility.yul\":27835:27837   */\n      tag_617\n      jumpi\n        /* \"#utility.yul\":27894:27895   */\n      0x00\n        /* \"#utility.yul\":27891:27892   */\n      dup1\n        /* \"#utility.yul\":27884:27896   */\n      revert\n        /* \"#utility.yul\":27835:27837   */\n    tag_617:\n        /* \"#utility.yul\":27825:27904   */\n      pop\n      jump\t// out\n        /* \"#utility.yul\":27910:28032   */\n    tag_307:\n        /* \"#utility.yul\":27983:28007   */\n      tag_619\n        /* \"#utility.yul\":28001:28006   */\n      dup2\n        /* \"#utility.yul\":27983:28007   */\n      tag_456\n      jump\t// in\n    tag_619:\n        /* \"#utility.yul\":27976:27981   */\n      dup2\n        /* \"#utility.yul\":27973:28008   */\n      eq\n        /* \"#utility.yul\":27963:27965   */\n      tag_620\n      jumpi\n        /* \"#utility.yul\":28022:28023   */\n      0x00\n        /* \"#utility.yul\":28019:28020   */\n      dup1\n        /* \"#utility.yul\":28012:28024   */\n      revert\n        /* \"#utility.yul\":27963:27965   */\n    tag_620:\n        /* \"#utility.yul\":27953:28032   */\n      pop\n      jump\t// out\n\n    auxdata: 0xa2646970667358221220984a4d482cd19aa8f5e8f249e1897c46fdae2444485993f6f81deff95221800964736f6c63430008040033\n}\n",
				"bytecode": {
					"linkReferences": {},
					"object": "60806040523480156200001157600080fd5b50604051620033ad380380620033ad8339818101604052810190620000379190620001c9565b336000806101000a81548173ffffffffffffffffffffffffffffffffffffffff021916908373ffffffffffffffffffffffffffffffffffffffff16021790555060008054906101000a900473ffffffffffffffffffffffffffffffffffffffff1673ffffffffffffffffffffffffffffffffffffffff16600073ffffffffffffffffffffffffffffffffffffffff167f8be0079c531659141344cd1fd0a4f28419497f9722a3daafe3b4186f6b6457e060405160405180910390a38160028190555080600360006101000a81548173ffffffffffffffffffffffffffffffffffffffff021916908373ffffffffffffffffffffffffffffffffffffffff16021790555082600160006101000a81548173ffffffffffffffffffffffffffffffffffffffff021916908373ffffffffffffffffffffffffffffffffffffffff160217905550505050620002bf565b600081519050620001958162000271565b92915050565b600081519050620001ac816200028b565b92915050565b600081519050620001c381620002a5565b92915050565b600080600060608486031215620001df57600080fd5b6000620001ef8682870162000184565b93505060206200020286828701620001b2565b925050604062000215868287016200019b565b9150509250925092565b60006200022c8262000247565b9050919050565b6000620002408262000247565b9050919050565b600073ffffffffffffffffffffffffffffffffffffffff82169050919050565b6000819050919050565b6200027c816200021f565b81146200028857600080fd5b50565b620002968162000233565b8114620002a257600080fd5b50565b620002b08162000267565b8114620002bc57600080fd5b50565b6130de80620002cf6000396000f3fe6080604052600436106100e85760003560e01c80639677d02e1161008a578063ec10246411610059578063ec102464146102d3578063f2fde38b146102fc578063f699343e14610325578063f896cad614610350576100e8565b80639677d02e1461022d57806398590ef914610256578063ae06c1b71461027f578063cb278aad146102a8576100e8565b80636548d2c2116100c65780636548d2c21461016a578063715018a6146101a75780637564912b146101be5780638da5cb5b14610202576100e8565b806310ae7085146100ed5780631f40ff841461011857806326f8a07a14610141575b600080fd5b3480156100f957600080fd5b5061010261036c565b60405161010f919061283b565b60405180910390f35b34801561012457600080fd5b5061013f600480360381019061013a9190612395565b610392565b005b34801561014d57600080fd5b50610168600480360381019061016391906122e1565b610b48565b005b34801561017657600080fd5b50610191600480360381019061018c919061230a565b610c1a565b60405161019e9190612ad4565b60405180910390f35b3480156101b357600080fd5b506101bc610e86565b005b3480156101ca57600080fd5b506101e560048036038101906101e09190612484565b610fd2565b6040516101f99897969594939291906128fb565b60405180910390f35b34801561020e57600080fd5b50610217611094565b6040516102249190612820565b60405180910390f35b34801561023957600080fd5b50610254600480360381019061024f91906123f8565b6110bd565b005b34801561026257600080fd5b5061027d6004803603810190610278919061230a565b6110d1565b005b34801561028b57600080fd5b506102a660048036038101906102a191906124ad565b6112c9565b005b3480156102b457600080fd5b506102bd611361565b6040516102ca9190612979565b60405180910390f35b3480156102df57600080fd5b506102fa60048036038101906102f59190612346565b611387565b005b34801561030857600080fd5b50610323600480360381019061031e91906122b8565b61139b565b005b34801561033157600080fd5b5061033a611435565b6040516103479190612af0565b60405180910390f35b61036a6004803603810190610365919061230a565b61143b565b005b600360009054906101000a900473ffffffffffffffffffffffffffffffffffffffff1681565b600061039e8585611b94565b90503373ffffffffffffffffffffffffffffffffffffffff166004600083815260200190815260200160002060050160009054906101000a900473ffffffffffffffffffffffffffffffffffffffff1673ffffffffffffffffffffffffffffffffffffffff1614610444576040517f08c379a000000000000000000000000000000000000000000000000000000000815260040161043b90612a14565b60405180910390fd5b6001600381111561047e577f4e487b7100000000000000000000000000000000000000000000000000000000600052602160045260246000fd5b6004600083815260200190815260200160002060020160019054906101000a900460ff1660038111156104da577f4e487b7100000000000000000000000000000000000000000000000000000000600052602160045260246000fd5b1415610b0657600280811115610519577f4e487b7100000000000000000000000000000000000000000000000000000000600052602160045260246000fd5b6004600083815260200190815260200160002060020160009054906101000a900460ff166002811115610575577f4e487b7100000000000000000000000000000000000000000000000000000000600052602160045260246000fd5b146105b5576040517f08c379a00000000000000000000000000000000000000000000000000000000081526004016105ac90612a74565b60405180910390fd5b8260046000838152602001908152602001600020600301541015610ac65760006004600083815260200190815260200160002060000160009054906101000a900473ffffffffffffffffffffffffffffffffffffffff169050600061061c85600254611bc7565b905060008111156106fc57600160009054906101000a900473ffffffffffffffffffffffffffffffffffffffff1673ffffffffffffffffffffffffffffffffffffffff166323b872dd85600360009054906101000a900473ffffffffffffffffffffffffffffffffffffffff16846040518463ffffffff1660e01b81526004016106a89392919061288d565b602060405180830381600087803b1580156106c257600080fd5b505af11580156106d6573d6000803e3d6000fd5b505050506040513d601f19601f820116820180604052508101906106fa919061245b565b505b6000808373ffffffffffffffffffffffffffffffffffffffff1663179efa20896040518263ffffffff1660e01b81526004016107389190612af0565b604080518083038186803b15801561074f57600080fd5b505afa158015610763573d6000803e3d6000fd5b505050506040513d601f19601f8201168201806040525081019061078791906124d6565b9150915060006107978884611bc7565b9050600160009054906101000a900473ffffffffffffffffffffffffffffffffffffffff1673ffffffffffffffffffffffffffffffffffffffff166323b872dd8884846040518463ffffffff1660e01b81526004016107f8939291906128c4565b602060405180830381600087803b15801561081257600080fd5b505af1158015610826573d6000803e3d6000fd5b505050506040513d601f19601f8201168201806040525081019061084a919061245b565b5060006108726108638387611bf790919063ffffffff16565b8a611c0d90919063ffffffff16565b9050600160009054906101000a900473ffffffffffffffffffffffffffffffffffffffff1673ffffffffffffffffffffffffffffffffffffffff166323b872dd89600460008b815260200190815260200160002060050160009054906101000a900473ffffffffffffffffffffffffffffffffffffffff16846040518463ffffffff1660e01b81526004016109099392919061288d565b602060405180830381600087803b15801561092357600080fd5b505af1158015610937573d6000803e3d6000fd5b505050506040513d601f19601f8201168201806040525081019061095b919061245b565b508573ffffffffffffffffffffffffffffffffffffffff166342842e0e600460008a815260200190815260200160002060050160009054906101000a900473ffffffffffffffffffffffffffffffffffffffff168a8d6040518463ffffffff1660e01b81526004016109cf93929190612856565b600060405180830381600087803b1580156109e957600080fd5b505af11580156109fd573d6000803e3d6000fd5b5050505060036004600089815260200190815260200160002060020160016101000a81548160ff02191690836003811115610a61577f4e487b7100000000000000000000000000000000000000000000000000000000600052602160045260246000fd5b0217905550876004600089815260200190815260200160002060060160006101000a81548173ffffffffffffffffffffffffffffffffffffffff021916908373ffffffffffffffffffffffffffffffffffffffff160217905550505050505050610b01565b6040517f08c379a0000000000000000000000000000000000000000000000000000000008152600401610af8906129d4565b60405180910390fd5b610b41565b6040517f08c379a0000000000000000000000000000000000000000000000000000000008152600401610b3890612a54565b60405180910390fd5b5050505050565b3373ffffffffffffffffffffffffffffffffffffffff1660008054906101000a900473ffffffffffffffffffffffffffffffffffffffff1673ffffffffffffffffffffffffffffffffffffffff1614610bd6576040517f08c379a0000000000000000000000000000000000000000000000000000000008152600401610bcd906129b4565b60405180910390fd5b80600360006101000a81548173ffffffffffffffffffffffffffffffffffffffff021916908373ffffffffffffffffffffffffffffffffffffffff16021790555050565b610c2261212e565b6000610c2e8484611b94565b905060046000828152602001908152602001600020604051806101000160405290816000820160009054906101000a900473ffffffffffffffffffffffffffffffffffffffff1673ffffffffffffffffffffffffffffffffffffffff1673ffffffffffffffffffffffffffffffffffffffff168152602001600182015481526020016002820160009054906101000a900460ff166002811115610cfa577f4e487b7100000000000000000000000000000000000000000000000000000000600052602160045260246000fd5b6002811115610d32577f4e487b7100000000000000000000000000000000000000000000000000000000600052602160045260246000fd5b81526020016002820160019054906101000a900460ff166003811115610d81577f4e487b7100000000000000000000000000000000000000000000000000000000600052602160045260246000fd5b6003811115610db9577f4e487b7100000000000000000000000000000000000000000000000000000000600052602160045260246000fd5b815260200160038201548152602001600482015481526020016005820160009054906101000a900473ffffffffffffffffffffffffffffffffffffffff1673ffffffffffffffffffffffffffffffffffffffff1673ffffffffffffffffffffffffffffffffffffffff1681526020016006820160009054906101000a900473ffffffffffffffffffffffffffffffffffffffff1673ffffffffffffffffffffffffffffffffffffffff1673ffffffffffffffffffffffffffffffffffffffff168152505091505092915050565b3373ffffffffffffffffffffffffffffffffffffffff1660008054906101000a900473ffffffffffffffffffffffffffffffffffffffff1673ffffffffffffffffffffffffffffffffffffffff1614610f14576040517f08c379a0000000000000000000000000000000000000000000000000000000008152600401610f0b906129b4565b60405180910390fd5b600073ffffffffffffffffffffffffffffffffffffffff1660008054906101000a900473ffffffffffffffffffffffffffffffffffffffff1673ffffffffffffffffffffffffffffffffffffffff167f8be0079c531659141344cd1fd0a4f28419497f9722a3daafe3b4186f6b6457e060405160405180910390a360008060006101000a81548173ffffffffffffffffffffffffffffffffffffffff021916908373ffffffffffffffffffffffffffffffffffffffff160217905550565b60046020528060005260406000206000915090508060000160009054906101000a900473ffffffffffffffffffffffffffffffffffffffff16908060010154908060020160009054906101000a900460ff16908060020160019054906101000a900460ff16908060030154908060040154908060050160009054906101000a900473ffffffffffffffffffffffffffffffffffffffff16908060060160009054906101000a900473ffffffffffffffffffffffffffffffffffffffff16905088565b60008060009054906101000a900473ffffffffffffffffffffffffffffffffffffffff16905090565b6110cb848484600285611c23565b50505050565b60006110dd8383611b94565b90503373ffffffffffffffffffffffffffffffffffffffff166004600083815260200190815260200160002060050160009054906101000a900473ffffffffffffffffffffffffffffffffffffffff1673ffffffffffffffffffffffffffffffffffffffff1614611183576040517f08c379a000000000000000000000000000000000000000000000000000000000815260040161117a90612a14565b60405180910390fd5b600160038111156111bd577f4e487b7100000000000000000000000000000000000000000000000000000000600052602160045260246000fd5b6004600083815260200190815260200160002060020160019054906101000a900460ff166003811115611219577f4e487b7100000000000000000000000000000000000000000000000000000000600052602160045260246000fd5b14156112895760026004600083815260200190815260200160002060020160016101000a81548160ff0219169083600381111561127f577f4e487b7100000000000000000000000000000000000000000000000000000000600052602160045260246000fd5b02179055506112c4565b6040517f08c379a00000000000000000000000000000000000000000000000000000000081526004016112bb90612a54565b60405180910390fd5b505050565b3373ffffffffffffffffffffffffffffffffffffffff1660008054906101000a900473ffffffffffffffffffffffffffffffffffffffff1673ffffffffffffffffffffffffffffffffffffffff1614611357576040517f08c379a000000000000000000000000000000000000000000000000000000000815260040161134e906129b4565b60405180910390fd5b8060028190555050565b600160009054906101000a900473ffffffffffffffffffffffffffffffffffffffff1681565b61139683838360016000611c23565b505050565b3373ffffffffffffffffffffffffffffffffffffffff1660008054906101000a900473ffffffffffffffffffffffffffffffffffffffff1673ffffffffffffffffffffffffffffffffffffffff1614611429576040517f08c379a0000000000000000000000000000000000000000000000000000000008152600401611420906129b4565b60405180910390fd5b61143281611fd5565b50565b60025481565b60006114478383611b94565b905060016003811115611483577f4e487b7100000000000000000000000000000000000000000000000000000000600052602160045260246000fd5b6004600083815260200190815260200160002060020160019054906101000a900460ff1660038111156114df577f4e487b7100000000000000000000000000000000000000000000000000000000600052602160045260246000fd5b1415611b54576000600281111561151f577f4e487b7100000000000000000000000000000000000000000000000000000000600052602160045260246000fd5b6004600083815260200190815260200160002060020160009054906101000a900460ff16600281111561157b577f4e487b7100000000000000000000000000000000000000000000000000000000600052602160045260246000fd5b14156115bc576040517f08c379a00000000000000000000000000000000000000000000000000000000081526004016115b390612994565b60405180910390fd5b600160028111156115f6577f4e487b7100000000000000000000000000000000000000000000000000000000600052602160045260246000fd5b6004600083815260200190815260200160002060020160009054906101000a900460ff166002811115611652577f4e487b7100000000000000000000000000000000000000000000000000000000600052602160045260246000fd5b14156116b65734600460008381526020019081526020016000206003015410156116b1576040517f08c379a00000000000000000000000000000000000000000000000000000000081526004016116a8906129d4565b60405180910390fd5b6117ac565b6002808111156116ef577f4e487b7100000000000000000000000000000000000000000000000000000000600052602160045260246000fd5b6004600083815260200190815260200160002060020160009054906101000a900460ff16600281111561174b577f4e487b7100000000000000000000000000000000000000000000000000000000600052602160045260246000fd5b14156117ab5734600460008381526020019081526020016000206004015410156117aa576040517f08c379a00000000000000000000000000000000000000000000000000000000081526004016117a1906129d4565b60405180910390fd5b5b5b60006004600083815260200190815260200160002060000160009054906101000a900473ffffffffffffffffffffffffffffffffffffffff1690506000808273ffffffffffffffffffffffffffffffffffffffff1663179efa20866040518263ffffffff1660e01b81526004016118239190612af0565b604080518083038186803b15801561183a57600080fd5b505afa15801561184e573d6000803e3d6000fd5b505050506040513d601f19601f8201168201806040525081019061187291906124d6565b91509150600061188434600254611bc7565b9050600360009054906101000a900473ffffffffffffffffffffffffffffffffffffffff1673ffffffffffffffffffffffffffffffffffffffff166108fc829081150290604051600060405180830381858888f193505050501580156118ee573d6000803e3d6000fd5b5060006118fb3485611bc7565b90508273ffffffffffffffffffffffffffffffffffffffff166108fc829081150290604051600060405180830381858888f19350505050158015611943573d6000803e3d6000fd5b50600061196b61195c8385611bf790919063ffffffff16565b34611c0d90919063ffffffff16565b90506004600088815260200190815260200160002060050160009054906101000a900473ffffffffffffffffffffffffffffffffffffffff1673ffffffffffffffffffffffffffffffffffffffff166108fc829081150290604051600060405180830381858888f193505050501580156119e9573d6000803e3d6000fd5b508573ffffffffffffffffffffffffffffffffffffffff166342842e0e600460008a815260200190815260200160002060050160009054906101000a900473ffffffffffffffffffffffffffffffffffffffff16338b6040518463ffffffff1660e01b8152600401611a5d93929190612856565b600060405180830381600087803b158015611a7757600080fd5b505af1158015611a8b573d6000803e3d6000fd5b5050505060036004600089815260200190815260200160002060020160016101000a81548160ff02191690836003811115611aef577f4e487b7100000000000000000000000000000000000000000000000000000000600052602160045260246000fd5b0217905550336004600089815260200190815260200160002060060160006101000a81548173ffffffffffffffffffffffffffffffffffffffff021916908373ffffffffffffffffffffffffffffffffffffffff160217905550505050505050611b8f565b6040517f08c379a0000000000000000000000000000000000000000000000000000000008152600401611b8690612a54565b60405180910390fd5b505050565b60008282604051602001611ba99291906127f4565b60405160208183030381529060405280519060200120905092915050565b6000611bef6064611be1848661210290919063ffffffff16565b61211890919063ffffffff16565b905092915050565b60008183611c059190612b1c565b905092915050565b60008183611c1b9190612bfd565b905092915050565b6000611c2f8686611b94565b905060016003811115611c6b577f4e487b7100000000000000000000000000000000000000000000000000000000600052602160045260246000fd5b6004600083815260200190815260200160002060020160019054906101000a900460ff166003811115611cc7577f4e487b7100000000000000000000000000000000000000000000000000000000600052602160045260246000fd5b1415611d08576040517f08c379a0000000000000000000000000000000000000000000000000000000008152600401611cff90612a34565b60405180910390fd5b60008411611d4b576040517f08c379a0000000000000000000000000000000000000000000000000000000008152600401611d4290612a94565b60405180910390fd5b600280811115611d84577f4e487b7100000000000000000000000000000000000000000000000000000000600052602160045260246000fd5b836002811115611dbd577f4e487b7100000000000000000000000000000000000000000000000000000000600052602160045260246000fd5b148015611dc957508184115b15611e09576040517f08c379a0000000000000000000000000000000000000000000000000000000008152600401611e0090612ab4565b60405180910390fd5b60016004600083815260200190815260200160002060020160016101000a81548160ff02191690836003811115611e69577f4e487b7100000000000000000000000000000000000000000000000000000000600052602160045260246000fd5b0217905550826004600083815260200190815260200160002060020160006101000a81548160ff02191690836002811115611ecd577f4e487b7100000000000000000000000000000000000000000000000000000000600052602160045260246000fd5b0217905550836004600083815260200190815260200160002060030181905550816004600083815260200190815260200160002060040181905550856004600083815260200190815260200160002060000160006101000a81548173ffffffffffffffffffffffffffffffffffffffff021916908373ffffffffffffffffffffffffffffffffffffffff160217905550846004600083815260200190815260200160002060010181905550336004600083815260200190815260200160002060050160006101000a81548173ffffffffffffffffffffffffffffffffffffffff021916908373ffffffffffffffffffffffffffffffffffffffff160217905550505050505050565b600073ffffffffffffffffffffffffffffffffffffffff168173ffffffffffffffffffffffffffffffffffffffff161415612045576040517f08c379a000000000000000000000000000000000000000000000000000000000815260040161203c906129f4565b60405180910390fd5b8073ffffffffffffffffffffffffffffffffffffffff1660008054906101000a900473ffffffffffffffffffffffffffffffffffffffff1673ffffffffffffffffffffffffffffffffffffffff167f8be0079c531659141344cd1fd0a4f28419497f9722a3daafe3b4186f6b6457e060405160405180910390a3806000806101000a81548173ffffffffffffffffffffffffffffffffffffffff021916908373ffffffffffffffffffffffffffffffffffffffff16021790555050565b600081836121109190612ba3565b905092915050565b600081836121269190612b72565b905092915050565b604051806101000160405280600073ffffffffffffffffffffffffffffffffffffffff1681526020016000815260200160006002811115612198577f4e487b7100000000000000000000000000000000000000000000000000000000600052602160045260246000fd5b8152602001600060038111156121d7577f4e487b7100000000000000000000000000000000000000000000000000000000600052602160045260246000fd5b81526020016000815260200160008152602001600073ffffffffffffffffffffffffffffffffffffffff168152602001600073ffffffffffffffffffffffffffffffffffffffff1681525090565b60008135905061223481613035565b92915050565b60008151905061224981613035565b92915050565b60008135905061225e8161304c565b92915050565b60008151905061227381613063565b92915050565b6000813590506122888161307a565b92915050565b60008135905061229d81613091565b92915050565b6000815190506122b281613091565b92915050565b6000602082840312156122ca57600080fd5b60006122d884828501612225565b91505092915050565b6000602082840312156122f357600080fd5b60006123018482850161224f565b91505092915050565b6000806040838503121561231d57600080fd5b600061232b85828601612225565b925050602061233c8582860161228e565b9150509250929050565b60008060006060848603121561235b57600080fd5b600061236986828701612225565b935050602061237a8682870161228e565b925050604061238b8682870161228e565b9150509250925092565b600080600080608085870312156123ab57600080fd5b60006123b987828801612225565b94505060206123ca8782880161228e565b93505060406123db8782880161228e565b92505060606123ec87828801612225565b91505092959194509250565b6000806000806080858703121561240e57600080fd5b600061241c87828801612225565b945050602061242d8782880161228e565b935050604061243e8782880161228e565b925050606061244f8782880161228e565b91505092959194509250565b60006020828403121561246d57600080fd5b600061247b84828501612264565b91505092915050565b60006020828403121561249657600080fd5b60006124a484828501612279565b91505092915050565b6000602082840312156124bf57600080fd5b60006124cd8482850161228e565b91505092915050565b600080604083850312156124e957600080fd5b60006124f7858286016122a3565b92505060206125088582860161223a565b9150509250929050565b61251b81612cbb565b82525050565b61252a81612c43565b82525050565b61253981612c43565b82525050565b61254881612c31565b82525050565b61255781612c31565b82525050565b61256e61256982612c31565b612d39565b82525050565b61257d81612ccd565b82525050565b61258c81612cf1565b82525050565b61259b81612cf1565b82525050565b6125aa81612d03565b82525050565b6125b981612d03565b82525050565b60006125cc600e83612b0b565b91506125d782612e01565b602082019050919050565b60006125ef602a83612b0b565b91506125fa82612e2a565b604082019050919050565b6000612612601183612b0b565b915061261d82612e79565b602082019050919050565b6000612635602683612b0b565b915061264082612ea2565b604082019050919050565b6000612658601883612b0b565b915061266382612ef1565b602082019050919050565b600061267b601e83612b0b565b915061268682612f1a565b602082019050919050565b600061269e601a83612b0b565b91506126a982612f43565b602082019050919050565b60006126c1601b83612b0b565b91506126cc82612f6c565b602082019050919050565b60006126e4601e83612b0b565b91506126ef82612f95565b602082019050919050565b6000612707602683612b0b565b915061271282612fbe565b604082019050919050565b61010082016000820151612734600085018261253f565b50602082015161274760208501826127bf565b50604082015161275a60408501826125a1565b50606082015161276d6060850182612583565b50608082015161278060808501826127bf565b5060a082015161279360a08501826127bf565b5060c08201516127a660c0850182612521565b5060e08201516127b960e085018261253f565b50505050565b6127c881612cb1565b82525050565b6127d781612cb1565b82525050565b6127ee6127e982612cb1565b612d5d565b82525050565b6000612800828561255d565b60148201915061281082846127dd565b6020820191508190509392505050565b6000602082019050612835600083018461254e565b92915050565b60006020820190506128506000830184612530565b92915050565b600060608201905061286b6000830186612512565b612878602083018561254e565b61288560408301846127ce565b949350505050565b60006060820190506128a2600083018661254e565b6128af6020830185612512565b6128bc60408301846127ce565b949350505050565b60006060820190506128d9600083018661254e565b6128e6602083018561254e565b6128f360408301846127ce565b949350505050565b600061010082019050612911600083018b61254e565b61291e602083018a6127ce565b61292b60408301896125b0565b6129386060830188612592565b61294560808301876127ce565b61295260a08301866127ce565b61295f60c0830185612530565b61296c60e083018461254e565b9998505050505050505050565b600060208201905061298e6000830184612574565b92915050565b600060208201905081810360008301526129ad816125bf565b9050919050565b600060208201905081810360008301526129cd816125e2565b9050919050565b600060208201905081810360008301526129ed81612605565b9050919050565b60006020820190508181036000830152612a0d81612628565b9050919050565b60006020820190508181036000830152612a2d8161264b565b9050919050565b60006020820190508181036000830152612a4d8161266e565b9050919050565b60006020820190508181036000830152612a6d81612691565b9050919050565b60006020820190508181036000830152612a8d816126b4565b9050919050565b60006020820190508181036000830152612aad816126d7565b9050919050565b60006020820190508181036000830152612acd816126fa565b9050919050565b600061010082019050612aea600083018461271d565b92915050565b6000602082019050612b0560008301846127ce565b92915050565b600082825260208201905092915050565b6000612b2782612cb1565b9150612b3283612cb1565b9250827fffffffffffffffffffffffffffffffffffffffffffffffffffffffffffffffff03821115612b6757612b66612d67565b5b828201905092915050565b6000612b7d82612cb1565b9150612b8883612cb1565b925082612b9857612b97612d96565b5b828204905092915050565b6000612bae82612cb1565b9150612bb983612cb1565b9250817fffffffffffffffffffffffffffffffffffffffffffffffffffffffffffffffff0483118215151615612bf257612bf1612d67565b5b828202905092915050565b6000612c0882612cb1565b9150612c1383612cb1565b925082821015612c2657612c25612d67565b5b828203905092915050565b6000612c3c82612c91565b9050919050565b6000612c4e82612c91565b9050919050565b60008115159050919050565b6000819050919050565b6000819050612c798261300d565b919050565b6000819050612c8c82613021565b919050565b600073ffffffffffffffffffffffffffffffffffffffff82169050919050565b6000819050919050565b6000612cc682612d15565b9050919050565b6000612cd882612cdf565b9050919050565b6000612cea82612c91565b9050919050565b6000612cfc82612c6b565b9050919050565b6000612d0e82612c7e565b9050919050565b6000612d2082612d27565b9050919050565b6000612d3282612c91565b9050919050565b6000612d4482612d4b565b9050919050565b6000612d5682612df4565b9050919050565b6000819050919050565b7f4e487b7100000000000000000000000000000000000000000000000000000000600052601160045260246000fd5b7f4e487b7100000000000000000000000000000000000000000000000000000000600052601260045260246000fd5b7f4e487b7100000000000000000000000000000000000000000000000000000000600052602160045260246000fd5b60008160601b9050919050565b7f6e6674206e6f74206f70656e6564000000000000000000000000000000000000600082015250565b7f4f776e61626c653a206f6e6c79206f776e65722063616e2063616c6c2074686960008201527f732066756e6374696f6e00000000000000000000000000000000000000000000602082015250565b7f56616c7565206e6f74206d617463686564000000000000000000000000000000600082015250565b7f4f776e61626c653a206e6577206f776e657220697320746865207a65726f206160008201527f6464726573730000000000000000000000000000000000000000000000000000602082015250565b7f6f6e6c7920666f72206d61726b6574206f70657261746f720000000000000000600082015250565b7f4d61726b6574206f7264657220697320616c7265616479206f70656e65640000600082015250565b7f4d61726b6574206f72646572206973206e6f74206f70656e6564000000000000600082015250565b7f6e6674206973206e6f74206f70656e20666f722041756374696f6e0000000000600082015250565b7f50726963652053686f756c642062652067726561746572207468656e20300000600082015250565b7f656e642050726963652053686f756c642062652067726561746572207468656e60008201527f2070726963650000000000000000000000000000000000000000000000000000602082015250565b6004811061301e5761301d612dc5565b5b50565b6003811061303257613031612dc5565b5b50565b61303e81612c31565b811461304957600080fd5b50565b61305581612c43565b811461306057600080fd5b50565b61306c81612c55565b811461307757600080fd5b50565b61308381612c61565b811461308e57600080fd5b50565b61309a81612cb1565b81146130a557600080fd5b5056fea2646970667358221220984a4d482cd19aa8f5e8f249e1897c46fdae2444485993f6f81deff95221800964736f6c63430008040033",
					"opcodes": "PUSH1 0x80 PUSH1 0x40 MSTORE CALLVALUE DUP1 ISZERO PUSH3 0x11 JUMPI PUSH1 0x0 DUP1 REVERT JUMPDEST POP PUSH1 0x40 MLOAD PUSH3 0x33AD CODESIZE SUB DUP1 PUSH3 0x33AD DUP4 CODECOPY DUP2 DUP2 ADD PUSH1 0x40 MSTORE DUP2 ADD SWAP1 PUSH3 0x37 SWAP2 SWAP1 PUSH3 0x1C9 JUMP JUMPDEST CALLER PUSH1 0x0 DUP1 PUSH2 0x100 EXP DUP2 SLOAD DUP2 PUSH20 0xFFFFFFFFFFFFFFFFFFFFFFFFFFFFFFFFFFFFFFFF MUL NOT AND SWAP1 DUP4 PUSH20 0xFFFFFFFFFFFFFFFFFFFFFFFFFFFFFFFFFFFFFFFF AND MUL OR SWAP1 SSTORE POP PUSH1 0x0 DUP1 SLOAD SWAP1 PUSH2 0x100 EXP SWAP1 DIV PUSH20 0xFFFFFFFFFFFFFFFFFFFFFFFFFFFFFFFFFFFFFFFF AND PUSH20 0xFFFFFFFFFFFFFFFFFFFFFFFFFFFFFFFFFFFFFFFF AND PUSH1 0x0 PUSH20 0xFFFFFFFFFFFFFFFFFFFFFFFFFFFFFFFFFFFFFFFF AND PUSH32 0x8BE0079C531659141344CD1FD0A4F28419497F9722A3DAAFE3B4186F6B6457E0 PUSH1 0x40 MLOAD PUSH1 0x40 MLOAD DUP1 SWAP2 SUB SWAP1 LOG3 DUP2 PUSH1 0x2 DUP2 SWAP1 SSTORE POP DUP1 PUSH1 0x3 PUSH1 0x0 PUSH2 0x100 EXP DUP2 SLOAD DUP2 PUSH20 0xFFFFFFFFFFFFFFFFFFFFFFFFFFFFFFFFFFFFFFFF MUL NOT AND SWAP1 DUP4 PUSH20 0xFFFFFFFFFFFFFFFFFFFFFFFFFFFFFFFFFFFFFFFF AND MUL OR SWAP1 SSTORE POP DUP3 PUSH1 0x1 PUSH1 0x0 PUSH2 0x100 EXP DUP2 SLOAD DUP2 PUSH20 0xFFFFFFFFFFFFFFFFFFFFFFFFFFFFFFFFFFFFFFFF MUL NOT AND SWAP1 DUP4 PUSH20 0xFFFFFFFFFFFFFFFFFFFFFFFFFFFFFFFFFFFFFFFF AND MUL OR SWAP1 SSTORE POP POP POP POP PUSH3 0x2BF JUMP JUMPDEST PUSH1 0x0 DUP2 MLOAD SWAP1 POP PUSH3 0x195 DUP2 PUSH3 0x271 JUMP JUMPDEST SWAP3 SWAP2 POP POP JUMP JUMPDEST PUSH1 0x0 DUP2 MLOAD SWAP1 POP PUSH3 0x1AC DUP2 PUSH3 0x28B JUMP JUMPDEST SWAP3 SWAP2 POP POP JUMP JUMPDEST PUSH1 0x0 DUP2 MLOAD SWAP1 POP PUSH3 0x1C3 DUP2 PUSH3 0x2A5 JUMP JUMPDEST SWAP3 SWAP2 POP POP JUMP JUMPDEST PUSH1 0x0 DUP1 PUSH1 0x0 PUSH1 0x60 DUP5 DUP7 SUB SLT ISZERO PUSH3 0x1DF JUMPI PUSH1 0x0 DUP1 REVERT JUMPDEST PUSH1 0x0 PUSH3 0x1EF DUP7 DUP3 DUP8 ADD PUSH3 0x184 JUMP JUMPDEST SWAP4 POP POP PUSH1 0x20 PUSH3 0x202 DUP7 DUP3 DUP8 ADD PUSH3 0x1B2 JUMP JUMPDEST SWAP3 POP POP PUSH1 0x40 PUSH3 0x215 DUP7 DUP3 DUP8 ADD PUSH3 0x19B JUMP JUMPDEST SWAP2 POP POP SWAP3 POP SWAP3 POP SWAP3 JUMP JUMPDEST PUSH1 0x0 PUSH3 0x22C DUP3 PUSH3 0x247 JUMP JUMPDEST SWAP1 POP SWAP2 SWAP1 POP JUMP JUMPDEST PUSH1 0x0 PUSH3 0x240 DUP3 PUSH3 0x247 JUMP JUMPDEST SWAP1 POP SWAP2 SWAP1 POP JUMP JUMPDEST PUSH1 0x0 PUSH20 0xFFFFFFFFFFFFFFFFFFFFFFFFFFFFFFFFFFFFFFFF DUP3 AND SWAP1 POP SWAP2 SWAP1 POP JUMP JUMPDEST PUSH1 0x0 DUP2 SWAP1 POP SWAP2 SWAP1 POP JUMP JUMPDEST PUSH3 0x27C DUP2 PUSH3 0x21F JUMP JUMPDEST DUP2 EQ PUSH3 0x288 JUMPI PUSH1 0x0 DUP1 REVERT JUMPDEST POP JUMP JUMPDEST PUSH3 0x296 DUP2 PUSH3 0x233 JUMP JUMPDEST DUP2 EQ PUSH3 0x2A2 JUMPI PUSH1 0x0 DUP1 REVERT JUMPDEST POP JUMP JUMPDEST PUSH3 0x2B0 DUP2 PUSH3 0x267 JUMP JUMPDEST DUP2 EQ PUSH3 0x2BC JUMPI PUSH1 0x0 DUP1 REVERT JUMPDEST POP JUMP JUMPDEST PUSH2 0x30DE DUP1 PUSH3 0x2CF PUSH1 0x0 CODECOPY PUSH1 0x0 RETURN INVALID PUSH1 0x80 PUSH1 0x40 MSTORE PUSH1 0x4 CALLDATASIZE LT PUSH2 0xE8 JUMPI PUSH1 0x0 CALLDATALOAD PUSH1 0xE0 SHR DUP1 PUSH4 0x9677D02E GT PUSH2 0x8A JUMPI DUP1 PUSH4 0xEC102464 GT PUSH2 0x59 JUMPI DUP1 PUSH4 0xEC102464 EQ PUSH2 0x2D3 JUMPI DUP1 PUSH4 0xF2FDE38B EQ PUSH2 0x2FC JUMPI DUP1 PUSH4 0xF699343E EQ PUSH2 0x325 JUMPI DUP1 PUSH4 0xF896CAD6 EQ PUSH2 0x350 JUMPI PUSH2 0xE8 JUMP JUMPDEST DUP1 PUSH4 0x9677D02E EQ PUSH2 0x22D JUMPI DUP1 PUSH4 0x98590EF9 EQ PUSH2 0x256 JUMPI DUP1 PUSH4 0xAE06C1B7 EQ PUSH2 0x27F JUMPI DUP1 PUSH4 0xCB278AAD EQ PUSH2 0x2A8 JUMPI PUSH2 0xE8 JUMP JUMPDEST DUP1 PUSH4 0x6548D2C2 GT PUSH2 0xC6 JUMPI DUP1 PUSH4 0x6548D2C2 EQ PUSH2 0x16A JUMPI DUP1 PUSH4 0x715018A6 EQ PUSH2 0x1A7 JUMPI DUP1 PUSH4 0x7564912B EQ PUSH2 0x1BE JUMPI DUP1 PUSH4 0x8DA5CB5B EQ PUSH2 0x202 JUMPI PUSH2 0xE8 JUMP JUMPDEST DUP1 PUSH4 0x10AE7085 EQ PUSH2 0xED JUMPI DUP1 PUSH4 0x1F40FF84 EQ PUSH2 0x118 JUMPI DUP1 PUSH4 0x26F8A07A EQ PUSH2 0x141 JUMPI JUMPDEST PUSH1 0x0 DUP1 REVERT JUMPDEST CALLVALUE DUP1 ISZERO PUSH2 0xF9 JUMPI PUSH1 0x0 DUP1 REVERT JUMPDEST POP PUSH2 0x102 PUSH2 0x36C JUMP JUMPDEST PUSH1 0x40 MLOAD PUSH2 0x10F SWAP2 SWAP1 PUSH2 0x283B JUMP JUMPDEST PUSH1 0x40 MLOAD DUP1 SWAP2 SUB SWAP1 RETURN JUMPDEST CALLVALUE DUP1 ISZERO PUSH2 0x124 JUMPI PUSH1 0x0 DUP1 REVERT JUMPDEST POP PUSH2 0x13F PUSH1 0x4 DUP1 CALLDATASIZE SUB DUP2 ADD SWAP1 PUSH2 0x13A SWAP2 SWAP1 PUSH2 0x2395 JUMP JUMPDEST PUSH2 0x392 JUMP JUMPDEST STOP JUMPDEST CALLVALUE DUP1 ISZERO PUSH2 0x14D JUMPI PUSH1 0x0 DUP1 REVERT JUMPDEST POP PUSH2 0x168 PUSH1 0x4 DUP1 CALLDATASIZE SUB DUP2 ADD SWAP1 PUSH2 0x163 SWAP2 SWAP1 PUSH2 0x22E1 JUMP JUMPDEST PUSH2 0xB48 JUMP JUMPDEST STOP JUMPDEST CALLVALUE DUP1 ISZERO PUSH2 0x176 JUMPI PUSH1 0x0 DUP1 REVERT JUMPDEST POP PUSH2 0x191 PUSH1 0x4 DUP1 CALLDATASIZE SUB DUP2 ADD SWAP1 PUSH2 0x18C SWAP2 SWAP1 PUSH2 0x230A JUMP JUMPDEST PUSH2 0xC1A JUMP JUMPDEST PUSH1 0x40 MLOAD PUSH2 0x19E SWAP2 SWAP1 PUSH2 0x2AD4 JUMP JUMPDEST PUSH1 0x40 MLOAD DUP1 SWAP2 SUB SWAP1 RETURN JUMPDEST CALLVALUE DUP1 ISZERO PUSH2 0x1B3 JUMPI PUSH1 0x0 DUP1 REVERT JUMPDEST POP PUSH2 0x1BC PUSH2 0xE86 JUMP JUMPDEST STOP JUMPDEST CALLVALUE DUP1 ISZERO PUSH2 0x1CA JUMPI PUSH1 0x0 DUP1 REVERT JUMPDEST POP PUSH2 0x1E5 PUSH1 0x4 DUP1 CALLDATASIZE SUB DUP2 ADD SWAP1 PUSH2 0x1E0 SWAP2 SWAP1 PUSH2 0x2484 JUMP JUMPDEST PUSH2 0xFD2 JUMP JUMPDEST PUSH1 0x40 MLOAD PUSH2 0x1F9 SWAP9 SWAP8 SWAP7 SWAP6 SWAP5 SWAP4 SWAP3 SWAP2 SWAP1 PUSH2 0x28FB JUMP JUMPDEST PUSH1 0x40 MLOAD DUP1 SWAP2 SUB SWAP1 RETURN JUMPDEST CALLVALUE DUP1 ISZERO PUSH2 0x20E JUMPI PUSH1 0x0 DUP1 REVERT JUMPDEST POP PUSH2 0x217 PUSH2 0x1094 JUMP JUMPDEST PUSH1 0x40 MLOAD PUSH2 0x224 SWAP2 SWAP1 PUSH2 0x2820 JUMP JUMPDEST PUSH1 0x40 MLOAD DUP1 SWAP2 SUB SWAP1 RETURN JUMPDEST CALLVALUE DUP1 ISZERO PUSH2 0x239 JUMPI PUSH1 0x0 DUP1 REVERT JUMPDEST POP PUSH2 0x254 PUSH1 0x4 DUP1 CALLDATASIZE SUB DUP2 ADD SWAP1 PUSH2 0x24F SWAP2 SWAP1 PUSH2 0x23F8 JUMP JUMPDEST PUSH2 0x10BD JUMP JUMPDEST STOP JUMPDEST CALLVALUE DUP1 ISZERO PUSH2 0x262 JUMPI PUSH1 0x0 DUP1 REVERT JUMPDEST POP PUSH2 0x27D PUSH1 0x4 DUP1 CALLDATASIZE SUB DUP2 ADD SWAP1 PUSH2 0x278 SWAP2 SWAP1 PUSH2 0x230A JUMP JUMPDEST PUSH2 0x10D1 JUMP JUMPDEST STOP JUMPDEST CALLVALUE DUP1 ISZERO PUSH2 0x28B JUMPI PUSH1 0x0 DUP1 REVERT JUMPDEST POP PUSH2 0x2A6 PUSH1 0x4 DUP1 CALLDATASIZE SUB DUP2 ADD SWAP1 PUSH2 0x2A1 SWAP2 SWAP1 PUSH2 0x24AD JUMP JUMPDEST PUSH2 0x12C9 JUMP JUMPDEST STOP JUMPDEST CALLVALUE DUP1 ISZERO PUSH2 0x2B4 JUMPI PUSH1 0x0 DUP1 REVERT JUMPDEST POP PUSH2 0x2BD PUSH2 0x1361 JUMP JUMPDEST PUSH1 0x40 MLOAD PUSH2 0x2CA SWAP2 SWAP1 PUSH2 0x2979 JUMP JUMPDEST PUSH1 0x40 MLOAD DUP1 SWAP2 SUB SWAP1 RETURN JUMPDEST CALLVALUE DUP1 ISZERO PUSH2 0x2DF JUMPI PUSH1 0x0 DUP1 REVERT JUMPDEST POP PUSH2 0x2FA PUSH1 0x4 DUP1 CALLDATASIZE SUB DUP2 ADD SWAP1 PUSH2 0x2F5 SWAP2 SWAP1 PUSH2 0x2346 JUMP JUMPDEST PUSH2 0x1387 JUMP JUMPDEST STOP JUMPDEST CALLVALUE DUP1 ISZERO PUSH2 0x308 JUMPI PUSH1 0x0 DUP1 REVERT JUMPDEST POP PUSH2 0x323 PUSH1 0x4 DUP1 CALLDATASIZE SUB DUP2 ADD SWAP1 PUSH2 0x31E SWAP2 SWAP1 PUSH2 0x22B8 JUMP JUMPDEST PUSH2 0x139B JUMP JUMPDEST STOP JUMPDEST CALLVALUE DUP1 ISZERO PUSH2 0x331 JUMPI PUSH1 0x0 DUP1 REVERT JUMPDEST POP PUSH2 0x33A PUSH2 0x1435 JUMP JUMPDEST PUSH1 0x40 MLOAD PUSH2 0x347 SWAP2 SWAP1 PUSH2 0x2AF0 JUMP JUMPDEST PUSH1 0x40 MLOAD DUP1 SWAP2 SUB SWAP1 RETURN JUMPDEST PUSH2 0x36A PUSH1 0x4 DUP1 CALLDATASIZE SUB DUP2 ADD SWAP1 PUSH2 0x365 SWAP2 SWAP1 PUSH2 0x230A JUMP JUMPDEST PUSH2 0x143B JUMP JUMPDEST STOP JUMPDEST PUSH1 0x3 PUSH1 0x0 SWAP1 SLOAD SWAP1 PUSH2 0x100 EXP SWAP1 DIV PUSH20 0xFFFFFFFFFFFFFFFFFFFFFFFFFFFFFFFFFFFFFFFF AND DUP2 JUMP JUMPDEST PUSH1 0x0 PUSH2 0x39E DUP6 DUP6 PUSH2 0x1B94 JUMP JUMPDEST SWAP1 POP CALLER PUSH20 0xFFFFFFFFFFFFFFFFFFFFFFFFFFFFFFFFFFFFFFFF AND PUSH1 0x4 PUSH1 0x0 DUP4 DUP2 MSTORE PUSH1 0x20 ADD SWAP1 DUP2 MSTORE PUSH1 0x20 ADD PUSH1 0x0 KECCAK256 PUSH1 0x5 ADD PUSH1 0x0 SWAP1 SLOAD SWAP1 PUSH2 0x100 EXP SWAP1 DIV PUSH20 0xFFFFFFFFFFFFFFFFFFFFFFFFFFFFFFFFFFFFFFFF AND PUSH20 0xFFFFFFFFFFFFFFFFFFFFFFFFFFFFFFFFFFFFFFFF AND EQ PUSH2 0x444 JUMPI PUSH1 0x40 MLOAD PUSH32 0x8C379A000000000000000000000000000000000000000000000000000000000 DUP2 MSTORE PUSH1 0x4 ADD PUSH2 0x43B SWAP1 PUSH2 0x2A14 JUMP JUMPDEST PUSH1 0x40 MLOAD DUP1 SWAP2 SUB SWAP1 REVERT JUMPDEST PUSH1 0x1 PUSH1 0x3 DUP2 GT ISZERO PUSH2 0x47E JUMPI PUSH32 0x4E487B7100000000000000000000000000000000000000000000000000000000 PUSH1 0x0 MSTORE PUSH1 0x21 PUSH1 0x4 MSTORE PUSH1 0x24 PUSH1 0x0 REVERT JUMPDEST PUSH1 0x4 PUSH1 0x0 DUP4 DUP2 MSTORE PUSH1 0x20 ADD SWAP1 DUP2 MSTORE PUSH1 0x20 ADD PUSH1 0x0 KECCAK256 PUSH1 0x2 ADD PUSH1 0x1 SWAP1 SLOAD SWAP1 PUSH2 0x100 EXP SWAP1 DIV PUSH1 0xFF AND PUSH1 0x3 DUP2 GT ISZERO PUSH2 0x4DA JUMPI PUSH32 0x4E487B7100000000000000000000000000000000000000000000000000000000 PUSH1 0x0 MSTORE PUSH1 0x21 PUSH1 0x4 MSTORE PUSH1 0x24 PUSH1 0x0 REVERT JUMPDEST EQ ISZERO PUSH2 0xB06 JUMPI PUSH1 0x2 DUP1 DUP2 GT ISZERO PUSH2 0x519 JUMPI PUSH32 0x4E487B7100000000000000000000000000000000000000000000000000000000 PUSH1 0x0 MSTORE PUSH1 0x21 PUSH1 0x4 MSTORE PUSH1 0x24 PUSH1 0x0 REVERT JUMPDEST PUSH1 0x4 PUSH1 0x0 DUP4 DUP2 MSTORE PUSH1 0x20 ADD SWAP1 DUP2 MSTORE PUSH1 0x20 ADD PUSH1 0x0 KECCAK256 PUSH1 0x2 ADD PUSH1 0x0 SWAP1 SLOAD SWAP1 PUSH2 0x100 EXP SWAP1 DIV PUSH1 0xFF AND PUSH1 0x2 DUP2 GT ISZERO PUSH2 0x575 JUMPI PUSH32 0x4E487B7100000000000000000000000000000000000000000000000000000000 PUSH1 0x0 MSTORE PUSH1 0x21 PUSH1 0x4 MSTORE PUSH1 0x24 PUSH1 0x0 REVERT JUMPDEST EQ PUSH2 0x5B5 JUMPI PUSH1 0x40 MLOAD PUSH32 0x8C379A000000000000000000000000000000000000000000000000000000000 DUP2 MSTORE PUSH1 0x4 ADD PUSH2 0x5AC SWAP1 PUSH2 0x2A74 JUMP JUMPDEST PUSH1 0x40 MLOAD DUP1 SWAP2 SUB SWAP1 REVERT JUMPDEST DUP3 PUSH1 0x4 PUSH1 0x0 DUP4 DUP2 MSTORE PUSH1 0x20 ADD SWAP1 DUP2 MSTORE PUSH1 0x20 ADD PUSH1 0x0 KECCAK256 PUSH1 0x3 ADD SLOAD LT ISZERO PUSH2 0xAC6 JUMPI PUSH1 0x0 PUSH1 0x4 PUSH1 0x0 DUP4 DUP2 MSTORE PUSH1 0x20 ADD SWAP1 DUP2 MSTORE PUSH1 0x20 ADD PUSH1 0x0 KECCAK256 PUSH1 0x0 ADD PUSH1 0x0 SWAP1 SLOAD SWAP1 PUSH2 0x100 EXP SWAP1 DIV PUSH20 0xFFFFFFFFFFFFFFFFFFFFFFFFFFFFFFFFFFFFFFFF AND SWAP1 POP PUSH1 0x0 PUSH2 0x61C DUP6 PUSH1 0x2 SLOAD PUSH2 0x1BC7 JUMP JUMPDEST SWAP1 POP PUSH1 0x0 DUP2 GT ISZERO PUSH2 0x6FC JUMPI PUSH1 0x1 PUSH1 0x0 SWAP1 SLOAD SWAP1 PUSH2 0x100 EXP SWAP1 DIV PUSH20 0xFFFFFFFFFFFFFFFFFFFFFFFFFFFFFFFFFFFFFFFF AND PUSH20 0xFFFFFFFFFFFFFFFFFFFFFFFFFFFFFFFFFFFFFFFF AND PUSH4 0x23B872DD DUP6 PUSH1 0x3 PUSH1 0x0 SWAP1 SLOAD SWAP1 PUSH2 0x100 EXP SWAP1 DIV PUSH20 0xFFFFFFFFFFFFFFFFFFFFFFFFFFFFFFFFFFFFFFFF AND DUP5 PUSH1 0x40 MLOAD DUP5 PUSH4 0xFFFFFFFF AND PUSH1 0xE0 SHL DUP2 MSTORE PUSH1 0x4 ADD PUSH2 0x6A8 SWAP4 SWAP3 SWAP2 SWAP1 PUSH2 0x288D JUMP JUMPDEST PUSH1 0x20 PUSH1 0x40 MLOAD DUP1 DUP4 SUB DUP2 PUSH1 0x0 DUP8 DUP1 EXTCODESIZE ISZERO DUP1 ISZERO PUSH2 0x6C2 JUMPI PUSH1 0x0 DUP1 REVERT JUMPDEST POP GAS CALL ISZERO DUP1 ISZERO PUSH2 0x6D6 JUMPI RETURNDATASIZE PUSH1 0x0 DUP1 RETURNDATACOPY RETURNDATASIZE PUSH1 0x0 REVERT JUMPDEST POP POP POP POP PUSH1 0x40 MLOAD RETURNDATASIZE PUSH1 0x1F NOT PUSH1 0x1F DUP3 ADD AND DUP3 ADD DUP1 PUSH1 0x40 MSTORE POP DUP2 ADD SWAP1 PUSH2 0x6FA SWAP2 SWAP1 PUSH2 0x245B JUMP JUMPDEST POP JUMPDEST PUSH1 0x0 DUP1 DUP4 PUSH20 0xFFFFFFFFFFFFFFFFFFFFFFFFFFFFFFFFFFFFFFFF AND PUSH4 0x179EFA20 DUP10 PUSH1 0x40 MLOAD DUP3 PUSH4 0xFFFFFFFF AND PUSH1 0xE0 SHL DUP2 MSTORE PUSH1 0x4 ADD PUSH2 0x738 SWAP2 SWAP1 PUSH2 0x2AF0 JUMP JUMPDEST PUSH1 0x40 DUP1 MLOAD DUP1 DUP4 SUB DUP2 DUP7 DUP1 EXTCODESIZE ISZERO DUP1 ISZERO PUSH2 0x74F JUMPI PUSH1 0x0 DUP1 REVERT JUMPDEST POP GAS STATICCALL ISZERO DUP1 ISZERO PUSH2 0x763 JUMPI RETURNDATASIZE PUSH1 0x0 DUP1 RETURNDATACOPY RETURNDATASIZE PUSH1 0x0 REVERT JUMPDEST POP POP POP POP PUSH1 0x40 MLOAD RETURNDATASIZE PUSH1 0x1F NOT PUSH1 0x1F DUP3 ADD AND DUP3 ADD DUP1 PUSH1 0x40 MSTORE POP DUP2 ADD SWAP1 PUSH2 0x787 SWAP2 SWAP1 PUSH2 0x24D6 JUMP JUMPDEST SWAP2 POP SWAP2 POP PUSH1 0x0 PUSH2 0x797 DUP9 DUP5 PUSH2 0x1BC7 JUMP JUMPDEST SWAP1 POP PUSH1 0x1 PUSH1 0x0 SWAP1 SLOAD SWAP1 PUSH2 0x100 EXP SWAP1 DIV PUSH20 0xFFFFFFFFFFFFFFFFFFFFFFFFFFFFFFFFFFFFFFFF AND PUSH20 0xFFFFFFFFFFFFFFFFFFFFFFFFFFFFFFFFFFFFFFFF AND PUSH4 0x23B872DD DUP9 DUP5 DUP5 PUSH1 0x40 MLOAD DUP5 PUSH4 0xFFFFFFFF AND PUSH1 0xE0 SHL DUP2 MSTORE PUSH1 0x4 ADD PUSH2 0x7F8 SWAP4 SWAP3 SWAP2 SWAP1 PUSH2 0x28C4 JUMP JUMPDEST PUSH1 0x20 PUSH1 0x40 MLOAD DUP1 DUP4 SUB DUP2 PUSH1 0x0 DUP8 DUP1 EXTCODESIZE ISZERO DUP1 ISZERO PUSH2 0x812 JUMPI PUSH1 0x0 DUP1 REVERT JUMPDEST POP GAS CALL ISZERO DUP1 ISZERO PUSH2 0x826 JUMPI RETURNDATASIZE PUSH1 0x0 DUP1 RETURNDATACOPY RETURNDATASIZE PUSH1 0x0 REVERT JUMPDEST POP POP POP POP PUSH1 0x40 MLOAD RETURNDATASIZE PUSH1 0x1F NOT PUSH1 0x1F DUP3 ADD AND DUP3 ADD DUP1 PUSH1 0x40 MSTORE POP DUP2 ADD SWAP1 PUSH2 0x84A SWAP2 SWAP1 PUSH2 0x245B JUMP JUMPDEST POP PUSH1 0x0 PUSH2 0x872 PUSH2 0x863 DUP4 DUP8 PUSH2 0x1BF7 SWAP1 SWAP2 SWAP1 PUSH4 0xFFFFFFFF AND JUMP JUMPDEST DUP11 PUSH2 0x1C0D SWAP1 SWAP2 SWAP1 PUSH4 0xFFFFFFFF AND JUMP JUMPDEST SWAP1 POP PUSH1 0x1 PUSH1 0x0 SWAP1 SLOAD SWAP1 PUSH2 0x100 EXP SWAP1 DIV PUSH20 0xFFFFFFFFFFFFFFFFFFFFFFFFFFFFFFFFFFFFFFFF AND PUSH20 0xFFFFFFFFFFFFFFFFFFFFFFFFFFFFFFFFFFFFFFFF AND PUSH4 0x23B872DD DUP10 PUSH1 0x4 PUSH1 0x0 DUP12 DUP2 MSTORE PUSH1 0x20 ADD SWAP1 DUP2 MSTORE PUSH1 0x20 ADD PUSH1 0x0 KECCAK256 PUSH1 0x5 ADD PUSH1 0x0 SWAP1 SLOAD SWAP1 PUSH2 0x100 EXP SWAP1 DIV PUSH20 0xFFFFFFFFFFFFFFFFFFFFFFFFFFFFFFFFFFFFFFFF AND DUP5 PUSH1 0x40 MLOAD DUP5 PUSH4 0xFFFFFFFF AND PUSH1 0xE0 SHL DUP2 MSTORE PUSH1 0x4 ADD PUSH2 0x909 SWAP4 SWAP3 SWAP2 SWAP1 PUSH2 0x288D JUMP JUMPDEST PUSH1 0x20 PUSH1 0x40 MLOAD DUP1 DUP4 SUB DUP2 PUSH1 0x0 DUP8 DUP1 EXTCODESIZE ISZERO DUP1 ISZERO PUSH2 0x923 JUMPI PUSH1 0x0 DUP1 REVERT JUMPDEST POP GAS CALL ISZERO DUP1 ISZERO PUSH2 0x937 JUMPI RETURNDATASIZE PUSH1 0x0 DUP1 RETURNDATACOPY RETURNDATASIZE PUSH1 0x0 REVERT JUMPDEST POP POP POP POP PUSH1 0x40 MLOAD RETURNDATASIZE PUSH1 0x1F NOT PUSH1 0x1F DUP3 ADD AND DUP3 ADD DUP1 PUSH1 0x40 MSTORE POP DUP2 ADD SWAP1 PUSH2 0x95B SWAP2 SWAP1 PUSH2 0x245B JUMP JUMPDEST POP DUP6 PUSH20 0xFFFFFFFFFFFFFFFFFFFFFFFFFFFFFFFFFFFFFFFF AND PUSH4 0x42842E0E PUSH1 0x4 PUSH1 0x0 DUP11 DUP2 MSTORE PUSH1 0x20 ADD SWAP1 DUP2 MSTORE PUSH1 0x20 ADD PUSH1 0x0 KECCAK256 PUSH1 0x5 ADD PUSH1 0x0 SWAP1 SLOAD SWAP1 PUSH2 0x100 EXP SWAP1 DIV PUSH20 0xFFFFFFFFFFFFFFFFFFFFFFFFFFFFFFFFFFFFFFFF AND DUP11 DUP14 PUSH1 0x40 MLOAD DUP5 PUSH4 0xFFFFFFFF AND PUSH1 0xE0 SHL DUP2 MSTORE PUSH1 0x4 ADD PUSH2 0x9CF SWAP4 SWAP3 SWAP2 SWAP1 PUSH2 0x2856 JUMP JUMPDEST PUSH1 0x0 PUSH1 0x40 MLOAD DUP1 DUP4 SUB DUP2 PUSH1 0x0 DUP8 DUP1 EXTCODESIZE ISZERO DUP1 ISZERO PUSH2 0x9E9 JUMPI PUSH1 0x0 DUP1 REVERT JUMPDEST POP GAS CALL ISZERO DUP1 ISZERO PUSH2 0x9FD JUMPI RETURNDATASIZE PUSH1 0x0 DUP1 RETURNDATACOPY RETURNDATASIZE PUSH1 0x0 REVERT JUMPDEST POP POP POP POP PUSH1 0x3 PUSH1 0x4 PUSH1 0x0 DUP10 DUP2 MSTORE PUSH1 0x20 ADD SWAP1 DUP2 MSTORE PUSH1 0x20 ADD PUSH1 0x0 KECCAK256 PUSH1 0x2 ADD PUSH1 0x1 PUSH2 0x100 EXP DUP2 SLOAD DUP2 PUSH1 0xFF MUL NOT AND SWAP1 DUP4 PUSH1 0x3 DUP2 GT ISZERO PUSH2 0xA61 JUMPI PUSH32 0x4E487B7100000000000000000000000000000000000000000000000000000000 PUSH1 0x0 MSTORE PUSH1 0x21 PUSH1 0x4 MSTORE PUSH1 0x24 PUSH1 0x0 REVERT JUMPDEST MUL OR SWAP1 SSTORE POP DUP8 PUSH1 0x4 PUSH1 0x0 DUP10 DUP2 MSTORE PUSH1 0x20 ADD SWAP1 DUP2 MSTORE PUSH1 0x20 ADD PUSH1 0x0 KECCAK256 PUSH1 0x6 ADD PUSH1 0x0 PUSH2 0x100 EXP DUP2 SLOAD DUP2 PUSH20 0xFFFFFFFFFFFFFFFFFFFFFFFFFFFFFFFFFFFFFFFF MUL NOT AND SWAP1 DUP4 PUSH20 0xFFFFFFFFFFFFFFFFFFFFFFFFFFFFFFFFFFFFFFFF AND MUL OR SWAP1 SSTORE POP POP POP POP POP POP POP PUSH2 0xB01 JUMP JUMPDEST PUSH1 0x40 MLOAD PUSH32 0x8C379A000000000000000000000000000000000000000000000000000000000 DUP2 MSTORE PUSH1 0x4 ADD PUSH2 0xAF8 SWAP1 PUSH2 0x29D4 JUMP JUMPDEST PUSH1 0x40 MLOAD DUP1 SWAP2 SUB SWAP1 REVERT JUMPDEST PUSH2 0xB41 JUMP JUMPDEST PUSH1 0x40 MLOAD PUSH32 0x8C379A000000000000000000000000000000000000000000000000000000000 DUP2 MSTORE PUSH1 0x4 ADD PUSH2 0xB38 SWAP1 PUSH2 0x2A54 JUMP JUMPDEST PUSH1 0x40 MLOAD DUP1 SWAP2 SUB SWAP1 REVERT JUMPDEST POP POP POP POP POP JUMP JUMPDEST CALLER PUSH20 0xFFFFFFFFFFFFFFFFFFFFFFFFFFFFFFFFFFFFFFFF AND PUSH1 0x0 DUP1 SLOAD SWAP1 PUSH2 0x100 EXP SWAP1 DIV PUSH20 0xFFFFFFFFFFFFFFFFFFFFFFFFFFFFFFFFFFFFFFFF AND PUSH20 0xFFFFFFFFFFFFFFFFFFFFFFFFFFFFFFFFFFFFFFFF AND EQ PUSH2 0xBD6 JUMPI PUSH1 0x40 MLOAD PUSH32 0x8C379A000000000000000000000000000000000000000000000000000000000 DUP2 MSTORE PUSH1 0x4 ADD PUSH2 0xBCD SWAP1 PUSH2 0x29B4 JUMP JUMPDEST PUSH1 0x40 MLOAD DUP1 SWAP2 SUB SWAP1 REVERT JUMPDEST DUP1 PUSH1 0x3 PUSH1 0x0 PUSH2 0x100 EXP DUP2 SLOAD DUP2 PUSH20 0xFFFFFFFFFFFFFFFFFFFFFFFFFFFFFFFFFFFFFFFF MUL NOT AND SWAP1 DUP4 PUSH20 0xFFFFFFFFFFFFFFFFFFFFFFFFFFFFFFFFFFFFFFFF AND MUL OR SWAP1 SSTORE POP POP JUMP JUMPDEST PUSH2 0xC22 PUSH2 0x212E JUMP JUMPDEST PUSH1 0x0 PUSH2 0xC2E DUP5 DUP5 PUSH2 0x1B94 JUMP JUMPDEST SWAP1 POP PUSH1 0x4 PUSH1 0x0 DUP3 DUP2 MSTORE PUSH1 0x20 ADD SWAP1 DUP2 MSTORE PUSH1 0x20 ADD PUSH1 0x0 KECCAK256 PUSH1 0x40 MLOAD DUP1 PUSH2 0x100 ADD PUSH1 0x40 MSTORE SWAP1 DUP2 PUSH1 0x0 DUP3 ADD PUSH1 0x0 SWAP1 SLOAD SWAP1 PUSH2 0x100 EXP SWAP1 DIV PUSH20 0xFFFFFFFFFFFFFFFFFFFFFFFFFFFFFFFFFFFFFFFF AND PUSH20 0xFFFFFFFFFFFFFFFFFFFFFFFFFFFFFFFFFFFFFFFF AND PUSH20 0xFFFFFFFFFFFFFFFFFFFFFFFFFFFFFFFFFFFFFFFF AND DUP2 MSTORE PUSH1 0x20 ADD PUSH1 0x1 DUP3 ADD SLOAD DUP2 MSTORE PUSH1 0x20 ADD PUSH1 0x2 DUP3 ADD PUSH1 0x0 SWAP1 SLOAD SWAP1 PUSH2 0x100 EXP SWAP1 DIV PUSH1 0xFF AND PUSH1 0x2 DUP2 GT ISZERO PUSH2 0xCFA JUMPI PUSH32 0x4E487B7100000000000000000000000000000000000000000000000000000000 PUSH1 0x0 MSTORE PUSH1 0x21 PUSH1 0x4 MSTORE PUSH1 0x24 PUSH1 0x0 REVERT JUMPDEST PUSH1 0x2 DUP2 GT ISZERO PUSH2 0xD32 JUMPI PUSH32 0x4E487B7100000000000000000000000000000000000000000000000000000000 PUSH1 0x0 MSTORE PUSH1 0x21 PUSH1 0x4 MSTORE PUSH1 0x24 PUSH1 0x0 REVERT JUMPDEST DUP2 MSTORE PUSH1 0x20 ADD PUSH1 0x2 DUP3 ADD PUSH1 0x1 SWAP1 SLOAD SWAP1 PUSH2 0x100 EXP SWAP1 DIV PUSH1 0xFF AND PUSH1 0x3 DUP2 GT ISZERO PUSH2 0xD81 JUMPI PUSH32 0x4E487B7100000000000000000000000000000000000000000000000000000000 PUSH1 0x0 MSTORE PUSH1 0x21 PUSH1 0x4 MSTORE PUSH1 0x24 PUSH1 0x0 REVERT JUMPDEST PUSH1 0x3 DUP2 GT ISZERO PUSH2 0xDB9 JUMPI PUSH32 0x4E487B7100000000000000000000000000000000000000000000000000000000 PUSH1 0x0 MSTORE PUSH1 0x21 PUSH1 0x4 MSTORE PUSH1 0x24 PUSH1 0x0 REVERT JUMPDEST DUP2 MSTORE PUSH1 0x20 ADD PUSH1 0x3 DUP3 ADD SLOAD DUP2 MSTORE PUSH1 0x20 ADD PUSH1 0x4 DUP3 ADD SLOAD DUP2 MSTORE PUSH1 0x20 ADD PUSH1 0x5 DUP3 ADD PUSH1 0x0 SWAP1 SLOAD SWAP1 PUSH2 0x100 EXP SWAP1 DIV PUSH20 0xFFFFFFFFFFFFFFFFFFFFFFFFFFFFFFFFFFFFFFFF AND PUSH20 0xFFFFFFFFFFFFFFFFFFFFFFFFFFFFFFFFFFFFFFFF AND PUSH20 0xFFFFFFFFFFFFFFFFFFFFFFFFFFFFFFFFFFFFFFFF AND DUP2 MSTORE PUSH1 0x20 ADD PUSH1 0x6 DUP3 ADD PUSH1 0x0 SWAP1 SLOAD SWAP1 PUSH2 0x100 EXP SWAP1 DIV PUSH20 0xFFFFFFFFFFFFFFFFFFFFFFFFFFFFFFFFFFFFFFFF AND PUSH20 0xFFFFFFFFFFFFFFFFFFFFFFFFFFFFFFFFFFFFFFFF AND PUSH20 0xFFFFFFFFFFFFFFFFFFFFFFFFFFFFFFFFFFFFFFFF AND DUP2 MSTORE POP POP SWAP2 POP POP SWAP3 SWAP2 POP POP JUMP JUMPDEST CALLER PUSH20 0xFFFFFFFFFFFFFFFFFFFFFFFFFFFFFFFFFFFFFFFF AND PUSH1 0x0 DUP1 SLOAD SWAP1 PUSH2 0x100 EXP SWAP1 DIV PUSH20 0xFFFFFFFFFFFFFFFFFFFFFFFFFFFFFFFFFFFFFFFF AND PUSH20 0xFFFFFFFFFFFFFFFFFFFFFFFFFFFFFFFFFFFFFFFF AND EQ PUSH2 0xF14 JUMPI PUSH1 0x40 MLOAD PUSH32 0x8C379A000000000000000000000000000000000000000000000000000000000 DUP2 MSTORE PUSH1 0x4 ADD PUSH2 0xF0B SWAP1 PUSH2 0x29B4 JUMP JUMPDEST PUSH1 0x40 MLOAD DUP1 SWAP2 SUB SWAP1 REVERT JUMPDEST PUSH1 0x0 PUSH20 0xFFFFFFFFFFFFFFFFFFFFFFFFFFFFFFFFFFFFFFFF AND PUSH1 0x0 DUP1 SLOAD SWAP1 PUSH2 0x100 EXP SWAP1 DIV PUSH20 0xFFFFFFFFFFFFFFFFFFFFFFFFFFFFFFFFFFFFFFFF AND PUSH20 0xFFFFFFFFFFFFFFFFFFFFFFFFFFFFFFFFFFFFFFFF AND PUSH32 0x8BE0079C531659141344CD1FD0A4F28419497F9722A3DAAFE3B4186F6B6457E0 PUSH1 0x40 MLOAD PUSH1 0x40 MLOAD DUP1 SWAP2 SUB SWAP1 LOG3 PUSH1 0x0 DUP1 PUSH1 0x0 PUSH2 0x100 EXP DUP2 SLOAD DUP2 PUSH20 0xFFFFFFFFFFFFFFFFFFFFFFFFFFFFFFFFFFFFFFFF MUL NOT AND SWAP1 DUP4 PUSH20 0xFFFFFFFFFFFFFFFFFFFFFFFFFFFFFFFFFFFFFFFF AND MUL OR SWAP1 SSTORE POP JUMP JUMPDEST PUSH1 0x4 PUSH1 0x20 MSTORE DUP1 PUSH1 0x0 MSTORE PUSH1 0x40 PUSH1 0x0 KECCAK256 PUSH1 0x0 SWAP2 POP SWAP1 POP DUP1 PUSH1 0x0 ADD PUSH1 0x0 SWAP1 SLOAD SWAP1 PUSH2 0x100 EXP SWAP1 DIV PUSH20 0xFFFFFFFFFFFFFFFFFFFFFFFFFFFFFFFFFFFFFFFF AND SWAP1 DUP1 PUSH1 0x1 ADD SLOAD SWAP1 DUP1 PUSH1 0x2 ADD PUSH1 0x0 SWAP1 SLOAD SWAP1 PUSH2 0x100 EXP SWAP1 DIV PUSH1 0xFF AND SWAP1 DUP1 PUSH1 0x2 ADD PUSH1 0x1 SWAP1 SLOAD SWAP1 PUSH2 0x100 EXP SWAP1 DIV PUSH1 0xFF AND SWAP1 DUP1 PUSH1 0x3 ADD SLOAD SWAP1 DUP1 PUSH1 0x4 ADD SLOAD SWAP1 DUP1 PUSH1 0x5 ADD PUSH1 0x0 SWAP1 SLOAD SWAP1 PUSH2 0x100 EXP SWAP1 DIV PUSH20 0xFFFFFFFFFFFFFFFFFFFFFFFFFFFFFFFFFFFFFFFF AND SWAP1 DUP1 PUSH1 0x6 ADD PUSH1 0x0 SWAP1 SLOAD SWAP1 PUSH2 0x100 EXP SWAP1 DIV PUSH20 0xFFFFFFFFFFFFFFFFFFFFFFFFFFFFFFFFFFFFFFFF AND SWAP1 POP DUP9 JUMP JUMPDEST PUSH1 0x0 DUP1 PUSH1 0x0 SWAP1 SLOAD SWAP1 PUSH2 0x100 EXP SWAP1 DIV PUSH20 0xFFFFFFFFFFFFFFFFFFFFFFFFFFFFFFFFFFFFFFFF AND SWAP1 POP SWAP1 JUMP JUMPDEST PUSH2 0x10CB DUP5 DUP5 DUP5 PUSH1 0x2 DUP6 PUSH2 0x1C23 JUMP JUMPDEST POP POP POP POP JUMP JUMPDEST PUSH1 0x0 PUSH2 0x10DD DUP4 DUP4 PUSH2 0x1B94 JUMP JUMPDEST SWAP1 POP CALLER PUSH20 0xFFFFFFFFFFFFFFFFFFFFFFFFFFFFFFFFFFFFFFFF AND PUSH1 0x4 PUSH1 0x0 DUP4 DUP2 MSTORE PUSH1 0x20 ADD SWAP1 DUP2 MSTORE PUSH1 0x20 ADD PUSH1 0x0 KECCAK256 PUSH1 0x5 ADD PUSH1 0x0 SWAP1 SLOAD SWAP1 PUSH2 0x100 EXP SWAP1 DIV PUSH20 0xFFFFFFFFFFFFFFFFFFFFFFFFFFFFFFFFFFFFFFFF AND PUSH20 0xFFFFFFFFFFFFFFFFFFFFFFFFFFFFFFFFFFFFFFFF AND EQ PUSH2 0x1183 JUMPI PUSH1 0x40 MLOAD PUSH32 0x8C379A000000000000000000000000000000000000000000000000000000000 DUP2 MSTORE PUSH1 0x4 ADD PUSH2 0x117A SWAP1 PUSH2 0x2A14 JUMP JUMPDEST PUSH1 0x40 MLOAD DUP1 SWAP2 SUB SWAP1 REVERT JUMPDEST PUSH1 0x1 PUSH1 0x3 DUP2 GT ISZERO PUSH2 0x11BD JUMPI PUSH32 0x4E487B7100000000000000000000000000000000000000000000000000000000 PUSH1 0x0 MSTORE PUSH1 0x21 PUSH1 0x4 MSTORE PUSH1 0x24 PUSH1 0x0 REVERT JUMPDEST PUSH1 0x4 PUSH1 0x0 DUP4 DUP2 MSTORE PUSH1 0x20 ADD SWAP1 DUP2 MSTORE PUSH1 0x20 ADD PUSH1 0x0 KECCAK256 PUSH1 0x2 ADD PUSH1 0x1 SWAP1 SLOAD SWAP1 PUSH2 0x100 EXP SWAP1 DIV PUSH1 0xFF AND PUSH1 0x3 DUP2 GT ISZERO PUSH2 0x1219 JUMPI PUSH32 0x4E487B7100000000000000000000000000000000000000000000000000000000 PUSH1 0x0 MSTORE PUSH1 0x21 PUSH1 0x4 MSTORE PUSH1 0x24 PUSH1 0x0 REVERT JUMPDEST EQ ISZERO PUSH2 0x1289 JUMPI PUSH1 0x2 PUSH1 0x4 PUSH1 0x0 DUP4 DUP2 MSTORE PUSH1 0x20 ADD SWAP1 DUP2 MSTORE PUSH1 0x20 ADD PUSH1 0x0 KECCAK256 PUSH1 0x2 ADD PUSH1 0x1 PUSH2 0x100 EXP DUP2 SLOAD DUP2 PUSH1 0xFF MUL NOT AND SWAP1 DUP4 PUSH1 0x3 DUP2 GT ISZERO PUSH2 0x127F JUMPI PUSH32 0x4E487B7100000000000000000000000000000000000000000000000000000000 PUSH1 0x0 MSTORE PUSH1 0x21 PUSH1 0x4 MSTORE PUSH1 0x24 PUSH1 0x0 REVERT JUMPDEST MUL OR SWAP1 SSTORE POP PUSH2 0x12C4 JUMP JUMPDEST PUSH1 0x40 MLOAD PUSH32 0x8C379A000000000000000000000000000000000000000000000000000000000 DUP2 MSTORE PUSH1 0x4 ADD PUSH2 0x12BB SWAP1 PUSH2 0x2A54 JUMP JUMPDEST PUSH1 0x40 MLOAD DUP1 SWAP2 SUB SWAP1 REVERT JUMPDEST POP POP POP JUMP JUMPDEST CALLER PUSH20 0xFFFFFFFFFFFFFFFFFFFFFFFFFFFFFFFFFFFFFFFF AND PUSH1 0x0 DUP1 SLOAD SWAP1 PUSH2 0x100 EXP SWAP1 DIV PUSH20 0xFFFFFFFFFFFFFFFFFFFFFFFFFFFFFFFFFFFFFFFF AND PUSH20 0xFFFFFFFFFFFFFFFFFFFFFFFFFFFFFFFFFFFFFFFF AND EQ PUSH2 0x1357 JUMPI PUSH1 0x40 MLOAD PUSH32 0x8C379A000000000000000000000000000000000000000000000000000000000 DUP2 MSTORE PUSH1 0x4 ADD PUSH2 0x134E SWAP1 PUSH2 0x29B4 JUMP JUMPDEST PUSH1 0x40 MLOAD DUP1 SWAP2 SUB SWAP1 REVERT JUMPDEST DUP1 PUSH1 0x2 DUP2 SWAP1 SSTORE POP POP JUMP JUMPDEST PUSH1 0x1 PUSH1 0x0 SWAP1 SLOAD SWAP1 PUSH2 0x100 EXP SWAP1 DIV PUSH20 0xFFFFFFFFFFFFFFFFFFFFFFFFFFFFFFFFFFFFFFFF AND DUP2 JUMP JUMPDEST PUSH2 0x1396 DUP4 DUP4 DUP4 PUSH1 0x1 PUSH1 0x0 PUSH2 0x1C23 JUMP JUMPDEST POP POP POP JUMP JUMPDEST CALLER PUSH20 0xFFFFFFFFFFFFFFFFFFFFFFFFFFFFFFFFFFFFFFFF AND PUSH1 0x0 DUP1 SLOAD SWAP1 PUSH2 0x100 EXP SWAP1 DIV PUSH20 0xFFFFFFFFFFFFFFFFFFFFFFFFFFFFFFFFFFFFFFFF AND PUSH20 0xFFFFFFFFFFFFFFFFFFFFFFFFFFFFFFFFFFFFFFFF AND EQ PUSH2 0x1429 JUMPI PUSH1 0x40 MLOAD PUSH32 0x8C379A000000000000000000000000000000000000000000000000000000000 DUP2 MSTORE PUSH1 0x4 ADD PUSH2 0x1420 SWAP1 PUSH2 0x29B4 JUMP JUMPDEST PUSH1 0x40 MLOAD DUP1 SWAP2 SUB SWAP1 REVERT JUMPDEST PUSH2 0x1432 DUP2 PUSH2 0x1FD5 JUMP JUMPDEST POP JUMP JUMPDEST PUSH1 0x2 SLOAD DUP2 JUMP JUMPDEST PUSH1 0x0 PUSH2 0x1447 DUP4 DUP4 PUSH2 0x1B94 JUMP JUMPDEST SWAP1 POP PUSH1 0x1 PUSH1 0x3 DUP2 GT ISZERO PUSH2 0x1483 JUMPI PUSH32 0x4E487B7100000000000000000000000000000000000000000000000000000000 PUSH1 0x0 MSTORE PUSH1 0x21 PUSH1 0x4 MSTORE PUSH1 0x24 PUSH1 0x0 REVERT JUMPDEST PUSH1 0x4 PUSH1 0x0 DUP4 DUP2 MSTORE PUSH1 0x20 ADD SWAP1 DUP2 MSTORE PUSH1 0x20 ADD PUSH1 0x0 KECCAK256 PUSH1 0x2 ADD PUSH1 0x1 SWAP1 SLOAD SWAP1 PUSH2 0x100 EXP SWAP1 DIV PUSH1 0xFF AND PUSH1 0x3 DUP2 GT ISZERO PUSH2 0x14DF JUMPI PUSH32 0x4E487B7100000000000000000000000000000000000000000000000000000000 PUSH1 0x0 MSTORE PUSH1 0x21 PUSH1 0x4 MSTORE PUSH1 0x24 PUSH1 0x0 REVERT JUMPDEST EQ ISZERO PUSH2 0x1B54 JUMPI PUSH1 0x0 PUSH1 0x2 DUP2 GT ISZERO PUSH2 0x151F JUMPI PUSH32 0x4E487B7100000000000000000000000000000000000000000000000000000000 PUSH1 0x0 MSTORE PUSH1 0x21 PUSH1 0x4 MSTORE PUSH1 0x24 PUSH1 0x0 REVERT JUMPDEST PUSH1 0x4 PUSH1 0x0 DUP4 DUP2 MSTORE PUSH1 0x20 ADD SWAP1 DUP2 MSTORE PUSH1 0x20 ADD PUSH1 0x0 KECCAK256 PUSH1 0x2 ADD PUSH1 0x0 SWAP1 SLOAD SWAP1 PUSH2 0x100 EXP SWAP1 DIV PUSH1 0xFF AND PUSH1 0x2 DUP2 GT ISZERO PUSH2 0x157B JUMPI PUSH32 0x4E487B7100000000000000000000000000000000000000000000000000000000 PUSH1 0x0 MSTORE PUSH1 0x21 PUSH1 0x4 MSTORE PUSH1 0x24 PUSH1 0x0 REVERT JUMPDEST EQ ISZERO PUSH2 0x15BC JUMPI PUSH1 0x40 MLOAD PUSH32 0x8C379A000000000000000000000000000000000000000000000000000000000 DUP2 MSTORE PUSH1 0x4 ADD PUSH2 0x15B3 SWAP1 PUSH2 0x2994 JUMP JUMPDEST PUSH1 0x40 MLOAD DUP1 SWAP2 SUB SWAP1 REVERT JUMPDEST PUSH1 0x1 PUSH1 0x2 DUP2 GT ISZERO PUSH2 0x15F6 JUMPI PUSH32 0x4E487B7100000000000000000000000000000000000000000000000000000000 PUSH1 0x0 MSTORE PUSH1 0x21 PUSH1 0x4 MSTORE PUSH1 0x24 PUSH1 0x0 REVERT JUMPDEST PUSH1 0x4 PUSH1 0x0 DUP4 DUP2 MSTORE PUSH1 0x20 ADD SWAP1 DUP2 MSTORE PUSH1 0x20 ADD PUSH1 0x0 KECCAK256 PUSH1 0x2 ADD PUSH1 0x0 SWAP1 SLOAD SWAP1 PUSH2 0x100 EXP SWAP1 DIV PUSH1 0xFF AND PUSH1 0x2 DUP2 GT ISZERO PUSH2 0x1652 JUMPI PUSH32 0x4E487B7100000000000000000000000000000000000000000000000000000000 PUSH1 0x0 MSTORE PUSH1 0x21 PUSH1 0x4 MSTORE PUSH1 0x24 PUSH1 0x0 REVERT JUMPDEST EQ ISZERO PUSH2 0x16B6 JUMPI CALLVALUE PUSH1 0x4 PUSH1 0x0 DUP4 DUP2 MSTORE PUSH1 0x20 ADD SWAP1 DUP2 MSTORE PUSH1 0x20 ADD PUSH1 0x0 KECCAK256 PUSH1 0x3 ADD SLOAD LT ISZERO PUSH2 0x16B1 JUMPI PUSH1 0x40 MLOAD PUSH32 0x8C379A000000000000000000000000000000000000000000000000000000000 DUP2 MSTORE PUSH1 0x4 ADD PUSH2 0x16A8 SWAP1 PUSH2 0x29D4 JUMP JUMPDEST PUSH1 0x40 MLOAD DUP1 SWAP2 SUB SWAP1 REVERT JUMPDEST PUSH2 0x17AC JUMP JUMPDEST PUSH1 0x2 DUP1 DUP2 GT ISZERO PUSH2 0x16EF JUMPI PUSH32 0x4E487B7100000000000000000000000000000000000000000000000000000000 PUSH1 0x0 MSTORE PUSH1 0x21 PUSH1 0x4 MSTORE PUSH1 0x24 PUSH1 0x0 REVERT JUMPDEST PUSH1 0x4 PUSH1 0x0 DUP4 DUP2 MSTORE PUSH1 0x20 ADD SWAP1 DUP2 MSTORE PUSH1 0x20 ADD PUSH1 0x0 KECCAK256 PUSH1 0x2 ADD PUSH1 0x0 SWAP1 SLOAD SWAP1 PUSH2 0x100 EXP SWAP1 DIV PUSH1 0xFF AND PUSH1 0x2 DUP2 GT ISZERO PUSH2 0x174B JUMPI PUSH32 0x4E487B7100000000000000000000000000000000000000000000000000000000 PUSH1 0x0 MSTORE PUSH1 0x21 PUSH1 0x4 MSTORE PUSH1 0x24 PUSH1 0x0 REVERT JUMPDEST EQ ISZERO PUSH2 0x17AB JUMPI CALLVALUE PUSH1 0x4 PUSH1 0x0 DUP4 DUP2 MSTORE PUSH1 0x20 ADD SWAP1 DUP2 MSTORE PUSH1 0x20 ADD PUSH1 0x0 KECCAK256 PUSH1 0x4 ADD SLOAD LT ISZERO PUSH2 0x17AA JUMPI PUSH1 0x40 MLOAD PUSH32 0x8C379A000000000000000000000000000000000000000000000000000000000 DUP2 MSTORE PUSH1 0x4 ADD PUSH2 0x17A1 SWAP1 PUSH2 0x29D4 JUMP JUMPDEST PUSH1 0x40 MLOAD DUP1 SWAP2 SUB SWAP1 REVERT JUMPDEST JUMPDEST JUMPDEST PUSH1 0x0 PUSH1 0x4 PUSH1 0x0 DUP4 DUP2 MSTORE PUSH1 0x20 ADD SWAP1 DUP2 MSTORE PUSH1 0x20 ADD PUSH1 0x0 KECCAK256 PUSH1 0x0 ADD PUSH1 0x0 SWAP1 SLOAD SWAP1 PUSH2 0x100 EXP SWAP1 DIV PUSH20 0xFFFFFFFFFFFFFFFFFFFFFFFFFFFFFFFFFFFFFFFF AND SWAP1 POP PUSH1 0x0 DUP1 DUP3 PUSH20 0xFFFFFFFFFFFFFFFFFFFFFFFFFFFFFFFFFFFFFFFF AND PUSH4 0x179EFA20 DUP7 PUSH1 0x40 MLOAD DUP3 PUSH4 0xFFFFFFFF AND PUSH1 0xE0 SHL DUP2 MSTORE PUSH1 0x4 ADD PUSH2 0x1823 SWAP2 SWAP1 PUSH2 0x2AF0 JUMP JUMPDEST PUSH1 0x40 DUP1 MLOAD DUP1 DUP4 SUB DUP2 DUP7 DUP1 EXTCODESIZE ISZERO DUP1 ISZERO PUSH2 0x183A JUMPI PUSH1 0x0 DUP1 REVERT JUMPDEST POP GAS STATICCALL ISZERO DUP1 ISZERO PUSH2 0x184E JUMPI RETURNDATASIZE PUSH1 0x0 DUP1 RETURNDATACOPY RETURNDATASIZE PUSH1 0x0 REVERT JUMPDEST POP POP POP POP PUSH1 0x40 MLOAD RETURNDATASIZE PUSH1 0x1F NOT PUSH1 0x1F DUP3 ADD AND DUP3 ADD DUP1 PUSH1 0x40 MSTORE POP DUP2 ADD SWAP1 PUSH2 0x1872 SWAP2 SWAP1 PUSH2 0x24D6 JUMP JUMPDEST SWAP2 POP SWAP2 POP PUSH1 0x0 PUSH2 0x1884 CALLVALUE PUSH1 0x2 SLOAD PUSH2 0x1BC7 JUMP JUMPDEST SWAP1 POP PUSH1 0x3 PUSH1 0x0 SWAP1 SLOAD SWAP1 PUSH2 0x100 EXP SWAP1 DIV PUSH20 0xFFFFFFFFFFFFFFFFFFFFFFFFFFFFFFFFFFFFFFFF AND PUSH20 0xFFFFFFFFFFFFFFFFFFFFFFFFFFFFFFFFFFFFFFFF AND PUSH2 0x8FC DUP3 SWAP1 DUP2 ISZERO MUL SWAP1 PUSH1 0x40 MLOAD PUSH1 0x0 PUSH1 0x40 MLOAD DUP1 DUP4 SUB DUP2 DUP6 DUP9 DUP9 CALL SWAP4 POP POP POP POP ISZERO DUP1 ISZERO PUSH2 0x18EE JUMPI RETURNDATASIZE PUSH1 0x0 DUP1 RETURNDATACOPY RETURNDATASIZE PUSH1 0x0 REVERT JUMPDEST POP PUSH1 0x0 PUSH2 0x18FB CALLVALUE DUP6 PUSH2 0x1BC7 JUMP JUMPDEST SWAP1 POP DUP3 PUSH20 0xFFFFFFFFFFFFFFFFFFFFFFFFFFFFFFFFFFFFFFFF AND PUSH2 0x8FC DUP3 SWAP1 DUP2 ISZERO MUL SWAP1 PUSH1 0x40 MLOAD PUSH1 0x0 PUSH1 0x40 MLOAD DUP1 DUP4 SUB DUP2 DUP6 DUP9 DUP9 CALL SWAP4 POP POP POP POP ISZERO DUP1 ISZERO PUSH2 0x1943 JUMPI RETURNDATASIZE PUSH1 0x0 DUP1 RETURNDATACOPY RETURNDATASIZE PUSH1 0x0 REVERT JUMPDEST POP PUSH1 0x0 PUSH2 0x196B PUSH2 0x195C DUP4 DUP6 PUSH2 0x1BF7 SWAP1 SWAP2 SWAP1 PUSH4 0xFFFFFFFF AND JUMP JUMPDEST CALLVALUE PUSH2 0x1C0D SWAP1 SWAP2 SWAP1 PUSH4 0xFFFFFFFF AND JUMP JUMPDEST SWAP1 POP PUSH1 0x4 PUSH1 0x0 DUP9 DUP2 MSTORE PUSH1 0x20 ADD SWAP1 DUP2 MSTORE PUSH1 0x20 ADD PUSH1 0x0 KECCAK256 PUSH1 0x5 ADD PUSH1 0x0 SWAP1 SLOAD SWAP1 PUSH2 0x100 EXP SWAP1 DIV PUSH20 0xFFFFFFFFFFFFFFFFFFFFFFFFFFFFFFFFFFFFFFFF AND PUSH20 0xFFFFFFFFFFFFFFFFFFFFFFFFFFFFFFFFFFFFFFFF AND PUSH2 0x8FC DUP3 SWAP1 DUP2 ISZERO MUL SWAP1 PUSH1 0x40 MLOAD PUSH1 0x0 PUSH1 0x40 MLOAD DUP1 DUP4 SUB DUP2 DUP6 DUP9 DUP9 CALL SWAP4 POP POP POP POP ISZERO DUP1 ISZERO PUSH2 0x19E9 JUMPI RETURNDATASIZE PUSH1 0x0 DUP1 RETURNDATACOPY RETURNDATASIZE PUSH1 0x0 REVERT JUMPDEST POP DUP6 PUSH20 0xFFFFFFFFFFFFFFFFFFFFFFFFFFFFFFFFFFFFFFFF AND PUSH4 0x42842E0E PUSH1 0x4 PUSH1 0x0 DUP11 DUP2 MSTORE PUSH1 0x20 ADD SWAP1 DUP2 MSTORE PUSH1 0x20 ADD PUSH1 0x0 KECCAK256 PUSH1 0x5 ADD PUSH1 0x0 SWAP1 SLOAD SWAP1 PUSH2 0x100 EXP SWAP1 DIV PUSH20 0xFFFFFFFFFFFFFFFFFFFFFFFFFFFFFFFFFFFFFFFF AND CALLER DUP12 PUSH1 0x40 MLOAD DUP5 PUSH4 0xFFFFFFFF AND PUSH1 0xE0 SHL DUP2 MSTORE PUSH1 0x4 ADD PUSH2 0x1A5D SWAP4 SWAP3 SWAP2 SWAP1 PUSH2 0x2856 JUMP JUMPDEST PUSH1 0x0 PUSH1 0x40 MLOAD DUP1 DUP4 SUB DUP2 PUSH1 0x0 DUP8 DUP1 EXTCODESIZE ISZERO DUP1 ISZERO PUSH2 0x1A77 JUMPI PUSH1 0x0 DUP1 REVERT JUMPDEST POP GAS CALL ISZERO DUP1 ISZERO PUSH2 0x1A8B JUMPI RETURNDATASIZE PUSH1 0x0 DUP1 RETURNDATACOPY RETURNDATASIZE PUSH1 0x0 REVERT JUMPDEST POP POP POP POP PUSH1 0x3 PUSH1 0x4 PUSH1 0x0 DUP10 DUP2 MSTORE PUSH1 0x20 ADD SWAP1 DUP2 MSTORE PUSH1 0x20 ADD PUSH1 0x0 KECCAK256 PUSH1 0x2 ADD PUSH1 0x1 PUSH2 0x100 EXP DUP2 SLOAD DUP2 PUSH1 0xFF MUL NOT AND SWAP1 DUP4 PUSH1 0x3 DUP2 GT ISZERO PUSH2 0x1AEF JUMPI PUSH32 0x4E487B7100000000000000000000000000000000000000000000000000000000 PUSH1 0x0 MSTORE PUSH1 0x21 PUSH1 0x4 MSTORE PUSH1 0x24 PUSH1 0x0 REVERT JUMPDEST MUL OR SWAP1 SSTORE POP CALLER PUSH1 0x4 PUSH1 0x0 DUP10 DUP2 MSTORE PUSH1 0x20 ADD SWAP1 DUP2 MSTORE PUSH1 0x20 ADD PUSH1 0x0 KECCAK256 PUSH1 0x6 ADD PUSH1 0x0 PUSH2 0x100 EXP DUP2 SLOAD DUP2 PUSH20 0xFFFFFFFFFFFFFFFFFFFFFFFFFFFFFFFFFFFFFFFF MUL NOT AND SWAP1 DUP4 PUSH20 0xFFFFFFFFFFFFFFFFFFFFFFFFFFFFFFFFFFFFFFFF AND MUL OR SWAP1 SSTORE POP POP POP POP POP POP POP PUSH2 0x1B8F JUMP JUMPDEST PUSH1 0x40 MLOAD PUSH32 0x8C379A000000000000000000000000000000000000000000000000000000000 DUP2 MSTORE PUSH1 0x4 ADD PUSH2 0x1B86 SWAP1 PUSH2 0x2A54 JUMP JUMPDEST PUSH1 0x40 MLOAD DUP1 SWAP2 SUB SWAP1 REVERT JUMPDEST POP POP POP JUMP JUMPDEST PUSH1 0x0 DUP3 DUP3 PUSH1 0x40 MLOAD PUSH1 0x20 ADD PUSH2 0x1BA9 SWAP3 SWAP2 SWAP1 PUSH2 0x27F4 JUMP JUMPDEST PUSH1 0x40 MLOAD PUSH1 0x20 DUP2 DUP4 SUB SUB DUP2 MSTORE SWAP1 PUSH1 0x40 MSTORE DUP1 MLOAD SWAP1 PUSH1 0x20 ADD KECCAK256 SWAP1 POP SWAP3 SWAP2 POP POP JUMP JUMPDEST PUSH1 0x0 PUSH2 0x1BEF PUSH1 0x64 PUSH2 0x1BE1 DUP5 DUP7 PUSH2 0x2102 SWAP1 SWAP2 SWAP1 PUSH4 0xFFFFFFFF AND JUMP JUMPDEST PUSH2 0x2118 SWAP1 SWAP2 SWAP1 PUSH4 0xFFFFFFFF AND JUMP JUMPDEST SWAP1 POP SWAP3 SWAP2 POP POP JUMP JUMPDEST PUSH1 0x0 DUP2 DUP4 PUSH2 0x1C05 SWAP2 SWAP1 PUSH2 0x2B1C JUMP JUMPDEST SWAP1 POP SWAP3 SWAP2 POP POP JUMP JUMPDEST PUSH1 0x0 DUP2 DUP4 PUSH2 0x1C1B SWAP2 SWAP1 PUSH2 0x2BFD JUMP JUMPDEST SWAP1 POP SWAP3 SWAP2 POP POP JUMP JUMPDEST PUSH1 0x0 PUSH2 0x1C2F DUP7 DUP7 PUSH2 0x1B94 JUMP JUMPDEST SWAP1 POP PUSH1 0x1 PUSH1 0x3 DUP2 GT ISZERO PUSH2 0x1C6B JUMPI PUSH32 0x4E487B7100000000000000000000000000000000000000000000000000000000 PUSH1 0x0 MSTORE PUSH1 0x21 PUSH1 0x4 MSTORE PUSH1 0x24 PUSH1 0x0 REVERT JUMPDEST PUSH1 0x4 PUSH1 0x0 DUP4 DUP2 MSTORE PUSH1 0x20 ADD SWAP1 DUP2 MSTORE PUSH1 0x20 ADD PUSH1 0x0 KECCAK256 PUSH1 0x2 ADD PUSH1 0x1 SWAP1 SLOAD SWAP1 PUSH2 0x100 EXP SWAP1 DIV PUSH1 0xFF AND PUSH1 0x3 DUP2 GT ISZERO PUSH2 0x1CC7 JUMPI PUSH32 0x4E487B7100000000000000000000000000000000000000000000000000000000 PUSH1 0x0 MSTORE PUSH1 0x21 PUSH1 0x4 MSTORE PUSH1 0x24 PUSH1 0x0 REVERT JUMPDEST EQ ISZERO PUSH2 0x1D08 JUMPI PUSH1 0x40 MLOAD PUSH32 0x8C379A000000000000000000000000000000000000000000000000000000000 DUP2 MSTORE PUSH1 0x4 ADD PUSH2 0x1CFF SWAP1 PUSH2 0x2A34 JUMP JUMPDEST PUSH1 0x40 MLOAD DUP1 SWAP2 SUB SWAP1 REVERT JUMPDEST PUSH1 0x0 DUP5 GT PUSH2 0x1D4B JUMPI PUSH1 0x40 MLOAD PUSH32 0x8C379A000000000000000000000000000000000000000000000000000000000 DUP2 MSTORE PUSH1 0x4 ADD PUSH2 0x1D42 SWAP1 PUSH2 0x2A94 JUMP JUMPDEST PUSH1 0x40 MLOAD DUP1 SWAP2 SUB SWAP1 REVERT JUMPDEST PUSH1 0x2 DUP1 DUP2 GT ISZERO PUSH2 0x1D84 JUMPI PUSH32 0x4E487B7100000000000000000000000000000000000000000000000000000000 PUSH1 0x0 MSTORE PUSH1 0x21 PUSH1 0x4 MSTORE PUSH1 0x24 PUSH1 0x0 REVERT JUMPDEST DUP4 PUSH1 0x2 DUP2 GT ISZERO PUSH2 0x1DBD JUMPI PUSH32 0x4E487B7100000000000000000000000000000000000000000000000000000000 PUSH1 0x0 MSTORE PUSH1 0x21 PUSH1 0x4 MSTORE PUSH1 0x24 PUSH1 0x0 REVERT JUMPDEST EQ DUP1 ISZERO PUSH2 0x1DC9 JUMPI POP DUP2 DUP5 GT JUMPDEST ISZERO PUSH2 0x1E09 JUMPI PUSH1 0x40 MLOAD PUSH32 0x8C379A000000000000000000000000000000000000000000000000000000000 DUP2 MSTORE PUSH1 0x4 ADD PUSH2 0x1E00 SWAP1 PUSH2 0x2AB4 JUMP JUMPDEST PUSH1 0x40 MLOAD DUP1 SWAP2 SUB SWAP1 REVERT JUMPDEST PUSH1 0x1 PUSH1 0x4 PUSH1 0x0 DUP4 DUP2 MSTORE PUSH1 0x20 ADD SWAP1 DUP2 MSTORE PUSH1 0x20 ADD PUSH1 0x0 KECCAK256 PUSH1 0x2 ADD PUSH1 0x1 PUSH2 0x100 EXP DUP2 SLOAD DUP2 PUSH1 0xFF MUL NOT AND SWAP1 DUP4 PUSH1 0x3 DUP2 GT ISZERO PUSH2 0x1E69 JUMPI PUSH32 0x4E487B7100000000000000000000000000000000000000000000000000000000 PUSH1 0x0 MSTORE PUSH1 0x21 PUSH1 0x4 MSTORE PUSH1 0x24 PUSH1 0x0 REVERT JUMPDEST MUL OR SWAP1 SSTORE POP DUP3 PUSH1 0x4 PUSH1 0x0 DUP4 DUP2 MSTORE PUSH1 0x20 ADD SWAP1 DUP2 MSTORE PUSH1 0x20 ADD PUSH1 0x0 KECCAK256 PUSH1 0x2 ADD PUSH1 0x0 PUSH2 0x100 EXP DUP2 SLOAD DUP2 PUSH1 0xFF MUL NOT AND SWAP1 DUP4 PUSH1 0x2 DUP2 GT ISZERO PUSH2 0x1ECD JUMPI PUSH32 0x4E487B7100000000000000000000000000000000000000000000000000000000 PUSH1 0x0 MSTORE PUSH1 0x21 PUSH1 0x4 MSTORE PUSH1 0x24 PUSH1 0x0 REVERT JUMPDEST MUL OR SWAP1 SSTORE POP DUP4 PUSH1 0x4 PUSH1 0x0 DUP4 DUP2 MSTORE PUSH1 0x20 ADD SWAP1 DUP2 MSTORE PUSH1 0x20 ADD PUSH1 0x0 KECCAK256 PUSH1 0x3 ADD DUP2 SWAP1 SSTORE POP DUP2 PUSH1 0x4 PUSH1 0x0 DUP4 DUP2 MSTORE PUSH1 0x20 ADD SWAP1 DUP2 MSTORE PUSH1 0x20 ADD PUSH1 0x0 KECCAK256 PUSH1 0x4 ADD DUP2 SWAP1 SSTORE POP DUP6 PUSH1 0x4 PUSH1 0x0 DUP4 DUP2 MSTORE PUSH1 0x20 ADD SWAP1 DUP2 MSTORE PUSH1 0x20 ADD PUSH1 0x0 KECCAK256 PUSH1 0x0 ADD PUSH1 0x0 PUSH2 0x100 EXP DUP2 SLOAD DUP2 PUSH20 0xFFFFFFFFFFFFFFFFFFFFFFFFFFFFFFFFFFFFFFFF MUL NOT AND SWAP1 DUP4 PUSH20 0xFFFFFFFFFFFFFFFFFFFFFFFFFFFFFFFFFFFFFFFF AND MUL OR SWAP1 SSTORE POP DUP5 PUSH1 0x4 PUSH1 0x0 DUP4 DUP2 MSTORE PUSH1 0x20 ADD SWAP1 DUP2 MSTORE PUSH1 0x20 ADD PUSH1 0x0 KECCAK256 PUSH1 0x1 ADD DUP2 SWAP1 SSTORE POP CALLER PUSH1 0x4 PUSH1 0x0 DUP4 DUP2 MSTORE PUSH1 0x20 ADD SWAP1 DUP2 MSTORE PUSH1 0x20 ADD PUSH1 0x0 KECCAK256 PUSH1 0x5 ADD PUSH1 0x0 PUSH2 0x100 EXP DUP2 SLOAD DUP2 PUSH20 0xFFFFFFFFFFFFFFFFFFFFFFFFFFFFFFFFFFFFFFFF MUL NOT AND SWAP1 DUP4 PUSH20 0xFFFFFFFFFFFFFFFFFFFFFFFFFFFFFFFFFFFFFFFF AND MUL OR SWAP1 SSTORE POP POP POP POP POP POP POP JUMP JUMPDEST PUSH1 0x0 PUSH20 0xFFFFFFFFFFFFFFFFFFFFFFFFFFFFFFFFFFFFFFFF AND DUP2 PUSH20 0xFFFFFFFFFFFFFFFFFFFFFFFFFFFFFFFFFFFFFFFF AND EQ ISZERO PUSH2 0x2045 JUMPI PUSH1 0x40 MLOAD PUSH32 0x8C379A000000000000000000000000000000000000000000000000000000000 DUP2 MSTORE PUSH1 0x4 ADD PUSH2 0x203C SWAP1 PUSH2 0x29F4 JUMP JUMPDEST PUSH1 0x40 MLOAD DUP1 SWAP2 SUB SWAP1 REVERT JUMPDEST DUP1 PUSH20 0xFFFFFFFFFFFFFFFFFFFFFFFFFFFFFFFFFFFFFFFF AND PUSH1 0x0 DUP1 SLOAD SWAP1 PUSH2 0x100 EXP SWAP1 DIV PUSH20 0xFFFFFFFFFFFFFFFFFFFFFFFFFFFFFFFFFFFFFFFF AND PUSH20 0xFFFFFFFFFFFFFFFFFFFFFFFFFFFFFFFFFFFFFFFF AND PUSH32 0x8BE0079C531659141344CD1FD0A4F28419497F9722A3DAAFE3B4186F6B6457E0 PUSH1 0x40 MLOAD PUSH1 0x40 MLOAD DUP1 SWAP2 SUB SWAP1 LOG3 DUP1 PUSH1 0x0 DUP1 PUSH2 0x100 EXP DUP2 SLOAD DUP2 PUSH20 0xFFFFFFFFFFFFFFFFFFFFFFFFFFFFFFFFFFFFFFFF MUL NOT AND SWAP1 DUP4 PUSH20 0xFFFFFFFFFFFFFFFFFFFFFFFFFFFFFFFFFFFFFFFF AND MUL OR SWAP1 SSTORE POP POP JUMP JUMPDEST PUSH1 0x0 DUP2 DUP4 PUSH2 0x2110 SWAP2 SWAP1 PUSH2 0x2BA3 JUMP JUMPDEST SWAP1 POP SWAP3 SWAP2 POP POP JUMP JUMPDEST PUSH1 0x0 DUP2 DUP4 PUSH2 0x2126 SWAP2 SWAP1 PUSH2 0x2B72 JUMP JUMPDEST SWAP1 POP SWAP3 SWAP2 POP POP JUMP JUMPDEST PUSH1 0x40 MLOAD DUP1 PUSH2 0x100 ADD PUSH1 0x40 MSTORE DUP1 PUSH1 0x0 PUSH20 0xFFFFFFFFFFFFFFFFFFFFFFFFFFFFFFFFFFFFFFFF AND DUP2 MSTORE PUSH1 0x20 ADD PUSH1 0x0 DUP2 MSTORE PUSH1 0x20 ADD PUSH1 0x0 PUSH1 0x2 DUP2 GT ISZERO PUSH2 0x2198 JUMPI PUSH32 0x4E487B7100000000000000000000000000000000000000000000000000000000 PUSH1 0x0 MSTORE PUSH1 0x21 PUSH1 0x4 MSTORE PUSH1 0x24 PUSH1 0x0 REVERT JUMPDEST DUP2 MSTORE PUSH1 0x20 ADD PUSH1 0x0 PUSH1 0x3 DUP2 GT ISZERO PUSH2 0x21D7 JUMPI PUSH32 0x4E487B7100000000000000000000000000000000000000000000000000000000 PUSH1 0x0 MSTORE PUSH1 0x21 PUSH1 0x4 MSTORE PUSH1 0x24 PUSH1 0x0 REVERT JUMPDEST DUP2 MSTORE PUSH1 0x20 ADD PUSH1 0x0 DUP2 MSTORE PUSH1 0x20 ADD PUSH1 0x0 DUP2 MSTORE PUSH1 0x20 ADD PUSH1 0x0 PUSH20 0xFFFFFFFFFFFFFFFFFFFFFFFFFFFFFFFFFFFFFFFF AND DUP2 MSTORE PUSH1 0x20 ADD PUSH1 0x0 PUSH20 0xFFFFFFFFFFFFFFFFFFFFFFFFFFFFFFFFFFFFFFFF AND DUP2 MSTORE POP SWAP1 JUMP JUMPDEST PUSH1 0x0 DUP2 CALLDATALOAD SWAP1 POP PUSH2 0x2234 DUP2 PUSH2 0x3035 JUMP JUMPDEST SWAP3 SWAP2 POP POP JUMP JUMPDEST PUSH1 0x0 DUP2 MLOAD SWAP1 POP PUSH2 0x2249 DUP2 PUSH2 0x3035 JUMP JUMPDEST SWAP3 SWAP2 POP POP JUMP JUMPDEST PUSH1 0x0 DUP2 CALLDATALOAD SWAP1 POP PUSH2 0x225E DUP2 PUSH2 0x304C JUMP JUMPDEST SWAP3 SWAP2 POP POP JUMP JUMPDEST PUSH1 0x0 DUP2 MLOAD SWAP1 POP PUSH2 0x2273 DUP2 PUSH2 0x3063 JUMP JUMPDEST SWAP3 SWAP2 POP POP JUMP JUMPDEST PUSH1 0x0 DUP2 CALLDATALOAD SWAP1 POP PUSH2 0x2288 DUP2 PUSH2 0x307A JUMP JUMPDEST SWAP3 SWAP2 POP POP JUMP JUMPDEST PUSH1 0x0 DUP2 CALLDATALOAD SWAP1 POP PUSH2 0x229D DUP2 PUSH2 0x3091 JUMP JUMPDEST SWAP3 SWAP2 POP POP JUMP JUMPDEST PUSH1 0x0 DUP2 MLOAD SWAP1 POP PUSH2 0x22B2 DUP2 PUSH2 0x3091 JUMP JUMPDEST SWAP3 SWAP2 POP POP JUMP JUMPDEST PUSH1 0x0 PUSH1 0x20 DUP3 DUP5 SUB SLT ISZERO PUSH2 0x22CA JUMPI PUSH1 0x0 DUP1 REVERT JUMPDEST PUSH1 0x0 PUSH2 0x22D8 DUP5 DUP3 DUP6 ADD PUSH2 0x2225 JUMP JUMPDEST SWAP2 POP POP SWAP3 SWAP2 POP POP JUMP JUMPDEST PUSH1 0x0 PUSH1 0x20 DUP3 DUP5 SUB SLT ISZERO PUSH2 0x22F3 JUMPI PUSH1 0x0 DUP1 REVERT JUMPDEST PUSH1 0x0 PUSH2 0x2301 DUP5 DUP3 DUP6 ADD PUSH2 0x224F JUMP JUMPDEST SWAP2 POP POP SWAP3 SWAP2 POP POP JUMP JUMPDEST PUSH1 0x0 DUP1 PUSH1 0x40 DUP4 DUP6 SUB SLT ISZERO PUSH2 0x231D JUMPI PUSH1 0x0 DUP1 REVERT JUMPDEST PUSH1 0x0 PUSH2 0x232B DUP6 DUP3 DUP7 ADD PUSH2 0x2225 JUMP JUMPDEST SWAP3 POP POP PUSH1 0x20 PUSH2 0x233C DUP6 DUP3 DUP7 ADD PUSH2 0x228E JUMP JUMPDEST SWAP2 POP POP SWAP3 POP SWAP3 SWAP1 POP JUMP JUMPDEST PUSH1 0x0 DUP1 PUSH1 0x0 PUSH1 0x60 DUP5 DUP7 SUB SLT ISZERO PUSH2 0x235B JUMPI PUSH1 0x0 DUP1 REVERT JUMPDEST PUSH1 0x0 PUSH2 0x2369 DUP7 DUP3 DUP8 ADD PUSH2 0x2225 JUMP JUMPDEST SWAP4 POP POP PUSH1 0x20 PUSH2 0x237A DUP7 DUP3 DUP8 ADD PUSH2 0x228E JUMP JUMPDEST SWAP3 POP POP PUSH1 0x40 PUSH2 0x238B DUP7 DUP3 DUP8 ADD PUSH2 0x228E JUMP JUMPDEST SWAP2 POP POP SWAP3 POP SWAP3 POP SWAP3 JUMP JUMPDEST PUSH1 0x0 DUP1 PUSH1 0x0 DUP1 PUSH1 0x80 DUP6 DUP8 SUB SLT ISZERO PUSH2 0x23AB JUMPI PUSH1 0x0 DUP1 REVERT JUMPDEST PUSH1 0x0 PUSH2 0x23B9 DUP8 DUP3 DUP9 ADD PUSH2 0x2225 JUMP JUMPDEST SWAP5 POP POP PUSH1 0x20 PUSH2 0x23CA DUP8 DUP3 DUP9 ADD PUSH2 0x228E JUMP JUMPDEST SWAP4 POP POP PUSH1 0x40 PUSH2 0x23DB DUP8 DUP3 DUP9 ADD PUSH2 0x228E JUMP JUMPDEST SWAP3 POP POP PUSH1 0x60 PUSH2 0x23EC DUP8 DUP3 DUP9 ADD PUSH2 0x2225 JUMP JUMPDEST SWAP2 POP POP SWAP3 SWAP6 SWAP2 SWAP5 POP SWAP3 POP JUMP JUMPDEST PUSH1 0x0 DUP1 PUSH1 0x0 DUP1 PUSH1 0x80 DUP6 DUP8 SUB SLT ISZERO PUSH2 0x240E JUMPI PUSH1 0x0 DUP1 REVERT JUMPDEST PUSH1 0x0 PUSH2 0x241C DUP8 DUP3 DUP9 ADD PUSH2 0x2225 JUMP JUMPDEST SWAP5 POP POP PUSH1 0x20 PUSH2 0x242D DUP8 DUP3 DUP9 ADD PUSH2 0x228E JUMP JUMPDEST SWAP4 POP POP PUSH1 0x40 PUSH2 0x243E DUP8 DUP3 DUP9 ADD PUSH2 0x228E JUMP JUMPDEST SWAP3 POP POP PUSH1 0x60 PUSH2 0x244F DUP8 DUP3 DUP9 ADD PUSH2 0x228E JUMP JUMPDEST SWAP2 POP POP SWAP3 SWAP6 SWAP2 SWAP5 POP SWAP3 POP JUMP JUMPDEST PUSH1 0x0 PUSH1 0x20 DUP3 DUP5 SUB SLT ISZERO PUSH2 0x246D JUMPI PUSH1 0x0 DUP1 REVERT JUMPDEST PUSH1 0x0 PUSH2 0x247B DUP5 DUP3 DUP6 ADD PUSH2 0x2264 JUMP JUMPDEST SWAP2 POP POP SWAP3 SWAP2 POP POP JUMP JUMPDEST PUSH1 0x0 PUSH1 0x20 DUP3 DUP5 SUB SLT ISZERO PUSH2 0x2496 JUMPI PUSH1 0x0 DUP1 REVERT JUMPDEST PUSH1 0x0 PUSH2 0x24A4 DUP5 DUP3 DUP6 ADD PUSH2 0x2279 JUMP JUMPDEST SWAP2 POP POP SWAP3 SWAP2 POP POP JUMP JUMPDEST PUSH1 0x0 PUSH1 0x20 DUP3 DUP5 SUB SLT ISZERO PUSH2 0x24BF JUMPI PUSH1 0x0 DUP1 REVERT JUMPDEST PUSH1 0x0 PUSH2 0x24CD DUP5 DUP3 DUP6 ADD PUSH2 0x228E JUMP JUMPDEST SWAP2 POP POP SWAP3 SWAP2 POP POP JUMP JUMPDEST PUSH1 0x0 DUP1 PUSH1 0x40 DUP4 DUP6 SUB SLT ISZERO PUSH2 0x24E9 JUMPI PUSH1 0x0 DUP1 REVERT JUMPDEST PUSH1 0x0 PUSH2 0x24F7 DUP6 DUP3 DUP7 ADD PUSH2 0x22A3 JUMP JUMPDEST SWAP3 POP POP PUSH1 0x20 PUSH2 0x2508 DUP6 DUP3 DUP7 ADD PUSH2 0x223A JUMP JUMPDEST SWAP2 POP POP SWAP3 POP SWAP3 SWAP1 POP JUMP JUMPDEST PUSH2 0x251B DUP2 PUSH2 0x2CBB JUMP JUMPDEST DUP3 MSTORE POP POP JUMP JUMPDEST PUSH2 0x252A DUP2 PUSH2 0x2C43 JUMP JUMPDEST DUP3 MSTORE POP POP JUMP JUMPDEST PUSH2 0x2539 DUP2 PUSH2 0x2C43 JUMP JUMPDEST DUP3 MSTORE POP POP JUMP JUMPDEST PUSH2 0x2548 DUP2 PUSH2 0x2C31 JUMP JUMPDEST DUP3 MSTORE POP POP JUMP JUMPDEST PUSH2 0x2557 DUP2 PUSH2 0x2C31 JUMP JUMPDEST DUP3 MSTORE POP POP JUMP JUMPDEST PUSH2 0x256E PUSH2 0x2569 DUP3 PUSH2 0x2C31 JUMP JUMPDEST PUSH2 0x2D39 JUMP JUMPDEST DUP3 MSTORE POP POP JUMP JUMPDEST PUSH2 0x257D DUP2 PUSH2 0x2CCD JUMP JUMPDEST DUP3 MSTORE POP POP JUMP JUMPDEST PUSH2 0x258C DUP2 PUSH2 0x2CF1 JUMP JUMPDEST DUP3 MSTORE POP POP JUMP JUMPDEST PUSH2 0x259B DUP2 PUSH2 0x2CF1 JUMP JUMPDEST DUP3 MSTORE POP POP JUMP JUMPDEST PUSH2 0x25AA DUP2 PUSH2 0x2D03 JUMP JUMPDEST DUP3 MSTORE POP POP JUMP JUMPDEST PUSH2 0x25B9 DUP2 PUSH2 0x2D03 JUMP JUMPDEST DUP3 MSTORE POP POP JUMP JUMPDEST PUSH1 0x0 PUSH2 0x25CC PUSH1 0xE DUP4 PUSH2 0x2B0B JUMP JUMPDEST SWAP2 POP PUSH2 0x25D7 DUP3 PUSH2 0x2E01 JUMP JUMPDEST PUSH1 0x20 DUP3 ADD SWAP1 POP SWAP2 SWAP1 POP JUMP JUMPDEST PUSH1 0x0 PUSH2 0x25EF PUSH1 0x2A DUP4 PUSH2 0x2B0B JUMP JUMPDEST SWAP2 POP PUSH2 0x25FA DUP3 PUSH2 0x2E2A JUMP JUMPDEST PUSH1 0x40 DUP3 ADD SWAP1 POP SWAP2 SWAP1 POP JUMP JUMPDEST PUSH1 0x0 PUSH2 0x2612 PUSH1 0x11 DUP4 PUSH2 0x2B0B JUMP JUMPDEST SWAP2 POP PUSH2 0x261D DUP3 PUSH2 0x2E79 JUMP JUMPDEST PUSH1 0x20 DUP3 ADD SWAP1 POP SWAP2 SWAP1 POP JUMP JUMPDEST PUSH1 0x0 PUSH2 0x2635 PUSH1 0x26 DUP4 PUSH2 0x2B0B JUMP JUMPDEST SWAP2 POP PUSH2 0x2640 DUP3 PUSH2 0x2EA2 JUMP JUMPDEST PUSH1 0x40 DUP3 ADD SWAP1 POP SWAP2 SWAP1 POP JUMP JUMPDEST PUSH1 0x0 PUSH2 0x2658 PUSH1 0x18 DUP4 PUSH2 0x2B0B JUMP JUMPDEST SWAP2 POP PUSH2 0x2663 DUP3 PUSH2 0x2EF1 JUMP JUMPDEST PUSH1 0x20 DUP3 ADD SWAP1 POP SWAP2 SWAP1 POP JUMP JUMPDEST PUSH1 0x0 PUSH2 0x267B PUSH1 0x1E DUP4 PUSH2 0x2B0B JUMP JUMPDEST SWAP2 POP PUSH2 0x2686 DUP3 PUSH2 0x2F1A JUMP JUMPDEST PUSH1 0x20 DUP3 ADD SWAP1 POP SWAP2 SWAP1 POP JUMP JUMPDEST PUSH1 0x0 PUSH2 0x269E PUSH1 0x1A DUP4 PUSH2 0x2B0B JUMP JUMPDEST SWAP2 POP PUSH2 0x26A9 DUP3 PUSH2 0x2F43 JUMP JUMPDEST PUSH1 0x20 DUP3 ADD SWAP1 POP SWAP2 SWAP1 POP JUMP JUMPDEST PUSH1 0x0 PUSH2 0x26C1 PUSH1 0x1B DUP4 PUSH2 0x2B0B JUMP JUMPDEST SWAP2 POP PUSH2 0x26CC DUP3 PUSH2 0x2F6C JUMP JUMPDEST PUSH1 0x20 DUP3 ADD SWAP1 POP SWAP2 SWAP1 POP JUMP JUMPDEST PUSH1 0x0 PUSH2 0x26E4 PUSH1 0x1E DUP4 PUSH2 0x2B0B JUMP JUMPDEST SWAP2 POP PUSH2 0x26EF DUP3 PUSH2 0x2F95 JUMP JUMPDEST PUSH1 0x20 DUP3 ADD SWAP1 POP SWAP2 SWAP1 POP JUMP JUMPDEST PUSH1 0x0 PUSH2 0x2707 PUSH1 0x26 DUP4 PUSH2 0x2B0B JUMP JUMPDEST SWAP2 POP PUSH2 0x2712 DUP3 PUSH2 0x2FBE JUMP JUMPDEST PUSH1 0x40 DUP3 ADD SWAP1 POP SWAP2 SWAP1 POP JUMP JUMPDEST PUSH2 0x100 DUP3 ADD PUSH1 0x0 DUP3 ADD MLOAD PUSH2 0x2734 PUSH1 0x0 DUP6 ADD DUP3 PUSH2 0x253F JUMP JUMPDEST POP PUSH1 0x20 DUP3 ADD MLOAD PUSH2 0x2747 PUSH1 0x20 DUP6 ADD DUP3 PUSH2 0x27BF JUMP JUMPDEST POP PUSH1 0x40 DUP3 ADD MLOAD PUSH2 0x275A PUSH1 0x40 DUP6 ADD DUP3 PUSH2 0x25A1 JUMP JUMPDEST POP PUSH1 0x60 DUP3 ADD MLOAD PUSH2 0x276D PUSH1 0x60 DUP6 ADD DUP3 PUSH2 0x2583 JUMP JUMPDEST POP PUSH1 0x80 DUP3 ADD MLOAD PUSH2 0x2780 PUSH1 0x80 DUP6 ADD DUP3 PUSH2 0x27BF JUMP JUMPDEST POP PUSH1 0xA0 DUP3 ADD MLOAD PUSH2 0x2793 PUSH1 0xA0 DUP6 ADD DUP3 PUSH2 0x27BF JUMP JUMPDEST POP PUSH1 0xC0 DUP3 ADD MLOAD PUSH2 0x27A6 PUSH1 0xC0 DUP6 ADD DUP3 PUSH2 0x2521 JUMP JUMPDEST POP PUSH1 0xE0 DUP3 ADD MLOAD PUSH2 0x27B9 PUSH1 0xE0 DUP6 ADD DUP3 PUSH2 0x253F JUMP JUMPDEST POP POP POP POP JUMP JUMPDEST PUSH2 0x27C8 DUP2 PUSH2 0x2CB1 JUMP JUMPDEST DUP3 MSTORE POP POP JUMP JUMPDEST PUSH2 0x27D7 DUP2 PUSH2 0x2CB1 JUMP JUMPDEST DUP3 MSTORE POP POP JUMP JUMPDEST PUSH2 0x27EE PUSH2 0x27E9 DUP3 PUSH2 0x2CB1 JUMP JUMPDEST PUSH2 0x2D5D JUMP JUMPDEST DUP3 MSTORE POP POP JUMP JUMPDEST PUSH1 0x0 PUSH2 0x2800 DUP3 DUP6 PUSH2 0x255D JUMP JUMPDEST PUSH1 0x14 DUP3 ADD SWAP2 POP PUSH2 0x2810 DUP3 DUP5 PUSH2 0x27DD JUMP JUMPDEST PUSH1 0x20 DUP3 ADD SWAP2 POP DUP2 SWAP1 POP SWAP4 SWAP3 POP POP POP JUMP JUMPDEST PUSH1 0x0 PUSH1 0x20 DUP3 ADD SWAP1 POP PUSH2 0x2835 PUSH1 0x0 DUP4 ADD DUP5 PUSH2 0x254E JUMP JUMPDEST SWAP3 SWAP2 POP POP JUMP JUMPDEST PUSH1 0x0 PUSH1 0x20 DUP3 ADD SWAP1 POP PUSH2 0x2850 PUSH1 0x0 DUP4 ADD DUP5 PUSH2 0x2530 JUMP JUMPDEST SWAP3 SWAP2 POP POP JUMP JUMPDEST PUSH1 0x0 PUSH1 0x60 DUP3 ADD SWAP1 POP PUSH2 0x286B PUSH1 0x0 DUP4 ADD DUP7 PUSH2 0x2512 JUMP JUMPDEST PUSH2 0x2878 PUSH1 0x20 DUP4 ADD DUP6 PUSH2 0x254E JUMP JUMPDEST PUSH2 0x2885 PUSH1 0x40 DUP4 ADD DUP5 PUSH2 0x27CE JUMP JUMPDEST SWAP5 SWAP4 POP POP POP POP JUMP JUMPDEST PUSH1 0x0 PUSH1 0x60 DUP3 ADD SWAP1 POP PUSH2 0x28A2 PUSH1 0x0 DUP4 ADD DUP7 PUSH2 0x254E JUMP JUMPDEST PUSH2 0x28AF PUSH1 0x20 DUP4 ADD DUP6 PUSH2 0x2512 JUMP JUMPDEST PUSH2 0x28BC PUSH1 0x40 DUP4 ADD DUP5 PUSH2 0x27CE JUMP JUMPDEST SWAP5 SWAP4 POP POP POP POP JUMP JUMPDEST PUSH1 0x0 PUSH1 0x60 DUP3 ADD SWAP1 POP PUSH2 0x28D9 PUSH1 0x0 DUP4 ADD DUP7 PUSH2 0x254E JUMP JUMPDEST PUSH2 0x28E6 PUSH1 0x20 DUP4 ADD DUP6 PUSH2 0x254E JUMP JUMPDEST PUSH2 0x28F3 PUSH1 0x40 DUP4 ADD DUP5 PUSH2 0x27CE JUMP JUMPDEST SWAP5 SWAP4 POP POP POP POP JUMP JUMPDEST PUSH1 0x0 PUSH2 0x100 DUP3 ADD SWAP1 POP PUSH2 0x2911 PUSH1 0x0 DUP4 ADD DUP12 PUSH2 0x254E JUMP JUMPDEST PUSH2 0x291E PUSH1 0x20 DUP4 ADD DUP11 PUSH2 0x27CE JUMP JUMPDEST PUSH2 0x292B PUSH1 0x40 DUP4 ADD DUP10 PUSH2 0x25B0 JUMP JUMPDEST PUSH2 0x2938 PUSH1 0x60 DUP4 ADD DUP9 PUSH2 0x2592 JUMP JUMPDEST PUSH2 0x2945 PUSH1 0x80 DUP4 ADD DUP8 PUSH2 0x27CE JUMP JUMPDEST PUSH2 0x2952 PUSH1 0xA0 DUP4 ADD DUP7 PUSH2 0x27CE JUMP JUMPDEST PUSH2 0x295F PUSH1 0xC0 DUP4 ADD DUP6 PUSH2 0x2530 JUMP JUMPDEST PUSH2 0x296C PUSH1 0xE0 DUP4 ADD DUP5 PUSH2 0x254E JUMP JUMPDEST SWAP10 SWAP9 POP POP POP POP POP POP POP POP POP JUMP JUMPDEST PUSH1 0x0 PUSH1 0x20 DUP3 ADD SWAP1 POP PUSH2 0x298E PUSH1 0x0 DUP4 ADD DUP5 PUSH2 0x2574 JUMP JUMPDEST SWAP3 SWAP2 POP POP JUMP JUMPDEST PUSH1 0x0 PUSH1 0x20 DUP3 ADD SWAP1 POP DUP2 DUP2 SUB PUSH1 0x0 DUP4 ADD MSTORE PUSH2 0x29AD DUP2 PUSH2 0x25BF JUMP JUMPDEST SWAP1 POP SWAP2 SWAP1 POP JUMP JUMPDEST PUSH1 0x0 PUSH1 0x20 DUP3 ADD SWAP1 POP DUP2 DUP2 SUB PUSH1 0x0 DUP4 ADD MSTORE PUSH2 0x29CD DUP2 PUSH2 0x25E2 JUMP JUMPDEST SWAP1 POP SWAP2 SWAP1 POP JUMP JUMPDEST PUSH1 0x0 PUSH1 0x20 DUP3 ADD SWAP1 POP DUP2 DUP2 SUB PUSH1 0x0 DUP4 ADD MSTORE PUSH2 0x29ED DUP2 PUSH2 0x2605 JUMP JUMPDEST SWAP1 POP SWAP2 SWAP1 POP JUMP JUMPDEST PUSH1 0x0 PUSH1 0x20 DUP3 ADD SWAP1 POP DUP2 DUP2 SUB PUSH1 0x0 DUP4 ADD MSTORE PUSH2 0x2A0D DUP2 PUSH2 0x2628 JUMP JUMPDEST SWAP1 POP SWAP2 SWAP1 POP JUMP JUMPDEST PUSH1 0x0 PUSH1 0x20 DUP3 ADD SWAP1 POP DUP2 DUP2 SUB PUSH1 0x0 DUP4 ADD MSTORE PUSH2 0x2A2D DUP2 PUSH2 0x264B JUMP JUMPDEST SWAP1 POP SWAP2 SWAP1 POP JUMP JUMPDEST PUSH1 0x0 PUSH1 0x20 DUP3 ADD SWAP1 POP DUP2 DUP2 SUB PUSH1 0x0 DUP4 ADD MSTORE PUSH2 0x2A4D DUP2 PUSH2 0x266E JUMP JUMPDEST SWAP1 POP SWAP2 SWAP1 POP JUMP JUMPDEST PUSH1 0x0 PUSH1 0x20 DUP3 ADD SWAP1 POP DUP2 DUP2 SUB PUSH1 0x0 DUP4 ADD MSTORE PUSH2 0x2A6D DUP2 PUSH2 0x2691 JUMP JUMPDEST SWAP1 POP SWAP2 SWAP1 POP JUMP JUMPDEST PUSH1 0x0 PUSH1 0x20 DUP3 ADD SWAP1 POP DUP2 DUP2 SUB PUSH1 0x0 DUP4 ADD MSTORE PUSH2 0x2A8D DUP2 PUSH2 0x26B4 JUMP JUMPDEST SWAP1 POP SWAP2 SWAP1 POP JUMP JUMPDEST PUSH1 0x0 PUSH1 0x20 DUP3 ADD SWAP1 POP DUP2 DUP2 SUB PUSH1 0x0 DUP4 ADD MSTORE PUSH2 0x2AAD DUP2 PUSH2 0x26D7 JUMP JUMPDEST SWAP1 POP SWAP2 SWAP1 POP JUMP JUMPDEST PUSH1 0x0 PUSH1 0x20 DUP3 ADD SWAP1 POP DUP2 DUP2 SUB PUSH1 0x0 DUP4 ADD MSTORE PUSH2 0x2ACD DUP2 PUSH2 0x26FA JUMP JUMPDEST SWAP1 POP SWAP2 SWAP1 POP JUMP JUMPDEST PUSH1 0x0 PUSH2 0x100 DUP3 ADD SWAP1 POP PUSH2 0x2AEA PUSH1 0x0 DUP4 ADD DUP5 PUSH2 0x271D JUMP JUMPDEST SWAP3 SWAP2 POP POP JUMP JUMPDEST PUSH1 0x0 PUSH1 0x20 DUP3 ADD SWAP1 POP PUSH2 0x2B05 PUSH1 0x0 DUP4 ADD DUP5 PUSH2 0x27CE JUMP JUMPDEST SWAP3 SWAP2 POP POP JUMP JUMPDEST PUSH1 0x0 DUP3 DUP3 MSTORE PUSH1 0x20 DUP3 ADD SWAP1 POP SWAP3 SWAP2 POP POP JUMP JUMPDEST PUSH1 0x0 PUSH2 0x2B27 DUP3 PUSH2 0x2CB1 JUMP JUMPDEST SWAP2 POP PUSH2 0x2B32 DUP4 PUSH2 0x2CB1 JUMP JUMPDEST SWAP3 POP DUP3 PUSH32 0xFFFFFFFFFFFFFFFFFFFFFFFFFFFFFFFFFFFFFFFFFFFFFFFFFFFFFFFFFFFFFFFF SUB DUP3 GT ISZERO PUSH2 0x2B67 JUMPI PUSH2 0x2B66 PUSH2 0x2D67 JUMP JUMPDEST JUMPDEST DUP3 DUP3 ADD SWAP1 POP SWAP3 SWAP2 POP POP JUMP JUMPDEST PUSH1 0x0 PUSH2 0x2B7D DUP3 PUSH2 0x2CB1 JUMP JUMPDEST SWAP2 POP PUSH2 0x2B88 DUP4 PUSH2 0x2CB1 JUMP JUMPDEST SWAP3 POP DUP3 PUSH2 0x2B98 JUMPI PUSH2 0x2B97 PUSH2 0x2D96 JUMP JUMPDEST JUMPDEST DUP3 DUP3 DIV SWAP1 POP SWAP3 SWAP2 POP POP JUMP JUMPDEST PUSH1 0x0 PUSH2 0x2BAE DUP3 PUSH2 0x2CB1 JUMP JUMPDEST SWAP2 POP PUSH2 0x2BB9 DUP4 PUSH2 0x2CB1 JUMP JUMPDEST SWAP3 POP DUP2 PUSH32 0xFFFFFFFFFFFFFFFFFFFFFFFFFFFFFFFFFFFFFFFFFFFFFFFFFFFFFFFFFFFFFFFF DIV DUP4 GT DUP3 ISZERO ISZERO AND ISZERO PUSH2 0x2BF2 JUMPI PUSH2 0x2BF1 PUSH2 0x2D67 JUMP JUMPDEST JUMPDEST DUP3 DUP3 MUL SWAP1 POP SWAP3 SWAP2 POP POP JUMP JUMPDEST PUSH1 0x0 PUSH2 0x2C08 DUP3 PUSH2 0x2CB1 JUMP JUMPDEST SWAP2 POP PUSH2 0x2C13 DUP4 PUSH2 0x2CB1 JUMP JUMPDEST SWAP3 POP DUP3 DUP3 LT ISZERO PUSH2 0x2C26 JUMPI PUSH2 0x2C25 PUSH2 0x2D67 JUMP JUMPDEST JUMPDEST DUP3 DUP3 SUB SWAP1 POP SWAP3 SWAP2 POP POP JUMP JUMPDEST PUSH1 0x0 PUSH2 0x2C3C DUP3 PUSH2 0x2C91 JUMP JUMPDEST SWAP1 POP SWAP2 SWAP1 POP JUMP JUMPDEST PUSH1 0x0 PUSH2 0x2C4E DUP3 PUSH2 0x2C91 JUMP JUMPDEST SWAP1 POP SWAP2 SWAP1 POP JUMP JUMPDEST PUSH1 0x0 DUP2 ISZERO ISZERO SWAP1 POP SWAP2 SWAP1 POP JUMP JUMPDEST PUSH1 0x0 DUP2 SWAP1 POP SWAP2 SWAP1 POP JUMP JUMPDEST PUSH1 0x0 DUP2 SWAP1 POP PUSH2 0x2C79 DUP3 PUSH2 0x300D JUMP JUMPDEST SWAP2 SWAP1 POP JUMP JUMPDEST PUSH1 0x0 DUP2 SWAP1 POP PUSH2 0x2C8C DUP3 PUSH2 0x3021 JUMP JUMPDEST SWAP2 SWAP1 POP JUMP JUMPDEST PUSH1 0x0 PUSH20 0xFFFFFFFFFFFFFFFFFFFFFFFFFFFFFFFFFFFFFFFF DUP3 AND SWAP1 POP SWAP2 SWAP1 POP JUMP JUMPDEST PUSH1 0x0 DUP2 SWAP1 POP SWAP2 SWAP1 POP JUMP JUMPDEST PUSH1 0x0 PUSH2 0x2CC6 DUP3 PUSH2 0x2D15 JUMP JUMPDEST SWAP1 POP SWAP2 SWAP1 POP JUMP JUMPDEST PUSH1 0x0 PUSH2 0x2CD8 DUP3 PUSH2 0x2CDF JUMP JUMPDEST SWAP1 POP SWAP2 SWAP1 POP JUMP JUMPDEST PUSH1 0x0 PUSH2 0x2CEA DUP3 PUSH2 0x2C91 JUMP JUMPDEST SWAP1 POP SWAP2 SWAP1 POP JUMP JUMPDEST PUSH1 0x0 PUSH2 0x2CFC DUP3 PUSH2 0x2C6B JUMP JUMPDEST SWAP1 POP SWAP2 SWAP1 POP JUMP JUMPDEST PUSH1 0x0 PUSH2 0x2D0E DUP3 PUSH2 0x2C7E JUMP JUMPDEST SWAP1 POP SWAP2 SWAP1 POP JUMP JUMPDEST PUSH1 0x0 PUSH2 0x2D20 DUP3 PUSH2 0x2D27 JUMP JUMPDEST SWAP1 POP SWAP2 SWAP1 POP JUMP JUMPDEST PUSH1 0x0 PUSH2 0x2D32 DUP3 PUSH2 0x2C91 JUMP JUMPDEST SWAP1 POP SWAP2 SWAP1 POP JUMP JUMPDEST PUSH1 0x0 PUSH2 0x2D44 DUP3 PUSH2 0x2D4B JUMP JUMPDEST SWAP1 POP SWAP2 SWAP1 POP JUMP JUMPDEST PUSH1 0x0 PUSH2 0x2D56 DUP3 PUSH2 0x2DF4 JUMP JUMPDEST SWAP1 POP SWAP2 SWAP1 POP JUMP JUMPDEST PUSH1 0x0 DUP2 SWAP1 POP SWAP2 SWAP1 POP JUMP JUMPDEST PUSH32 0x4E487B7100000000000000000000000000000000000000000000000000000000 PUSH1 0x0 MSTORE PUSH1 0x11 PUSH1 0x4 MSTORE PUSH1 0x24 PUSH1 0x0 REVERT JUMPDEST PUSH32 0x4E487B7100000000000000000000000000000000000000000000000000000000 PUSH1 0x0 MSTORE PUSH1 0x12 PUSH1 0x4 MSTORE PUSH1 0x24 PUSH1 0x0 REVERT JUMPDEST PUSH32 0x4E487B7100000000000000000000000000000000000000000000000000000000 PUSH1 0x0 MSTORE PUSH1 0x21 PUSH1 0x4 MSTORE PUSH1 0x24 PUSH1 0x0 REVERT JUMPDEST PUSH1 0x0 DUP2 PUSH1 0x60 SHL SWAP1 POP SWAP2 SWAP1 POP JUMP JUMPDEST PUSH32 0x6E6674206E6F74206F70656E6564000000000000000000000000000000000000 PUSH1 0x0 DUP3 ADD MSTORE POP JUMP JUMPDEST PUSH32 0x4F776E61626C653A206F6E6C79206F776E65722063616E2063616C6C20746869 PUSH1 0x0 DUP3 ADD MSTORE PUSH32 0x732066756E6374696F6E00000000000000000000000000000000000000000000 PUSH1 0x20 DUP3 ADD MSTORE POP JUMP JUMPDEST PUSH32 0x56616C7565206E6F74206D617463686564000000000000000000000000000000 PUSH1 0x0 DUP3 ADD MSTORE POP JUMP JUMPDEST PUSH32 0x4F776E61626C653A206E6577206F776E657220697320746865207A65726F2061 PUSH1 0x0 DUP3 ADD MSTORE PUSH32 0x6464726573730000000000000000000000000000000000000000000000000000 PUSH1 0x20 DUP3 ADD MSTORE POP JUMP JUMPDEST PUSH32 0x6F6E6C7920666F72206D61726B6574206F70657261746F720000000000000000 PUSH1 0x0 DUP3 ADD MSTORE POP JUMP JUMPDEST PUSH32 0x4D61726B6574206F7264657220697320616C7265616479206F70656E65640000 PUSH1 0x0 DUP3 ADD MSTORE POP JUMP JUMPDEST PUSH32 0x4D61726B6574206F72646572206973206E6F74206F70656E6564000000000000 PUSH1 0x0 DUP3 ADD MSTORE POP JUMP JUMPDEST PUSH32 0x6E6674206973206E6F74206F70656E20666F722041756374696F6E0000000000 PUSH1 0x0 DUP3 ADD MSTORE POP JUMP JUMPDEST PUSH32 0x50726963652053686F756C642062652067726561746572207468656E20300000 PUSH1 0x0 DUP3 ADD MSTORE POP JUMP JUMPDEST PUSH32 0x656E642050726963652053686F756C642062652067726561746572207468656E PUSH1 0x0 DUP3 ADD MSTORE PUSH32 0x2070726963650000000000000000000000000000000000000000000000000000 PUSH1 0x20 DUP3 ADD MSTORE POP JUMP JUMPDEST PUSH1 0x4 DUP2 LT PUSH2 0x301E JUMPI PUSH2 0x301D PUSH2 0x2DC5 JUMP JUMPDEST JUMPDEST POP JUMP JUMPDEST PUSH1 0x3 DUP2 LT PUSH2 0x3032 JUMPI PUSH2 0x3031 PUSH2 0x2DC5 JUMP JUMPDEST JUMPDEST POP JUMP JUMPDEST PUSH2 0x303E DUP2 PUSH2 0x2C31 JUMP JUMPDEST DUP2 EQ PUSH2 0x3049 JUMPI PUSH1 0x0 DUP1 REVERT JUMPDEST POP JUMP JUMPDEST PUSH2 0x3055 DUP2 PUSH2 0x2C43 JUMP JUMPDEST DUP2 EQ PUSH2 0x3060 JUMPI PUSH1 0x0 DUP1 REVERT JUMPDEST POP JUMP JUMPDEST PUSH2 0x306C DUP2 PUSH2 0x2C55 JUMP JUMPDEST DUP2 EQ PUSH2 0x3077 JUMPI PUSH1 0x0 DUP1 REVERT JUMPDEST POP JUMP JUMPDEST PUSH2 0x3083 DUP2 PUSH2 0x2C61 JUMP JUMPDEST DUP2 EQ PUSH2 0x308E JUMPI PUSH1 0x0 DUP1 REVERT JUMPDEST POP JUMP JUMPDEST PUSH2 0x309A DUP2 PUSH2 0x2CB1 JUMP JUMPDEST DUP2 EQ PUSH2 0x30A5 JUMPI PUSH1 0x0 DUP1 REVERT JUMPDEST POP JUMP INVALID LOG2 PUSH5 0x6970667358 0x22 SLT KECCAK256 SWAP9 0x4A 0x4D 0x48 0x2C 0xD1 SWAP11 0xA8 CREATE2 0xE8 CALLCODE 0x49 0xE1 DUP10 PUSH29 0x46FDAE2444485993F6F81DEFF95221800964736F6C6343000804003300 "
				},
				"gasEstimates": {
					"creation": {
						"codeDepositCost": "2502000",
						"executionCost": "infinite",
						"totalCost": "infinite"
					},
					"external": {
						"_feeDestinationAddress()": "1238",
						"_feePercentage()": "1195",
						"_wrapToken()": "1346",
						"cancel(address,uint256)": "infinite",
						"closeMarketForAuctionType(address,uint256,uint256,address)": "infinite",
						"closeMarketForFixedType(address,uint256)": "infinite",
						"getMarketObj(address,uint256)": "infinite",
						"markets(bytes32)": "infinite",
						"openMarketForAuctionType(address,uint256,uint256,uint256)": "infinite",
						"openMarketForFixedType(address,uint256,uint256)": "infinite",
						"owner()": "1311",
						"renounceOwnership()": "24301",
						"setFeeDestinationAddress(address)": "22257",
						"setFeePercentage(uint256)": "21354",
						"transferOwnership(address)": "24678"
					},
					"internal": {
						"getFeePercentage(uint256,uint256)": "infinite",
						"getPrivateUniqueKey(address,uint256)": "infinite",
						"openMarket(address,uint256,uint256,enum NFTMarketplace.EOrderType,uint256)": "infinite"
					}
				},
				"methodIdentifiers": {
					"_feeDestinationAddress()": "10ae7085",
					"_feePercentage()": "f699343e",
					"_wrapToken()": "cb278aad",
					"cancel(address,uint256)": "98590ef9",
					"closeMarketForAuctionType(address,uint256,uint256,address)": "1f40ff84",
					"closeMarketForFixedType(address,uint256)": "f896cad6",
					"getMarketObj(address,uint256)": "6548d2c2",
					"markets(bytes32)": "7564912b",
					"openMarketForAuctionType(address,uint256,uint256,uint256)": "9677d02e",
					"openMarketForFixedType(address,uint256,uint256)": "ec102464",
					"owner()": "8da5cb5b",
					"renounceOwnership()": "715018a6",
					"setFeeDestinationAddress(address)": "26f8a07a",
					"setFeePercentage(uint256)": "ae06c1b7",
					"transferOwnership(address)": "f2fde38b"
				}
			},
			"storageLayout": {
				"storage": [
					{
						"astId": 1196,
						"contract": "contracts/NFTMarketplace.sol:NFTMarketplace",
						"label": "_owner",
						"offset": 0,
						"slot": "0",
						"type": "t_address"
					},
					{
						"astId": 518,
						"contract": "contracts/NFTMarketplace.sol:NFTMarketplace",
						"label": "_wrapToken",
						"offset": 0,
						"slot": "1",
						"type": "t_contract(IERC20)374"
					},
					{
						"astId": 520,
						"contract": "contracts/NFTMarketplace.sol:NFTMarketplace",
						"label": "_feePercentage",
						"offset": 0,
						"slot": "2",
						"type": "t_uint256"
					},
					{
						"astId": 522,
						"contract": "contracts/NFTMarketplace.sol:NFTMarketplace",
						"label": "_feeDestinationAddress",
						"offset": 0,
						"slot": "3",
						"type": "t_address_payable"
					},
					{
						"astId": 527,
						"contract": "contracts/NFTMarketplace.sol:NFTMarketplace",
						"label": "markets",
						"offset": 0,
						"slot": "4",
						"type": "t_mapping(t_bytes32,t_struct(Market)515_storage)"
					}
				],
				"types": {
					"t_address": {
						"encoding": "inplace",
						"label": "address",
						"numberOfBytes": "20"
					},
					"t_address_payable": {
						"encoding": "inplace",
						"label": "address payable",
						"numberOfBytes": "20"
					},
					"t_bytes32": {
						"encoding": "inplace",
						"label": "bytes32",
						"numberOfBytes": "32"
					},
					"t_contract(IERC20)374": {
						"encoding": "inplace",
						"label": "contract IERC20",
						"numberOfBytes": "20"
					},
					"t_enum(EOrderStatus)496": {
						"encoding": "inplace",
						"label": "enum NFTMarketplace.EOrderStatus",
						"numberOfBytes": "1"
					},
					"t_enum(EOrderType)491": {
						"encoding": "inplace",
						"label": "enum NFTMarketplace.EOrderType",
						"numberOfBytes": "1"
					},
					"t_mapping(t_bytes32,t_struct(Market)515_storage)": {
						"encoding": "mapping",
						"key": "t_bytes32",
						"label": "mapping(bytes32 => struct NFTMarketplace.Market)",
						"numberOfBytes": "32",
						"value": "t_struct(Market)515_storage"
					},
					"t_struct(Market)515_storage": {
						"encoding": "inplace",
						"label": "struct NFTMarketplace.Market",
						"members": [
							{
								"astId": 498,
								"contract": "contracts/NFTMarketplace.sol:NFTMarketplace",
								"label": "contractAddress",
								"offset": 0,
								"slot": "0",
								"type": "t_address"
							},
							{
								"astId": 500,
								"contract": "contracts/NFTMarketplace.sol:NFTMarketplace",
								"label": "tokenId",
								"offset": 0,
								"slot": "1",
								"type": "t_uint256"
							},
							{
								"astId": 503,
								"contract": "contracts/NFTMarketplace.sol:NFTMarketplace",
								"label": "orderType",
								"offset": 0,
								"slot": "2",
								"type": "t_enum(EOrderType)491"
							},
							{
								"astId": 506,
								"contract": "contracts/NFTMarketplace.sol:NFTMarketplace",
								"label": "orderStatus",
								"offset": 1,
								"slot": "2",
								"type": "t_enum(EOrderStatus)496"
							},
							{
								"astId": 508,
								"contract": "contracts/NFTMarketplace.sol:NFTMarketplace",
								"label": "askAmount",
								"offset": 0,
								"slot": "3",
								"type": "t_uint256"
							},
							{
								"astId": 510,
								"contract": "contracts/NFTMarketplace.sol:NFTMarketplace",
								"label": "maxAskAmount",
								"offset": 0,
								"slot": "4",
								"type": "t_uint256"
							},
							{
								"astId": 512,
								"contract": "contracts/NFTMarketplace.sol:NFTMarketplace",
								"label": "currentOwner",
								"offset": 0,
								"slot": "5",
								"type": "t_address_payable"
							},
							{
								"astId": 514,
								"contract": "contracts/NFTMarketplace.sol:NFTMarketplace",
								"label": "newOwner",
								"offset": 0,
								"slot": "6",
								"type": "t_address"
							}
						],
						"numberOfBytes": "224"
					},
					"t_uint256": {
						"encoding": "inplace",
						"label": "uint256",
						"numberOfBytes": "32"
					}
				}
			},
			"userdoc": {
				"events": {
					"OwnershipTransferred(address,address)": {
						"notice": "Event OwnershipTransferred is used to log that a ownership change of the token has occured"
					}
				},
				"kind": "user",
				"methods": {
					"owner()": {
						"notice": "owner() returns the currently assigned owner of the Token"
					},
					"renounceOwnership()": {
						"notice": "renounceOwnership will set the owner to zero address This will make the contract owner less, It will make ALL functions with onlyOwner no longer callable. There is no way of restoring the owner"
					},
					"transferOwnership(address)": {
						"notice": "transferOwnership will assign the {newOwner} as owner"
					}
				},
				"version": 1
			}
		}
	}
}